:400000000080002011000000916300009163000080B500AF024A034B1B68136006F0E6F9BC760040FA46004010B5054C237833B9044B13B10448AFF300800123237010BD4A
:400040001882FF1F00000000D8C60000084B10B51BB108480849AFF300800848036803B910BD074B002BFBD0BDE81040184700BF00000000D8C600001C82FF1F0881FF1FE3
:400080000000000090B484B000AF7860084611461A460346FB700B46BB7013467B70BC783B7E2344DCB22346013BDCB27B6893F839207B6893F83B30FA73BB73BB787B7357
:4000C00023463B73BA7B7B7B9A420DD3FA7B3B7B9A4201D8012314E07A7B3B7B9A4201D901230EE000230CE0FA7B3B7B9A4207D87A7B3B7B9A4201D9012302E0002300E038
:400100000023002B01D1002332E0FC787B782344DCB22346013BDCB27B6893F838207B6893F83A30FA72BB72FB787B7223463B72BA7A7B7A9A420DD3FA7A3B7A9A4201D86B
:40014000012314E07A7A3B7A9A4201D901230EE000230CE0FA7A3B7A9A4207D87A7A3B7A9A4201D9012302E0002300E0002300BF18461037BD4690BC704700BF90B585B0D5
:4001800000AFF860B9601346FB71BB689C68FB79F86801211A460023A047034618461437BD4690BD90B585B000AFF860B9601346FB71BB689C68FB79F86803211A46002390
:4001C000A0471437BD4690BD90B583B000AF786039603B689C687868042100220023A0470C37BD4690BD00BF90B583B000AF786039603B689C687868042101220023A0474A
:400200000C37BD4690BD00BF90B585B000AFF860B9601346FB71BB689C68FB79F86802211A460023A0471437BD4690BD90B585B000AFF860B9601346FB71BB689C68FB79F0
:40024000F86805211A460023A047034618461437BD4690BD90B585B000AFF860B9603B601346FB71BB689C68FB79F86806211A463B68A047034618461437BD4690BD00BF45
:4002800080B586B000AFF860B9607A600023FB757B681B78BB75FB7D002B10D1BB7DFF2B0AD0BB7DF868B9681A46FFF7BFFF0346002B63D1002365E00123FB755EE0BB7DF9
:4002C000FF2B0AD1BB7DF868B9681A46FFF7AEFF0346002B50D1002354E0BB7DFE2B02D100BF01234EE0BB7DEF2B45D8BB7DDF2B09D9BB7D03F00F03DBB2F868B9681A46CE
:40030000FFF782FF38E0BB7DCF2B09D9BB7D03F00F03DBB2F868B9681A46FFF743FF2BE0BB7DBF2B1CD9F868B968FFF74DFFBB7D03F00F03BB75BB7D1B01BB75BB7D0233F4
:40034000BB75BB7D9BB2184601F050FDF868B968FFF74AFFBB7D9BB2184601F047FD0BE0BB7DBD2B08D8BB7D5BB2002B04DBBB7D9BB2184601F03AFD0023FB757B68013365
:400380007B6085E718461837BD4680BD80B485B000AFF8607B600B46FB721346BB72FB7A062B11D801A252F823F000BFC9030000C9030000C9030000C9030000C903000030
:4003C000C9030000C9030000012318461437BD465DF8047B704700BF80B483B000AF78600B46FB70FB787A6813447B607B681B7818460C37BD465DF8047B704780B485B00C
:4004000000AF78600B46FB70FB787A6813447B607B681B78FB817B6801337B60FB891B02FB817B681B789AB2FB891344FB81FB8918461437BD465DF8047B704780B582B0B6
:4004400000AF786078680021FFF7C6FF034618460837BD4680BD00BF80B582B000AF78607868FFF7EBFF0346012B05D0022B05D0002B05D1062304E0032302E0062300E03B
:40048000032318460837BD4680BD00BF80B582B000AF786078680521FFF79EFF034618460837BD4680BD00BF80B582B000AF786078680621FFF7A2FF034618460837BD4699
:4004C00080BD00BF80B582B000AF786078680821FFF794FF034618460837BD4680BD00BF80B582B000AF786078680A21FFF774FF034618460837BD4680BD00BF80B582B0ED
:4005000000AF786078680B21FFF766FF034618460837BD4680BD00BF80B582B000AF786078680C21FFF758FF0346DBB25BB218460837BD4680BD00BF80B582B000AF786033
:4005400078680D21FFF748FF0346DBB25BB218460837BD4680BD00BF80B582B000AF786078680E21FFF738FF0346DBB25BB218460837BD4680BD00BF80B582B000AF78601A
:4005800078680F21FFF728FF0346DBB25BB218460837BD4680BD00BF80B582B000AF786078681021FFF718FF0346DBB25BB218460837BD4680BD00BF80B582B000AF786016
:4005C00039607868FFF748FF03461A463B68134418460837BD4680BD80B584B000AF786039607B689B681846FFF728FF0346002B01D0022B1BD13B681A787B68DA773B6871
:400600005A787B6883F820203B6803331B78DAB27B681A773B6804331B78DAB27B685A773B6805331B78DAB27B689A7730E03B681B78FB73FB7B03F00F03DAB27B689A7794
:400640007B689B7FDBB2023BDBB2DAB27B689A77FB7B1B09FB73FA7B7B685A773B685B78FB73FB7B03F00F03DAB27B6883F82020FB7B1B09FB737B68FA7BDA773B689B7885
:40068000FB73FB7B1B09FB73FA7B7B681A7700BF1037BD4680BD00BF80B483B000AF78607B6800221A777B680022DA777B68002283F820207B6800225A777B6800229A7750
:4006C0000C37BD465DF8047B704700BF80B586B000AF78600B46FB707B689B687B617B689B681846FFF7AAFE03463B747B689B681846FFF7B1FE0346FB73FF237B743B7CB8
:40070000012B01D10F237B747B689B681846FFF7E7FE0346FB747B689B681846FFF7EEFE0346BB737B689B681846FFF7CBFE0346BB81FB78602B09D9BB89002B06D0BB8935
:400740007A6913447B616123FB7416E07B689B681846FFF7A9FE0346BB81FB78402B09D9BB89002B06D0BB897A6913447B614123FB7402E07B6911337B61FA78BB7B9A4278
:4007800004D97868FFF788FF002332E0FB7CBB74BA7CBB7B9A4228D87B691B78FF2B03D17B6901337B6117E0BA7CFB789A4205D178687969FFF710FF7B691AE07B69023363
:4007C0001A787B7C1340DBB21A467B6913447B61FB7B7A6913447B61BA7CBB7B9A4200D103E0BB7C0133BB74D6E77868FFF754FF002318461837BD4680BD00BF90B589B0C4
:4008000002AF7860084611461A460346FB700B46BB7013467B707B7878681946FFF756FFF860FB68002B01D1002369E07B689B681846F968FFF7C0FE78617B68DB7FFB7239
:400840007B6893F82030BB727B685B7FDAB2FB781344FB707B689B7FDBB2BA78D31ABB70BB78013BBB70BA78BB7AD31ADBB20133DAB2F978FC7ABB7A009378682346FFF712
:4008800001FC0346002B02D17B681B7F38E0FB7A0733FB72FB7ADB08FB72BB783B743A7CBB7AD31A3B743B7C01333B740023BB7420E0FB787B740023FB7411E07B691B78CD
:4008C000797C3A7C00937868002300F07FFB7B6901337B617B7C08337B74FB7C0133FB74FA7CFB7A9A42E9D33B7C01333B74BB7C0133BB74BA7CBB7A9A42DAD37B681B7FF6
:400900005BB218461C37BD4690BD00BF80B586B000AFF8607B600B46FB721346BB720023FB75FB685B6AF868984703461A46BB7A1344BB7213E07B681B78F97ABA7AF8688D
:40094000FFF75CFF0346BB75BA7DFB7A1344FB72BA7DFB7D1344FB757B6801337B607B681B78002BE7D1FB7D18461837BD4680BD80B584B000AF78607B689B68002B00D145
:400980006CE07B6893F82830002B14D17B689B681846FFF77BFD0346DAB27B6883F829207B689B681846FFF7B7FD03461A467B6883F82A202DE07B6893F82830012B14D1C4
:4009C0007B689B681846FFF7D7FD03461A467B6883F829207B689B681846FFF7DDFD03461A467B6883F82A2013E07B689B681846FFF7A2FD03461A467B6883F829207B6835
:400A00009B681846FFF7A8FD03461A467B6883F82A207B6893F829305BB29AB27B6893F82A305BB29BB2D31A9BB2FB817B6893F82B30402B0DD0FB89DBB2FB817B6893F865
:400A40002B309BB2FA8902FB03F3FB81FB899B09FB81FB89DAB27B6883F82C201037BD4680BD00BF80B483B000AF7860002318460C37BD465DF8047B704700BF80B483B0D2
:400A800000AF78607B68034A5A620C37BD465DF8047B7047650A000080B582B000AF786039607B689A683B689A4208D07B683A689A607868FFF75CFF7868FFF7DFFF08371D
:400AC000BD4680BD80B584B000AF7860084611461A460346FB700B46BB7013467B7000237B72FA787B789A4204D9FA787B78D31A7B7303E07A78FB78D31A7B73BA783B7ED1
:400B00009A4204D9BA783B7ED31A3B7303E03A7EBB78D31A3B733A7B7B7B9A4213D901237B727B7B3B723B7B7B733B7A3B73FB783B72BB78FB703B7ABB707B783B723B7EE8
:400B40007B703B7A3B76FA787B789A420BD9FB783B727B78FB703B7A7B70BB783B723B7EBB703B7A3B767B7B5B08DBB2FB723A7EBB789A4202D90123BB7201E0FF23BB7241
:400B8000BB78BB737B78FF2B02D17B78013B7B70FB78FB7326E07B7A002B07D1FA7BBB7B786811461A4600F0FFF906E0BA7BFB7B786811461A4600F0F7F9FA7A3B7BD31AA2
:400BC000DBB2FB7297F90B30002B08DABA7ABB7B1344BB73FA7A7B7B1344DBB2FB72FB7B0133FB73FA7B7B789A42D4D91037BD4680BD00BF90B585B000AFF860B9603B60F5
:400C00001346FB71BB681C68FB79F868B9681A463B68A047034618461437BD4690BD00BF80B584B000AF786039607B685B6B02209847786839680A220023FFF7DBFF03464C
:400C4000FB737B685B6B032098477B685B6B00209847FB7B18461037BD4680BD80B582B000AF786039607B685B6B022098477B685B6B012098477868396814220023FFF7AE
:400C8000B9FF7B683833786839681722FFF7B2FF7B685B6B002098470837BD4680BD00BF80B584B000AF786039607B685B6B022098477B685B6B0120984778683968152253
:400CC0000023FFF797FF0346FB73FB7B002B06D07B683833786839681722FFF78BFF7B685B6B00209847FB7B18461037BD4680BD80B584B000AFF860B9601346FB71FB1D26
:400D0000F868B9680F22FFF775FF034618461037BD4680BD80B586B000AFF860B96011461A460B46FB711346BB71FB682D337B617B69FA791A707B69BA795A70F868B96803
:400D400032227B69FFF756FF1837BD4680BD00BF80B586B000AFF860B96011461A460B46FB711346BB71FB682D337B617B69FA791A707B69BA795A707B6997F82020DA70C0
:400D80007B6997F824209A70F868B9683B227B69FFF730FF1837BD4680BD00BF80B584B000AF7860396007F10F03786839684622FFF720FFFB7B18461037BD4680BD00BF92
:400DC00080B584B000AF7860396007F10F03786839684722FFF70EFFFB7B18461037BD4680BD00BF80B582B000AF786039607868396848220023FFF7FDFE034618460837ED
:400E0000BD4680BD80B582B000AF78607B685B6878681946FFF7C2FF03461A467B681A707B685B6878681946FFF7CAFF03461A467B685A707B685B6878681946FFF7D2FF2C
:400E400003461A467B68DA747B685A687B683833786811461722FFF7CDFE0837BD4680BD80B582B000AF78607B6800229A607B680022DA607B6800225A747B6801221A7462
:400E80007B6822229A747B6800229A617868012100F0B8F87868FFF7F1FD7B68012283F828207B68002283F829207B68002283F82A207B68402283F82B207B68002283F8B0
:400EC0002C207B68024A5A630837BD4680BD00BFD91D000080B582B000AF78607B685B6878681946FFF79CFE0346002B01D1002303E07868FFF786FF012318460837BD46B8
:400F000080BD00BF80B584B000AFF860B9607A60F868FFF7A5FFFB68BA685A60FB685B687A689A60F868FFF7D5FF034618461037BD4680BD80B582B000AF78607B685B682B
:400F400078681946FFF78AFE0837BD4680BD00BF80B582B000AF78607B689B69002B03D07B689B69786898477B685B6878681946FFF796FE034618460837BD4680BD00BFA9
:400F800080B582B000AF78600B46FB707B685A68FB78786811461A46FFF7AAFE034618460837BD4680BD00BF80B582B000AF78600B46FB701346BB707B685968FA78BB78DE
:400FC0007868FFF7A7FE0837BD4680BD90B585B002AF7860084611461A460346FB700B46BB7013467B707B685968FA78BC787B7800933B7E019378682346FFF7A9FE0C3735
:40100000BD4690BD80B483B000AF78600B46FB707B68FA7883F831200C37BD465DF8047B704700BF80B485B000AF78607B68DB7CFB73FB7B282B01D1FF2306E07B68DB7C90
:40104000022B01D1032300E0012318461437BD465DF8047B704700BF80B582B000AF78607B68DB7C302B08D17B68FF2283F831207B68FF2283F8322007E07868FFF7D2FFC6
:40108000034678681946FFF7BDFF0837BD4680BD80B483B000AF7860002318460C37BD465DF8047B704700BF80B582B000AF78607868FFF7EDFF034678681946FFF7A2FFA9
:4010C0000837BD4680BD00BF80B483B000AF78607B6800229A707B681A787B68DA707B68DB78013BDAB27B68DA707B6800221A710C37BD465DF8047B704700BF90B482B052
:4011000000AF78607B689A787B681B781344DAB27B689A707B689A787B685B789A4201D3002318E07B681B790133DAB27B681A717B68DC787B681B782344DCB27B685B787A
:40114000A34204D87B685C782346013BDCB27B682246DA70012318460837BD4690BC704780B485B000AF78607B689B68FB60FB68BB607B685B791A46BB681344BB60FB68AA
:401180005A1CFA6000221A70FA68BB689A42F6D11437BD465DF8047B704700BF80B485B000AF78600B46FB701346BB707B68DB78FA789A4294BF01230023DBB2FB737B68C7
:4011C0009B78BA789A422CBF01230023DBB2BB73FA78BB789A428CBF01230023DBB27B73FB7B3B73FA7BBB7B1340FB73BA7B7B7B1340BB737A7B3B7B13407B73FA7BBB7B80
:401200001343FB73FA7B7B7B1343FB73FB7B03F00103DBB218461437BD465DF8047B704780B483B000AF786039603B6800221A707B689A783B685A707B685A793B689A70EF
:401240003B689B78013BDAB23B689A707B68DA783B68DA700C37BD465DF8047B704700BF80B584B000AF786039603B685B78FB73FB7BBB733B68DB78032B13D801A252F884
:4012800023F000BFA512000095120000A51200009D120000BB7B0833BB7303E0FB7B083BFB7300BFFA7BBB7B786811461A46FFF775FF034618461037BD4680BD80B584B0ED
:4012C00000AFF860B9607A60FB685A79FB689B68B8687968FEF7BEFF034618461037BD4680BD00BF90B484B000AF7860084611461A460346FB700B46BB7013467B707B685D
:401300009B68FB607B689B78BA78D31ABB700124BB7803F00703BB702246BB7802FA03F3DCB2FB78FA681344FB607B78002B06D0FB681B782343DAB2FB681A7007E0E34317
:40134000DCB2FB681B782340DAB2FB681A701037BD4690BC704700BF80B582B000AF786039603B685A787B689B789A4200D216E03B685A787B68DB789A4200D90FE03B6879
:401380001A787B685B799A4200D308E03B6819783B685A783B681B797868FFF7A3FF0837BD4680BD90B585B000AF786039603B689C780023FB730023BB733B68DB78032B1F
:4013C0001AD801A252F823F0D9130000E1130000E9130000F1130000FB7B0133FB730BE0BB7B0133BB7307E0FB7B013BFB7303E0BB7B013BBB7300BFE3B25BB2002B03DA8D
:4014000078683968FFF7A8FF3B681A78FB7B1344DAB23B681A703B685A78BB7B1344DAB23B685A706300DCB2002CE5D11437BD4690BD00BF80B586B000AFF860B9603B6085
:401440001346FB71BB685B687B61FB790A3B3E2B00F2BA8001A252F823F000BFC9150000C9150000C9150000C9150000C9150000C9150000C9150000C9150000C91500000A
:40148000C91500007D1500008D150000C9150000A7150000C9150000C9150000C9150000C9150000C9150000C9150000C9150000C9150000C9150000C9150000C9150000F6
:4014C000C9150000C9150000C9150000C9150000C9150000C9150000C9150000C9150000C9150000C9150000C9150000C9150000C9150000C9150000C91500007315000062
:40150000C9150000C9150000C9150000C9150000C9150000C9150000C9150000C915000059150000C9150000C9150000C9150000C9150000C9150000C9150000C91500003B
:40154000C9150000C9150000C9150000B1150000BB150000C515000078693968FFF780FE0346002B04D078693968FFF71BFF2BE02AE078693968FFF7EFFE25E07869FFF73B
:40158000EFFD7B691846FFF79FFD1DE07B691846FFF7B4FD0346002B01D1002315E07869FFF7DEFD10E078693968FFF739FE0BE07B695A793B681A7006E07B695A783B68C8
:4015C0001A7001E0012300E0012318461837BD4680BD00BF80B483B000AF78607B681A897B685B8912B21BB29A4201DB00233AE07B689B899AB27B689B889BB213449BB2A1
:401600009AB27B689A817B68DB899AB27B68DB889BB213449BB29AB27B68DA817B68DB891BB2002B15DD7B689B899AB27B681B889BB213449BB29AB27B689A817B68DB8980
:401640009AB27B685B889BB2D31A9BB29AB27B68DA817B681B899BB29BB201339BB29AB27B681A81012318460C37BD465DF8047B704700BF80B487B000AFF86008461146B2
:401680001A4603467B810B463B811346FB80FA887B89D31A9BB2BB823A8C3B89D31A9BB29AB2FB685A80FB683A8C5A81FB683A891A81FB687A899A81B7F91430002B08DB12
:4016C000FB6801221A80BB8AFB82FB680022DA8110E0FB684FF6FF721A80BB8A5B429BB2FB82FB685B889BB2C3F101039BB29AB2FB68DA81B7F91420FB685B881BB292FBB3
:40170000F3F39AB2FB689A80B7F91630FA68528812B293FBF2F102FB01F29B1A9AB2FB68DA801C37BD465DF8047B704780B483B000AF78600B46FB70FB780133FB707B6865
:401740001B7EFA789A4201D30023FB70FB7818460C37BD465DF8047B704700BF80B483B000AF78600B46FB70FB78013BFB707B681B7EFA789A4203D37B681B7E013BFB7038
:40178000FB7818460C37BD465DF8047B704700BF80B584B000AF78600B467B8013467B707A78796813465B001344DB000B4428331B7AFB737A78796813465B001344DB0029
:4017C0000B4428335B68FA7B7868114698470346FB73FB7B7A689B0013445B88B7F902201BB29A4200D00AE07A78796813465B001344DB000B442833FA7B1A72DAE710376C
:40180000BD4680BD80B584B000AF78607B68484A5A647B68474ADA627B685B88FB817B685B88BB817B68002283F830200123FB7226E0FB7A7A689B0013445B88B7F90E20E0
:401840001BB29A4205DAFB7A7A689B0013445B88FB81FB7A7A689B0013445B88B7F90C201BB29A4209DD7B68FA7A83F83020FB7A7A689B0013445B88BB81FB7A0133FB7201
:401880007B681B7EFA7A9A42D3D37B68FA895A837B685B8B9AB2BB89D31A9BB29AB27B685A837B685B8B002B01D100233CE07B6893F830207B6883F84820B7F90C3078687F
:4018C00019460122FFF764FFB7F90C30786819460022FFF75DFF7B6801225A767B6893F830301A467B6833F822207B6893F8483019467B6833F8213012B21BB29A4203D036
:401900007B6800225A760EE07B685B8B9BB29BB2013B9BB29AB27B685A837B685B8B002B01D1002300E0012318461037BD4680BD2D1700005D17000090B585B000AF786061
:4019400039607B681B8DFB817B68B3F84030BB817B689B8F7B81B7F90A30002B00DA5FE0B7F90A303A685278934200DB58E0B7F90E20B7F90C309A4229DAB7F90C30002B58
:4019800000DA4DE0B7F90E303A681278934200DB46E0B7F90E30002B01DA0023FB81B7F90C303A681278934202DB3B681B78BB81FB89D9B27B89DCB2BB89DAB2FB89DBB2DF
:4019C000D31ADBB23868224600F09CF928E0B7F90E30002B00DA23E0B7F90C303A681278934200DB1CE0B7F90C30002B01DA0023FB81B7F90E303A681278934202DB3B681E
:401A00001B78FB81BB89D9B27B89DCB2FB89DAB2BB89DBB2D31ADBB23868224600F072F91437BD4690BD00BF90B589B002AF78600B46FB70FB785A1C13465B001344DB008C
:401A40007A68134404337B617B691B7DFB74FB7C7A689B0013445B883B82FA7C7B6833F82230FB817B691B69FA7C7868114698470346FB74FB7C7A689B0013445B88BB81DC
:401A8000FA7C7B6833F822307B817B69FA7C1A75B7F90E10B7F91020B7F90A40B7F90C30009378692346FFF7E5FD1C37BD4690BD80B584B000AF786039607B685B8BFB81B1
:401AC00078680021FFF7B0FF78680121FFF7ACFF7B685B7E002B09D07B681C331846FFF779FD7B6834331846FFF774FD78683968FFF722FF03E078680021FFF795FF7B68E9
:401B00001C331846FFF766FD0346002BF3D003E078680121FFF788FF7B6834331846FFF759FD0346002BF3D0FB899BB2013B9BB2FB81B7F90E30002BD8DC1037BD4680BDB1
:401B400080B483B000AF78607B6800221A760C37BD465DF8047B704780B485B000AFF860B96011461A460B46FB801346BB80FB681B7E052B13D8FB681B7E1946FB68FA881A
:401B800023F82120FB681B7EFA689B001344BA885A80FB681B7E0133DAB2FB681A761437BD465DF8047B704780B582B000AF786039607868FFF726FE0346002B00D103E02C
:401BC00078683968FFF774FF0837BD4680BD00BF80B500AF0148FFF7B3FF80BD7483FF1F80B582B000AF78600B467B8013463B80B7F90220B7F9003003487968FFF7ACFFC9
:401C00000837BD4680BD00BF7483FF1F80B582B000AF786003487968FFF7C6FF0837BD4680BD00BF7483FF1F80B584B000AFF860084611461A4603467B810B463B81134609
:401C4000FB80FFF7C5FFB7F90A20B7F90830F86811461A46FFF7C4FFB7F90620B7F91830F86811461A46FFF7BBFFB7F91C20B7F92030F86811461A46FFF7B2FFF868FFF708
:401C8000C5FF1037BD4680BD80B586B002AF7860084611461A460346FB700B46BB7013467B70FF23FB730DE0F978BA78FB7B009378680023FFF78AF97B78083B7B70FB7833
:401CC0000833FB707B78072BEED87B78002B15D07B7883F007037B707B7801337B70FA7B7B7803F0070302FA03F3FB73F978BA78FB7B009378680023FFF768F91037BD46CE
:401D000080BD00BF90B585B002AF7860084611461A460346FB700B46BB7013467B70F978BA787C780123009378682346FEF7AAF90346002B00D105E0F978BA787B7878685C
:401D4000FFF7A2FF0C37BD4690BD00BF80B582B000AF7860084611461A460346FB700B46BB7013467B70F978BA787B787868FFF78BFFBB780133BB703B7C013B3B743B7C32
:401D8000002BF0D10837BD4680BD00BF90B585B002AF7860084611461A460346FB700B46BB7013467B70F978BA787C783B7E009378682346FEF766F90346002B00D108E0D0
:401DC000F978BA787C783B7E009378682346FFF7BDFF0C37BD4690BD80B483B000AF0346FB710C37BD465DF8047B704780B582B000AF0346FB80FB88184605F035FA0837B8
:401E0000BD4680BD80B500AF012005F04FFA80BD80B500AF0A2005F049FA80BD90B587B000AFF8607B600B46FB721346BB72FB7A072B68D801A252F823F000BF071F0000F1
:401E40005D1E00008B1E00009D1E0000CD1E0000DB1E0000E91E0000E91E0000BB7A012B02D806F0A3FC0DE0BB7A022B02D806F09DFC07E0BB7A032B02D806F097FC01E07B
:401E800006F094FCFFF7BEFF3DE0FFF7C1FFBB7A184606F047FDFFF7BBFF34E0BB7A002B0ED10023FB7504E0FFF7B2FFFB7D0133FB75FB7D042BF7D9012006F051FD02E04E
:401EC000002006F04DFDFFF79DFF1CE0BB7A184606F00AFDFFF79CFF15E0BB7A184606F0A1FCFFF78FFF0EE07C6808E023465C1C1B78184606F096FCBB7A013BBB72BB7A4D
:401F0000002BF3D100BF012318461C37BD4690BD80B586B000AFF860B9603B601346FB71FB790A3B0B2B7AD801A252F823F000BF611F00001F2000001F2000001F200000A6
:401F40001F200000C51F000003200000112000001F2000001F2000001F200000771F0000F868B968FF22FEF709F9F868B968324AFEF786F953E0BB685B687B61F868B96817
:401F80002E4AFEF77DF97B691B7963F04F03DBB2F868B9681A46FEF749F9F868B9680122FEF732F97869F968BA68FFF787F90346002B01D100233AE0F868B9680022FEF7C3
:401FC000F1F82CE0F868B9680122FEF7EBF8F868B9680022FEF718F9F868B9688122FEF725F93B681B789B08DBB2F868B9681A46FEF71CF9F868B9680022FEF7D3F80123B8
:4020000015E0F868B9680E4AFEF73AF901230EE0F868B9680B4AFEF733F9012307E0FB79F868B9681A463B68FFF704FA034618461837BD4680BD00BFD8900300F8900300BF
:40204000009103000C91030080B500AF2D4B2E4A1A602E4B2E4A1A602E4B2F4A1A602F4B2F4A1A602F4B28221A702F4B4FF07E521A602E4B4FF000021A602D4B4FF000025C
:402080001A602C4B2C4A1A602C4B2D4A1A602D4B2D4A1A602D4B01221A702D4B07221A702C4B41F288321A602B4B4FF47A721A60642005F0D9F800F059F8284B01221A7076
:4020C000274B01221A70032004F09AFD254B00221A7003F0E3FF00F093F8234B1B680133214A1360204B1B6841F28732934208D90C4B1B78DBB2184604F068F81A4B002264
:402100001A60E6E72C84FF1F000002436C85FF1F0000F0413084FF1F000040403484FF1F00002041AE84FF1F7085FF1FC883FF1FF084FF1FCC83FF1F0AD7833F1885FF1F53
:4021400066662640B484FF1F14AEA740B384FF1F5885FF1F5884FF1F3C85FF1FC083FF1F3B85FF1F2085FF1F3483FF1F80B500AF62B6002007F076F905F038F906F096FDFD
:4021800005F00EFC05F0CAFC05F078FD05F034FE05F044FF05F0B8FA06F0F4F906F050FD07F022F90F481049104AFEF7ABFE0D483721FEF7E5FE06F0F1FB0D4B1B78184665
:4021C00003F0A0FF0B4B01221A7006F0F5F90A4B1B78184603F0CCFF04F0EAFC074B01221A7080BDDC83FF1F3081FF1F1D1E00005885FF1F3A85FF1FB384FF1FAA84FF1F4C
:4022000080B500AF4E4B1B78122B00F2978001A252F823F0CD22000061220000672200006D22000073220000972200009D220000A3220000A9220000792200007F220000E5
:40224000C7220000C1220000AF220000BB220000B5220000852200008B2200009122000000F016FA6BE000F073FA68E000F024FB65E000F099FD62E001F016FA5FE001F0C9
:4022800083FD5CE000F090FB59E000F0CBFB56E000F06AFD53E002F0E7F850E002F074F94DE002F0B7F94AE002F0FAF947E000F0A9F844E000F0F6F841E000F043F93EE0D5
:4022C00000F096F93BE000F04DF838E004F086FC03461A461B4B1A601A4B1B681A481B491A4608F017FE1A48FEF724FE1848FEF7B3FE17481749FEF7CFFB154828210C220C
:40230000154BFEF703FB12481249FEF7C5FB104802211C22114BFEF7F9FA0D480D49FEF7BBFB0B4804213C220D4BFEF7EFFA0848FEF70EFE0346002BD8D100E000BF80BD37
:402340003B85FF1F4C83FF1F8085FF1F18910300DC83FF1F587503001C910300249103003491030080B500AF1C4B1B6801331B4A13601A4B1B68B3F57A7F08D3184B1B7812
:402380001846002102F0CCF9144B00221A60154B1B78002B18D1144B1B78002B14D1134B1B78002B10D1124B1B78002B0CD1114B1B78002B08D1104B1B78002B04D105F018
:4023C000E3FA0346002B08D00C4B1A78044B1A700B4B1B68184603F06FFD80BD4083FF1F3B85FF1F3985FF1FB284FF1FFE84FF1F5184FF1F5084FF1F3885FF1FC083FF1F6F
:402400005884FF1F80B500AF1C4B1B6801331B4A13601A4B1B68B3F57A7F08D3184B1B781846002102F07CF9144B00221A60154B1B78002B18D1144B1B78002B14D1134B26
:402440001B78002B10D1124B1B78002B0CD1114B1B78002B08D1104B1B78002B04D105F093FA0346002B08D00C4B1A78044B1A700B4B1B68184603F01FFD80BD4083FF1FF0
:402480003B85FF1F3985FF1FB284FF1FFE84FF1F5184FF1F5084FF1F3885FF1FC083FF1F5884FF1F80B500AF1C4B1B6801331B4A13601A4B1B68B3F57A7F08D3184B1B781F
:4024C0001846002102F02CF9144B00221A60154B1B78002B18D1144B1B78002B14D1134B1B78002B10D1124B1B78002B0CD1114B1B78002B08D1104B1B78002B04D105F077
:4025000043FA0346002B08D00C4B1A78044B1A700B4B1B68184603F0CFFC80BD4083FF1F3B85FF1F3985FF1FB284FF1FFE84FF1F5184FF1F5084FF1F3885FF1FC083FF1F6E
:402540005884FF1F80B500AF1E4B00221A701E4B1B6801331C4A13601B4B1B68B3F57A7F08D31A4B1B781846002102F0D9F8164B00221A60164B1B78002B18D1154B1B78D8
:40258000002B14D1144B1B78002B10D1134B1B78002B0CD1124B1B78002B08D1114B1B78002B04D105F0F0F90346002B08D00E4B1A78064B1A700D4B1B68184603F07CFC9D
:4025C00080BD00BF2085FF1F4083FF1F3B85FF1F3985FF1FB284FF1FFE84FF1F5184FF1F5084FF1F3885FF1FC083FF1F5884FF1F80B500AF1C4B1B6801331B4A13601A4B33
:402600001B68B3F57A7F08D3184B1B781846002102F086F8144B00221A60154B1B78002B18D1144B1B78002B14D1134B1B78002B10D1124B1B78002B0CD1114B1B78002BA3
:4026400008D1104B1B78002B04D105F09DF90346002B08D00C4B1A78044B1A700B4B1B68184603F029FC80BD4083FF1F3B85FF1F3985FF1FB284FF1FFE84FF1F5184FF1FEC
:402680005084FF1F3885FF1FC083FF1F5884FF1F98B500AF2B4B1B6801332A4A1360294B1B68B3F57A7F0ED3274B1C780020032103F0A4FC0346DBB22046194602F030F8D7
:4026C000204B00221A6005F05FF90346002B37D00020032103F092FC0346032B0BD1032004F08EFA184B02221A70184B1B68184603F0E2FB24E00020032103F07FFC034630
:40270000022B0BD1032004F07BFA0F4B03221A700E4B1B68184603F0CFFB11E00020032103F06CFC0346002B0AD1032004F068FA054B05221A70054B1B68184603F0BCFBD0
:4027400098BD00BF4083FF1F3B85FF1F5884FF1F98B500AF4C4B00221A70002006F0F8F94A4B1B680133494A1360484B1B68B3F57A7F0ED3464B1C780020032103F03EFCC6
:402780000346DBB22046194601F0CAFF3F4B00221A6005F0F9F80346002B64D00220032103F02CFC0346032B16D1032004F028FA374B04221A70374B4FF07C521A60364B5C
:4027C0004FF07C521A60354B01221A70344B1B68184603F071FB46E00020032103F00EFC0346022B14D1032004F00AFA284B09221A702C4B2C4A1A602C4B2B4A1A60274B22
:4028000001221A70264B1B68184603F055FB2AE00020032103F0F2FB0346012B11D1032004F0EEF91A4B0A221A701E4B204A1A601A4B01221A701A4B1B68184603F03CFBE9
:4028400011E00020032103F0D9FB0346002B0AD1032004F0D5F90E4B01221A70104B1B68184603F029FB134B1B78002B0AD0032004F0C6F9064B01221A70094B1B681846D0
:4028800003F01AFB98BD00BF2085FF1F4083FF1F3B85FF1FF884FF1F5484FF1F5A85FF1F5884FF1FD084FF1F000028412485FF1F00007A445184FF1F98B500AF354B002202
:4028C0001A70002006F044F9334B1B680133324A1360314B1B68B3F57A7F0ED32F4B1C780020032103F08AFB0346DBB22046194601F016FF284B00221A6005F045F8034661
:40290000002B37D00220032103F078FB0346032B0BD1032004F074F9204B10221A70204B1B68184603F0C8FA24E00220032103F065FB0346022B0BD1032004F061F9174BF8
:4029400011221A70164B1B68184603F0B5FA11E00020032103F052FB0346002B0AD1032004F04EF90D4B01221A700D4B1B68184603F0A2FA0B4B1B78002B0AD0032004F0C2
:402980003FF9064B01221A70054B1B68184603F093FA98BD2085FF1F4083FF1F3B85FF1F5884FF1F5184FF1F98B500AF184B1B680133174A1360164B1B68B3F57A7F0ED31C
:4029C000144B1C780020032103F018FB0346DBB22046194601F0A4FE0D4B00221A600E4B1B78002B13D0032004F00AF9002006F039FD0A4B00221A70002006F0A9F8054B10
:402A000003221A70064B1B68184603F055FA98BD4083FF1F3B85FF1F5184FF1F2085FF1F5884FF1F90B583B000AFA94B1B687B60002006F0ABF8002006F0C6F8012006F092
:402A4000D7FBA44B1B680133A24A1360A24B1B78012B3CD106F0E2FC0346002B0DD19E4B00221A709D4B1A789D4B1A709B4B0F221A709C4803F020FA29E09B4B1B78012BDF
:402A800019D19A4B00221A80002006F01FF9002006F0E8FC002006F05BF8924803F00CFA8D4B00221A708D4B1A788D4B1A708B4B0E221A700BE0012006F04AF84FF4FA7056
:402AC00006F004F9022006F0CDFC06F0AFFB824B1B78002B0DD1854B00221A80002006F0F5F8002006F0BEFC06F008FC002006F02FF87F4B1B78002B4ED1764B1B68B3F5D0
:402B00007A7F0ED3754B1C780020022103F076FA0346DBB22046194601F002FE6D4B00221A6004F031FF0346002B35D0704B1B78002B0CBF01230023DBB21A466C4B1A708B
:402B40000020032103F05AFA0346022B03D1694B02221A7014E00020032103F04FFA0346012B03D1634B01221A7009E00020032103F044FA0346002B02D15E4B00221A700C
:402B80005D4B1B689BB21BB2184604F039F85B4B1B68184603F090F9554B1B78012B40F081804C4B1B68B3F57A7F0AD34B4B1A78504B1B781046194601F0B2FD454B0022C5
:402BC0001A6004F0E1FE0346002B15D0484B1B78002B0CBF01230023DBB21A46444B1A70444B1B789BB21BB2184604F009F8434B1B68184603F060F93D4B1B78012B51D113
:402C00003F4B1B78002B33D03E4B1B78DBB2DBB20133DBB2DAB23B4B1A70364B1B78022B08D1384B1B785BB2022B1CDD354B02221A7018E02F4B1B78012B08D1314B1B780C
:402C40005BB2032B0FDD2F4B03221A700BE0294B1B78002B07D12B4B1B785BB2012B02DD284B01221A70254B1B68184603F024F9254B1B78002B15D0224B1B78DBB2DBB240
:402C8000013BDBB2DAB21F4B1A701E4B1B785BB2002B02DA1B4B00221A70184B1B68184603F00AF9194B1B78002B37D0134B1B68184603F001F9084B1B78002B28D103F01D
:402CC00029F90346012B26D1034B01221A7022E03084FF1F4083FF1F2085FF1F3B85FF1FC083FF1F20A107002884FF1F3A83FF1F3884FF1F5985FF1F4883FF1F5884FF1F6E
:402D00003885FF1F5A85FF1F5084FF1F3985FF1F104B00221A70104B00221A700F4B1B78002B13D0032003F06BFF002006F09AFB084B00221A70002005F00AFF084B032224
:402D40001A70084B1B68184603F0B6F80C37BD4690BD00BF2085FF1F3884FF1F5184FF1F3B85FF1F5884FF1F98B500AF0C4B1B6801330B4A13600A4B1B68B3F57A7F0ED30E
:402D8000084B1C780020032103F038F90346DBB22046194601F0C4FC014B00221A6098BD4083FF1F3B85FF1F90B583B000AF012006F01EFA06F0A2FA714B1B687B60714BBE
:402DC0001B6801336F4A136004F0B8FE03469AB26D4B1A8005F020F803461A466B4B1A80694B1B889BB21BB2184604F0FFFE03461846674907F0F6F903461A46654B1A6089
:402E0000654B1B78184607F099F90246634B1B681046194607F0E6F903461A465F4B1A605E4B1A685B4B1B681046194607F0D2F803461A46594B1A60584B1C68564B1B78AB
:402E40000133184607F07AF903462046194607F07DFA03461A46514B1A60504B1B684D4A13604F4B1B78012B11D1484B1B881BB2184605F029F802464A4B1B68104619462C
:402E800007F0B0F903461A46474B1A602AE0444B1B78022B11D13D4B1B881BB2184605F013F80246414B1B681046194607F09AF903461A463C4B1A6014E0394B1B78032BB3
:402EC00010D1324B1B881BB2184604F0FDFF0246374B1B681046194607F084F903461A46314B1A602B4B1A682F4B1B681046194607F078F903461A462E4B1A60254B1A6801
:402F00002D4B1B681046194607F06CF903461A462A4B1A602A4B1B78012B40F0128106F07DFA0346002B0DD1254B00221A70254B1A78254B1A70234B0F221A70234802F099
:402F4000BBFFFEE0224B1B78012B45D1214B00221A80002005F0BAFE002006F083FA002005F0F6FD194802F0A7FF154B00221A70144B1A78144B1A70124B0E221A70E0E031
:402F80003084FF1F4083FF1FCC84FF1FB084FF1F000070413C84FF1F3D81FF1F7885FF1F8084FF1FCC83FF1FD883FF1F1885FF1FB484FF1F5C84FF1FF884FF1FD084FF1FF5
:402FC0002085FF1F3B85FF1FC083FF1F20A107002884FF1F3A83FF1F012005F0B9FD344B1B68B3F57A7F2CD3324B1B68184606F08DFC02460B463048304907F08BFF304B91
:403000001B68184606F082FC02460B462D482E4907F080FF2D4B1B68184606F077FC02460B462B482B4907F075FF2B4B1A782B4B1B78DBB21046194601F072FB1C4B002259
:403040001A60022006F00EFA254B1A681C4B1B681046194606F0BCFF0346184606F056FC02460B46104619460FA3D3E9002306F031FF0346002B37D01A4B1B8801339AB27D
:40308000184B1A80174B1B88B3F57F6F03D9154B4FF47F621A80134B1B88184605F016FE4FE000BFAFF300807B14AE47E17A743F4083FF1F3C84FF1F8C84FF1F44910300AF
:4030C000D883FF1F4085FF1F4C9103005C84FF1F1884FF1F549103003B85FF1F5A85FF1FF884FF1F3A83FF1FA74B1A68A74B1B681046194606F06CFF0346184606F006FC06
:4031000002460B461046194699A3D3E9002306F0E1FE0346002B14D09D4B1B88013B9AB29B4B1A809A4B1B88002B05D1984B00221A80984B00221A70954B1B88184605F0D9
:40314000C5FD944B1B78002B3DD1934B1B68B3F57A7F2CD3914B1B68184606F0D7FB02460B468F488F4907F0D5FE884B1B68184606F0CCFB02460B468B488C4907F0CAFED9
:403180008B4B1B68184606F0C1FB02460B468948894907F0BFFE894B1A78894B1B78DBB21046194601F0BCFA7B4B00221A60784B00221A80002005F089FD002006F052F923
:4031C000002005F0C5FC04F0DFFB0346002B15D07C4B1B78002B0CBF01230023DBB21A46784B1A70784B1B689BB21BB2184603F007FD764B1B68184602F05EFE714B1B780D
:40320000012B40F0428103F0E9FC03461A466E4B1A606B4B1B78002B30D16D4B1A686A4B1B689A422AD06A4B1A68674B1B689A420ADD684B1B6818464FF07E5106F0C8FE71
:4032400003461A46634B1A60614B1A685E4B1B689A420ADA5F4B1B6818464FF07E5106F0B9FE03461A465B4B1A60574B1B68584A1360594B1B68184602F01EFE504B1B7859
:403280005BB2012B48D1524B1A684F4B1B689A4242D04F4B1A684C4B1B689A4216DD4D4B1B68184606F032FB02460B461046194631A3D3E9002306F0C9F902460B46104649
:4032C000194606F031FE0246424B1A60404B1A683D4B1B689A4216DA3E4B1B68184606F015FB02460B461046194623A3D3E9002306F0AEF902460B461046194606F014FEC1
:403300000246344B1A60304B1B68314A1360324B1B68184602F0D0FD294B1B785BB2022B40F080802A4B1A68274B1B689A4279D0274B1A68244B1B689A4216DD254B1B6819
:40334000184606F0E3FA02460B46104619460CA3D3E9002306F07AF902460B461046194606F0E2FD02461B4B1A60194B1A6835E07B14AE47E17A743F9A9999999999B93F70
:403380007B14AE47E17A843FD883FF1FF884FF1F3A83FF1F2085FF1F4083FF1F3C84FF1FBC84FF1F449103004084FF1F4C910300D084FF1F2885FF1F5C9103003B85FF1FF8
:4033C0005A85FF1F3884FF1F4883FF1F5884FF1F4483FF1F5484FF1F3C85FF1F9E4B1B689A4216DA9D4B1B68184606F08FFA02460B461046194696A3D3E9002306F028F95C
:4034000002460B461046194606F08EFD0246934B1A60914B1B68924A1360924B1B68184602F04AFD8D4B1B681846796807F096F80346002B0BD0894A7B681360894B1A688B
:4034400013469B0013445B00184602F035FD834B1B6818464FF0000107F062F80346002B0FD0814B00221A707C4B4FF000021A607C4B1A6813469B0013445B00184602F058
:403480001BFD764B1B68794A1360794B1B78002B17D0784B1B68184602F00EFD724B1B78002B08D102F036FD0346012B06D16E4B01221A7002E06C4B00221A706E4B002225
:4034C0001A706E4B1B78002B15D06B4B1B78002B0CBF01230023DBB21A46674B1A705E4B1B689BB21BB2184603F08AFB614B1B68184602F0E1FC624B1B78002B5CD0614B7C
:403500001B78002B0CBF01230023DBB21A465D4B1A705C4B1B78012B26D15B4B1B88184606F0E2F902460B46104619464FF00002564B06F03FFA02460B461046194606F024
:40354000D3FC03469AB2504B1A804F4B1B88184605F0BCFB002005F019FB002005F034FB4B4B01221A7022E0474B1B88184606F0BBF902460B46104619464FF00002434B5F
:4035800006F042FB02460B461046194606F0ACFC03469AB23C4B1A803B4B1B88184605F095FB012005F0F2FA394B02221A70314B1B68184602F080FC364B1B78002B10D00C
:4035C000032003F01DFB284B00221A702A4B00221A70314B02221A70264B1B68184602F06BFC2E4B1B78002B15D02D4B1B78DBB2DBB20133DBB2DAB2294B1A70284B1B78F6
:403600005BB2022B02DD264B02221A70194B1B68184602F051FC234B1B78002B15D0204B1B78DBB2DBB2013BDBB2DAB21C4B1A701B4B1B785BB2002B02DA194B00221A7042
:403640000C4B1B68184602F037FC0C37BD4690BD7B14AE47E17A843F4883FF1F5484FF1F4483FF1F3C85FF1F2085FF1FF884FF1F3985FF1F5884FF1F3884FF1FB284FF1FB4
:40368000FE84FF1F3883FF1F3A83FF1F000004408084FF1F5184FF1F3B85FF1F3885FF1F5A85FF1F5084FF1F90B583B000AF884B1B687B60002002F015FC864B1B680133B2
:4036C000844A136004F03AFA03469AB2824B1A8004F0A2FB03461A46804B1A807E4B1B889BB21BB2184604F081FA034618467C4906F078FD03461A467A4B1A607A4B1B785C
:40370000184606F01BFD0246784B1B681046194606F068FD03461A46744B1A60734B1A68704B1B681046194606F054FC03461A466E4B1A606D4B1C686B4B1B780133184631
:4037400006F0FCFC03462046194606F0FFFD03461A46664B1A60654B1B68624A13605F4B1B881BB2184604F0AFFB03461846194606F030FC03461A465D4B1A60594B1A6806
:403780005B4B1B681046194606F02CFD03461A46584B1A60584B1B78012B40F0F68005F03DFE0346002B0CD1534B00221A70534B1A78534B1A70514B0F221A70514802F039
:4037C0007BFB514B1B78002B18D04B4B00221A704A4B1A784A4B1A70484B0E221A704B4B00221A80002005F071FA002005F03AFE002005F0ADF9434802F05EFB012005F076
:40380000A7F9344B1B68B3F57A7F2CD3354B1B68184606F07BF802460B463D483D4907F079FB334B1B68184606F070F802460B4639483A4907F06EFB2E4B1B68184606F063
:4038400065F802460B463648364907F063FB2B4B1A78354B1B78DBB21046194600F060FF1C4B00221A60022005F0FCFD2F4B1A68204B1B681046194606F0AAFB0346184660
:4038800006F044F802460B46104619460EA3D3E9002306F01FFB0346002B49D01B4B1B8801339AB2194B1A80184B1B88B3F57F6F03D9164B4FF47F621A80144B1B881846DD
:4038C00005F004FA61E000BF9A9999999999A93F2C84FF1F4083FF1FCC84FF1FB084FF1F000070413C84FF1F3D81FF1F7885FF1FD883FF1F5C84FF1F2085FF1F3B85FF1F49
:40390000C083FF1F20A107002884FF1F3A83FF1F8C84FF1F449103004085FF1F4C9103001884FF1F549103005A85FF1FD084FF1FA74B1A68A74B1B681046194606F048FB08
:403940000346184605F0E2FF02460B461046194699A3D3E9002306F0BDFA0346002B14D09D4B1B88013B9AB29B4B1A809A4B1B88002B05D1984B00221A80984B00221A7012
:40398000954B1B88184605F0A1F9944B1B78002B3DD1934B1B68B3F57A7F2CD3914B1B68184605F0B3FF02460B468F488F4907F0B1FA8F4B1B68184605F0A8FF02460B46AD
:4039C0008C488D4907F0A6FA824B1B68184605F09DFF02460B468948894907F09BFA894B1A78894B1B78DBB21046194600F098FE7B4B00221A60784B00221A80002005F0F4
:403A000065F9002005F02EFD002005F0A1F803F0BBFF0346002B10D07C4B1B78002B0CBF01230023DBB21A46784B1A70784B1B689BB21BB2184603F0E3F8744B1B78012B5E
:403A400040F01F8103F0CAF803461A46704B1A606D4B1B78002B2BD16E4B1A686C4B1B689A4225D06B4B1A68694B1B689A420ADD694B1B6818464FF07E5106F0A9FA034674
:403A80001A46654B1A60634B1A68614B1B689A420ADA614B1B6818464FF07E5106F09AFA03461A465C4B1A60594B1B68594A1360554B1B785BB2012B43D1564B1A68544BEF
:403AC0001B689A423DD0534B1A68514B1B689A4216DD514B1B68184605F018FF02460B461046194636A3D3E9002305F0AFFD02460B461046194606F017FA0246464B1A6074
:403B0000444B1A68424B1B689A4216DA424B1B68184605F0FBFE02460B461046194628A3D3E9002305F094FD02460B461046194606F0FAF90246384B1A60354B1B68354AC0
:403B40001360314B1B785BB2022B79D1314B1A682F4B1B689A4273D02E4B1A682C4B1B689A4216DD2C4B1B68184605F0CFFE02460B461046194614A3D3E9002305F066FD0B
:403B800002460B461046194606F0CEF90246224B1A60204B1A681E4B1B689A424CDA1E4B1B68184605F0B2FE02460B461046194634E000BFAFF300809A9999999999A93F3F
:403BC0009A9999999999B93F7B14AE47E17A843F5C84FF1FD084FF1F3A83FF1F2085FF1F4083FF1F3C84FF1FBC84FF1F44910300F884FF1F4084FF1F4C9103002885FF1F6A
:403C00005C9103003B85FF1F5A85FF1F3884FF1F4883FF1F4483FF1F2485FF1F4AA3D3E9002305F015FD02460B461046194606F07BF90246464B1A60464B1B68464A136055
:403C4000434B1B681846796806F088FC0346002B02D03F4A7B6813603D4B1B6818464FF0000106F05DFC0346002B06D03B4B00221A70374B4FF000021A60354B1B68384A1F
:403C80001360384B1B78002B0CD0344B1B78002B0CBF01230023DBB21A46304B1A70324B00221A70314B1B78002B10D02E4B1B78002B0CBF01230023DBB21A462A4B1A70BB
:403CC000244B1B689BB21BB2184602F099FF284B1B78002B0BD0032002F092FF1F4B00221A70214B00221A70224B02221A70224B1B78002B10D0214B1B78DBB2DBB201337D
:403D0000DBB2DAB21D4B1A701C4B1B785BB2022B02DD1A4B02221A70194B1B78002B10D0164B1B78DBB2DBB2013BDBB2DAB2134B1A70124B1B785BB2002B02DA0F4B002285
:403D40001A700C37BD4690BD7B14AE47E17A843F2485FF1F4883FF1F4483FF1F2085FF1FD084FF1F3985FF1F3884FF1FB284FF1F5184FF1F3B85FF1F3885FF1F5A85FF1F07
:403D80005084FF1FAFF3008090B583B000AF884B1B687B60002002F0A5F8864B1B680133844A136003F0CAFE03469AB2824B1A8004F032F803461A46804B1A807E4B1B88D0
:403DC0009BB21BB2184603F011FF034618467C4906F008FA03461A467A4B1A607A4B1B78184606F0ABF90246784B1B681046194606F0F8F903461A46744B1A60734B1A6860
:403E0000704B1B681046194606F0E4F803461A466E4B1A606D4B1C686B4B1B780133184606F08CF903462046194606F08FFA03461A46664B1A60654B1B68624A13605F4BF2
:403E40001B881BB2184604F03FF803461846194606F0C0F803461A465D4B1A60594B1A685B4B1B681046194606F0BCF903461A46584B1A60584B1B78012B40F0F68005F058
:403E8000CDFA0346002B0CD1534B00221A70534B1A78534B1A70514B0F221A70514802F00BF8514B1B78002B18D04B4B00221A704A4B1A784A4B1A70484B0E221A704B4BB6
:403EC00000221A80002004F001FF002005F0CAFA002004F03DFE434801F0EEFF012004F037FE344B1B68B3F57A7F2CD3354B1B68184605F00BFD02460B463D483D4907F07C
:403F000009F8334B1B68184605F000FD02460B4639483A4906F0FEFF2E4B1B68184605F0F5FC02460B463648364906F0F3FF2B4B1A78354B1B78DBB21046194600F0F0FBA9
:403F40001C4B00221A60022005F08CFA2F4B1A68204B1B681046194606F03AF80346184605F0D4FC02460B46104619460EA3D3E9002305F0AFFF0346002B49D01B4B1B8857
:403F800001339AB2194B1A80184B1B88B3F57F6F03D9164B4FF47F621A80144B1B88184604F094FE61E000BF9A9999999999A93F2C84FF1F4083FF1FCC84FF1FB084FF1F18
:403FC000000070413C84FF1F3D81FF1F7885FF1FD883FF1F5C84FF1F2085FF1F3B85FF1FC083FF1F20A107002884FF1F3A83FF1F8C84FF1F449103004085FF1F4C9103008C
:404000001884FF1F549103005A85FF1FD084FF1FA74B1A68A74B1B681046194605F0D8FF0346184605F072FC02460B461046194699A3D3E9002305F04DFF0346002B14D0F9
:404040009D4B1B88013B9AB29B4B1A809A4B1B88002B05D1984B00221A80984B00221A70954B1B88184604F031FE944B1B78002B3DD1934B1B68B3F57A7F2CD3914B1B68E7
:40408000184605F043FC02460B468F488F4906F041FF8F4B1B68184605F038FC02460B468C488D4906F036FF824B1B68184605F02DFC02460B468948894906F02BFF894BA2
:4040C0001A78894B1B78DBB21046194600F028FB7B4B00221A60784B00221A80002004F0F5FD002005F0BEF9002004F031FD03F04BFC0346002B10D07C4B1B78002B0CBF9F
:4041000001230023DBB21A46784B1A70784B1B689BB21BB2184602F073FD744B1B78012B40F01F8102F05AFD03461A46704B1A606D4B1B78002B2BD16E4B1A686C4B1B6882
:404140009A4225D06B4B1A68694B1B689A420ADD694B1B6818464FF07E5105F039FF03461A46654B1A60634B1A68614B1B689A420ADA614B1B6818464FF07E5105F02AFFC1
:4041800003461A465C4B1A60594B1B68594A1360554B1B785BB2012B43D1564B1A68544B1B689A423DD0534B1A68514B1B689A4216DD514B1B68184605F0A8FB02460B468E
:4041C0001046194636A3D3E9002305F03FFA02460B461046194605F0A7FE0246464B1A60444B1A68424B1B689A4216DA424B1B68184605F08BFB02460B461046194628A3FA
:40420000D3E9002305F024FA02460B461046194605F08AFE0246384B1A60354B1B68354A1360314B1B785BB2022B79D1314B1A682F4B1B689A4273D02E4B1A682C4B1B68E5
:404240009A4216DD2C4B1B68184605F05FFB02460B461046194614A3D3E9002305F0F6F902460B461046194605F05EFE0246224B1A60204B1A681E4B1B689A424CDA1E4BEE
:404280001B68184605F042FB02460B461046194634E000BFAFF300809A9999999999A93F9A9999999999B93F7B14AE47E17A843F5C84FF1FD084FF1F3A83FF1F2085FF1FEA
:4042C0004083FF1F3C84FF1FBC84FF1F44910300F884FF1F4084FF1F4C9103002885FF1F5C9103003B85FF1F5A85FF1F3884FF1F4883FF1F4483FF1F2485FF1F4AA3D3E9BF
:40430000002305F0A5F902460B461046194605F00BFE0246464B1A60464B1B68464A1360434B1B681846796806F018F90346002B02D03F4A7B6813603D4B1B6818464FF0ED
:40434000000106F0EDF80346002B06D03B4B00221A70374B4FF000021A60354B1B68384A1360384B1B78002B0CD0344B1B78002B0CBF01230023DBB21A46304B1A70324BD5
:4043800000221A70314B1B78002B10D02E4B1B78002B0CBF01230023DBB21A462A4B1A70244B1B689BB21BB2184602F029FC284B1B78002B0BD0032002F022FC1F4B0022B6
:4043C0001A70214B00221A70224B02221A70224B1B78002B10D0214B1B78DBB2DBB20133DBB2DAB21D4B1A701C4B1B785BB2022B02DD1A4B02221A70194B1B78002B10D075
:40440000164B1B78DBB2DBB2013BDBB2DAB2134B1A70124B1B785BB2002B02DA0F4B00221A700C37BD4690BD7B14AE47E17A843F2485FF1F4883FF1F4483FF1F2085FF1F9A
:40444000D084FF1F3985FF1F3884FF1FB284FF1F5184FF1F3B85FF1F3885FF1F5A85FF1F5084FF1FAFF3008098B500AF404B1B6801333F4A13603E4B1B68B3F57A7F0ED33B
:404480003C4B1C780020032101F0B8FD0346DBB22046194600F044F9354B00221A6003F073FA0346002B52D00020032101F0A6FD0346032B0FD1304B1B789BB21BB2184668
:4044C00002F09EFB2B4B06221A702C4B1B68184601F0F2FC3BE00020032101F08FFD0346022B0FD1264B1B789BB21BB2184602F087FB204B07221A70204B1B68184601F055
:40450000DBFC24E00020032101F078FD0346012B0BD1032002F074FB164B08221A70174B1B68184601F0C8FC11E00020032101F065FD0346002B0AD1032002F061FB0D4B74
:4045400001221A700D4B1B68184601F0B5FC0D4B1B78002B0AD0032002F052FB054B01221A70064B1B68184601F0A6FC98BD00BF4083FF1F3B85FF1F5885FF1F5884FF1FD7
:40458000B384FF1F5184FF1F80B500AF1D4B1B6801331C4A13601B4B1B68B3F57A7F10D30B2001F0E5FC0346DBB2184601F0AAFD154B1B781846032100F0B2F8114B002214
:4045C0001A6003F0E1F90346002B0AD0032002F017FB0D4B05221A700C4B1B68184601F06BFC0B4B1B78002B0AD0032002F008FB054B05221A70054B1B68184601F05CFCE5
:4046000080BD00BF4083FF1F3B85FF1F5884FF1F3985FF1F80B500AF1D4B1B6801331C4A13601B4B1B68B3F57A7F10D30B2001F09FFC0346DBB2184601F09AFD154B1B783A
:404640001846022100F06CF8114B00221A6003F09BF90346002B0AD0022002F0D1FA0D4B05221A700C4B1B68184601F025FC0B4B1B78002B0AD0022002F0C2FA054B052231
:404680001A70054B1B68184601F016FC80BD00BF4083FF1F3B85FF1F5884FF1F3985FF1F80B500AF1A4B1B680133194A1360184B1B68B3F57A7F0AD301F004FE154B1B788B
:4046C0001846032100F02CF8114B00221A6003F05BF90346002B0AD0012002F091FA0D4B05221A700C4B1B68184601F0E5FB0B4B1B78002B0AD0012002F082FA054B0522F3
:404700001A70054B1B68184601F0D6FB80BD00BF4083FF1F3B85FF1F5884FF1F5184FF1F90B58BB004AF03460A46FB711346BB71FB79FB73FB7B122B01F2AA8301A252F8F5
:4047400023F000BF5D490000014A0000EF4A0000DD4B0000B75B0000A5520000E9510000F9500000BD5300000D5800000D550000E947000091470000AD480000414800002C
:4047800005490000014D0000314D0000C95000008D48FCF7CFFB8C48FCF75EFC8A488B49FCF77AF9884828210C22894BFCF7AEF885488649FCF770F9834802211C22854B5F
:4047C000FCF7A4F880488149FCF766F97E4804213C22814BFCF79AF87B48FCF7B9FB0346002BD8D101F055BB7748FCF7A3FB7648FCF732FC74487549FCF74EF9724828213E
:404800000C22734BFCF782F86F487049FCF744F96D4802211C22714BFCF778F86A486B49FCF73AF9684804213C226B4BFCF76EF86548FCF78DFB0346002BD8D101F029BB62
:404840006148FCF777FB6048FCF706FC5E485F49FCF722F95C4828210C225D4BFCF756F859485A49FCF718F9574802211C225C4BFCF74CF854485549FCF70EF95248022116
:404880002B22584BFCF742F84F485049FCF704F94D4804213C22504BFCF738F84A48FCF757FB0346002BCED101F0F3BA4648FCF741FB4548FCF7D0FB43484449FCF7ECF866
:4048C000414828210C22424BFCF720F83E483F49FCF7E2F83C4802211C22434BFCF716F839483A49FCF7D8F8374804213C223A4BFCF70CF83448FCF72BFB0346002BD8D1DA
:4049000001F0C7BA3048FCF715FB2F48FCF7A4FB2D482E49FCF7C0F82B4828210C222C4BFBF7F4FF28482949FCF7B6F8264802211C222E4BFBF7EAFF23482449FCF7ACF88F
:40494000214804213C22244BFBF7E0FF1E48FCF7FFFA0346002BD8D101F09BBA1A48FCF7E9FA1948FCF778FB17481849FCF794F8154802210D221E4BFBF7C8FF1248134991
:40498000FCF78AF8104802211D221A4BFBF7BEFF0D480E49FCF780F80B4802212D22164BFBF7B4FF08480949FCF776F8064802213C22124BFBF7AAFF0348FCF7C9FA0346BE
:4049C000002BCED101F065BADC83FF1F58750300649103006C9103007C9103008C9103009C910300A084FF1FA8910300B49103006084FF1FC4910300D4910300E491030038
:404A0000B248FCF797FAB148FCF726FBBB79032B0AD110230093AD48002100228023FDF7B5F9AA48FCF740FBA848A949FCF734F8A64802210D22A74BFBF768FFA348FCF7E1
:404A40000BFBBB79022B0AD1102300939F48002110228023FDF79AF99C48FCF725FB9B489B49FCF719F8994802211D229A4BFBF74DFF9648FCF7F0FABB79012B0AD1102379
:404A800000939248002120228023FDF77FF98F48FCF70AFB8D488E49FBF7FEFF8B4802212D228E4BFBF732FF8848FCF7D5FABB79002B0AD1102300938448002130228023F8
:404AC000FDF764F98148FCF7EFFA80488049FBF7E3FF7E4802213C22814BFBF717FF7B48FCF736FA0346002B8DD101F0D2B97748FCF720FA7548FCF7AFFABB79032B0AD1AA
:404B0000102300937148002100228023FDF73EF96E48FCF7C9FA6D486D49FBF7BDFF6B4802210D226F4BFBF7F1FE6848FCF794FABB79022B0AD1102300936448002110228E
:404B40008023FDF723F96148FCF7AEFA5F486049FBF7A2FF5D4802211D22634BFBF7D6FE5A48FCF779FABB79012B0AD1102300935648002120228023FDF708F95348FCF7B0
:404B800093FA52485249FBF787FF504802212D22564BFBF7BBFE4D48FCF75EFABB79002B0AD1102300934948002130228023FDF7EDF84648FCF778FA44484549FBF76CFF9B
:404BC000424802213C224A4BFBF7A0FE3F48FCF7BFF90346002B8DD101F05BB93B48FCF7A9F93A48FCF738FABB79032B0AD1102300933648002100228023FDF7C7F8334828
:404C0000FCF752FA31483249FBF746FF2F4802210D22384BFBF77AFE2C48FCF71DFABB79022B0AD1102300932848002110228023FDF7ACF82548FCF737FA24482449FBF77A
:404C40002BFF224802211D222B4BFBF75FFE1F48FCF702FABB79012B0AD1102300931B48002120228023FDF791F81848FCF71CFA16481749FBF710FF144802212D221F4BDC
:404C8000FBF744FE1148FCF7E7F9BB79002B0AD1102300930D48002130228023FDF776F80A48FCF701FA09480949FBF7F5FE074802213C220E4BFBF729FE0448FCF748F93D
:404CC0000346002B8DD101F0E4B800BFDC83FF1F58750300F091030000920300D4910300E491030010920300209203002C9203003C92030050920300609203006C92030089
:404D00008F48FCF717F98E48FCF7A6F98C488D49FBF7C2FE8A481E210C228B4BFBF7F6FD8748FCF715F90346002BECD101F0B1B88348FCF7FFF88248FCF78EF9BB79022B26
:404D40001AD1824B1B78002B07D1102300937C48002100228023FDF719F87C4B1B78012B07D11023009376482B2100228023FDF70DF87348FCF798F971487249FBF78CFE55
:404D80006F4832210D22724BFBF7C0FDBB79022B06D16E4B1B78012B02D16948FCF75CF967486849FBF778FE654802210D22694BFBF7ACFDBB79022B2BD1644B1B78012BF1
:404DC00027D15F48FCF770F9634B1B78002B02D13323FB7511E0604B1B785BB2012B02D14323FB7509E05C4B1B785BB2022B02D14B23FB7501E03223FB75FB7D0533DCB2B0
:404E0000FA7D0E2300934E4811460E222346FBF759FE4B48FCF720F9BB79012B1AD14B4B1B78002B07D1102300934548002110228023FCF7ABFF454B1B78012B07D1102312
:404E400000933F482B2110228023FCF79FFF3C48FCF72AF93A483B49FBF71EFE384832211D223E4BFBF752FDBB79012B06D1374B1B78012B02D13248FCF7EEF8304831494C
:404E8000FBF70AFE2E4802211D22354BFBF73EFD2B48FCF7E1F8BB79002B1AD12B4B1B78002B07D1102300932548002120228023FCF76CFF254B1B78012B07D1102300937A
:404EC0001F482B2120228023FCF760FF1C48FCF7EBF81B481B49FBF7DFFD194832212D22204BFBF713FDBB79002B06D1174B1B78012B02D11248FCF7AFF811481149FBF7C6
:404F0000CBFD0F4802212D22174BFBF7FFFCBB79002B39D10D4B1B78012B35D10848FCF7C3F80D4B1B78002B02D13B23BB751FE0094B1B785BB2012B18D14323BB7517E001
:404F4000DC83FF1F587503007C9203003884FF1F8C920300949203005A85FF1F9C920300A8920300B0920300B89203003B23BB75BB7D0533DCB2BA7D2E2300938D481146DF
:404F80002E222346FBF79EFD8A48FCF765F8102300938848002133228023FCF7F7FE8548FCF782F883488449FBF776FD3E2300938048202134222023FBF784FD3E230093BE
:404FC0007C48402134224023FBF77CFD3E2300937848602134226023FBF774FD774B1B78002B0BD1392300930E2301933F23029370480E2133221423FCF716FE6F4B1B7829
:40500000012B1FD13D2300936A480E2135220E23FBF758FD3D23009366480F2135220F23FBF750FD3D2300936248112135221123FBF748FD3D2300935E481221352212232F
:40504000FBF740FD5E4B1B78002B0AD159485A49FBF722FD574825213E225A4BFBF756FC0DE0574B1B78012B09D152485249FBF713FD504829213E22534BFBF747FC3B236A
:4050800000934C48752136227523FBF71BFD3B23009348486D213B227523FBF713FD3B230093702301933E2302934248702138226B23FCF7B9FD3F48FBF74AFF0346002B43
:4050C0007FF439AE00F0E5BE3A48FBF733FF3948FBF7C2FF37483849FBF7DEFC35481E210C223A4BFBF712FC3248FBF731FF0346002BECD100F0CDBE2E48FBF71BFF2D486F
:40510000FBF7AAFF2B482C49FBF7C6FC294802210D222F4BFBF7FAFB26482749FBF7BCFC244860210D222B4BFBF7F0FB2148FBF793FF20482049FBF7AFFC1E4802211D22FA
:40514000254BFBF7E3FB102300931A48582110222C23FCF71BFE1748FBF7A6FF15481649FBF79AFC134860211D221C4BFBF7CEFB1048FBF771FF0F480F49FBF78DFC0D4811
:4051800002212D22164BFBF7C1FB0A48FBF764FF08480949FBF780FC064802213C22114BFBF7B4FB0348FBF7D3FE0346002BA6D100F06FBEDC83FF1F587503002085FF1FC5
:4051C0003884FF1FC0920300C4920300C8920300D89203005085FF1FE4920300D884FF1FEC9203003C920300BA48FBF7A3FEB948FBF732FFB748B849FBF74EFCB548022110
:405200000D22B64BFBF782FB10230093B148582100222C23FCF7BAFDAE48FBF745FFAD48AD49FBF739FCAB4860210D22AC4BFBF76DFBA848FBF710FFA648A749FBF72CFC61
:40524000A44802211D22A74BFBF760FBA148A249FBF722FC9F4860211D22A34BFBF756FB9C48FBF7F9FE9B489B49FBF715FC994802212D229D4BFBF749FB9648FBF7ECFE23
:4052800094489549FBF708FC924802213C22984BFBF73CFB8F48FBF75BFE0346002BA6D100F0F7BD8B48FBF745FE8A48FBF7D4FEBB79032B0AD11023009386480021002274
:4052C0008023FCF763FD8348FBF7EEFE81488249FBF7E2FB7F4802210D22804BFBF716FB7C487D49FBF7D8FB7A4860210D227C4BFBF70CFB7748FBF7AFFEBB79022B0AD1AA
:40530000102300937348002110228023FCF73EFD7048FBF7C9FE6F486F49FBF7BDFB6D4802211D22734BFBF7F1FA6A486A49FBF7B3FB684860211D226B4BFBF7E7FA6548E1
:40534000FBF78AFEBB79012B0AD1102300936148002120228023FCF719FD5E48FBF7A4FE5C485D49FBF798FB5A4802212D225F4BFBF7CCFA5748FBF76FFEBB79002B0AD143
:40538000102300935348002130228023FCF7FEFC5048FBF789FE4F484F49FBF77DFB4D4802213C22524BFBF7B1FA4A48FBF7D0FD0346002B7FF479AF00F06BBD4548FBF798
:4053C000B9FD4448FBF748FEBB79002B0AD1102300934048002100228023FCF7D7FC3D48FBF762FE3B483C49FBF756FB394802210D22414BFBF78AFA36483749FBF74CFBD1
:4054000034485A210D223D4BFBF780FA3148FBF723FEBB79022B0AD1102300932D48002110228023FCF7B2FC2A48FBF73DFE29482949FBF731FB274802211D22304BFBF7DA
:4054400065FA24482449FBF727FB22485A211D222C4BFBF75BFA1F48FBF7FEFDBB79002B0AD1102300931B48002120228023FCF78DFC1848FBF718FE16481749FBF70CFBA6
:40548000144802212D22204BFBF740FA1148FBF7E3FDBB79032B0AD1102300930D48002130228023FCF772FC0A48FBF7FDFD09480949FBF7F1FA074802213C220C4BFBF7B6
:4054C00025FA0448FBF744FD0346002B7FF479AF00F0DFBCDC83FF1F58750300D89203005085FF1FE4920300D884FF1FEC9203003C920300F892030000930300A084FF1F1D
:405500000C930300D083FF1F18930300AF48FBF711FDAE48FBF7A0FDAD4B1B78012B14D1AA48AC49FBF7B8FAA84822211A22AA4BFBF7ECF9A548A949FBF7AEFAA348042143
:405540002B22A74BFBF7E2F9A4E0A64B1B78002B4ED19E489F49FBF79FFA9C480E211A22A14BFBF7D3F999489C49FBF795FA974804212B229D4BFBF7C9F994489749FBF799
:405580008BFA924840212B22994BFBF7BFF9994B1B78012B7ED1BB79002B02D11A237B750DE0BB79012B02D132237B7507E0BB79022B02D140237B7501E032237B757B7D0E
:4055C0000C33DCB27A7D1B230093804811461B222346FBF777FA7B7D0C33DCB27A7D1C2300937A4811461C222346FBF76BFA51E07C4B1B78012B4DD174487649FBF74CFAC1
:40560000724818211A227C4BFBF780F96F487349FBF742FA6D4804212B22784BFBF776F96A486E49FBF738FA684840212B22744BFBF76CF96F4B1B78012B2BD1BB79002B48
:4056400002D11A233B750DE0BB79012B02D132233B7507E0BB79022B02D140233B7501E032233B753B7D0C33DCB23A7D1B230093564811461B222346FBF724FA3B7D0C3382
:40568000DCB23A7D1C230093504811461C222346FBF718FA102300934C48002133228023FCF774FB4948FBF7FFFC48484B49FBF7F3F93E2300934548202134222023FBF797
:4056C00001FA3E2300934148402134224023FBF7F9F93E2300933D48602134226023FBF7F1F9404B1B78002B0BD1392300930E2301933F23029335480E2133221423FCF78A
:4057000093FA384B1B78012B1FD13D2300932F480E2135220E23FBF7D5F93D2300932B480F2135220F23FBF7CDF93D2300932748112135221123FBF7C5F93D2300932348C5
:40574000122135221223FBF7BDF92A4B1B78002B0AD11E482149FBF79FF91C4825213E22284BFBF7D3F80DE0224B1B78012B09D116481A49FBF790F9144829213E22224B7E
:40578000FBF7C4F83B2300931048752136227523FBF798F93B2300930C486D213B227523FBF790F93B230093702301933E2302930648702138226B23FCF736FA0348FBF771
:4057C000C7FB0346002B7FF4A4AE62E3DC83FF1F2884FF1FE0C60000D083FF1F58750300289303002085FF1F38930300BC84FF1F4084FF1F3884FF1F1884FF1F8C84FF1FEA
:405800004085FF1FC0920300C49203007F48FBF791FB0E23BB737D48FBF71EFC7C4B1B78002B40F085807B4B1B6818467A4904F077FE0346002B0DD074487849FBF72CF9F0
:40584000BB7B1833DBB2714819461A22744BFBF75DF823E06F4B1B681846724904F060FE0346002B0DD069486C49FBF715F9BB7B0933DBB2654819461A22694BFBF746F833
:405880000CE062486549FBF707F9BB7B063BDBB25E4819461A22624BFBF738F85B486249FBF7FAF8594804212B22604BFBF72EF856485D49FBF7F0F8544840212B225C4B87
:4058C000FBF724F85B4B1B78012B40F0D880BB79002B03D1BB7B1A33FB7410E0BB79012B03D1BB7B3233FB7409E0BB79022B03D1BB7B4033FB7402E0BB7B3233FB74FB7CC1
:405900000C33DCB2FA7C1B230093404811461B222346FBF7D7F8FB7C0C33DCB2FA7C1C2300933A4811461C222346FBF7CBF8A6E0374B1B78012B40F0A2803F4B1B681846C8
:40594000354904F0EDFD0346002B0DD02F483349FBF7A2F8BB7B1833DBB22C4819461A22364BFAF7D3FF23E0334B1B6818462D4904F0D6FD0346002B0DD024482749FBF7DC
:405980008BF8BB7B0933DBB2204819461A222B4BFAF7BCFF0CE01D482049FBF77DF8BB7B063BDBB2194819461A22244BFAF7AEFF16481D49FBF770F8144804212B22204BBB
:4059C000FAF7A4FF11481849FBF766F80F4840212B221C4BFAF79AFF164B1B78012B4ED1BB79002B03D1BB7B1A33BB742FE0BB79012B03D1BB7B3233BB7428E0BB79022B79
:405A000022D1BB7B9B01BB7421E000BFDC83FF1F2085FF1FD084FF1F00002041E0C600002885FF1F0000C84258750300BC84FF1F4084FF1F3884FF1F5C84FF1F1884FF1F82
:405A40008C84FF1F4085FF1FBB7B3233BB74BB7C0C33DCB2BA7C1B230093A04811461B222346FBF72FF8BB7C0C33DCB2BA7C1C2300939A4811461C222346FBF723F8102316
:405A800000939648002133228023FCF77FF99348FBF70AFB91489249FAF7FEFF3E2300938E48202134222023FBF70CF83E2300938A48402134224023FBF704F83E23009321
:405AC0008648602134226023FAF7FCFF854B1B78002B0BD1392300930E2301933F2302937E480E2133221423FCF79EF87D4B1B78012B1FD13D23009378480E2135220E2392
:405B0000FAF7E0FF3D23009374480F2135220F23FAF7D8FF3D2300937048112135221123FAF7D0FF3D2300936C48122135221223FAF7C8FF6C4B1B78002B0AD1674868496F
:405B4000FAF7AAFF654825213E22684BFAF7DEFE0DE0654B1B78012B09D160486049FAF79BFF5E4829213E22614BFAF7CFFE3B2300935A48752136227523FAF7A3FF3B23E2
:405B8000009356486D213B227523FAF79BFF3B230093702301933E2302935048702138226B23FCF741F84D48FBF7D2F90346002B7FF42FAE6DE14948FBF7BCF94748FBF73E
:405BC0004BFA484B1B78002B4FD144484949FAF763FF424818211A22474BFAF797FE3F483F49FAF759FF3D4804212B22434BFAF78DFE3A483A49FAF74FFF384840212B229C
:405C00003F4BFAF783FE384B1B78012B40F09A80BB79002B02D11A237B740DE0BB79012B02D132237B7407E0BB79022B02D140237B7401E032237B747B7C0C33DCB27A7CCE
:405C40001B230093254811461B222346FAF73AFF7B7C0C33DCB27A7C1C2300931F4811461C222346FAF72EFF6CE01E4B1B78012B68D11A481F49FAF70FFF184818211A2265
:405C8000204BFAF743FE15481549FAF705FF134804212B221C4BFAF739FE10481049FAF7FBFE0E4840212B22184BFAF72FFE0E4B1B78012B46D1BB79002B02D11A233B74CE
:405CC00028E0BB79012B02D132233B7422E0BB79022B1DD140233B741CE000BFDC83FF1F587503002085FF1F3884FF1FC0920300C4920300E0C600004084FF1FBC84FF1FC9
:405D00002885FF1F4085FF1F8C84FF1F1884FF1F32233B743B7C0C33DCB23A7C1B2300935D4811461B222346FAF7CCFE3B7C0C33DCB23A7C1C230093574811461C222346B8
:405D4000FAF7C0FE102300935348002133228023FCF71CF85048FBF7A7F94F484F49FAF79BFE3E2300934C48202134222023FAF7A9FE3E2300934848402134224023FAF787
:405D8000A1FE3E2300934448602134226023FAF799FE434B1B78002B0BD1392300930E2301933F2302933C480E2133221423FBF73BFF3B4B1B78012B1FD13D2300933648FE
:405DC0000E2135220E23FAF77DFE3D23009332480F2135220F23FAF775FE3D2300932E48112135221123FAF76DFE3D2300932A48122135221223FAF765FE2A4B1B78002BC9
:405E00000AD125482549FAF747FE234825213E22254BFAF77BFD0DE0224B1B78012B09D11D481E49FAF738FE1B4829213E221F4BFAF76CFD3B2300931748752136227523FF
:405E4000FAF740FE3B23009313486D213B227523FAF738FE3B230093702301933E2302930D48702138226B23FBF7DEFE0A481049FAF712FE084849213E220E4BFAF746FD00
:405E80000548FBF765F80346002B7FF497AE00E000BF1C37BD4690BDDC83FF1F587503002085FF1F3884FF1FC0920300C4920300343B03004493030080B582B000AF786006
:405EC000074B1B78012B07D1786803F0EDF8002003F0C2F803F094F80837BD4680BD00BF3A85FF1F80B582B000AF0346FB71084B1B78012B09D1FB79012B01D102F05CFB28
:405F0000FB79002B01D102F09BFB0837BD4680BD3A85FF1F80B500AF02F072FE0346012B0BD1104B1A78104B1A700E4B0B221A700E48FFF7C1FF002311E002F071FE0346C9
:405F4000002B0BD1074B1A78074B1A70054B0D221A700648FFF7B0FF002300E00123184680BD00BF3B85FF1FC083FF1F20A1070080B582B000AF0346FB8000F02FFE034696
:405F80009AB21B4B1A801B4B1A88194B1B889A4228D0194B1B681846FFF78EFF144B1B884FF6F972934205D9002000F029FE104B00221A800E4B1B881A46FB88013B9A4240
:405FC0000CDBFB88013B9BB29BB21BB2184600F017FEFB88013B9AB2054B1A80044B1A88044B1A80034B1B8818460837BD4680BDFC84FF1FF484FF1F3C85FF1F80B582B01A
:4060000000AF03460A46FB801346BB8000F0E6FD03469AB21E4B1A801E4B1A881C4B1B889A422ED01C4B1B681846FFF745FF184B1B884FF6F972934205D9002000F0E0FDD7
:40604000134B00221A80124B1B88FA889A4207D9FB881BB2184600F0D3FD0D4AFB8813800B4B1B88BA889A4207D8BB881BB2184600F0C6FD064ABB881380054B1A88054B6E
:406080001A80044B1B8818460837BD4680BD00BFFC84FF1FF484FF1F3C85FF1F80B500AF01F042FC03461A46104B1A7001F048FC03461A460E4B1A7001F04EFC03461A465F
:4060C0000C4B1A7001F054FC03461A460A4B1A7002F026FD03461A46084B1A7002F02CFD03461A46064B1A7080BD00BF3985FF1FB284FF1FFE84FF1F5184FF1F5084FF1F0B
:406100003885FF1F80B584B000AF0346FB71FB79FB60FB68092B01DD0A23FB60FB68002B01DC0023FB60FB68DBB2184602F0C0FCFB68DAB20B4B1A700B480C49FA6804F039
:40614000E9FEFB68DBB21A46920013441A4691001A460B461344DBB2184602F0A9FC1037BD4680BD5885FF1F5085FF1F4893030080B584B000AF0346FB71FB79FB60FB6832
:40618000092B01DD0A23FB60FB68002B01DC0023FB60FB68DAB20A4B1A700A480A49FA6804F0B8FEFB68DBB21A46920013445B00DBB2184602F078FA1037BD4680BD00BFB4
:4061C000B384FF1FD884FF1F4893030080B582B000AF0346FB7100F027F8114B1B78002B03D1104B01221A700CE00D4B1B785AB2FB799A4203DB0B4B01221A7002E0094BD8
:4062000000221A70FB79143BDAB2054B1B78DBB21046194600F084F80837BD4680BD00BFAA84FF1F2884FF1F80B500AF1F4B0A221A704820012102F0DDF803461A461C4B19
:406240001A601B4B1B68002B06D1002002F05CF90346DAB2174B1A7002F02AF9134B1B781A46154B1B6803FB02F3134A1360114B1B785AB2104B1B6813440F4A13600E4B30
:406280001B680A4A12780132B3FBF2F30A4A1360094B1B68DAB2074B1A70064B1B785BB2064807491A4604F035FE80BD1085FF1F9085FF1FAA84FF1FC483FF1FD083FF1F56
:4062C0004C93030080B500AF074801F013FB0246064B1A60044B1B881BB2054805491A4604F018FE80BD00BFAC84FF1F9085FF1FA084FF1F4C93030080B582B000AF0346B3
:40630000FB71FB79002B02D102F032FF05E002F0E7FEFB79184602F05BFF0837BD4680BD80B584B000AF03460A46FB711346BB7102237B811E237B72BB799AB2FB799BB2D1
:40634000D31A9BB2FB81B7F90E207B899A4201DA0023FB81B7F90E30FF2B01DDFF23FB817B7A9BB2FA8902FB03F3BB81BB89FF2B01D9FF23BB81BB89222B01D80023BB8138
:40638000BB89DBB21846FFF7B7FF1037BD4680BD80B400AFFEE700BF80B584B000AF7860104B1A687B6813441A460F4BD31AB3F5007F09DC0B4B1B68FB600A4B1A687B684C
:4063C0001344084A136007E004F0D2F802460C2313604FF0FF33FB60FB6818461037BD4680BD00BF4081FF1FC085FF1F80B586B000AF224B7B61224B3B61204B7B6135E015
:406400003B691B68FB603B695B68BB603B699B683B6000237B600CE0FB681A68BB681A60BB680433BB60FB680433FB607B6804337B607A683B689A42EED13B69DB683B60A9
:4064400000237B6008E0BB6800221A60BB680433BB607B6804337B607A683B689A42F2D13B6910333B617B69013B7B617B69002BC6D104F083F8FBF7E7FDFEE70100000099
:406480002C96030080B582B000AF184B184A1A60184A184B1B6843F40073136000237B600FE07B68032B04D8134A7B6852F8233000E0124B12497A6841F822307B6801338A
:4064C0007B607B682F2BECD90E4B1B78DAB20E4B1A700E4B0A4A1A6000F058FA00F0CCFC0B4B00221A600837BD4680BD0CED00E00004FA0514ED00E0000000009163000021
:406500000080FF1FBC7600400481FF1F08ED00E00081FF1F80B582B000AF78603960786800213A6804F05BF80837BD4680BD00BF80B584B000AFF860B9607A60F868B968A1
:406540007A6804F041F81037BD4680BD80B483B000AF0346FB71FEE780B487B000AF7860396000233B6100237B6127E07B699B007A6813441B68BB60BB68FB73BB6823F068
:40658000FF03BB6014E03B695B003A6813441B781A46BB68134419463B695B003A6813445B780B703B6901333B61FB7B013BFB73FB7B002BE7D17B6901337B617B692A2BA6
:4065C000D4D91C37BD465DF8047B704780B582B000AF524B00221A80514B50221A70514B00221A80504B58221A70504B95221A804F4B18221A704F4B40F22B121A804E4B89
:4066000018221A704D4B40F2DF121A804C4B19221A704C4B40F2BF321A804B4B19221A704A4B41F2BF221A80494B19221A70494B01221A80484B1B221A70484848490822A4
:40664000FFF776FF474B02221A704FF0402308221A70454B04221A70444B454A1278D2B21A70444B40F619721A80434B42F251221A800023FB7019237B6014E0FB785B0003
:40668000DAB23E4B1B78DBB203F00103DBB21343DBB203F00303FB704FF4F07000F0C0FB7B68013B7B607B68002B02D0FB78032BE4D17B68002B02D10320FFF747FF304BA1
:4066C0004FF480721A802E4B07221A702D4B00221A702D4B48221A70294B00221A702B4B02221A702A4B04221A702A4B1B78294BFF221A70284A284B1B78DBB243F0030341
:40670000DBB21370254A254B1B78DBB263F07F03DBB213700837BD4680BD00BF80400040824000408440004086400040884000408A4000408C4000408E40004090400040DF
:40674000924000409440004096400040984000409A4000409C4000409E400040004100406C0D00480043004000420040A14600408901004922420040204200402542004043
:40678000044000400640004008400040014000400B400040A2430040A1430040A043004080B582B000AF2D4B1B78FB712C4B1B78BB712C4B1B787B712B4AFB7903F0070330
:4067C000DBB21370294AFB791B09DBB21370244ABB7943F00303DBB21370224A7B7943F00303DBB21370224B4CF208021A80214B80221A70204B80221A70204B80221A70C5
:406800001F4B20221A701F4B40221A701E4B40221A701E4B04221A701D4B20221A701D4B08221A701C4B20221A701C4B4FF481721A801B4B48221A701A4B01221A700A200E
:4068400000F034FD074A7B791370054ABB791370154B44221A700837BD4680BDCF010049F8460040F94600406E5800406F5800402C51004072580040015900400959004034
:40688000985A0040D85A0040005B0040205B0040235B0040285B00402B5B0040465B0040585B00405B5B00407658004080B483B000AF0346FB71FB79022B24D8FA79FB7970
:4068C0001344FB71FB79124A52F82330FA79104951F822201178FA790E48825C0A43D2B21A70FB790133FB71FB79094A52F82330FA79074951F822201178FA790548825C99
:406900000A43D2B21A700C37BD465DF8047B7047549303006C93030080B483B000AF0346FB71FB79022B28D8FA79FB791344FB71FB79144A52F82330FA79124951F8222061
:406940001178FA791048825CD243D2B20A40D2B21A70FB790133FB71FB790A4A52F82330FA79084951F822201178FA790648825CD243D2B20A40D2B21A700C37BD465DF878
:40698000047B7047549303006C93030080B586B000AF72B6584B60221A70FFF717FE574A564B1B78DBB243F00403DBB213700023FB7513E0FA7D13465B0013445B00504A10
:4069C00013443B613B691A683B699B889BB210461946FFF79FFDFB7D0133FB75FB7D072BE8D90023FB751CE0FA7D13469B0013445B00444A1344FB60FB681B68BB60FB684C
:406A00005B687B60FB681A7A5B7A1B0213437B807B88B86879681A46FFF78AFDFB7D0133FB75FB7D012BDFD94FF090403649FFF793FD364B0A221A7035480421FFF76AFDDB
:406A400034480421FFF766FD33480421FFF762FD324A324B1B78DBB243F00203DBB213702F4A2F4B1B78DBB243F00203DBB213702C4A2C4B1B78DBB243F04003DBB21370D8
:406A8000294A294B1B78DBB243F01003DBB21370264827490822FFF74BFD264826490822FFF746FD254826490A22FFF741FD254825490A22FFF73CFD244825490822FFF787
:406AC00037FD244824490822FFF732FD234BC4221A70234A224B1B78DBB243F00803DBB21370FFF75DFE1F480E490E22FFF720FD1837BD4680BD00BF00480040E84600407E
:406B000080930300B0930300AC000048835800400076004008760040107600400350014013500140A0430040C243004002510040340D0048C25100403C0D0048F05100408F
:406B4000440D004810510040500D0048225100405C0D004832510040640D00485B06014022430040B043004080B400AFBD465DF8047B704780B582B000AF0F2000F06AF8D4
:406B800000F058F800F06BF90346FB71074A074B1B78DBB243F01003DBB21370FB79184600F061F90837BD4680BD00BF9364004080B500AF00F0AEF84FF4004000F0D6F827
:406BC000054B1B78002B04D1FFF7CEFF024B01221A70FFF7CFFF80BD5083FF1F80B582B000AF00F0D3F80346FB80FB88A3F500439BB2BB80BB881BB218460837BD4680BD9B
:406C000080B584B000AF0346FB80B7F90630002B04DBFB88A3F50043FB8103E0FB88A3F50043FB81FB89184600F0A0F81037BD4680BD00BF80B400AF054B1B78DBB203F0FB
:406C40000F03DBB21846BD465DF8047B704700BF6364004080B483B000AF0346FB71044AFB7913700C37BD465DF8047B704700BF8364004080B582B000AF1C4B1B78DBB25F
:406C800023F00703FB71194AFB791370174B1B78DBB223F00303FB71144AFB79137000F0B1F84FF4004000F08DF84FF4004000F05DF8002000F03EF800F04CF84FF400403F
:406CC00000F090F800F0CBF80346BB71084A084B1B78DBB243F01003DBB21370BB79184600F0C1F80837BD4680BD00BF766400409664004080B400AF054A054B1B78DBB26A
:406D000063F07F03DBB21370BD465DF8047B70477664004080B500AF054B1B78002B04D1FFF7A8FF024B01221A70FFF7E3FF80BD5183FF1F80B483B000AF0346FB71044A48
:406D4000FB7913700C37BD465DF8047B704700BF8664004080B400AF034B1B78DBB21846BD465DF8047B70476664004080B483B000AF0346FB80044AFB8813800C37BD4697
:406D80005DF8047B704700BF0A68004080B400AF044B1B78044B1B889BB21846BD465DF8047B7047056400408A68004080B400AF034B1B889BB21846BD465DF8047B7047FF
:406DC0008A68004080B483B000AF0346FB80044AFB8813800C37BD465DF8047B704700BF4A68004080B483B000AF0346FB80044AFB8813800C37BD465DF8047B704700BFD3
:406E00006A68004080B500AF01E0FFF7CFFFFFF7A1FF034603F04003002BF6D180BD00BF142816D902B4012114381049097811F0C001890904B40E4A515C04BC00BF00BF3C
:406E400000BF8841FDD500BF00BF02BC704700BF00BF70F10400FCD570470B050709EFF3108072B6704780F310887047004800405A6E0000AFF3008080B483B000AF134B41
:406E80007F221A70124B80221A707F23FB710CE0FB79DB0003F1804303F5F043FA79013AD2B21A70FB79013BFB71FB79002BEFD1FB79DB0003F1804303F5F04300221A70DF
:406EC0000C37BD465DF8047B704700BF4581FF1F4481FF1F80B485B000AF03460A46FB711346BB710123FB60FB79172B2FD8BB79002B0ED0FB791A01184B1344FA79110152
:406F0000164A0A441278D2B242F02002D2B21A700DE0FB791A01114B1344FA7911010F4A0A441278D2B222F02002D2B21A70FB791A010A4B1344FA791101084A0A4412789E
:406F4000D2B242F00102D2B21A700023FB60FB6818461437BD465DF8047B70471070004080B485B000AF03460A46FB711346BB710123FB60FB79172B18D8FB791A010F4BC2
:406F800013441B78DBB223F00E03FB72FB791A010A4B1344BA7902F00702D2B25200D1B2FA7A0A43D2B21A700023FB60FB6818461437BD465DF8047B704700BF10700040A1
:406FC00080B485B000AF0346FB710B46BB8013467B800123FB60BB8841F6FF72934202D14FF40053BB807B8841F6FF72934202D14FF400537B80FB79172B17D8FB79DB0029
:4070000003F1804303F5EC430433BB60BB68BA881A80FB79DB0003F1804303F5EC430633BB60BB687A881A800023FB60FB6818461437BD465DF8047B704700BF80B485B0A1
:4070400000AF03460A46FB711346BB710123FB60FB79172B07D8FB791A01064B1344BA795A720023FB60FB6818461437BD465DF8047B70471070004090B484B000AF044644
:40708000084611461A462346FB710346BB710B467B7113463B710123FB60FB79172B34D8FB79DB0003F1804303F5EC43BA7902F07F02D1B27A79D201D2B20A43D2B21A7003
:4070C000FB79DB0003F1804303F5EC433A7E1201D1B23A7902F00F02D2B20A43D2B25A70FB79DB0003F1804303F5EC433A7F02F00F02D2B29A70FB79DB0003F1804303F5CB
:40710000EC430022DA700023FB60FB6818461037BD4690BC704700BF80B582B000AFFF23FB71FFF79CFE0346BB71104B1B78182B12D90F4B1B78FB710C4B1B78013BDAB299
:407140000A4B1A70FB79DB0003F1804303F5F0431B78DAB2064B1A70BB791846FFF783FEFB7918460837BD4680BD00BF4481FF1F4581FF1F90B484B000AF0446084611460F
:407180001A462346FB710346BB800B46BB711346FB700123FB60FB795BB2002B23DBBB8823F47F6323F00F039BB2002B1BD1FB79DB0003F1804303F5F043BB60BB68BA8836
:4071C0001A80FB79DB0003F1804303F5F043BA799A70FB79DB0003F1804303F5F043FA78DA700023FB60FB6818461037BD4690BC704700BF80B485B000AF0346FB710B4631
:40720000BB8013467B800123FB60FB795BB2002B17DBFB79DB0003F1804303F5F0430433BB60BB68BA881A80FB79DB0003F1804303F5F0430633BB60BB687A881A800023B9
