:400000000080002011000000815700008157000080B500AF024A034B1B68136005F0DEFBBC760040FA46004010B5054C237833B9044B13B10448AFF300800123237010BD89
:400040001882FF1F0000000054B80000084B10B51BB108480849AFF300800848036803B910BD074B002BFBD0BDE81040184700BF0000000054B800001C82FF1F0881FF1F07
:400080000000000090B484B000AF7860084611461A460346FB700B46BB7013467B70BC783B7E2344DCB22346013BDCB27B6893F839207B6893F83B30FA73BB73BB787B7357
:4000C00023463B73BA7B7B7B9A420DD3FA7B3B7B9A4201D8012314E07A7B3B7B9A4201D901230EE000230CE0FA7B3B7B9A4207D87A7B3B7B9A4201D9012302E0002300E038
:400100000023002B01D1002332E0FC787B782344DCB22346013BDCB27B6893F838207B6893F83A30FA72BB72FB787B7223463B72BA7A7B7A9A420DD3FA7A3B7A9A4201D86B
:40014000012314E07A7A3B7A9A4201D901230EE000230CE0FA7A3B7A9A4207D87A7A3B7A9A4201D9012302E0002300E0002300BF18461037BD4690BC704700BF90B585B0D5
:4001800000AFF860B9601346FB71BB689C68FB79F86801211A460023A047034618461437BD4690BD90B585B000AFF860B9601346FB71BB689C68FB79F86803211A46002390
:4001C000A0471437BD4690BD90B583B000AF786039603B689C687868042100220023A0470C37BD4690BD00BF90B583B000AF786039603B689C687868042101220023A0474A
:400200000C37BD4690BD00BF90B585B000AFF860B9601346FB71BB689C68FB79F86802211A460023A0471437BD4690BD90B585B000AFF860B9601346FB71BB689C68FB79F0
:40024000F86805211A460023A047034618461437BD4690BD90B585B000AFF860B9603B601346FB71BB689C68FB79F86806211A463B68A047034618461437BD4690BD00BF45
:4002800080B586B000AFF860B9607A600023FB757B681B78BB75FB7D002B10D1BB7DFF2B0AD0BB7DF868B9681A46FFF7BFFF0346002B63D1002365E00123FB755EE0BB7DF9
:4002C000FF2B0AD1BB7DF868B9681A46FFF7AEFF0346002B50D1002354E0BB7DFE2B02D100BF01234EE0BB7DEF2B45D8BB7DDF2B09D9BB7D03F00F03DBB2F868B9681A46CE
:40030000FFF782FF38E0BB7DCF2B09D9BB7D03F00F03DBB2F868B9681A46FFF743FF2BE0BB7DBF2B1CD9F868B968FFF74DFFBB7D03F00F03BB75BB7D1B01BB75BB7D0233F4
:40034000BB75BB7D9BB2184601F050FDF868B968FFF74AFFBB7D9BB2184601F047FD0BE0BB7DBD2B08D8BB7D5BB2002B04DBBB7D9BB2184601F03AFD0023FB757B68013365
:400380007B6085E718461837BD4680BD80B485B000AFF8607B600B46FB721346BB72FB7A062B11D801A252F823F000BFC9030000C9030000C9030000C9030000C903000030
:4003C000C9030000C9030000012318461437BD465DF8047B704700BF80B483B000AF78600B46FB70FB787A6813447B607B681B7818460C37BD465DF8047B704780B485B00C
:4004000000AF78600B46FB70FB787A6813447B607B681B78FB817B6801337B60FB891B02FB817B681B789AB2FB891344FB81FB8918461437BD465DF8047B704780B582B0B6
:4004400000AF786078680021FFF7C6FF034618460837BD4680BD00BF80B582B000AF78607868FFF7EBFF0346012B05D0022B05D0002B05D1062304E0032302E0062300E03B
:40048000032318460837BD4680BD00BF80B582B000AF786078680521FFF79EFF034618460837BD4680BD00BF80B582B000AF786078680621FFF7A2FF034618460837BD4699
:4004C00080BD00BF80B582B000AF786078680821FFF794FF034618460837BD4680BD00BF80B582B000AF786078680A21FFF774FF034618460837BD4680BD00BF80B582B0ED
:4005000000AF786078680B21FFF766FF034618460837BD4680BD00BF80B582B000AF786078680C21FFF758FF0346DBB25BB218460837BD4680BD00BF80B582B000AF786033
:4005400078680D21FFF748FF0346DBB25BB218460837BD4680BD00BF80B582B000AF786078680E21FFF738FF0346DBB25BB218460837BD4680BD00BF80B582B000AF78601A
:4005800078680F21FFF728FF0346DBB25BB218460837BD4680BD00BF80B582B000AF786078681021FFF718FF0346DBB25BB218460837BD4680BD00BF80B582B000AF786016
:4005C00039607868FFF748FF03461A463B68134418460837BD4680BD80B584B000AF786039607B689B681846FFF728FF0346002B01D0022B1BD13B681A787B68DA773B6871
:400600005A787B6883F820203B6803331B78DAB27B681A773B6804331B78DAB27B685A773B6805331B78DAB27B689A7730E03B681B78FB73FB7B03F00F03DAB27B689A7794
:400640007B689B7FDBB2023BDBB2DAB27B689A77FB7B1B09FB73FA7B7B685A773B685B78FB73FB7B03F00F03DAB27B6883F82020FB7B1B09FB737B68FA7BDA773B689B7885
:40068000FB73FB7B1B09FB73FA7B7B681A7700BF1037BD4680BD00BF80B483B000AF78607B6800221A777B680022DA777B68002283F820207B6800225A777B6800229A7750
:4006C0000C37BD465DF8047B704700BF80B586B000AF78600B46FB707B689B687B617B689B681846FFF7AAFE03463B747B689B681846FFF7B1FE0346FB73FF237B743B7CB8
:40070000012B01D10F237B747B689B681846FFF7E7FE0346FB747B689B681846FFF7EEFE0346BB737B689B681846FFF7CBFE0346BB81FB78602B09D9BB89002B06D0BB8935
:400740007A6913447B616123FB7416E07B689B681846FFF7A9FE0346BB81FB78402B09D9BB89002B06D0BB897A6913447B614123FB7402E07B6911337B61FA78BB7B9A4278
:4007800004D97868FFF788FF002332E0FB7CBB74BA7CBB7B9A4228D87B691B78FF2B03D17B6901337B6117E0BA7CFB789A4205D178687969FFF710FF7B691AE07B69023363
:4007C0001A787B7C1340DBB21A467B6913447B61FB7B7A6913447B61BA7CBB7B9A4200D103E0BB7C0133BB74D6E77868FFF754FF002318461837BD4680BD00BF90B589B0C4
:4008000002AF7860084611461A460346FB700B46BB7013467B707B7878681946FFF756FFF860FB68002B01D1002369E07B689B681846F968FFF7C0FE78617B68DB7FFB7239
:400840007B6893F82030BB727B685B7FDAB2FB781344FB707B689B7FDBB2BA78D31ABB70BB78013BBB70BA78BB7AD31ADBB20133DAB2F978FC7ABB7A009378682346FFF712
:4008800001FC0346002B02D17B681B7F38E0FB7A0733FB72FB7ADB08FB72BB783B743A7CBB7AD31A3B743B7C01333B740023BB7420E0FB787B740023FB7411E07B691B78CD
:4008C000797C3A7C00937868002300F07FFB7B6901337B617B7C08337B74FB7C0133FB74FA7CFB7A9A42E9D33B7C01333B74BB7C0133BB74BA7CBB7A9A42DAD37B681B7FF6
:400900005BB218461C37BD4690BD00BF80B586B000AFF8607B600B46FB721346BB720023FB75FB685B6AF868984703461A46BB7A1344BB7213E07B681B78F97ABA7AF8688D
:40094000FFF75CFF0346BB75BA7DFB7A1344FB72BA7DFB7D1344FB757B6801337B607B681B78002BE7D1FB7D18461837BD4680BD80B584B000AF78607B689B68002B00D145
:400980006CE07B6893F82830002B14D17B689B681846FFF77BFD0346DAB27B6883F829207B689B681846FFF7B7FD03461A467B6883F82A202DE07B6893F82830012B14D1C4
:4009C0007B689B681846FFF7D7FD03461A467B6883F829207B689B681846FFF7DDFD03461A467B6883F82A2013E07B689B681846FFF7A2FD03461A467B6883F829207B6835
:400A00009B681846FFF7A8FD03461A467B6883F82A207B6893F829305BB29AB27B6893F82A305BB29BB2D31A9BB2FB817B6893F82B30402B0DD0FB89DBB2FB817B6893F865
:400A40002B309BB2FA8902FB03F3FB81FB899B09FB81FB89DAB27B6883F82C201037BD4680BD00BF80B483B000AF7860002318460C37BD465DF8047B704700BF80B483B0D2
:400A800000AF78607B68034A5A620C37BD465DF8047B7047650A000080B582B000AF786039607B689A683B689A4208D07B683A689A607868FFF75CFF7868FFF7DFFF08371D
:400AC000BD4680BD80B584B000AF7860084611461A460346FB700B46BB7013467B7000237B72FA787B789A4204D9FA787B78D31A7B7303E07A78FB78D31A7B73BA783B7ED1
:400B00009A4204D9BA783B7ED31A3B7303E03A7EBB78D31A3B733A7B7B7B9A4213D901237B727B7B3B723B7B7B733B7A3B73FB783B72BB78FB703B7ABB707B783B723B7EE8
:400B40007B703B7A3B76FA787B789A420BD9FB783B727B78FB703B7A7B70BB783B723B7EBB703B7A3B767B7B5B08DBB2FB723A7EBB789A4202D90123BB7201E0FF23BB7241
:400B8000BB78BB737B78FF2B02D17B78013B7B70FB78FB7326E07B7A002B07D1FA7BBB7B786811461A4600F0FFF906E0BA7BFB7B786811461A4600F0F7F9FA7A3B7BD31AA2
:400BC000DBB2FB7297F90B30002B08DABA7ABB7B1344BB73FA7A7B7B1344DBB2FB72FB7B0133FB73FA7B7B789A42D4D91037BD4680BD00BF90B585B000AFF860B9603B60F5
:400C00001346FB71BB681C68FB79F868B9681A463B68A047034618461437BD4690BD00BF80B584B000AF786039607B685B6B02209847786839680A220023FFF7DBFF03464C
:400C4000FB737B685B6B032098477B685B6B00209847FB7B18461037BD4680BD80B582B000AF786039607B685B6B022098477B685B6B012098477868396814220023FFF7AE
:400C8000B9FF7B683833786839681722FFF7B2FF7B685B6B002098470837BD4680BD00BF80B584B000AF786039607B685B6B022098477B685B6B0120984778683968152253
:400CC0000023FFF797FF0346FB73FB7B002B06D07B683833786839681722FFF78BFF7B685B6B00209847FB7B18461037BD4680BD80B584B000AFF860B9601346FB71FB1D26
:400D0000F868B9680F22FFF775FF034618461037BD4680BD80B586B000AFF860B96011461A460B46FB711346BB71FB682D337B617B69FA791A707B69BA795A70F868B96803
:400D400032227B69FFF756FF1837BD4680BD00BF80B586B000AFF860B96011461A460B46FB711346BB71FB682D337B617B69FA791A707B69BA795A707B6997F82020DA70C0
:400D80007B6997F824209A70F868B9683B227B69FFF730FF1837BD4680BD00BF80B584B000AF7860396007F10F03786839684622FFF720FFFB7B18461037BD4680BD00BF92
:400DC00080B584B000AF7860396007F10F03786839684722FFF70EFFFB7B18461037BD4680BD00BF80B582B000AF786039607868396848220023FFF7FDFE034618460837ED
:400E0000BD4680BD80B582B000AF78607B685B6878681946FFF7C2FF03461A467B681A707B685B6878681946FFF7CAFF03461A467B685A707B685B6878681946FFF7D2FF2C
:400E400003461A467B68DA747B685A687B683833786811461722FFF7CDFE0837BD4680BD80B582B000AF78607B6800229A607B680022DA607B6800225A747B6801221A7462
:400E80007B6822229A747B6800229A617868012100F0B8F87868FFF7F1FD7B68012283F828207B68002283F829207B68002283F82A207B68402283F82B207B68002283F8B0
:400EC0002C207B68024A5A630837BD4680BD00BFD91D000080B582B000AF78607B685B6878681946FFF79CFE0346002B01D1002303E07868FFF786FF012318460837BD46B8
:400F000080BD00BF80B584B000AFF860B9607A60F868FFF7A5FFFB68BA685A60FB685B687A689A60F868FFF7D5FF034618461037BD4680BD80B582B000AF78607B685B682B
:400F400078681946FFF78AFE0837BD4680BD00BF80B582B000AF78607B689B69002B03D07B689B69786898477B685B6878681946FFF796FE034618460837BD4680BD00BFA9
:400F800080B582B000AF78600B46FB707B685A68FB78786811461A46FFF7AAFE034618460837BD4680BD00BF80B582B000AF78600B46FB701346BB707B685968FA78BB78DE
:400FC0007868FFF7A7FE0837BD4680BD90B585B002AF7860084611461A460346FB700B46BB7013467B707B685968FA78BC787B7800933B7E019378682346FFF7A9FE0C3735
:40100000BD4690BD80B483B000AF78600B46FB707B68FA7883F831200C37BD465DF8047B704700BF80B485B000AF78607B68DB7CFB73FB7B282B01D1FF2306E07B68DB7C90
:40104000022B01D1032300E0012318461437BD465DF8047B704700BF80B582B000AF78607B68DB7C302B08D17B68FF2283F831207B68FF2283F8322007E07868FFF7D2FFC6
:40108000034678681946FFF7BDFF0837BD4680BD80B483B000AF7860002318460C37BD465DF8047B704700BF80B582B000AF78607868FFF7EDFF034678681946FFF7A2FFA9
:4010C0000837BD4680BD00BF80B483B000AF78607B6800229A707B681A787B68DA707B68DB78013BDAB27B68DA707B6800221A710C37BD465DF8047B704700BF90B482B052
:4011000000AF78607B689A787B681B781344DAB27B689A707B689A787B685B789A4201D3002318E07B681B790133DAB27B681A717B68DC787B681B782344DCB27B685B787A
:40114000A34204D87B685C782346013BDCB27B682246DA70012318460837BD4690BC704780B485B000AF78607B689B68FB60FB68BB607B685B791A46BB681344BB60FB68AA
:401180005A1CFA6000221A70FA68BB689A42F6D11437BD465DF8047B704700BF80B485B000AF78600B46FB701346BB707B68DB78FA789A4294BF01230023DBB2FB737B68C7
:4011C0009B78BA789A422CBF01230023DBB2BB73FA78BB789A428CBF01230023DBB27B73FB7B3B73FA7BBB7B1340FB73BA7B7B7B1340BB737A7B3B7B13407B73FA7BBB7B80
:401200001343FB73FA7B7B7B1343FB73FB7B03F00103DBB218461437BD465DF8047B704780B483B000AF786039603B6800221A707B689A783B685A707B685A793B689A70EF
:401240003B689B78013BDAB23B689A707B68DA783B68DA700C37BD465DF8047B704700BF80B584B000AF786039603B685B78FB73FB7BBB733B68DB78032B13D801A252F884
:4012800023F000BFA512000095120000A51200009D120000BB7B0833BB7303E0FB7B083BFB7300BFFA7BBB7B786811461A46FFF775FF034618461037BD4680BD80B584B0ED
:4012C00000AFF860B9607A60FB685A79FB689B68B8687968FEF7BEFF034618461037BD4680BD00BF90B484B000AF7860084611461A460346FB700B46BB7013467B707B685D
:401300009B68FB607B689B78BA78D31ABB700124BB7803F00703BB702246BB7802FA03F3DCB2FB78FA681344FB607B78002B06D0FB681B782343DAB2FB681A7007E0E34317
:40134000DCB2FB681B782340DAB2FB681A701037BD4690BC704700BF80B582B000AF786039603B685A787B689B789A4200D216E03B685A787B68DB789A4200D90FE03B6879
:401380001A787B685B799A4200D308E03B6819783B685A783B681B797868FFF7A3FF0837BD4680BD90B585B000AF786039603B689C780023FB730023BB733B68DB78032B1F
:4013C0001AD801A252F823F0D9130000E1130000E9130000F1130000FB7B0133FB730BE0BB7B0133BB7307E0FB7B013BFB7303E0BB7B013BBB7300BFE3B25BB2002B03DA8D
:4014000078683968FFF7A8FF3B681A78FB7B1344DAB23B681A703B685A78BB7B1344DAB23B685A706300DCB2002CE5D11437BD4690BD00BF80B586B000AFF860B9603B6085
:401440001346FB71BB685B687B61FB790A3B3E2B00F2BA8001A252F823F000BFC9150000C9150000C9150000C9150000C9150000C9150000C9150000C9150000C91500000A
:40148000C91500007D1500008D150000C9150000A7150000C9150000C9150000C9150000C9150000C9150000C9150000C9150000C9150000C9150000C9150000C9150000F6
:4014C000C9150000C9150000C9150000C9150000C9150000C9150000C9150000C9150000C9150000C9150000C9150000C9150000C9150000C9150000C91500007315000062
:40150000C9150000C9150000C9150000C9150000C9150000C9150000C9150000C915000059150000C9150000C9150000C9150000C9150000C9150000C9150000C91500003B
:40154000C9150000C9150000C9150000B1150000BB150000C515000078693968FFF780FE0346002B04D078693968FFF71BFF2BE02AE078693968FFF7EFFE25E07869FFF73B
:40158000EFFD7B691846FFF79FFD1DE07B691846FFF7B4FD0346002B01D1002315E07869FFF7DEFD10E078693968FFF739FE0BE07B695A793B681A7006E07B695A783B68C8
:4015C0001A7001E0012300E0012318461837BD4680BD00BF80B483B000AF78607B681A897B685B8912B21BB29A4201DB00233AE07B689B899AB27B689B889BB213449BB2A1
:401600009AB27B689A817B68DB899AB27B68DB889BB213449BB29AB27B68DA817B68DB891BB2002B15DD7B689B899AB27B681B889BB213449BB29AB27B689A817B68DB8980
:401640009AB27B685B889BB2D31A9BB29AB27B68DA817B681B899BB29BB201339BB29AB27B681A81012318460C37BD465DF8047B704700BF80B487B000AFF86008461146B2
:401680001A4603467B810B463B811346FB80FA887B89D31A9BB2BB823A8C3B89D31A9BB29AB2FB685A80FB683A8C5A81FB683A891A81FB687A899A81B7F91430002B08DB12
:4016C000FB6801221A80BB8AFB82FB680022DA8110E0FB684FF6FF721A80BB8A5B429BB2FB82FB685B889BB2C3F101039BB29AB2FB68DA81B7F91420FB685B881BB292FBB3
:40170000F3F39AB2FB689A80B7F91630FA68528812B293FBF2F102FB01F29B1A9AB2FB68DA801C37BD465DF8047B704780B483B000AF78600B46FB70FB780133FB707B6865
:401740001B7EFA789A4201D30023FB70FB7818460C37BD465DF8047B704700BF80B483B000AF78600B46FB70FB78013BFB707B681B7EFA789A4203D37B681B7E013BFB7038
:40178000FB7818460C37BD465DF8047B704700BF80B584B000AF78600B467B8013467B707A78796813465B001344DB000B4428331B7AFB737A78796813465B001344DB0029
:4017C0000B4428335B68FA7B7868114698470346FB73FB7B7A689B0013445B88B7F902201BB29A4200D00AE07A78796813465B001344DB000B442833FA7B1A72DAE710376C
:40180000BD4680BD80B584B000AF78607B68484A5A647B68474ADA627B685B88FB817B685B88BB817B68002283F830200123FB7226E0FB7A7A689B0013445B88B7F90E20E0
:401840001BB29A4205DAFB7A7A689B0013445B88FB81FB7A7A689B0013445B88B7F90C201BB29A4209DD7B68FA7A83F83020FB7A7A689B0013445B88BB81FB7A0133FB7201
:401880007B681B7EFA7A9A42D3D37B68FA895A837B685B8B9AB2BB89D31A9BB29AB27B685A837B685B8B002B01D100233CE07B6893F830207B6883F84820B7F90C3078687F
:4018C00019460122FFF764FFB7F90C30786819460022FFF75DFF7B6801225A767B6893F830301A467B6833F822207B6893F8483019467B6833F8213012B21BB29A4203D036
:401900007B6800225A760EE07B685B8B9BB29BB2013B9BB29AB27B685A837B685B8B002B01D1002300E0012318461037BD4680BD2D1700005D17000090B585B000AF786061
:4019400039607B681B8DFB817B68B3F84030BB817B689B8F7B81B7F90A30002B00DA5FE0B7F90A303A685278934200DB58E0B7F90E20B7F90C309A4229DAB7F90C30002B58
:4019800000DA4DE0B7F90E303A681278934200DB46E0B7F90E30002B01DA0023FB81B7F90C303A681278934202DB3B681B78BB81FB89D9B27B89DCB2BB89DAB2FB89DBB2DF
:4019C000D31ADBB23868224600F09CF928E0B7F90E30002B00DA23E0B7F90C303A681278934200DB1CE0B7F90C30002B01DA0023FB81B7F90E303A681278934202DB3B681E
:401A00001B78FB81BB89D9B27B89DCB2FB89DAB2BB89DBB2D31ADBB23868224600F072F91437BD4690BD00BF90B589B002AF78600B46FB70FB785A1C13465B001344DB008C
:401A40007A68134404337B617B691B7DFB74FB7C7A689B0013445B883B82FA7C7B6833F82230FB817B691B69FA7C7868114698470346FB74FB7C7A689B0013445B88BB81DC
:401A8000FA7C7B6833F822307B817B69FA7C1A75B7F90E10B7F91020B7F90A40B7F90C30009378692346FFF7E5FD1C37BD4690BD80B584B000AF786039607B685B8BFB81B1
:401AC00078680021FFF7B0FF78680121FFF7ACFF7B685B7E002B09D07B681C331846FFF779FD7B6834331846FFF774FD78683968FFF722FF03E078680021FFF795FF7B68E9
:401B00001C331846FFF766FD0346002BF3D003E078680121FFF788FF7B6834331846FFF759FD0346002BF3D0FB899BB2013B9BB2FB81B7F90E30002BD8DC1037BD4680BDB1
:401B400080B483B000AF78607B6800221A760C37BD465DF8047B704780B485B000AFF860B96011461A460B46FB801346BB80FB681B7E052B13D8FB681B7E1946FB68FA881A
:401B800023F82120FB681B7EFA689B001344BA885A80FB681B7E0133DAB2FB681A761437BD465DF8047B704780B582B000AF786039607868FFF726FE0346002B00D103E02C
:401BC00078683968FFF774FF0837BD4680BD00BF80B500AF0148FFF7B3FF80BD6C83FF1F80B582B000AF78600B467B8013463B80B7F90220B7F9003003487968FFF7ACFFD1
:401C00000837BD4680BD00BF6C83FF1F80B582B000AF786003487968FFF7C6FF0837BD4680BD00BF6C83FF1F80B584B000AFF860084611461A4603467B810B463B81134619
:401C4000FB80FFF7C5FFB7F90A20B7F90830F86811461A46FFF7C4FFB7F90620B7F91830F86811461A46FFF7BBFFB7F91C20B7F92030F86811461A46FFF7B2FFF868FFF708
:401C8000C5FF1037BD4680BD80B586B002AF7860084611461A460346FB700B46BB7013467B70FF23FB730DE0F978BA78FB7B009378680023FFF78AF97B78083B7B70FB7833
:401CC0000833FB707B78072BEED87B78002B15D07B7883F007037B707B7801337B70FA7B7B7803F0070302FA03F3FB73F978BA78FB7B009378680023FFF768F91037BD46CE
:401D000080BD00BF90B585B002AF7860084611461A460346FB700B46BB7013467B70F978BA787C780123009378682346FEF7AAF90346002B00D105E0F978BA787B7878685C
:401D4000FFF7A2FF0C37BD4690BD00BF80B582B000AF7860084611461A460346FB700B46BB7013467B70F978BA787B787868FFF78BFFBB780133BB703B7C013B3B743B7C32
:401D8000002BF0D10837BD4680BD00BF90B585B002AF7860084611461A460346FB700B46BB7013467B70F978BA787C783B7E009378682346FEF766F90346002B00D108E0D0
:401DC000F978BA787C783B7E009378682346FFF7BDFF0C37BD4690BD80B483B000AF0346FB710C37BD465DF8047B704780B582B000AF0346FB80FB88184604F0E5FC083707
:401E0000BD4680BD80B500AF012004F0FFFC80BD80B500AF0A2004F0F9FC80BD90B587B000AFF8607B600B46FB721346BB72FB7A072B68D801A252F823F000BF071F00008F
:401E40005D1E00008B1E00009D1E0000CD1E0000DB1E0000E91E0000E91E0000BB7A012B02D805F091FF0DE0BB7A022B02D805F08BFF07E0BB7A032B02D805F085FF01E0AB
:401E800005F082FFFFF7BEFF3DE0FFF7C1FFBB7A184606F035F8FFF7BBFF34E0BB7A002B0ED10023FB7504E0FFF7B2FFFB7D0133FB75FB7D042BF7D9012006F03FF802E08C
:401EC000002006F03BF8FFF79DFF1CE0BB7A184605F0F8FFFFF79CFF15E0BB7A184605F08FFFFFF78FFF0EE07C6808E023465C1C1B78184605F084FFBB7A013BBB72BB7A95
:401F0000002BF3D100BF012318461C37BD4690BD80B586B000AFF860B9603B601346FB71FB790A3B0B2B7AD801A252F823F000BF611F00001F2000001F2000001F200000A6
:401F40001F200000C51F000003200000112000001F2000001F2000001F200000771F0000F868B968FF22FEF709F9F868B968324AFEF786F953E0BB685B687B61F868B96817
:401F80002E4AFEF77DF97B691B7963F04F03DBB2F868B9681A46FEF749F9F868B9680122FEF732F97869F968BA68FFF787F90346002B01D100233AE0F868B9680022FEF7C3
:401FC000F1F82CE0F868B9680122FEF7EBF8F868B9680022FEF718F9F868B9688122FEF725F93B681B789B08DBB2F868B9681A46FEF71CF9F868B9680022FEF7D3F80123B8
:4020000015E0F868B9680E4AFEF73AF901230EE0F868B9680B4AFEF733F9012307E0FB79F868B9681A463B68FFF704FA034618461837BD4680BD00BF5082030070820300EB
:40204000788203008482030080B500AF1A4B1B4A1A601B4B1B4A1A601B4B1C4A1A601C4B1C4A1A601C4B2D221A701C4B4FF07E521A601B4B4FF000021A601A4B4FF0000269
:402080001A6000F03BF8184B01221A70174B01221A70032004F062F8154B00221A70154B41F288321A60144B4FF47A721A6003F0A1FA00F065F8FAE71C84FF1F0000024359
:4020C0003C85FF1F0000F0412084FF1F000040402484FF1F000020418E84FF1F4085FF1FBC83FF1FC884FF1FB883FF1F0B85FF1FF084FF1F4884FF1F0C85FF1F80B500AF77
:4021000062B6052004F02AF804F000F805F026FD03F016FF002004F023FE04F017FC06F077F804F019FF04F0D5FF05F083F805F03FF904F00BFC05F04DFA04F095FD06F07B
:4021400031F80B480B490C4AFEF7DCFE08483721FEF716FF05F00EFFB42003F07FFA074B01221A7005F014FD042003F09FFA80BDCC83FF1F3081FF1F1D1E00000A85FF1F60
:4021800080B500AF4E4B1B78122B00F2978001A252F823F04D220000E1210000E7210000ED210000F3210000172200001D2200002322000029220000F9210000FF210000EC
:4021C00047220000412200002F2200003B22000035220000052200000B2200001122000000F0CAF96BE000F017FA68E000F0AEFA65E000F085FB62E000F042FF5FE001F050
:402200009FFA5CE000F00CFB59E000F03BFB56E000F06AFB53E001F0F3FD50E001F058FE4DE001F07FFE4AE001F0A6FE47E000F09BF844E000F0DAF841E000F019F93EE032
:4022400000F058F93BE000F04DF838E003F074FF03461A461B4B1A601A4B1B681A481B491A4607F001FD1A48FEF764FE1848FEF7F3FE17481749FEF70FFC154828210C2231
:40228000154BFEF743FB12481249FEF705FC104802211C22114BFEF739FB0D480D49FEF7FBFB0B4804213C220D4BFEF72FFB0848FEF74EFE0346002BD8D100E000BF80BD35
:4022C0000B85FF1F4483FF1F5085FF1F90820300CC83FF1FD0660300948203009C820300AC82030080B500AF164B1B781846002101F068FE144B1B78002B18D1134B1B788D
:40230000002B14D1124B1B78002B10D1114B1B78002B0CD1104B1B78002B08D10F4B1B78002B04D104F00CFE0346002B08D00C4B1A78044B1A700B4B1B68184603F068F825
:4023400080BD00BF0B85FF1F0985FF1F9284FF1FD684FF1F4184FF1F4084FF1F0885FF1FB883FF1F4884FF1F80B500AF164B1B781846002101F026FE144B1B78002B18D136
:40238000134B1B78002B14D1124B1B78002B10D1114B1B78002B0CD1104B1B78002B08D10F4B1B78002B04D104F0CAFD0346002B08D00C4B1A78044B1A700B4B1B6818464A
:4023C00003F026F880BD00BF0B85FF1F0985FF1F9284FF1FD684FF1F4184FF1F4084FF1F0885FF1FB883FF1F4884FF1F80B500AF164B1B781846002101F0E4FD144B1B78FC
:40240000002B18D1134B1B78002B14D1124B1B78002B10D1114B1B78002B0CD1104B1B78002B08D10F4B1B78002B04D104F088FD0346002B08D00C4B1A78044B1A700B4BD8
:402440001B68184602F0E4FF80BD00BF0B85FF1F0985FF1F9284FF1FD684FF1F4184FF1F4084FF1F0885FF1FB883FF1F4884FF1F80B500AF164B1B781846002101F0A2FD0A
:40248000144B1B78002B18D1134B1B78002B14D1124B1B78002B10D1114B1B78002B0CD1104B1B78002B08D10F4B1B78002B04D104F046FD0346002B08D00C4B1A78044B88
:4024C0001A700B4B1B68184602F0A2FF80BD00BF0B85FF1F0985FF1F9284FF1FD684FF1F4184FF1F4084FF1F0885FF1FB883FF1F4884FF1F80B500AF164B1B78184600217C
:4025000001F060FD144B1B78002B18D1134B1B78002B14D1124B1B78002B10D1114B1B78002B0CD1104B1B78002B08D10F4B1B78002B04D104F004FD0346002B08D00C4BDC
:402540001A78044B1A700B4B1B68184602F060FF80BD00BF0B85FF1F0985FF1F9284FF1FD684FF1F4184FF1F4084FF1F0885FF1FB883FF1F4884FF1F98B500AF244B1C78B4
:402580000020032102F0E6FF0346DBB22046194601F018FD04F0D4FC0346002B37D00020032102F0D7FF0346032B0BD1032003F0D5FD174B02221A70164B1B68184602F095
:4025C00027FF24E00020032102F0C4FF0346022B0BD1032003F0C2FD0D4B03221A700D4B1B68184602F014FF11E00020032102F0B1FF0346002B0AD1032003F0AFFD044B15
:4026000005221A70034B1B68184602F001FF98BD0B85FF1F4884FF1F98B500AF414B00221A70002005F080FD3F4B1C780020032102F090FF0346DBB22046194601F0C2FCE8
:4026400004F07EFC0346002B5BD00220032102F081FF0346032B13D1032003F07FFD324B04221A70314B4FF07C521A60304B4FF07C521A602F4B1B68184602F0C9FE40E042
:402680000020032102F066FF0346022B11D1032003F064FD244B09221A70274B274A1A60274B264A1A60234B1B68184602F0B0FE27E00020032102F04DFF0346012B0ED107
:4026C000032003F04BFD184B0A221A701A4B1D4A1A60184B1B68184602F09AFE11E00020032102F037FF0346002B0AD1032003F035FD0D4B01221A700E4B1B68184602F02A
:4027000087FE114B1B78002B0AD0032003F026FD054B01221A70074B1B68184602F078FE98BD00BFF084FF1F0B85FF1FD084FF1F4484FF1F4884FF1FA884FF1F0000284106
:40274000F484FF1F00007A444184FF1F98B500AF2F4B00221A70002005F0E6FC2D4B1C780020032102F0F6FE0346DBB22046194601F028FC04F0E4FB0346002B37D00220B3
:40278000032102F0E7FE0346032B0BD1032003F0E5FC204B10221A701F4B1B68184602F037FE24E00220032102F0D4FE0346022B0BD1032003F0D2FC164B11221A70164B78
:4027C0001B68184602F024FE11E00020032102F0C1FE0346002B0AD1032003F0BFFC0D4B01221A700C4B1B68184602F011FE0B4B1B78002B0AD0032003F0B0FC054B01227D
:402800001A70054B1B68184602F002FE98BD00BFF084FF1F0B85FF1F4884FF1F4184FF1F80B500AF134B1B781846002101F0CAFB002005F083F9012005F076FC012004F092
:402840008FFA0D4B1B78002B13D0032003F086FC002004F085FA094B00221A70002005F063FC044B03221A70054B1B68184602F0CFFD80BD0B85FF1F4184FF1FF084FF1FEA
:402880004884FF1F80B500AF134B1B781846002101F098FB012005F051F9012005F044FC012004F05DFA0D4B1B78002B13D0032003F054FC002004F053FA094B00221A7074
:4028C000002005F031FC044B03221A70054B1B68184602F09DFD80BD0B85FF1F4184FF1FF084FF1F4884FF1F80B500AF034B1B781846002101F066FB80BD00BF0B85FF1F51
:4029000090B583B000AF864B1B687B60002002F095FD844B1B680133824A1360824B1A78824B1B7852B25BB29A4206DB804B00221A70804B01221A700BE07B4B1B785AB20C
:402940007A4B1B785BB2053B9A4202DA794B00221A7004F0CFFB03469AB2774B1A8004F037FD03461A46754B1A80734B1B889BB21BB2184604F016FC03461846704906F07B
:40298000DBFA03461A466F4B1A606F4B1B78184606F07EFA02466D4B1B681046194606F0CBFA03461A46694B1A60684B1A68654B1B681046194606F0B7F903461A46634B68
:4029C0001A60624B1C68604B1B780133184606F05FFA03462046194606F062FB03461A465A4B1A60594B1B68564A1360534B1B881BB2184604F044FD03461846194606F00D
:402A000093F903461A46524B1A604E4B1A68504B1B681046194606F08FFA03461A464D4B1A60484B1A684C4B1B681046194606F083FA03461A46494B1A603D4B1B78012BCD
:402A400040F0CD80012005F06FFB364B1B68B3F57A7F2ED33B4B1B68184606F033F802460B463F483F4907F0FFF8394B1B68184606F028F802460B463B483C4907F0F4F896
:402A8000344B1B68184606F01DF802460B463848384907F0E9F8384B1A78384B1B78DBB21046194601F08EFA02F028FE1D4B00221A60022004F054F9274B1A68244B1B68EE
:402AC0001046194606F02EF90346184605F0FAFF02460B46104619460FA3D3E9002306F0C3F80346002B4DD0254B1B8801339AB2234B1A80224B1B88B3F57F6F03D9204BC6
:402B00004FF47F621A801E4B1B88184605F090FB65E000BFAFF300807B14AE47E17A743F2084FF1F3883FF1F8A84FF1F8E84FF1FF084FF1F1884FF1FA484FF1F9084FF1F7A
:402B4000000070412C84FF1F3E81FF1F4885FF1FC883FF1F4C84FF1FD084FF1FA884FF1F7084FF1FBC8203001085FF1FC48203000884FF1FCC8203000B85FF1F3C81FF1F28
:402B80003483FF1FA84B1A68A84B1B681046194606F0C8F80346184605F094FF02460B46104619469AA3D3E9002306F05DF80346002B14D09E4B1B88013B9AB29C4B1A8019
:402BC0009B4B1B88002B05D1994B00221A80994B00221A70964B1B88184605F029FB954B1B78002B3FD1944B1B68B3F57A7F2ED3924B1B68184605F065FF02460B469048E6
:402C0000904907F031F8894B1B68184605F05AFF02460B468C488D4907F026F88C4B1B68184605F04FFF02460B468A488A4907F01BF88A4B1A788A4B1B78DBB210461946EC
:402C400001F0C0F902F05AFD7B4B00221A60784B00221A80002005F0EBFA002004F080F8002005F061FA04F06BF90346002B15D07C4B1B78002B0CBF01230023DBB21A4655
:402C8000784B1A70784B1B689BB21BB2184603F065FA764B1B68184602F0BAFB714B1B78012B40F0448103F047FA03461A466E4B1A606B4B1B78002B30D16D4B1A686A4B8A
:402CC0001B689A422AD06A4B1A68674B1B689A420ADD684B1B6818464FF07E5106F022F803461A46634B1A60614B1A685E4B1B689A420ADA5F4B1B6818464FF07E5106F020
:402D000013F803461A465B4B1A60574B1B68584A1360594B1B68184602F07AFB504B1B785BB2012B48D1524B1A684F4B1B689A4242D04F4B1A684C4B1B689A4216DD4D4B52
:402D40001B68184605F0BEFE02460B461046194631A3D3E9002305F055FD02460B461046194605F08BFF0246424B1A60404B1A683D4B1B689A4216DA3E4B1B68184605F01A
:402D8000A1FE02460B461046194623A3D3E9002305F03AFD02460B461046194605F06EFF0246344B1A60304B1B68314A1360324B1B68184602F02CFB294B1B785BB2022BC0
:402DC00040F082802A4B1A68274B1B689A427BD0274B1A68244B1B689A424FDD254B1B68184605F06FFE02460B46104619460CA3D3E9002305F006FD02460B4610461946CB
:402E000005F03CFF02461B4B1A6037E0AFF300807B14AE47E17A743F9A9999999999B93F7B14AE47E17A843FC883FF1FD084FF1F3483FF1FF084FF1F3883FF1F2C84FF1F55
:402E40009484FF1FBC8203003084FF1FC4820300A884FF1FF884FF1FD48203000B85FF1F3C81FF1F2884FF1F4083FF1F4884FF1F3C83FF1F4484FF1F0C85FF1F704B1A68B6
:402E8000704B1B689A4216DA6F4B1B68184605F019FE02460B461046194667A3D3E9002305F0B2FC02460B461046194605F0E6FE0246654B1A60634B1B68614A1360634BF1
:402EC0001B68184602F0A4FA5F4B1B681846796806F0EEF90346002B0BD05B4A7B6813605A4B1A6813469B0013445B00184602F08FFA554B1B6818464FF0000106F0BAF9BE
:402F00000346002B0FD0524B00221A704E4B4FF000021A604D4B1A6813469B0013445B00184602F075FA484B1B684A4A13604A4B1B78002B17D0494B1B68184602F068FA02
:402F4000434B1B78002B08D102F090FA0346012B06D13F4B01221A7002E03D4B00221A703F4B00221A703F4B1B78002B15D03C4B1B78002B0CBF01230023DBB21A46384BED
:402F80001A70304B1B689BB21BB2184603F0E6F8324B1B68184602F03BFA334B1B78002B10D0032003F0DAF8294B00221A702C4B00221A702D4B02221A70284B1B681846FA
:402FC00002F026FA2A4B1B78002B15D0294B1B78DBB2DBB20133DBB2DAB2264B1A70254B1B785BB2022B02DD224B02221A701B4B1B68184602F00CFA1F4B1B78002B15D0BB
:403000001C4B1B78DBB2DBB2013BDBB2DAB2194B1A70184B1B785BB2002B02DA154B00221A700E4B1B68184602F0F2F90C37BD4690BD00BFAFF300807B14AE47E17A843FF6
:403040003C83FF1F4083FF1F4484FF1F0C85FF1FF084FF1FD084FF1F0985FF1F4884FF1F2884FF1F9284FF1F4184FF1F0B85FF1F0885FF1F3C81FF1F4084FF1FAFF300804A
:4030800090B583B000AF804B1B687B60002002F0D5F97E4B1B6801337C4A13607C4B1A787C4B1B7852B25BB29A4206DB7A4B00221A707A4B01221A700BE0754B1B785AB279
:4030C000744B1B785BB2053B9A4202DA734B00221A7004F00FF803469AB2714B1A8004F077F903461A466F4B1A806D4B1B889BB21BB2184604F056F8034618466A4905F064
:403100001BFF03461A46694B1A60694B1B78184605F0BEFE0246674B1B681046194605F00BFF03461A46634B1A60624B1A685F4B1B681046194605F0F7FD03461A465D4BFB
:403140001A605C4B1C685A4B1B780133184605F09FFE03462046194605F0A2FF03461A46544B1A60534B1B68504A13604D4B1B881BB2184604F084F903461846194605F0E8
:40318000D3FD03461A464C4B1A60484B1A684A4B1B681046194605F0CFFE03461A46474B1A603D4B1B78012B40F0CB80012004F0BBFF364B1B68B3F57A7F2ED33B4B1B68EC
:4031C000184605F07FFC02460B463D483D4906F04BFD394B1B68184605F074FC02460B4639483A4906F040FD344B1B68184605F069FC02460B463648364906F035FD364B8C
:403200001A78364B1B78DBB21046194600F0DAFE02F074FA1D4B00221A60022003F0A0FD2F4B1A68254B1B681046194605F07AFD0346184605F046FC02460B46104619468C
:403240000FA3D3E9002305F00FFD0346002B4BD0244B1B8801339AB2224B1A80214B1B88B3F57F6F03D91F4B4FF47F621A801D4B1B88184604F0DCFF63E000BFAFF300808F
:403280009A9999999999A93F1C84FF1F3883FF1F8A84FF1F8E84FF1FF084FF1F1884FF1FA484FF1F9084FF1F000070412C84FF1F3E81FF1F4885FF1FC883FF1F4C84FF1F3A
:4032C0007084FF1FBC8203001085FF1FC48203000884FF1FCC8203000B85FF1F3C81FF1FA884FF1F3483FF1FA74B1A68A74B1B681046194605F016FD0346184605F0E2FBBD
:4033000002460B461046194699A3D3E9002305F0ABFC0346002B14D09D4B1B88013B9AB29B4B1A809A4B1B88002B05D1984B00221A80984B00221A70954B1B88184604F011
:4033400077FF944B1B78002B3FD1934B1B68B3F57A7F2ED3914B1B68184605F0B3FB02460B468F488F4906F07FFC8F4B1B68184605F0A8FB02460B468C488D4906F074FC12
:40338000824B1B68184605F09DFB02460B468948894906F069FC894B1A78894B1B78DBB21046194600F00EFE02F0A8F97A4B00221A60774B00221A80002004F039FF002052
:4033C00003F0CEFC002004F0AFFE03F0B9FD0346002B10D07B4B1B78002B0CBF01230023DBB21A46774B1A70774B1B689BB21BB2184602F0B3FE734B1B78012B40F01D81D8
:4034000002F09AFE03461A466F4B1A606C4B1B78002B2BD16D4B1A686B4B1B689A4225D06A4B1A68684B1B689A420ADD684B1B6818464FF07E5105F075FC03461A46644BE0
:403440001A60624B1A68604B1B689A420ADA604B1B6818464FF07E5105F066FC03461A465B4B1A60584B1B68584A1360544B1B785BB2012B43D1554B1A68534B1B689A4222
:403480003DD0524B1A68504B1B689A4216DD504B1B68184605F016FB02460B461046194635A3D3E9002305F0ADF902460B461046194605F0E3FB0246454B1A60434B1A684E
:4034C000414B1B689A4216DA414B1B68184605F0F9FA02460B461046194627A3D3E9002305F092F902460B461046194605F0C6FB0246374B1A60344B1B68344A1360304B6F
:403500001B785BB2022B77D1304B1A682E4B1B689A4271D02D4B1A682B4B1B689A4216DD2B4B1B68184605F0CDFA02460B461046194613A3D3E9002305F064F902460B46BD
:403540001046194605F09AFB0246214B1A601F4B1A681D4B1B689A424ADA1D4B1B68184605F0B0FA02460B461046194632E000BF9A9999999999A93F9A9999999999B93FF2
:403580007B14AE47E17A843F4C84FF1FA884FF1F3483FF1FF084FF1F3883FF1F2C84FF1F9484FF1FBC820300D084FF1F3084FF1FC4820300F884FF1FD48203000B85FF1F7E
:4035C0003C81FF1F2884FF1F4083FF1F3C83FF1FF484FF1F4AA3D3E9002305F015F902460B461046194605F049FB0246464B1A60464B1B68464A1360434B1B6818467968C2
:4036000005F056FE0346002B02D03F4A7B6813603D4B1B6818464FF0000105F02BFE0346002B06D03B4B00221A70374B4FF000021A60354B1B68384A1360384B1B78002B63
:403640000CD0344B1B78002B0CBF01230023DBB21A46304B1A70324B00221A70314B1B78002B10D02E4B1B78002B0CBF01230023DBB21A462A4B1A70244B1B689BB21BB2A9
:40368000184602F06BFD284B1B78002B0BD0032002F064FD1F4B00221A70214B00221A70224B02221A70224B1B78002B10D0214B1B78DBB2DBB20133DBB2DAB21D4B1A7024
:4036C0001C4B1B785BB2022B02DD1A4B02221A70194B1B78002B10D0164B1B78DBB2DBB2013BDBB2DAB2134B1A70124B1B785BB2002B02DA0F4B00221A700C37BD4690BDBA
:403700007B14AE47E17A843FF484FF1F4083FF1F3C83FF1FF084FF1FA884FF1F0985FF1F2884FF1F9284FF1F4184FF1F0B85FF1F0885FF1F3C81FF1F4084FF1FAFF30080F2
:4037400090B583B000AF804B1B687B60002001F075FE7E4B1B6801337C4A13607C4B1A787C4B1B7852B25BB29A4206DB7A4B00221A707A4B01221A700BE0754B1B785AB20E
:40378000744B1B785BB2053B9A4202DA734B00221A7003F0AFFC03469AB2714B1A8003F017FE03461A466F4B1A806D4B1B889BB21BB2184603F0F6FC034618466A4905F0B3
:4037C000BBFB03461A46694B1A60694B1B78184605F05EFB0246674B1B681046194605F0ABFB03461A46634B1A60624B1A685F4B1B681046194605F097FA03461A465D4BC3
:403800001A605C4B1C685A4B1B780133184605F03FFB03462046194605F042FC03461A46544B1A60534B1B68504A13604D4B1B881BB2184603F024FE03461846194605F043
:4038400073FA03461A464C4B1A60484B1A684A4B1B681046194605F06FFB03461A46474B1A603D4B1B78012B40F0CB80012004F05BFC364B1B68B3F57A7F2ED33B4B1B684E
:40388000184605F01FF902460B463D483D4906F0EBF9394B1B68184605F014F902460B4639483A4906F0E0F9344B1B68184605F009F902460B463648364906F0D5F9364B1A
:4038C0001A78364B1B78DBB21046194600F07AFB01F014FF1D4B00221A60022003F040FA2F4B1A68254B1B681046194605F01AFA0346184605F0E6F802460B4610461946AF
:403900000FA3D3E9002305F0AFF90346002B4BD0244B1B8801339AB2224B1A80214B1B88B3F57F6F03D91F4B4FF47F621A801D4B1B88184604F07CFC63E000BFAFF300808F
:403940009A9999999999A93F1C84FF1F3883FF1F8A84FF1F8E84FF1FF084FF1F1884FF1FA484FF1F9084FF1F000070412C84FF1F3E81FF1F4885FF1FC883FF1F4C84FF1F73
:403980007084FF1FBC8203001085FF1FC48203000884FF1FCC8203000B85FF1F3C81FF1FA884FF1F3483FF1FA74B1A68A74B1B681046194605F0B6F90346184605F082F8BD
:4039C00002460B461046194699A3D3E9002305F04BF90346002B14D09D4B1B88013B9AB29B4B1A809A4B1B88002B05D1984B00221A80984B00221A70954B1B88184604F0AE
:403A000017FC944B1B78002B3FD1934B1B68B3F57A7F2ED3914B1B68184605F053F802460B468F488F4906F01FF98F4B1B68184605F048F802460B468C488D4906F014F93A
:403A4000824B1B68184605F03DF802460B468948894906F009F9894B1A78894B1B78DBB21046194600F0AEFA01F048FE7A4B00221A60774B00221A80002004F0D9FB002075
:403A800003F06EF9002004F04FFB03F059FA0346002B10D07B4B1B78002B0CBF01230023DBB21A46774B1A70774B1B689BB21BB2184602F053FB734B1B78012B40F01D819D
:403AC00002F03AFB03461A466F4B1A606C4B1B78002B2BD16D4B1A686B4B1B689A4225D06A4B1A68684B1B689A420ADD684B1B6818464FF07E5105F015F903461A46644BE0
:403B00001A60624B1A68604B1B689A420ADA604B1B6818464FF07E5105F006F903461A465B4B1A60584B1B68584A1360544B1B785BB2012B43D1554B1A68534B1B689A42BE
:403B40003DD0524B1A68504B1B689A4216DD504B1B68184604F0B6FF02460B461046194635A3D3E9002304F04DFE02460B461046194605F083F80246454B1A60434B1A68A3
:403B8000414B1B689A4216DA414B1B68184604F099FF02460B461046194627A3D3E9002304F032FE02460B461046194605F066F80246374B1A60344B1B68344A1360304BC3
:403BC0001B785BB2022B77D1304B1A682E4B1B689A4271D02D4B1A682B4B1B689A4216DD2B4B1B68184604F06DFF02460B461046194613A3D3E9002304F004FE02460B46AF
:403C00001046194605F03AF80246214B1A601F4B1A681D4B1B689A424ADA1D4B1B68184604F050FF02460B461046194632E000BF9A9999999999A93F9A9999999999B93FEA
:403C40007B14AE47E17A843F4C84FF1FA884FF1F3483FF1FF084FF1F3883FF1F2C84FF1F9484FF1FBC820300D084FF1F3084FF1FC4820300F884FF1FD48203000B85FF1FB7
:403C80003C81FF1F2884FF1F4083FF1F3C83FF1FF484FF1F4AA3D3E9002304F0B5FD02460B461046194604F0E9FF0246464B1A60464B1B68464A1360434B1B6818467968B5
:403CC00005F0F6FA0346002B02D03F4A7B6813603D4B1B6818464FF0000105F0CBFA0346002B06D03B4B00221A70374B4FF000021A60354B1B68384A1360384B1B78002B65
:403D00000CD0344B1B78002B0CBF01230023DBB21A46304B1A70324B00221A70314B1B78002B10D02E4B1B78002B0CBF01230023DBB21A462A4B1A70244B1B689BB21BB2E2
:403D4000184602F00BFA284B1B78002B0BD0032002F004FA1F4B00221A70214B00221A70224B02221A70224B1B78002B10D0214B1B78DBB2DBB20133DBB2DAB21D4B1A7023
:403D80001C4B1B785BB2022B02DD1A4B02221A70194B1B78002B10D0164B1B78DBB2DBB2013BDBB2DAB2134B1A70124B1B785BB2002B02DA0F4B00221A700C37BD4690BDF3
:403DC0007B14AE47E17A843FF484FF1F4083FF1F3C83FF1FF084FF1FA884FF1F0985FF1F2884FF1F9284FF1F4184FF1F0B85FF1F0885FF1F3C81FF1F4084FF1FAFF300802C
:403E000098B500AF2E4B1C780020032101F0A2FB0346DBB22046194600F0D4F8002001F00DFB03F08DF80346002B3ED00020032101F090FB0346032B0AD1224B1B789BB2DE
:403E40001BB2184602F08AF91D4B06221A702CE00020032101F07EFB0346022B0AD11A4B1B789BB21BB2184602F078F9144B07221A701AE00020032101F06CFB0346012B8D
:403E800006D1032002F06AF90D4B08221A700CE00020032101F05EFB0346002B05D1032002F05CF9064B01221A70084B1B78002B05D0032002F052F9014B01221A7098BDE7
:403EC0000B85FF1F2885FF1F9384FF1F4184FF1F80B500AFFF2001F0F7FA0346DBB2184601F0BCFB0D4B1B781846032100F06AF803F026F80346002B05D0032002F02EF91B
:403F0000064B05221A70064B1B78002B05D0032002F024F9014B05221A7080BD0B85FF1F0985FF1F80B500AF642001F0CDFA0346DBB2184601F0BAFB0D4B1B78184602216F
:403F400000F040F802F0FCFF0346002B05D0022002F004F9064B05221A70064B1B78002B05D0022002F0FAF8014B05221A7080BD0B85FF1F0985FF1F80B500AF01F0BEFBC4
:403F800001F0E4FB0D4B1B781846032100F01AF802F0D6FF0346002B05D0012002F0DEF8064B05221A70064B1B78002B05D0012002F0D4F8014B05221A7080BD0B85FF1F1C
:403FC0004184FF1F90B589B004AF03460A46FB711346BB71FB797B727B7A122B01F2F58101A252F823F000BFED4100008D4200007B43000069440000B5500000C1470000F3
:40400000D94600001D460000D9480000074D0000F14900008D400000354000003D410000E5400000954100008D450000BD450000ED4500008848FCF77DFF8748FDF70CF888
:4040400085488649FCF728FD834828210C22844BFCF75CFC80488149FCF71EFD7E4802211C22804BFCF752FC7B487C49FCF714FD794804213C227C4BFCF748FC7648FCF7DE
:4040800067FF0346002BD8D101F0A0B97248FCF751FF7148FCF7E0FF6F487049FCF7FCFC6D4828210C226E4BFCF730FC6A486B49FCF7F2FC684802211C226C4BFCF726FC28
:4040C00065486649FCF7E8FC634804213C22664BFCF71CFC6048FCF73BFF0346002BD8D101F074B95C48FCF725FF5B48FCF7B4FF59485A49FCF7D0FC574828210C22584BD3
:40410000FCF704FC54485549FCF7C6FC524802211C22574BFCF7FAFB4F485049FCF7BCFC4D4804213C22504BFCF7F0FB4A48FCF70FFF0346002BD8D101F048B94648FCF789
:40414000F9FE4548FCF788FF43484449FCF7A4FC414828210C22424BFCF7D8FB3E483F49FCF79AFC3C4802211C22424BFCF7CEFB39483A49FCF790FC374804213C223A4B74
:40418000FCF7C4FB3448FCF7E3FE0346002BD8D101F01CB93048FCF7CDFE2F48FCF75CFF2D482E49FCF778FC2B4828210C222C4BFCF7ACFB28482949FCF76EFC2648022101
:4041C0001C222D4BFCF7A2FB23482449FCF764FC214804213C22244BFCF798FB1E48FCF7B7FE0346002BD8D101F0F0B81A48FCF7A1FE1948FCF730FF17481849FCF74CFC37
:40420000154802210D221D4BFCF780FB12481349FCF742FC104802211D22194BFCF776FB0D480E49FCF738FC0B4802212D22154BFCF76CFB08480949FCF72EFC064802210E
:404240003C22114BFCF762FB0348FCF781FE0346002BCED101F0BAB8CC83FF1FD0660300DC820300E4820300F48203000483030014830300208303002C8303005084FF1FAA
:404280003C8303004C8303005C830300B248FCF751FEB148FCF7E0FEBB79032B0AD110230093AD48002100228023FDF76FFDAA48FCF7FAFEA848A949FCF7EEFBA648022198
:4042C0000D22A74BFCF722FBA348FCF7C5FEBB79022B0AD1102300939F48002110228023FDF754FD9C48FCF7DFFE9B489B49FCF7D3FB994802211D229A4BFCF707FB964891
:40430000FCF7AAFEBB79012B0AD1102300939248002120228023FDF739FD8F48FCF7C4FE8D488E49FCF7B8FB8B4802212D228E4BFCF7ECFA8848FCF78FFEBB79002B0AD178
:40434000102300938448002130228023FDF71EFD8148FCF7A9FE80488049FCF79DFB7E4802213C22814BFCF7D1FA7B48FCF7F0FD0346002B8DD101F029B87748FCF7DAFD66
:404380007548FCF769FEBB79032B0AD1102300937148002100228023FDF7F8FC6E48FCF783FE6D486D49FCF777FB6B4802210D226F4BFCF7ABFA6848FCF74EFEBB79022BBB
:4043C0000AD1102300936448002110228023FDF7DDFC6148FCF768FE5F486049FCF75CFB5D4802211D22634BFCF790FA5A48FCF733FEBB79012B0AD1102300935648002159
:4044000020228023FDF7C2FC5348FCF74DFE52485249FCF741FB504802212D22564BFCF775FA4D48FCF718FEBB79002B0AD1102300934948002130228023FDF7A7FC464831
:40444000FCF732FE44484549FCF726FB424802213C224A4BFCF75AFA3F48FCF779FD0346002B8DD100F0B2BF3B48FCF763FD3A48FCF7F2FDBB79032B0AD110230093364826
:40448000002100228023FDF781FC3348FCF70CFE31483249FCF700FB2F4802210D22384BFCF734FA2C48FCF7D7FDBB79022B0AD1102300932848002110228023FDF766FCE5
:4044C0002548FCF7F1FD24482449FCF7E5FA224802211D222B4BFCF719FA1F48FCF7BCFDBB79012B0AD1102300931B48002120228023FDF74BFC1848FCF7D6FD16481749DF
:40450000FCF7CAFA144802212D221F4BFCF7FEF91148FCF7A1FDBB79002B0AD1102300930D48002130228023FDF730FC0A48FCF7BBFD09480949FCF7AFFA074802213C2221
:404540000E4BFCF7E3F90448FCF702FD0346002B8DD100F03BBF00BFCC83FF1FD0660300688303003C8303004C8303005C830300788303008883030094830300A483030000
:40458000B8830300C4830300D08303008148FCF7D1FC8048FCF760FD7E487F49FCF77CFA7C481E210C227D4BFCF7B0F97948FCF7CFFC0346002BECD100F008BF7548FCF7D9
:4045C000B9FC7448FCF748FD72487349FCF764FA70481E210C22724BFCF798F96D48FCF7B7FC0346002BECD100F0F0BE6948FCF7A1FC6848FCF730FD66486749FCF74CFA13
:4046000064481E210C22674BFCF780F96148FCF79FFC0346002BECD100F0D8BE5D48FCF789FC5C48FCF718FD5A485B49FCF734FA584802210D225C4BFCF768F955485649FC
:40464000FCF72AFA534860210D22584BFCF75EF95048FCF701FD4F484F49FCF71DFA4D4802211D22524BFCF751F9102300934948582110222C23FDF789FB4648FCF714FDFD
:4046800044484549FCF708FA424860211D22494BFCF73CF93F48FCF7DFFC3E483E49FCF7FBF93C4802212D22434BFCF72FF93948FCF7D2FC37483849FCF7EEF93548022141
:4046C0003C223E4BFCF722F93248FCF741FC0346002BA6D100F07ABE2E48FCF72BFC2D48FCF7BAFC2B482C49FCF7D6F9294802210D222D4BFCF70AF91023009325485821D3
:4047000000222C23FDF742FB2248FCF7CDFC21482149FCF7C1F91F4860210D22234BFCF7F5F81C48FCF798FC1A481B49FCF7B4F9184802211D221E4BFCF7E8F815481649C1
:40474000FCF7AAF9134860211D221A4BFCF7DEF81048FCF781FC0F480F49FCF79DF90D4802212D22144BFCF7D1F80A48FCF774FC08480949FCF790F9064802213C220F4B7C
:40478000FCF7C4F80348FCF7E3FB0346002BA6D100F01CBECC83FF1FD0660300DC830300E8830300F4830300FC8303002085FF1F08840300B084FF1F10840300A4830300A2
:4047C000B748FCF7B7FBB648FCF746FCBB79032B0AD110230093B248002100228023FDF7D5FAAF48FCF760FCAD48AE49FCF754F9AB4802210D22AC4BFCF788F8A848A94939
:40480000FCF74AF9A64860210D22A84BFCF77EF8A348FCF721FCBB79022B0AD1102300939F48002110228023FDF7B0FA9C48FCF73BFC9B489B49FCF72FF9994802211D229D
:404840009B4BFCF763F896489649FCF725F9944860211D22974BFCF759F89148FCF7FCFBBB79012B0AD1102300938D48002120228023FDF78BFA8A48FCF716FC88488949E3
:40488000FCF70AF9864802212D228B4BFCF73EF88348FCF7E1FBBB79002B0AD1102300937F48002130228023FDF770FA7C48FCF7FBFB7B487B49FCF7EFF8794802213C229E
:4048C0007E4BFCF723F87648FCF742FB0346002B7FF479AF00F07ABD7148FCF72BFB7048FCF7BAFBBB79002B0AD1102300936C48002100228023FDF749FA6948FCF7D4FB47
:4049000067486849FCF7C8F8654802210D226C4BFBF7FCFF62486349FCF7BEF860485A210D22684BFBF7F2FF5D48FCF795FBBB79022B0AD110230093594800211022802319
:40494000FDF724FA5648FCF7AFFB55485549FCF7A3F8534802211D225B4BFBF7D7FF50485049FCF799F84E485A211D22574BFBF7CDFF4B48FCF770FBBB79002B0AD11023F3
:4049800000934748002120228023FDF7FFF94448FCF78AFB42484349FCF77EF8404802212D224B4BFBF7B2FF3D48FCF755FBBB79032B0AD1102300933948002130228023CB
:4049C000FDF7E4F93648FCF76FFB35483549FCF763F8334802213C22384BFBF797FF3048FCF7B6FA0346002B7FF479AF00F0EEBC2B48FCF79FFA2A48FCF72EFB354B1B7857
:404A0000012B14D126483449FCF746F8244822211A222E4BFBF77AFF21482249FCF73CF81F4804212B222D4BFBF770FFCFE02C4B1B78002B79D11A482749FCF72DF8184855
:404A400018211A22274BFBF761FF15481549FCF723F8134804212B22234BFBF757FF10481049FCF719F80E4840212B221F4BFBF74DFF1F4B1B78012B40F0A980BB79002B6F
:404A800002D11A23FB7337E0BB79012B02D13223FB7331E0BB79022B2CD14023FB732BE0CC83FF1FD0660300FC8303002085FF1F20840300B084FF1F10840300A48303007B
:404AC000288403008084FF1F34840300C083FF1F408403001884FF1F58B800004C840300F084FF1F5C8403009484FF1F3084FF1F2884FF1F3223FB73FB7B0C33DCB2FA7BA3
:404B00001B230093B44811461B222346FBF7DAFFFB7B0C33DCB2FA7B1C230093AE4811461C222346FBF7CEFF51E0AC4B1B78012B4DD1A948AA49FBF7AFFFA74818211A22B6
:404B4000A84BFBF7E3FEA448A749FBF7A5FFA24804212B22A54BFBF7D9FE9F48A249FBF79BFF9D4840212B22A14BFBF7CFFEA14B1B78012B2BD1BB79002B02D11A23BB7308
:404B80000DE0BB79012B02D13223BB7307E0BB79022B02D14023BB7301E03223BB73BB7B0C33DCB2BA7B1B2300938B4811461B222346FBF787FFBB7B0C33DCB2BA7B1C237A
:404BC0000093854811461C222346FBF77BFF102300938148002133228023FDF7D7F87E48FCF762FA7C488049FBF756FF3E2300937948202134222023FBF764FF3E230093BF
:404C00007548402134224023FBF75CFF3E2300937148602134226023FBF754FF6F4B1B78002B0BD1392300930E2301933F23029369480E2133221423FCF7F6FF674B1B786C
:404C4000012B1FD13D23009363480E2135220E23FBF738FF3D2300935F480F2135220F23FBF730FF3D2300935B48112135221123FBF728FF3D230093574812213522122369
:404C8000FBF720FF5B4B1B78002B0AD152485649FBF702FF504825213E22574BFBF736FE0DE0544B1B78012B09D14B484E49FBF7F3FE494829213E22504BFBF727FE3B23F5
:404CC00000934548752136227523FBF7FBFE3B23009341486D213B227523FBF7F3FE3B230093702301933E2302933B48702138226B23FCF799FF3848FCF72AF90346002BA4
:404D00007FF479AE62E33448FCF714F90E233B723148FCF7A1F9314B1B78002B40F0A680374B1B681846374904F0A4FA0346002B0DD029482A49FBF7AFFE3B7A1833DBB2CE
:404D4000254819461A22304BFBF7E0FD23E02C4B1B6818462D4904F08DFA0346002B0DD01D481F49FBF798FE3B7A0933DBB21A4819461A22244BFBF7C9FD0CE016481849A2
:404D8000FBF78AFE3B7A063BDBB2134819461A221D4BFBF7BBFD10481349FBF77DFE0E4804212B221A4BFBF7B1FD0B480E49FBF773FE094840212B22164BFBF7A7FD0D4BA5
:404DC0001B78012B40F0DA80BB79002B24D13B7A1A337B7331E000BFCC83FF1FF084FF1F58B800000884FF1FD06603007084FF1F1085FF1F2884FF1F6484030068840300FB
:404E0000A884FF1F00002041F884FF1F0000C8429484FF1F3084FF1FBB79012B03D13B7A32337B7309E0BB79022B03D13B7A40337B7302E03B7A32337B737B7B0C33DCB2FE
:404E40007A7B1B230093AB4811461B222346FBF739FE7B7B0C33DCB27A7B1C230093A54811461C222346FBF72DFE87E0A24B1B78012B40F08380A14B1B681846A04904F0D1
:404E8000F9F90346002B0DD09A489E49FBF704FE3B7A1833DBB2974819461A229A4BFBF735FD23E0954B1B681846984904F0E2F90346002B0DD08F489249FBF7EDFD3B7ADA
:404EC0000933DBB28B4819461A228F4BFBF71EFD0CE088488B49FBF7DFFD3B7A063BDBB2844819461A22884BFBF710FD81488849FBF7D2FD7F4804212B22864BFBF706FD20
:404F00007C488349FBF7C8FD7A4840212B22824BFBF7FCFC814B1B78012B2FD1BB79002B03D13B7A1A333B7310E0BB79012B03D13B7A32333B7309E0BB79022B03D13B7AD6
:404F40009B013B7302E03B7A32333B733B7B0C33DCB23A7B1B230093664811461B222346FBF7B0FD3B7B0C33DCB23A7B1C230093604811461C222346FBF7A4FD10230093E1
:404F80005C48002133228023FCF700FF5948FCF78BF858485E49FBF77FFD3E2300935548202134222023FBF78DFD3E2300935148402134224023FBF785FD3E2300934D48EB
:404FC000602134226023FBF77DFD4B4B1B78002B0BD1392300930E2301933F23029345480E2133221423FCF71FFE434B1B78012B1FD13D2300933F480E2135220E23FBF758
:4050000061FD3D2300933B480F2135220F23FBF759FD3D2300933748112135221123FBF751FD3D2300933348122135221223FBF749FD3A4B1B78002B0AD12E483449FBF7C4
:405040002BFD2C4825213E22354BFBF75FFC0DE0324B1B78012B09D126482D49FBF71CFD244829213E222F4BFBF750FC3B2300932048752136227523FBF724FD3B2300937E
:405080001C486D213B227523FBF71CFD3B230093702301933E2302931648702138226B23FCF7C2FD1348FBF753FF0346002B7FF42DAE8BE10F48FBF73DFF0E48FBF7CCFF02
:4050C000194B1B78012B35D10A480E49FBF7E4FC084822211A22154BFBF718FC05480C49FBF7DAFC034804212B22114BFBF70EFCC5E000BFCC83FF1FF084FF1F4C84FF1F07
:405100000000204158B800000884FF1F0000C842D06603007084FF1F1085FF1F2884FF1F64840300688403001884FF1FC083FF1F4C840300A74B1B78002B4ED1A648A7490D
:40514000FBF7AAFCA44818211A22A54BFBF7DEFBA148A449FBF7A0FC9F4804212B22A24BFBF7D4FB9C489F49FBF796FC9A4840212B229E4BFBF7CAFB9D4B1B78012B7ED19A
:40518000BB79002B02D11A23FB720DE0BB79012B02D13223FB7207E0BB79022B02D14023FB7201E03223FB72FB7A0C33DCB2FA7A1B230093884811461B222346FBF782FCDF
:4051C000FB7A0C33DCB2FA7A1C230093824811461C222346FBF776FC51E07E4B1B78012B4DD17D487D49FBF757FC7B4818211A22804BFBF78BFB78487A49FBF74DFC76485D
:4052000004212B227C4BFBF781FB73487549FBF743FC714840212B22784BFBF777FB744B1B78012B2BD1BB79002B02D11A23BB720DE0BB79012B02D13223BB7207E0BB79BC
:40524000022B02D14023BB7201E03223BB72BB7A0C33DCB2BA7A1B2300935F4811461B222346FBF72FFCBB7A0C33DCB2BA7A1C230093594811461C222346FBF723FC102388
:4052800000935548002133228023FCF77FFD5248FBF70AFF50485349FBF7FEFB3E2300934D48202134222023FBF70CFC3E2300934948402134224023FBF704FC3E230093A0
:4052C0004548602134226023FBF7FCFB414B1B78002B0BD1392300930E2301933F2302933D480E2133221423FCF79EFC394B1B78012B1FD13D23009337480E2135220E23E4
:40530000FBF7E0FB3D23009333480F2135220F23FBF7D8FB3D2300932F48112135221123FBF7D0FB3D2300932B48122135221223FBF7C8FB2E4B1B78002B0AD12648294904
:40534000FBF7AAFB244825213E222D4BFBF7DEFA0DE0274B1B78012B09D11F482149FBF79BFB1D4829213E22264BFBF7CFFA3B2300931948752136227523FBF7A3FB3B23F0
:40538000009315486D213B227523FBF79BFB3B230093702301933E2302930F48702138226B23FCF741FC0C481749FBF775FB0A4849213E22154BFBF7A9FA0748FBF7C8FDB7
:4053C0000346002B7FF479AE00E000BF1437BD4690BD00BFF084FF1FCC83FF1F58B800003084FF1FD06603009484FF1FF884FF1F2884FF1F1085FF1F7084FF1F0884FF1F83
:405400006484030068840300AC2C03006C84030080B582B000AF7860074B1B78012B07D1786803F0F3F8002003F0C8F803F09AF80837BD4680BD00BF0A85FF1F80B582B085
:4054400000AF0346FB71084B1B78012B09D1FB79012B01D102F09CFBFB79002B01D102F0DDFB0837BD4680BD0A85FF1F80B500AF02F078FE0346012B0BD1104B1A78104B95
:405480001A700E4B0B221A700E48FFF7C1FF002311E002F077FE0346002B0BD1074B1A78074B1A70054B0D221A700648FFF7B0FF002300E00123184680BD00BF0B85FF1F90
:4054C000B883FF1F20A1070080B582B000AF0346FB8000F031FE03469AB21B4B1A801B4B1A88194B1B889A4228D0194B1B681846FFF78EFF144B1B884FF6F972934205D9ED
:40550000002000F02BFE104B00221A800E4B1B881A46FB88013B9A420CDBFB88013B9BB29BB21BB2184600F019FEFB88013B9AB2054B1A80044B1A88044B1A80034B1B88F2
:4055400018460837BD4680BDD484FF1FCC84FF1F0C85FF1F80B582B000AF03460A46FB801346BB8000F0E8FD03469AB21E4B1A801E4B1A881C4B1B889A422ED01C4B1B68B7
:405580001846FFF745FF184B1B884FF6F972934205D9002000F0E2FD134B00221A80124B1B88FA889A4207D9FB881BB2184600F0D5FD0D4AFB8813800B4B1B88BA889A42AF
:4055C00007D8BB881BB2184600F0C8FD064ABB881380054B1A88054B1A80044B1B8818460837BD4680BD00BFD484FF1FCC84FF1F0C85FF1F80B500AF01F072FC03461A469A
:40560000104B1A7001F078FC03461A460E4B1A7001F07EFC03461A460C4B1A7001F084FC03461A460A4B1A7002F066FD03461A46084B1A7002F06CFD03461A46064B1A70EC
:4056400080BD00BF0985FF1F9284FF1FD684FF1F4184FF1F4084FF1F0885FF1F80B584B000AF0346FB71FB79FB60FB68FE2B01DDFF23FB60FB68002B01DC0023FB60FB6897
:40568000DBB2184602F000FDFB68DAB2044B1A7004480549FA6804F0E7FA1037BD4680BD2885FF1F2085FF1F7084030080B584B000AF0346FB71FB79FB60FB68632B01DD00
:4056C0006423FB60FB68002B01DC0023FB60FB68DBB2184602F0D6FAFB68DAB2044B1A7004480549FA6804F0BFFA1037BD4680BD9384FF1FB084FF1F7084030080B500AF75
:405700004820012102F052F903461A460B4B1A600A4B1B68002B06D1002002F0D1F90346DAB2074B1A7002F09FF9054B1B785BB2044805491A4604F097FA80BD6085FF1F89
:405740008A84FF1FC083FF1F7484030080B500AF074801F0ABFB0246064B1A60044B1B881BB2054805491A4604F07EFA80BD00BF8C84FF1F6085FF1F8084FF1F7484030054
:4057800080B400AFFEE700BF80B584B000AF7860104B1A687B6813441A460F4BD31AB3F5007F09DC0B4B1B68FB600A4B1A687B681344084A136007E003F084FD02460C23CC
:4057C00013604FF0FF33FB60FB6818461037BD4680BD00BF4081FF1F9085FF1F80B586B000AF224B7B61224B3B61204B7B6135E03B691B68FB603B695B68BB603B699B68DE
:405800003B6000237B600CE0FB681A68BB681A60BB680433BB60FB680433FB607B6804337B607A683B689A42EED13B69DB683B6000237B6008E0BB6800221A60BB68043361
:40584000BB607B6804337B607A683B689A42F2D13B6910333B617B69013B7B617B69002BC6D103F035FDFCF7EFFBFEE7010000004487030080B582B000AF184B184A1A60C4
:40588000184A184B1B6843F40073136000237B600FE07B68032B04D8134A7B6852F8233000E0124B12497A6841F822307B6801337B607B682F2BECD90E4B1B78DAB20E4B02
:4058C0001A700E4B0A4A1A6000F04CFA00F084FD0B4B00221A600837BD4680BD0CED00E00004FA0514ED00E000000000815700000080FF1FBC7600400481FF1F08ED00E0C2
:405900000081FF1F80B582B000AF78603960786800213A6803F00DFD0837BD4680BD00BF80B584B000AFF860B9607A60F868B9687A6803F0F3FC1037BD4680BD80B483B0CD
:4059400000AF0346FB71FEE780B487B000AF7860396000233B6100237B6127E07B699B007A6813441B68BB60BB68FB73BB6823F0FF03BB6014E03B695B003A6813441B78D5
:405980001A46BB68134419463B695B003A6813445B780B703B6901333B61FB7B013BFB73FB7B002BE7D17B6901337B617B69292BD4D91C37BD465DF8047B704780B582B05A
:4059C00000AF514B00221A80504B50221A70504B00221A804F4B58221A704F4B04221A804E4B19221A704E4B04221A804D4B19221A704D4B95221A804C4B18221A704C4BCB
:405A000040F22B121A804B4B18221A704A4B40F2DF121A80494B19221A70494B01221A80484B1B221A70484848490822FFF778FF474B02221A704FF0402308221A70454BCF
:405A400004221A70444B454A1278D2B21A70444B40F619721A80434B42F251221A800023FB7019237B6014E0FB785B00DAB23E4B1B78DBB203F00103DBB21343DBB203F011
:405A80000303FB704FF4F07000F07AFC7B68013B7B607B68002B02D0FB78032BE4D17B68002B02D10320FFF749FF304B4FF480721A802E4B07221A702D4B00221A702D4BE8
:405AC00048221A70294B00221A702B4B02221A702A4B04221A702A4B1B78294BFF221A70284A284B1B78DBB243F00303DBB21370254A254B1B78DBB263F07F03DBB21370F0
:405B00000837BD4680BD00BF80400040824000408440004086400040884000408A4000408C4000408E40004090400040924000409440004096400040984000409A40004071
:405B40009C4000409E40004000410040880D00480043004000420040A146004089010049224200402042004025420040044000400640004008400040014000400B40004003
:405B8000A2430040A1430040A043004080B483B000AF2A4B1B78FB71294B1B78BB71294B1B787B71284AFB7903F00703DBB21370264AFB791B09DBB21370214ABB7943F0EC
:405BC0000303DBB213701F4A7B7943F00303DBB213701F4B4FF442521A801E4B80221A701D4B80221A701D4B80221A701C4B10221A701C4B08221A701B4B02221A701B4B99
:405C000020221A701A4B01221A701A4B20221A70194B40F201121A80184B01221A70094A7B791370064ABB791370154B44221A700C37BD465DF8047B704700BFCF01004938
:405C4000F8460040F94600406E5800406F5800402C510040705800400159004009590040905A0040C05A0040205B0040235B0040285B00402B5B0040405B0040585B0040C5
:405C80007658004080B483B000AF0346FB71FB79022B24D8FA79FB791344FB71FB79124A52F82330FA79104951F822201178FA790E48825C0A43D2B21A70FB790133FB7161
:405CC000FB79094A52F82330FA79074951F822201178FA790548825C0A43D2B21A700C37BD465DF8047B70477C8403009484030080B483B000AF0346FB71FB79022B28D815
:405D0000FA79FB791344FB71FB79144A52F82330FA79124951F822201178FA791048825CD243D2B20A40D2B21A70FB790133FB71FB790A4A52F82330FA79084951F8222006
:405D40001178FA790648825CD243D2B20A40D2B21A700C37BD465DF8047B70477C8403009484030080B586B000AF72B6584B60221A70FFF723FE574A564B1B78DBB243F07E
:405D80000403DBB213700023FB7513E0FA7D13465B0013445B00504A13443B613B691A683B699B889BB210461946FFF7ABFDFB7D0133FB75FB7D062BE8D90023FB751CE03A
:405DC000FA7D13469B0013445B00444A1344FB60FB681B68BB60FB685B687B60FB681A7A5B7A1B0213437B807B88B86879681A46FFF796FDFB7D0133FB75FB7D002BDFD0AF
:405E00004FF090403649FFF79FFD364B0A221A7035480421FFF776FD34480421FFF772FD33480421FFF76EFD324A324B1B78DBB243F00203DBB213702F4A2F4B1B78DBB285
:405E400043F00203DBB213702C4A2C4B1B78DBB243F04003DBB21370294A294B1B78DBB243F01003DBB21370264827490A22FFF757FD264826490822FFF752FD254826496E
:405E80000822FFF74DFD254825490A22FFF748FD244825490A22FFF743FD244824490822FFF73EFD234BC4221A70234A224B1B78DBB243F00803DBB21370FFF767FE1F48DE
:405EC0000E490E22FFF72CFD1837BD4680BD00BF00480040E8460040A8840300D4840300A8000048835800400076004008760040107600400350014013500140A04300408E
:405F0000C2430040005100404C0D0048C2510040580D0048F2510040600D004810510040680D004820510040740D004832510040800D0048DB04014022430040B04300404A
:405F400080B500AF054B1B78002B04D100F008F8024B01221A7000F03FF880BD4883FF1F80B582B000AF1A4B1B78DBB223F03F03FB71174AFB7943F00903DBB21370154A44
:405F8000144B1B78DBB243F00103DBB21370EF2000F032F8EF2000F04DF86E2000F05AF8002000F067F800F00AFA0346BB71094A084B1B78DBB243F01003DBB21370BB79B6
:405FC000184600F000FA00F027F80837BD4680BD796400409964004080B400AF054A054B1B78DBB263F07F03DBB21370BD465DF8047B70477964004080B483B000AF0346E0
:40600000FB71044AFB7913700C37BD465DF8047B704700BF0964004080B500AF01E000F045F800F037F8034603F01003002BF6D180BD00BF80B483B000AF0346FB71044A0B
:40604000FB7913700C37BD465DF8047B704700BF4964004080B483B000AF0346FB71044AFB7913700C37BD465DF8047B704700BF2964004080B483B000AF0346FB71044A26
:40608000FB7913700C37BD465DF8047B704700BF8964004080B400AF034B1B78DBB21846BD465DF8047B70476964004080B400AF034B1B78DBB21846BD465DF8047B7047A5
:4060C0005964004080B400AFBD465DF8047B704780B582B000AF0F2000F06AF800F058F800F06DF90346FB71074A074B1B78DBB243F01003DBB21370FB79184600F063F919
:406100000837BD4680BD00BF9264004080B500AF00F0AEF84FF4004000F0D6F8054B1B78002B04D1FFF7CEFF024B01221A70FFF7CFFF80BD4983FF1F80B582B000AF00F09F
:40614000D3F80346FB80FB88A3F500439BB2BB80BB881BB218460837BD4680BD80B584B000AF0346FB80B7F90630002B04DBFB88A3F50043FB8103E0FB88A3F50043FB815A
:40618000FB89184600F0A0F81037BD4680BD00BF80B400AF054B1B78DBB203F00F03DBB21846BD465DF8047B704700BF6264004080B483B000AF0346FB71044AFB79137089
:4061C0000C37BD465DF8047B704700BF8264004080B582B000AF1C4B1B78DBB223F00703FB71194AFB791370174B1B78DBB223F00303FB71144AFB79137000F0B1F84FF431
:40620000004000F08DF84FF4004000F05DF8002000F03EF800F04CF84FF4004000F090F800F0CDF80346BB71084A084B1B78DBB243F01003DBB21370BB79184600F0C3F8EA
:406240000837BD4680BD00BF756400409564004080B400AF054A054B1B78DBB263F07F03DBB21370BD465DF8047B70477564004080B500AF054B1B78002B04D1FFF7A8FFFC
:40628000024B01221A70FFF7E3FF80BD4A83FF1F80B483B000AF0346FB71044AFB7913700C37BD465DF8047B704700BF8564004080B400AF034B1B78DBB21846BD465DF814
:4062C000047B70476564004080B483B000AF0346FB80044AFB8813800C37BD465DF8047B704700BF0868004080B400AF044B1B78044B1B889BB21846BD465DF8047B7047F1
:40630000046400408868004080B400AF034B1B889BB21846BD465DF8047B70478868004080B483B000AF0346FB80044AFB8813800C37BD465DF8047B704700BF486800408A
:4063400080B483B000AF0346FB80044AFB8813800C37BD465DF8047B704700BF6868004080B500AF01E0FFF7CFFFFFF7A1FF034603F04003002BF6D180BD00BF00000000B3
:40638000142816D902B4012114381049097811F0C001890904B40E4A515C04BC00BF00BF00BF8841FDD500BF00BF02BC704700BF00BF70F10400FCD570470B050709EFF3AB
:4063C000108072B6704780F31088704700480040BA630000AFF3008080B483B000AF134B7F221A70124B80221A707F23FB710CE0FB79DB0003F1804303F5F043FA79013AA4
:40640000D2B21A70FB79013BFB71FB79002BEFD1FB79DB0003F1804303F5F04300221A700C37BD465DF8047B704700BF4581FF1F4481FF1F80B485B000AF03460A46FB7182
:406440001346BB710123FB60FB79172B2FD8BB79002B0ED0FB791A01184B1344FA791101164A0A441278D2B242F02002D2B21A700DE0FB791A01114B1344FA7911010F4A25
:406480000A441278D2B222F02002D2B21A70FB791A010A4B1344FA791101084A0A441278D2B242F00102D2B21A700023FB60FB6818461437BD465DF8047B704710700040B5
:4064C00080B485B000AF03460A46FB711346BB710123FB60FB79172B18D8FB791A010F4B13441B78DBB223F00E03FB72FB791A010A4B1344BA7902F00702D2B25200D1B222
:40650000FA7A0A43D2B21A700023FB60FB6818461437BD465DF8047B704700BF1070004080B485B000AF0346FB710B46BB8013467B800123FB60BB8841F6FF72934202D136
:406540004FF40053BB807B8841F6FF72934202D14FF400537B80FB79172B17D8FB79DB0003F1804303F5EC430433BB60BB68BA881A80FB79DB0003F1804303F5EC430633DD
:40658000BB60BB687A881A800023FB60FB6818461437BD465DF8047B704700BF80B485B000AF03460A46FB711346BB710123FB60FB79172B07D8FB791A01064B1344BA790A
:4065C0005A720023FB60FB6818461437BD465DF8047B70471070004090B484B000AF0446084611461A462346FB710346BB710B467B7113463B710123FB60FB79172B34D8B4
:40660000FB79DB0003F1804303F5EC43BA7902F07F02D1B27A79D201D2B20A43D2B21A70FB79DB0003F1804303F5EC433A7E1201D1B23A7902F00F02D2B20A43D2B25A700F
:40664000FB79DB0003F1804303F5EC433A7F02F00F02D2B29A70FB79DB0003F1804303F5EC430022DA700023FB60FB6818461037BD4690BC704700BF80B582B000AFFF2387
:40668000FB71FFF79CFE0346BB71104B1B78182B12D90F4B1B78FB710C4B1B78013BDAB20A4B1A70FB79DB0003F1804303F5F0431B78DAB2064B1A70BB791846FFF783FE2F
:4066C000FB7918460837BD4680BD00BF4481FF1F4581FF1F90B484B000AF0446084611461A462346FB710346BB800B46BB711346FB700123FB60FB795BB2002B23DBBB8847
:4067000023F47F6323F00F039BB2002B1BD1FB79DB0003F1804303F5F043BB60BB68BA881A80FB79DB0003F1804303F5F043BA799A70FB79DB0003F1804303F5F043FA787B
:40674000DA700023FB60FB6818461037BD4690BC704700BF80B485B000AF0346FB710B46BB8013467B800123FB60FB795BB2002B17DBFB79DB0003F1804303F5F043043352
:40678000BB60BB68BA881A80FB79DB0003F1804303F5F0430633BB60BB687A881A800023FB60FB6818461437BD465DF8047B704780B483B000AF0346FB7101BE0C37BD4693
:4067C0005DF8047B704700BF80B582B000AF786008E00C4B1B681846FFF7D2FD7B68A3F500437B607B68B3F5004FF2D8064B1B687A6802FB03F31846FFF7C2FD0837BD4641
:4068000080BD00BF5881FF1F5081FF1F80B582B000AF0346FB80FB88044A127802FB03F31846FFF7ADFD0837BD4680BD5481FF1F80B584B000AF03463960FB710F4B1B689B
:40684000FB60FB791F2B02D90020FFF7B1FFFB7903F01F0310339B00FA6813441B68BB60FB7903F01F0310339B00FA6813443A681A60BB6818461037BD4680BD08ED00E087
:4068800080B582B000AF03460A46FB711346BB71BB79072B02D90020FFF78AFFFB791F2B02D90020FFF784FFFB7903F01F0303F1604303F56443BA795201D2B21A70083794
:4068C000BD4680BD80B500AF00F028F9022000F05DF9042000F07AF900F0E0F9FFF7CCFE03461A46084B1A70FFF7C6FE03461A46064B1A700648642100F038F805487D2149
:4069000000F06CF880BD00BF4E83FF1F4F83FF1FE08403004485030080B500AF00F01CF900F0C2F9074B1B7818460121FFF782FD054B1B7818460121FFF77CFD002000F0A5
:4069400065F980BD4C83FF1F4D83FF1F80B500AF054B1B78002B04D1FFF7B4FF024B01221A70FFF7D9FF80BD4B83FF1F80B582B000AF78600B467B807B681B0C9BB201208E
:4069800001211A464FF4804300F060F803461A46104B1A70104B19780F4B1B787A88084611461A460123FFF795FE0B4B1A787B689BB21046194645F68232FFF7CBFE054B21
:4069C0001A78054B1B7810461946FFF7E7FD0837BD4680BD4C83FF1F4E83FF1F80B582B000AF78600B467B807B681B0C9BB2012001211A464FF4804300F05CF803461A4611
:406A0000104B1A70104B19780F4B1B787A88084611461A460123FFF75DFE0B4B1A787B689BB21046194645F68232FFF793FE054B1A78054B1B7810461946FFF7AFFD08377E
:406A4000BD4680BD4D83FF1F4F83FF1F90B585B002AF0446084611461A462346FB710346BB710B46BB8013467B80114B01221A700F4B1878F979BA7900230093002301934F
:406A80000023FFF7A9FD0A4B1978BA887B88084611461A46FFF744FD054B1B7818460221FFF70EFD024B1B7818460C37BD4690BD5C81FF1F90B585B002AF04460846114665
:406AC0001A462346FB710346BB710B46BB8013467B80114B02221A700F4B1878F979BA7900230093002301930023FFF775FD0A4B1978BA887B88084611461A46FFF710FD48
:406B0000054B1B7818460221FFF7DAFC024B1B7818460C37BD4690BD5D81FF1F80B500AF0A4B00221A700A4B00221A70094A094B1B78DBB243F00803DBB21370002000F04D
:406B400045F8022000F022F880BD00BF2858004029580040975A004080B400AF094A094B1B78DBB243F00403DBB21370064A064B1B78DBB243F00403DBB21370BD465DF8A7
:406B8000047B7047A8430040B843004080B483B000AF0346FB710C4A0B4B1B78DBB223F00203DBB213700849074B1B78DAB2FB7903F00203DBB21343DBB20B700C37BD461B
:406BC0005DF8047B704700BF2858004080B582B000AF0346FB710C4A0B4B1B78DBB223F00C03DBB213700849074B1B78DAB2FB7903F00C03DBB21343DBB20B7000F016F8A1
:406C00000837BD4680BD00BF2858004080B483B000AF0346FB71044AFB7913700C37BD465DF8047B704700BF825B004080B483B000AF0B4B1B78DBB203F00C039B08DBB2DB
:406C40000633FB71074AFB7903F1924303F594731B78DBB213700C37BD465DF8047B7047285800400A46004080B400AF094A094B1B78DBB243F00403DBB21370064A064B89
:406C80001B78DBB243F00403DBB21370BD465DF8047B7047A2430040B243004080B500AF022000F025F880BD80B400AF0D4A0D4B1B78DBB243F06003DBB213700A4A0A4B31
:406CC0001B78DBB243F00103DBB21370074A074B1B78DBB243F00103DBB21370BD465DF8047B704777580040A4430040B443004080B483B000AF0346FB710C4A0B4B1B781E
:406D0000DBB223F00303DBB213700849074B1B78DAB2FB7903F00303DBB21343DBB20B700C37BD465DF8047B704700BF5858004080B582B000AF0023FB7106E0FB791846A6
:406D4000FEF7D6FFFB790133FB71FB79022BF5D9024BFF221A700837BD4680BD5E81FF1F80B582B000AF0346FB71FFF7E1FFFB791846FEF787FF034AFB7913700837BD46DE
:406D800080BD00BF5E81FF1F80B582B000AF4FF0FF337B6001F056FC01F0D4FC0346002B0AD1012001F09CFC0346072B01D107237B6001F0FBFC01E004237B607B6818461D
:406DC0000837BD4680BD00BF80B584B000AF78601D4B1B78DBB203F00203002B28D11A4B1B78DBB29B08DBB2002B1ED107F108031846022101F048FC0346022B11D13B7A2C
:406E0000012B04D17B7A9AB27B681A8006E07B7A9BB25B429BB29AB27B681A800023FB6008E04FF0FF33FB6004E00723FB6001E01023FB60FB68072B01D001F0B7FCFB6841
:406E400018461037BD4680BD2247004080B584B000AF7860FFF798FFB860BB68072B1DD14FF4FA53FB8116E0BB68072B06D00E4B1B78DBB203F00203002B0FD1BB68072BAE
:406E800003D17868FFF7A0FFB8600A20FFF7BEFCFB890A3BFB81FB89002BE5D1BB6818461037BD4680BD00BF2247004080B584B000AF78600223FB720AE07868FFF7C6FF76
:406EC000F860FB68002B00D005E0FB7A013BFB72FB7A002BF1D1FB6818461037BD4680BD80B400AF034B1B78DBB21846BD465DF8047B70476A64004080B400AF034B1B7820
:406F0000DBB21846BD465DF8047B70476D64004080B400AF034B1B78DBB21846BD465DF8047B70476664004080B400AF034B1B78DBB21846BD465DF8047B7047606400403F
:406F400080B400AF034B1B78DBB21846BD465DF8047B70476665004080B500AF054B1B78002B04D100F008F8024B01221A7000F023F880BD5083FF1F80B500AF00200721B3
:406F8000FFF77EFC00200949FFF752FC084A084B1B78DBB243F00603DBB213700C2000F071F8044B00221A8080BD00BF29720000015900406C85FF1F80B582B000AFFFF7BE
:406FC000FEF90346FB71264A254B1B78DBB243F00103DBB21370234A224B1B78DBB243F00103DBB21370204B1B78BB71BB7943F00203BB71BB7943F00103BB711A4ABB796C
:4070000013701A4B18221A70194A194B1B78DBB243F04003DBB21370154A154B1B78DBB223F00303DBB21370124BC8221A70124B02221A70114A114B1B78DBB243F008033E
:40704000DBB213700A20FFF7E1FB0D4B01221A60FB791846FFF7B7F90837BD4680BD00BFAB430040BB4300400359004006590040055900400059004014460040275B00401F
:4070800080E200E080B584B000AF0346FB71FB790A2B07D00C2B02D0082B06D008E0C223FB730BE08223FB7308E04223FB7305E0C223FB730020FFF77BFB00BF044AFB7BF4
:4070C0001370FB79184600F02FF81037BD4680BD0259004080B400AF054A054B1B78DBB243F00103DBB21370BD465DF8047B70470059004080B483B000AF094B1B88FB806A
:40710000084B1B889BB29BB2FA88D31A9BB29BB21BB218460C37BD465DF8047B704700BFA05B00406685FF1F80B584B000AF0346FB71FB790A2B08D00C2B02D0082B08D055
:407140000BE04FF48053FB600DE04FF48063FB6009E04FF48073FB6005E00023FB600020FFF726FB00BF0C4B00221A80FB6842F2107202FB03F303F58063002B01DA03F27D
:40718000FF73DB121A46054B1A60054B00221A801037BD4680BD00BF6485FF1F6885FF1F6685FF1F90B585B000AF0346FB801A4B1B889BB2002B09D0174B1B889BB21AB275
:4071C00013469B0013445B00FB6002E0134B1B68FB60134B1B889BB2FA889BB2D31A9BB2FB80B7F90630184601F052FE034618460C4901F0A1FE03461C46F86801F048FE4B
:4072000003462046194601F04BFF0346BB60BB6818461437BD4690BD6485FF1F6885FF1F6C85FF1F0000204180B400AFBD465DF8047B704780B500AF054B1B78002B04D1CB
