:400000000080002011000000B5720000B572000080B500AF024A034B1B68136007F078F9BC760040FA46004010B5054C237833B9044B13B10448AFF300800123237010BD51
:400040001882FF1F000000004CD60000084B10B51BB108480849AFF300800848036803B910BD074B002BFBD0BDE81040184700BF000000004CD600001C82FF1F0881FF1FDB
:400080000000000090B484B000AF7860084611461A460346FB700B46BB7013467B70BC783B7E2344DCB22346013BDCB27B6893F839207B6893F83B30FA73BB73BB787B7357
:4000C00023463B73BA7B7B7B9A420DD3FA7B3B7B9A4201D8012314E07A7B3B7B9A4201D901230EE000230CE0FA7B3B7B9A4207D87A7B3B7B9A4201D9012302E0002300E038
:400100000023002B01D1002332E0FC787B782344DCB22346013BDCB27B6893F838207B6893F83A30FA72BB72FB787B7223463B72BA7A7B7A9A420DD3FA7A3B7A9A4201D86B
:40014000012314E07A7A3B7A9A4201D901230EE000230CE0FA7A3B7A9A4207D87A7A3B7A9A4201D9012302E0002300E0002300BF18461037BD4690BC704700BF90B585B0D5
:4001800000AFF860B9601346FB71BB689C68FB79F86801211A460023A047034618461437BD4690BD90B585B000AFF860B9601346FB71BB689C68FB79F86803211A46002390
:4001C000A0471437BD4690BD90B583B000AF786039603B689C687868042100220023A0470C37BD4690BD00BF90B583B000AF786039603B689C687868042101220023A0474A
:400200000C37BD4690BD00BF90B585B000AFF860B9601346FB71BB689C68FB79F86802211A460023A0471437BD4690BD90B585B000AFF860B9601346FB71BB689C68FB79F0
:40024000F86805211A460023A047034618461437BD4690BD90B585B000AFF860B9603B601346FB71BB689C68FB79F86806211A463B68A047034618461437BD4690BD00BF45
:4002800080B586B000AFF860B9607A600023FB757B681B78BB75FB7D002B10D1BB7DFF2B0AD0BB7DF868B9681A46FFF7BFFF0346002B63D1002365E00123FB755EE0BB7DF9
:4002C000FF2B0AD1BB7DF868B9681A46FFF7AEFF0346002B50D1002354E0BB7DFE2B02D100BF01234EE0BB7DEF2B45D8BB7DDF2B09D9BB7D03F00F03DBB2F868B9681A46CE
:40030000FFF782FF38E0BB7DCF2B09D9BB7D03F00F03DBB2F868B9681A46FFF743FF2BE0BB7DBF2B1CD9F868B968FFF74DFFBB7D03F00F03BB75BB7D1B01BB75BB7D0233F4
:40034000BB75BB7D9BB2184601F050FDF868B968FFF74AFFBB7D9BB2184601F047FD0BE0BB7DBD2B08D8BB7D5BB2002B04DBBB7D9BB2184601F03AFD0023FB757B68013365
:400380007B6085E718461837BD4680BD80B485B000AFF8607B600B46FB721346BB72FB7A062B11D801A252F823F000BFC9030000C9030000C9030000C9030000C903000030
:4003C000C9030000C9030000012318461437BD465DF8047B704700BF80B483B000AF78600B46FB70FB787A6813447B607B681B7818460C37BD465DF8047B704780B485B00C
:4004000000AF78600B46FB70FB787A6813447B607B681B78FB817B6801337B60FB891B02FB817B681B789AB2FB891344FB81FB8918461437BD465DF8047B704780B582B0B6
:4004400000AF786078680021FFF7C6FF034618460837BD4680BD00BF80B582B000AF78607868FFF7EBFF0346012B05D0022B05D0002B05D1062304E0032302E0062300E03B
:40048000032318460837BD4680BD00BF80B582B000AF786078680521FFF79EFF034618460837BD4680BD00BF80B582B000AF786078680621FFF7A2FF034618460837BD4699
:4004C00080BD00BF80B582B000AF786078680821FFF794FF034618460837BD4680BD00BF80B582B000AF786078680A21FFF774FF034618460837BD4680BD00BF80B582B0ED
:4005000000AF786078680B21FFF766FF034618460837BD4680BD00BF80B582B000AF786078680C21FFF758FF0346DBB25BB218460837BD4680BD00BF80B582B000AF786033
:4005400078680D21FFF748FF0346DBB25BB218460837BD4680BD00BF80B582B000AF786078680E21FFF738FF0346DBB25BB218460837BD4680BD00BF80B582B000AF78601A
:4005800078680F21FFF728FF0346DBB25BB218460837BD4680BD00BF80B582B000AF786078681021FFF718FF0346DBB25BB218460837BD4680BD00BF80B582B000AF786016
:4005C00039607868FFF748FF03461A463B68134418460837BD4680BD80B584B000AF786039607B689B681846FFF728FF0346002B01D0022B1BD13B681A787B68DA773B6871
:400600005A787B6883F820203B6803331B78DAB27B681A773B6804331B78DAB27B685A773B6805331B78DAB27B689A7730E03B681B78FB73FB7B03F00F03DAB27B689A7794
:400640007B689B7FDBB2023BDBB2DAB27B689A77FB7B1B09FB73FA7B7B685A773B685B78FB73FB7B03F00F03DAB27B6883F82020FB7B1B09FB737B68FA7BDA773B689B7885
:40068000FB73FB7B1B09FB73FA7B7B681A7700BF1037BD4680BD00BF80B483B000AF78607B6800221A777B680022DA777B68002283F820207B6800225A777B6800229A7750
:4006C0000C37BD465DF8047B704700BF80B586B000AF78600B46FB707B689B687B617B689B681846FFF7AAFE03463B747B689B681846FFF7B1FE0346FB73FF237B743B7CB8
:40070000012B01D10F237B747B689B681846FFF7E7FE0346FB747B689B681846FFF7EEFE0346BB737B689B681846FFF7CBFE0346BB81FB78602B09D9BB89002B06D0BB8935
:400740007A6913447B616123FB7416E07B689B681846FFF7A9FE0346BB81FB78402B09D9BB89002B06D0BB897A6913447B614123FB7402E07B6911337B61FA78BB7B9A4278
:4007800004D97868FFF788FF002332E0FB7CBB74BA7CBB7B9A4228D87B691B78FF2B03D17B6901337B6117E0BA7CFB789A4205D178687969FFF710FF7B691AE07B69023363
:4007C0001A787B7C1340DBB21A467B6913447B61FB7B7A6913447B61BA7CBB7B9A4200D103E0BB7C0133BB74D6E77868FFF754FF002318461837BD4680BD00BF90B589B0C4
:4008000002AF7860084611461A460346FB700B46BB7013467B707B7878681946FFF756FFF860FB68002B01D1002369E07B689B681846F968FFF7C0FE78617B68DB7FFB7239
:400840007B6893F82030BB727B685B7FDAB2FB781344FB707B689B7FDBB2BA78D31ABB70BB78013BBB70BA78BB7AD31ADBB20133DAB2F978FC7ABB7A009378682346FFF712
:4008800001FC0346002B02D17B681B7F38E0FB7A0733FB72FB7ADB08FB72BB783B743A7CBB7AD31A3B743B7C01333B740023BB7420E0FB787B740023FB7411E07B691B78CD
:4008C000797C3A7C00937868002300F07FFB7B6901337B617B7C08337B74FB7C0133FB74FA7CFB7A9A42E9D33B7C01333B74BB7C0133BB74BA7CBB7A9A42DAD37B681B7FF6
:400900005BB218461C37BD4690BD00BF80B586B000AFF8607B600B46FB721346BB720023FB75FB685B6AF868984703461A46BB7A1344BB7213E07B681B78F97ABA7AF8688D
:40094000FFF75CFF0346BB75BA7DFB7A1344FB72BA7DFB7D1344FB757B6801337B607B681B78002BE7D1FB7D18461837BD4680BD80B584B000AF78607B689B68002B00D145
:400980006CE07B6893F82830002B14D17B689B681846FFF77BFD0346DAB27B6883F829207B689B681846FFF7B7FD03461A467B6883F82A202DE07B6893F82830012B14D1C4
:4009C0007B689B681846FFF7D7FD03461A467B6883F829207B689B681846FFF7DDFD03461A467B6883F82A2013E07B689B681846FFF7A2FD03461A467B6883F829207B6835
:400A00009B681846FFF7A8FD03461A467B6883F82A207B6893F829305BB29AB27B6893F82A305BB29BB2D31A9BB2FB817B6893F82B30402B0DD0FB89DBB2FB817B6893F865
:400A40002B309BB2FA8902FB03F3FB81FB899B09FB81FB89DAB27B6883F82C201037BD4680BD00BF80B483B000AF7860002318460C37BD465DF8047B704700BF80B483B0D2
:400A800000AF78607B68034A5A620C37BD465DF8047B7047650A000080B582B000AF786039607B689A683B689A4208D07B683A689A607868FFF75CFF7868FFF7DFFF08371D
:400AC000BD4680BD80B584B000AF7860084611461A460346FB700B46BB7013467B7000237B72FA787B789A4204D9FA787B78D31A7B7303E07A78FB78D31A7B73BA783B7ED1
:400B00009A4204D9BA783B7ED31A3B7303E03A7EBB78D31A3B733A7B7B7B9A4213D901237B727B7B3B723B7B7B733B7A3B73FB783B72BB78FB703B7ABB707B783B723B7EE8
:400B40007B703B7A3B76FA787B789A420BD9FB783B727B78FB703B7A7B70BB783B723B7EBB703B7A3B767B7B5B08DBB2FB723A7EBB789A4202D90123BB7201E0FF23BB7241
:400B8000BB78BB737B78FF2B02D17B78013B7B70FB78FB7326E07B7A002B07D1FA7BBB7B786811461A4600F0FFF906E0BA7BFB7B786811461A4600F0F7F9FA7A3B7BD31AA2
:400BC000DBB2FB7297F90B30002B08DABA7ABB7B1344BB73FA7A7B7B1344DBB2FB72FB7B0133FB73FA7B7B789A42D4D91037BD4680BD00BF90B585B000AFF860B9603B60F5
:400C00001346FB71BB681C68FB79F868B9681A463B68A047034618461437BD4690BD00BF80B584B000AF786039607B685B6B02209847786839680A220023FFF7DBFF03464C
:400C4000FB737B685B6B032098477B685B6B00209847FB7B18461037BD4680BD80B582B000AF786039607B685B6B022098477B685B6B012098477868396814220023FFF7AE
:400C8000B9FF7B683833786839681722FFF7B2FF7B685B6B002098470837BD4680BD00BF80B584B000AF786039607B685B6B022098477B685B6B0120984778683968152253
:400CC0000023FFF797FF0346FB73FB7B002B06D07B683833786839681722FFF78BFF7B685B6B00209847FB7B18461037BD4680BD80B584B000AFF860B9601346FB71FB1D26
:400D0000F868B9680F22FFF775FF034618461037BD4680BD80B586B000AFF860B96011461A460B46FB711346BB71FB682D337B617B69FA791A707B69BA795A70F868B96803
:400D400032227B69FFF756FF1837BD4680BD00BF80B586B000AFF860B96011461A460B46FB711346BB71FB682D337B617B69FA791A707B69BA795A707B6997F82020DA70C0
:400D80007B6997F824209A70F868B9683B227B69FFF730FF1837BD4680BD00BF80B584B000AF7860396007F10F03786839684622FFF720FFFB7B18461037BD4680BD00BF92
:400DC00080B584B000AF7860396007F10F03786839684722FFF70EFFFB7B18461037BD4680BD00BF80B582B000AF786039607868396848220023FFF7FDFE034618460837ED
:400E0000BD4680BD80B582B000AF78607B685B6878681946FFF7C2FF03461A467B681A707B685B6878681946FFF7CAFF03461A467B685A707B685B6878681946FFF7D2FF2C
:400E400003461A467B68DA747B685A687B683833786811461722FFF7CDFE0837BD4680BD80B582B000AF78607B6800229A607B680022DA607B6800225A747B6801221A7462
:400E80007B6822229A747B6800229A617868012100F0B8F87868FFF7F1FD7B68012283F828207B68002283F829207B68002283F82A207B68402283F82B207B68002283F8B0
:400EC0002C207B68024A5A630837BD4680BD00BFD91D000080B582B000AF78607B685B6878681946FFF79CFE0346002B01D1002303E07868FFF786FF012318460837BD46B8
:400F000080BD00BF80B584B000AFF860B9607A60F868FFF7A5FFFB68BA685A60FB685B687A689A60F868FFF7D5FF034618461037BD4680BD80B582B000AF78607B685B682B
:400F400078681946FFF78AFE0837BD4680BD00BF80B582B000AF78607B689B69002B03D07B689B69786898477B685B6878681946FFF796FE034618460837BD4680BD00BFA9
:400F800080B582B000AF78600B46FB707B685A68FB78786811461A46FFF7AAFE034618460837BD4680BD00BF80B582B000AF78600B46FB701346BB707B685968FA78BB78DE
:400FC0007868FFF7A7FE0837BD4680BD90B585B002AF7860084611461A460346FB700B46BB7013467B707B685968FA78BC787B7800933B7E019378682346FFF7A9FE0C3735
:40100000BD4690BD80B483B000AF78600B46FB707B68FA7883F831200C37BD465DF8047B704700BF80B485B000AF78607B68DB7CFB73FB7B282B01D1FF2306E07B68DB7C90
:40104000022B01D1032300E0012318461437BD465DF8047B704700BF80B582B000AF78607B68DB7C302B08D17B68FF2283F831207B68FF2283F8322007E07868FFF7D2FFC6
:40108000034678681946FFF7BDFF0837BD4680BD80B483B000AF7860002318460C37BD465DF8047B704700BF80B582B000AF78607868FFF7EDFF034678681946FFF7A2FFA9
:4010C0000837BD4680BD00BF80B483B000AF78607B6800229A707B681A787B68DA707B68DB78013BDAB27B68DA707B6800221A710C37BD465DF8047B704700BF90B482B052
:4011000000AF78607B689A787B681B781344DAB27B689A707B689A787B685B789A4201D3002318E07B681B790133DAB27B681A717B68DC787B681B782344DCB27B685B787A
:40114000A34204D87B685C782346013BDCB27B682246DA70012318460837BD4690BC704780B485B000AF78607B689B68FB60FB68BB607B685B791A46BB681344BB60FB68AA
:401180005A1CFA6000221A70FA68BB689A42F6D11437BD465DF8047B704700BF80B485B000AF78600B46FB701346BB707B68DB78FA789A4294BF01230023DBB2FB737B68C7
:4011C0009B78BA789A422CBF01230023DBB2BB73FA78BB789A428CBF01230023DBB27B73FB7B3B73FA7BBB7B1340FB73BA7B7B7B1340BB737A7B3B7B13407B73FA7BBB7B80
:401200001343FB73FA7B7B7B1343FB73FB7B03F00103DBB218461437BD465DF8047B704780B483B000AF786039603B6800221A707B689A783B685A707B685A793B689A70EF
:401240003B689B78013BDAB23B689A707B68DA783B68DA700C37BD465DF8047B704700BF80B584B000AF786039603B685B78FB73FB7BBB733B68DB78032B13D801A252F884
:4012800023F000BFA512000095120000A51200009D120000BB7B0833BB7303E0FB7B083BFB7300BFFA7BBB7B786811461A46FFF775FF034618461037BD4680BD80B584B0ED
:4012C00000AFF860B9607A60FB685A79FB689B68B8687968FEF7BEFF034618461037BD4680BD00BF90B484B000AF7860084611461A460346FB700B46BB7013467B707B685D
:401300009B68FB607B689B78BA78D31ABB700124BB7803F00703BB702246BB7802FA03F3DCB2FB78FA681344FB607B78002B06D0FB681B782343DAB2FB681A7007E0E34317
:40134000DCB2FB681B782340DAB2FB681A701037BD4690BC704700BF80B582B000AF786039603B685A787B689B789A4200D216E03B685A787B68DB789A4200D90FE03B6879
:401380001A787B685B799A4200D308E03B6819783B685A783B681B797868FFF7A3FF0837BD4680BD90B585B000AF786039603B689C780023FB730023BB733B68DB78032B1F
:4013C0001AD801A252F823F0D9130000E1130000E9130000F1130000FB7B0133FB730BE0BB7B0133BB7307E0FB7B013BFB7303E0BB7B013BBB7300BFE3B25BB2002B03DA8D
:4014000078683968FFF7A8FF3B681A78FB7B1344DAB23B681A703B685A78BB7B1344DAB23B685A706300DCB2002CE5D11437BD4690BD00BF80B586B000AFF860B9603B6085
:401440001346FB71BB685B687B61FB790A3B3E2B00F2BA8001A252F823F000BFC9150000C9150000C9150000C9150000C9150000C9150000C9150000C9150000C91500000A
:40148000C91500007D1500008D150000C9150000A7150000C9150000C9150000C9150000C9150000C9150000C9150000C9150000C9150000C9150000C9150000C9150000F6
:4014C000C9150000C9150000C9150000C9150000C9150000C9150000C9150000C9150000C9150000C9150000C9150000C9150000C9150000C9150000C91500007315000062
:40150000C9150000C9150000C9150000C9150000C9150000C9150000C9150000C915000059150000C9150000C9150000C9150000C9150000C9150000C9150000C91500003B
:40154000C9150000C9150000C9150000B1150000BB150000C515000078693968FFF780FE0346002B04D078693968FFF71BFF2BE02AE078693968FFF7EFFE25E07869FFF73B
:40158000EFFD7B691846FFF79FFD1DE07B691846FFF7B4FD0346002B01D1002315E07869FFF7DEFD10E078693968FFF739FE0BE07B695A793B681A7006E07B695A783B68C8
:4015C0001A7001E0012300E0012318461837BD4680BD00BF80B483B000AF78607B681A897B685B8912B21BB29A4201DB00233AE07B689B899AB27B689B889BB213449BB2A1
:401600009AB27B689A817B68DB899AB27B68DB889BB213449BB29AB27B68DA817B68DB891BB2002B15DD7B689B899AB27B681B889BB213449BB29AB27B689A817B68DB8980
:401640009AB27B685B889BB2D31A9BB29AB27B68DA817B681B899BB29BB201339BB29AB27B681A81012318460C37BD465DF8047B704700BF80B487B000AFF86008461146B2
:401680001A4603467B810B463B811346FB80FA887B89D31A9BB2BB823A8C3B89D31A9BB29AB2FB685A80FB683A8C5A81FB683A891A81FB687A899A81B7F91430002B08DB12
:4016C000FB6801221A80BB8AFB82FB680022DA8110E0FB684FF6FF721A80BB8A5B429BB2FB82FB685B889BB2C3F101039BB29AB2FB68DA81B7F91420FB685B881BB292FBB3
:40170000F3F39AB2FB689A80B7F91630FA68528812B293FBF2F102FB01F29B1A9AB2FB68DA801C37BD465DF8047B704780B483B000AF78600B46FB70FB780133FB707B6865
:401740001B7EFA789A4201D30023FB70FB7818460C37BD465DF8047B704700BF80B483B000AF78600B46FB70FB78013BFB707B681B7EFA789A4203D37B681B7E013BFB7038
:40178000FB7818460C37BD465DF8047B704700BF80B584B000AF78600B467B8013467B707A78796813465B001344DB000B4428331B7AFB737A78796813465B001344DB0029
:4017C0000B4428335B68FA7B7868114698470346FB73FB7B7A689B0013445B88B7F902201BB29A4200D00AE07A78796813465B001344DB000B442833FA7B1A72DAE710376C
:40180000BD4680BD80B584B000AF78607B68484A5A647B68474ADA627B685B88FB817B685B88BB817B68002283F830200123FB7226E0FB7A7A689B0013445B88B7F90E20E0
:401840001BB29A4205DAFB7A7A689B0013445B88FB81FB7A7A689B0013445B88B7F90C201BB29A4209DD7B68FA7A83F83020FB7A7A689B0013445B88BB81FB7A0133FB7201
:401880007B681B7EFA7A9A42D3D37B68FA895A837B685B8B9AB2BB89D31A9BB29AB27B685A837B685B8B002B01D100233CE07B6893F830207B6883F84820B7F90C3078687F
:4018C00019460122FFF764FFB7F90C30786819460022FFF75DFF7B6801225A767B6893F830301A467B6833F822207B6893F8483019467B6833F8213012B21BB29A4203D036
:401900007B6800225A760EE07B685B8B9BB29BB2013B9BB29AB27B685A837B685B8B002B01D1002300E0012318461037BD4680BD2D1700005D17000090B585B000AF786061
:4019400039607B681B8DFB817B68B3F84030BB817B689B8F7B81B7F90A30002B00DA5FE0B7F90A303A685278934200DB58E0B7F90E20B7F90C309A4229DAB7F90C30002B58
:4019800000DA4DE0B7F90E303A681278934200DB46E0B7F90E30002B01DA0023FB81B7F90C303A681278934202DB3B681B78BB81FB89D9B27B89DCB2BB89DAB2FB89DBB2DF
:4019C000D31ADBB23868224600F09CF928E0B7F90E30002B00DA23E0B7F90C303A681278934200DB1CE0B7F90C30002B01DA0023FB81B7F90E303A681278934202DB3B681E
:401A00001B78FB81BB89D9B27B89DCB2FB89DAB2BB89DBB2D31ADBB23868224600F072F91437BD4690BD00BF90B589B002AF78600B46FB70FB785A1C13465B001344DB008C
:401A40007A68134404337B617B691B7DFB74FB7C7A689B0013445B883B82FA7C7B6833F82230FB817B691B69FA7C7868114698470346FB74FB7C7A689B0013445B88BB81DC
:401A8000FA7C7B6833F822307B817B69FA7C1A75B7F90E10B7F91020B7F90A40B7F90C30009378692346FFF7E5FD1C37BD4690BD80B584B000AF786039607B685B8BFB81B1
:401AC00078680021FFF7B0FF78680121FFF7ACFF7B685B7E002B09D07B681C331846FFF779FD7B6834331846FFF774FD78683968FFF722FF03E078680021FFF795FF7B68E9
:401B00001C331846FFF766FD0346002BF3D003E078680121FFF788FF7B6834331846FFF759FD0346002BF3D0FB899BB2013B9BB2FB81B7F90E30002BD8DC1037BD4680BDB1
:401B400080B483B000AF78607B6800221A760C37BD465DF8047B704780B485B000AFF860B96011461A460B46FB801346BB80FB681B7E052B13D8FB681B7E1946FB68FA881A
:401B800023F82120FB681B7EFA689B001344BA885A80FB681B7E0133DAB2FB681A761437BD465DF8047B704780B582B000AF786039607868FFF726FE0346002B00D103E02C
:401BC00078683968FFF774FF0837BD4680BD00BF80B500AF0148FFF7B3FF80BD7483FF1F80B582B000AF78600B467B8013463B80B7F90220B7F9003003487968FFF7ACFFC9
:401C00000837BD4680BD00BF7483FF1F80B582B000AF786003487968FFF7C6FF0837BD4680BD00BF7483FF1F80B584B000AFF860084611461A4603467B810B463B81134609
:401C4000FB80FFF7C5FFB7F90A20B7F90830F86811461A46FFF7C4FFB7F90620B7F91830F86811461A46FFF7BBFFB7F91C20B7F92030F86811461A46FFF7B2FFF868FFF708
:401C8000C5FF1037BD4680BD80B586B002AF7860084611461A460346FB700B46BB7013467B70FF23FB730DE0F978BA78FB7B009378680023FFF78AF97B78083B7B70FB7833
:401CC0000833FB707B78072BEED87B78002B15D07B7883F007037B707B7801337B70FA7B7B7803F0070302FA03F3FB73F978BA78FB7B009378680023FFF768F91037BD46CE
:401D000080BD00BF90B585B002AF7860084611461A460346FB700B46BB7013467B70F978BA787C780123009378682346FEF7AAF90346002B00D105E0F978BA787B7878685C
:401D4000FFF7A2FF0C37BD4690BD00BF80B582B000AF7860084611461A460346FB700B46BB7013467B70F978BA787B787868FFF78BFFBB780133BB703B7C013B3B743B7C32
:401D8000002BF0D10837BD4680BD00BF90B585B002AF7860084611461A460346FB700B46BB7013467B70F978BA787C783B7E009378682346FEF766F90346002B00D108E0D0
:401DC000F978BA787C783B7E009378682346FFF7BDFF0C37BD4690BD80B483B000AF0346FB710C37BD465DF8047B704780B582B000AF0346FB80FB88184606F099F9083754
:401E0000BD4680BD80B500AF012006F0B3F980BD80B500AF0A2006F0ADF980BD90B587B000AFF8607B600B46FB721346BB72FB7A072B68D801A252F823F000BF071F000029
:401E40005D1E00008B1E00009D1E0000CD1E0000DB1E0000E91E0000E91E0000BB7A012B02D807F001FC0DE0BB7A022B02D807F0FBFB07E0BB7A032B02D807F0F5FB01E060
:401E800007F0F2FBFFF7BEFF3DE0FFF7C1FFBB7A184607F0A5FCFFF7BBFF34E0BB7A002B0ED10023FB7504E0FFF7B2FFFB7D0133FB75FB7D042BF7D9012007F0AFFC02E034
:401EC000002007F0ABFCFFF79DFF1CE0BB7A184607F068FCFFF79CFF15E0BB7A184607F0FFFBFFF78FFF0EE07C6808E023465C1C1B78184607F0F4FBBB7A013BBB72BB7AD5
:401F0000002BF3D100BF012318461C37BD4690BD80B586B000AFF860B9603B601346FB71FB790A3B0B2B7AD801A252F823F000BF611F00001F2000001F2000001F200000A6
:401F40001F200000C51F000003200000112000001F2000001F2000001F200000771F0000F868B968FF22FEF709F9F868B968324AFEF786F953E0BB685B687B61F868B96817
:401F80002E4AFEF77DF97B691B7963F04F03DBB2F868B9681A46FEF749F9F868B9680122FEF732F97869F968BA68FFF787F90346002B01D100233AE0F868B9680022FEF7C3
:401FC000F1F82CE0F868B9680122FEF7EBF8F868B9680022FEF718F9F868B9688122FEF725F93B681B789B08DBB2F868B9681A46FEF71CF9F868B9680022FEF7D3F80123B8
:4020000015E0F868B9680E4AFEF73AF901230EE0F868B9680B4AFEF733F9012307E0FB79F868B9681A463B68FFF704FA034618461837BD4680BD00BF48A0030068A00300BF
:4020400070A003007CA0030080B500AF344B354A1A60354B354A1A60354B4FF080421A60344B4FF082421A60334B344A1A60344B28221A70334B4FF07E521A60324B4FF0D6
:4020800000021A60314B4FF000021A60304B314A1A60314B314A1A60314B324A1A60324B21221A70314B324A1A60324B324A1A60324B01221A70324B07221A70314B41F2E2
:4020C00088321A60304B4FF47A721A60642006F02FF800F063F82D4B01221A702C4B01221A70032005F01CFD2A4B00221A7004F067FF00F0A7F8284B1B680133264A13600B
:40210000254B1B6841F28732934208D90C4B1B78DBB2184604F0ECFF1F4B00221A60E6E73084FF1F00000243E885FF1F0000E0413884FF1F3C84FF1F6885FF1F0000FA44BF
:40214000E484FF1FEC85FF1FCC83FF1F3C85FF1FD083FF1F6666863F6485FF1F66662640FC84FF1F14AEA7406484FF1F9485FF1F000070412885FF1F7B146A41FB84FF1FEC
:40218000C085FF1F6084FF1FA485FF1FC483FF1F9D85FF1F7885FF1F3483FF1F80B500AF62B6002008F0E2F806F084F807F0DCFC06F05AFB06F016FC06F0C4FC06F080FD33
:4021C00006F090FE06F004FA07F040F907F096FC08F08EF812481349134AFEF793FE10483721FEF7CDFE07F037FB104B1B78184604F01AFF0E4B01221A7007F041F90D4B16
:402200001B78184604F046FF05F062FC0A4B01221A700A4B01221A70094B01221A7080BDE083FF1F3081FF1F1D1E0000C085FF1F9C85FF1FFB84FF1FCE84FF1F8F84FF1F74
:402240006584FF1F80B500AF534B1B78122B00F2A08001A252F823F011230000A5220000AB220000B1220000B7220000DB220000E1220000E7220000ED220000BD22000088
:40228000C32200000B23000005230000F3220000FF220000F9220000C9220000CF220000D522000000F020FA74E000F07DFA71E000F034FB6EE001F01FF96BE001F098FD62
:4022C00068E002F0A5F965E000F0B0FB62E000F0EBFB5FE001F0EEF85CE002F029FE59E002F0B6FE56E002F0F9FE53E002F03CFF50E000F0B3F84DE000F000F94AE000F04A
:402300004DF947E000F0A0F944E000F057F841E006F0E6FC03469BB2213B9BB29AB21F4B1A801E4B1B881BB2184606F031FD02461B4B1A601A4B1B68184608F099FA024620
:402340000B461848184909F08BFB1848FEF7F2FD1648FEF781FE15481549FEF79DFB134828210C220F4BFEF7D1FA1048FEF7F0FD0346002BECD10F4B1B78002B08D00E4BCE
:402380001B68184604F042FD012007F03FFB01E000E000BF80BD00BF9D85FF1FF884FF1FDC83FF1FA885FF1F88A00300E083FF1FC88403009385FF1F6084FF1F80B500AF82
:4023C0001C4B1B6801331B4A13601A4B1B68B3F57A7F08D3184B1B781846002102F004FF144B00221A60154B1B78002B18D1144B1B78002B14D1134B1B78002B10D1124BBB
:402400001B78002B0CD1114B1B78002B08D1104B1B78002B04D106F01BFA0346002B08D00C4B1A78044B1A700B4B1B68184604F0EDFC80BD4083FF1F9D85FF1F9385FF1F5F
:40244000FA84FF1F4A85FF1F5984FF1F5884FF1F9285FF1FC483FF1F6084FF1F80B500AF1C4B1B6801331B4A13601A4B1B68B3F57A7F08D3184B1B781846002102F0B4FEEB
:40248000144B00221A60154B1B78002B18D1144B1B78002B14D1134B1B78002B10D1124B1B78002B0CD1114B1B78002B08D1104B1B78002B04D106F0CBF90346002B08D03C
:4024C0000C4B1A78044B1A700B4B1B68184604F09DFC80BD4083FF1F9D85FF1F9385FF1FFA84FF1F4A85FF1F5984FF1F5884FF1F9285FF1FC483FF1F6084FF1F80B500AFC4
:402500001C4B1B6801331B4A13601A4B1B68B3F57A7F08D3184B1B781846002102F064FE144B00221A60154B1B78002B18D1144B1B78002B14D1134B1B78002B10D1124B1A
:402540001B78002B0CD1114B1B78002B08D1104B1B78002B04D106F07BF90346002B08D00C4B1A78044B1A700B4B1B68184604F04DFC80BD4083FF1F9D85FF1F9385FF1F5F
:40258000FA84FF1F4A85FF1F5984FF1F5884FF1F9285FF1FC483FF1F6084FF1F80B500AF1E4B00221A701E4B1B6801331C4A13601B4B1B68B3F57A7F08D31A4B1B78184654
:4025C000002102F011FE164B00221A60164B1B78002B18D1154B1B78002B14D1144B1B78002B10D1134B1B78002B0CD1124B1B78002B08D1114B1B78002B04D106F028F9C0
:402600000346002B08D00E4B1A78064B1A700D4B1B68184604F0FAFB80BD00BF7885FF1F4083FF1F9D85FF1F9385FF1FFA84FF1F4A85FF1F5984FF1F5884FF1F9285FF1F45
:40264000C483FF1F6084FF1F80B500AF1C4B1B6801331B4A13601A4B1B68B3F57A7F08D3184B1B781846002102F0BEFD144B00221A60154B1B78002B18D1144B1B78002B74
:4026800014D1134B1B78002B10D1124B1B78002B0CD1114B1B78002B08D1104B1B78002B04D106F0D5F80346002B08D00C4B1A78044B1A700B4B1B68184604F0A7FB80BD84
:4026C0004083FF1F9D85FF1F9385FF1FFA84FF1F4A85FF1F5984FF1F5884FF1F9285FF1FC483FF1F6084FF1F98B500AF2B4B1B6801332A4A1360294B1B68B3F57A7F0ED3E0
:40270000274B1C780020032104F00AFC0346DBB22046194602F068FD204B00221A6006F097F80346002B37D00020032104F0F8FB0346032B0BD1032005F0F2F9184B022254
:402740001A70184B1B68184604F060FB24E00020032104F0E5FB0346022B0BD1032005F0DFF90F4B03221A700E4B1B68184604F04DFB11E00020032104F0D2FB0346002BF5
:402780000AD1032005F0CCF9054B05221A70054B1B68184604F03AFB98BD00BF4083FF1F9D85FF1F6084FF1F98B500AF4D4B00221A70002007F02AF94B4B1B6801334A4A74
:4027C0001360494B1B68B3F57A7F0ED3474B1C780020032104F0A4FB0346DBB22046194602F002FD404B00221A6006F031F80346002B67D00220032104F092FB0346032B15
:4028000016D1032005F08CF9384B04221A70384B4FF07C521A60374B4FF07C521A60364B01221A70354B1B68184604F0EFFA49E00020032104F074FB0346022B14D1032014
:4028400005F06EF9294B09221A702D4B2D4A1A602D4B2C4A1A60284B01221A70274B1B68184604F0D3FA2DE00020032104F058FB0346012B14D1032005F052F91B4B0A22E7
:402880001A70224B224A1A60224B214A1A601A4B01221A70194B1B68184604F0B7FA11E00020032104F03CFB0346002B0AD1032005F036F90D4B01221A70104B1B681846B6
:4028C00004F0A4FA144B1B78002B0AD0032005F027F9064B01221A70084B1B68184604F095FA98BD7885FF1F4083FF1F9D85FF1F4485FF1F5C84FF1FD485FF1F6084FF1F73
:402900001485FF1F000028417C85FF1F3484FF1F0000C8417485FF1F5984FF1F98B500AF374B00221A70002007F070F8354B1B680133344A1360334B1B68B3F57A7F0ED313
:40294000314B1C780020032104F0EAFA0346DBB22046194602F048FC2A4B00221A6005F077FF0346002B3AD00220032104F0D8FA0346022B21D1032005F0D2F8224B11226A
:402980001A70224B4FF47A721A80214B4FF47A721A80204B46F2A8121A801F4B46F2A8121A601E4B32221A701D4B32221A701D4B1B68184604F02AFA11E00020032104F03E
:4029C000AFFA0346002B0AD1032005F0A9F80E4B01221A70134B1B68184604F017FA124B1B78002B0AD0032005F09AF8064B01221A700C4B1B68184604F008FA98BD00BFFD
:402A00007885FF1F4083FF1F9D85FF1F9085FF1F9E85FF1FA085FF1FC083FF1F7085FF1F8E84FF1F6084FF1F5984FF1F98B500AF184B1B680133174A1360164B1B68B3F58C
:402A40007A7F0ED3144B1C780020032104F068FA0346DBB22046194602F0C6FB0D4B00221A600E4B1B78002B13D0032005F058F8002007F07BFC0A4B00221A70002006F0A6
:402A8000C5FF054B03221A70064B1B68184604F0BDF998BD4083FF1F9D85FF1F5984FF1F7885FF1F6084FF1F90B583B000AF002006F0CAFF002006F0E5FF012007F010FBC6
:402AC000A94B1B680133A84A1360A84B1B78012B5BD107F027FC0346002B0DD1A34B00221A70A34B1A78A34B1A70A14B0F221A70A14804F08BF948E0A04B1B78012B19D126
:402B00009F4B00221A80002007F03EF8002007F02DFC002006F07AFF974804F077F9934B00221A70924B1A78924B1A70904B0E221A702AE0012006F069FF924B1B889BB245
:402B4000184607F021F8022007F010FC07F0E6FA8D4B1B88184607F077FB07F0BDFB0346FB808A4B1B785BB2FA8802FB03F3884A82FB03125211DB17D31A9BB2FA88D31AEA
:402B8000BB80BB88184607F06FFB784B1B78002B0DD17B4B00221A80002006F0F5FF002007F0E4FB07F022FB002006F02FFF794B1B78002B40F085806B4B1B68B3F57A7F0E
:402BC00025D3704B1B881BB2734874491A4608F047FF6D4B1B88724872491A4608F040FF6A4B1B785BB2704870491A4608F038FF5F4B1C780020022104F092F90346DBB20A
:402C00002046194602F0F0FA574B00221A6005F01FFE0346002B54D05E4B01221A700020032104F07DF90346022B11D1604B02221A70544B1B881BB2184604F071FF514BE9
:402C40001B881BB25B4A13605B4B01221A7033E00020032104F064F90346012B12D1544B01221A70484B1B889BB21BB2184604F057FF454B1B881A464E4B1A604E4B0122D3
:402C80001A7019E00020032104F04AF90346002B12D1474B00221A703C4B1B785BB29BB21BB2184604F03CFF384B1B785BB2414A1360414B01221A70404B1B68184604F0F9
:402CC000A5F8344B1B78012B40F09783264B1B68B3F57A7F21D32B4B1B881BB22E482F491A4608F0BDFE284B1B882D482D491A4608F0B6FE254B1B785BB22B482B491A46DB
:402D000008F0AEFE1A4B1A78294B1B781046194602F06AFA144B00221A60294B1B78002B61D0254B1B78DBB2DBB20133DBB2DAB2214B1A701E4B1B78022B08D11E4B1B782A
:402D40005BB2022B4ADD1C4B03221A7046E0184B1B78012B36D1184B1B785BB2032B3DDD154B04221A7039E04083FF1F7885FF1F9D85FF1FC483FF1F20A107002C84FF1FE2
:402D80003A83FF1F9085FF1FA085FF1F7085FF1F1F85EB514084FF1FB484FF1F90A00300E884FF1F98A003009484FF1FA0A00300C185FF1F4483FF1FD485FF1F6084FF1F64
:402DC0009285FF1F654B1B78002B07D1644B1B785BB2012B02DD624B01221A70614B1B68184604F013F8604B1B78002B15D05C4B1B78DBB2DBB2013BDBB2DAB2584B1A70F4
:402E0000574B1B785BB2002B02DA554B00221A70544B1B68184603F0F9FF504B1B78002B40F0B080514B3B6004F068FE03461A464F4B1A604A4B1B78002B2AD14D4B1A6823
:402E40004B4B1B689A4224D04A4B1A68484B1B689A4207DD484B1B78DBB20A3BDBB2DAB2454B1A70434B1A68414B1B689A4207DA414B1B78DBB20A33DBB2DAB23E4B1A7060
:402E80003B4B1B683B4A13603C4B1B68184603F0BDFF334B1B785BB2012B2AD1354B1A68334B1B689A4224D0324B1A68304B1B689A4207DD304B1B78DBB2013BDBB2DAB235
:402EC0002D4B1A702B4B1A68294B1B689A4207DA294B1B78DBB20133DBB2DAB2264B1A70234B1B68234A1360244B1B68184603F08DFF214B1B785BB2184607F09FFE034661
:402F00001846396808F0AAF80346002B0FD0386808F0AEF80346DAB2174B1A70174B1A6813469B0013445B00184603F06FFF124B1B785BB2002B0BDA0F4B00221A700F4BF0
:402F40001A6813469B0013445B00184603F05EFF094B1A780A4B1A703BE200BFC185FF1FD485FF1F6084FF1F5884FF1F0000C8424883FF1F4483FF1F8E84FF1FA485FF1FB4
:402F80007085FF1F8A4B1B78012B40F02181894B3B6004F0B3FD03461A46874B1A60874B1B78002B28D1864B1A68834B1B689A4222D0834B1A68804B1B689A4206DD814B6C
:402FC0001B68A3F51C53103B7E4A13607C4B1A68794B1B689A4206DA7A4B1B6803F51C531033784A1360744B1B68754A1360764B1B68184603F00AFF704B1B785BB2012BB5
:4030000026D16F4B1A686C4B1B689A4220D06C4B1A68694B1B689A4205DD6A4B1B68A3F57A73684A1360664B1A68634B1B689A4205DA644B1B6803F57A73624A13605E4B49
:403040001B685F4A1360604B1B68184603F0DEFE5A4B1B785BB2022B24D1594B1A68564B1B689A421ED0564B1A68534B1B689A4204DD544B1B68643B524A1360504B1A68ED
:403080004D4B1B689A4204DA4E4B1B6864334D4A1360494B1B684A4A13604B4B1B68184603F0B4FE454B1B785BB2032B24D1444B1A68414B1B689A421ED0414B1A683E4B70
:4030C0001B689A4204DD3F4B1B680A3B3D4A13603B4B1A68384B1B689A4204DA394B1B680A33384A1360344B1B68354A1360364B1B68184603F08AFE304B1B785BB2042B28
:4031000024D12F4B1A682C4B1B689A421ED02C4B1A68294B1B689A4204DD2A4B1B68013B284A1360264B1A68234B1B689A4204DA244B1B680133234A13601F4B1B68204A19
:403140001360214B1B68184603F060FE1D4B1B68184607F073FD03461846396807F07EFF0346002B0ED0386807F082FF0246154B1A60154B1A6813469B0013445B00184660
:4031800003F044FE0F4B1B68002B0BDA0D4B00221A600D4B1A6813469B0013445B00184603F034FE074B1B689AB2084B1A8010E1C185FF1F005043474883FF1FD485FF1F59
:4031C0004483FF1FC083FF1FA485FF1FA085FF1F954B1B78022B40F0FC80944B3B6004F08DFC03461A46924B1A60924B1B78002B2CD1914B1A688E4B1B689A4226D08E4BBF
:403200001A688B4B1B689A4208DD8C4B1B889BB2A3F57A739BB29AB2884B1A80864B1A68834B1B689A4208DA844B1B889BB203F57A739BB29AB2814B1A807D4B1B687E4A88
:4032400013607F4B1B68184603F0E0FD794B1B785BB2012B2AD1784B1A68754B1B689A4224D0754B1A68724B1B689A4207DD734B1B889BB2643B9BB29AB2704B1A806E4B47
:403280001A686B4B1B689A4207DA6C4B1B889BB264339BB29AB2694B1A80654B1B68664A1360674B1B68184603F0B0FD614B1B785BB2022B2AD1604B1A685D4B1B689A4240
:4032C00024D05D4B1A685A4B1B689A4207DD5B4B1B889BB20A3B9BB29AB2584B1A80564B1A68534B1B689A4207DA544B1B889BB20A339BB29AB2514B1A804D4B1B684E4AC8
:4033000013604F4B1B68184603F080FD494B1B785BB2032B2AD1484B1A68454B1B689A4224D0454B1A68424B1B689A4207DD434B1B889BB2013B9BB29AB2404B1A803E4BF7
:403340001A683B4B1B689A4207DA3C4B1B889BB201339BB29AB2394B1A80354B1B68364A1360374B1B68184603F050FD334B1B881BB2184607F062FC03461846396807F02A
:403380006DFE0346002B0FD0386807F071FE03469AB22A4B1A802A4B1A6813469B0013445B00184603F032FD244B1B881BB2002B0BDA224B00221A80214B1A6813469B008E
:4033C00013445B00184603F021FD1C4B1A881D4B1A8005F03DFA0346002B0ED01A4B00221A70114B1B789BB21BB2184604F098FB164B1B68184603F009FD154B1B78002BCB
:4034000030D0124B1B68184603F000FD114B1B78002B21D103F010FD0346012B1FD10D4B01221A701BE000BFC185FF1F0000FA444883FF1FD485FF1F4483FF1F9E85FF1F06
:40344000A485FF1F9085FF1F4084FF1F6084FF1F9385FF1F7885FF1F114B00221A70114B00221A70104B1B78002B15D0032004F057FB002006F07AFF094B00221A70002077
:4034800006F0C4FA06F0B2FE084B03221A70084B1B68184603F0BAFC0C37BD4690BD00BF7885FF1F4084FF1F5984FF1F9D85FF1F6084FF1F98B500AF0C4B1B6801330B4AE8
:4034C00013600A4B1B68B3F57A7F0ED3084B1C780020032103F024FD0346DBB22046194601F082FE014B00221A6098BD4083FF1F9D85FF1F0000000090B583B000AF01200E
:4035000006F0EEFD06F072FE864B1B687B60864B1B680133844A136005F074FA03469AB2824B1A8005F0DCFB03469AB2804B1B789BB2D31A9BB29AB27E4B1A807E4B1B789C
:40354000012B15D1012006F0B1FD784B1B889BB21BB2184605F0AEFA0246784B1B681046194607F0BFFB03461A46754B1A6014E0002006F09BFD6D4B1B889BB21BB21846AD
:4035800005F098FA02466F4B1B681046194607F0A9FB03461A466A4B1A606B4B1B78184607F04CFB0246694B1B681046194607F099FB03461A46654B1A60644B1A68604B84
:4035C0001B681046194607F085FA03461A465F4B1A605E4B1C685C4B1B780133184607F02DFB03462046194607F030FC03461A46564B1A60554B1B68514A1360544B1B78E0
:40360000012B10D14B4B1B881BB2184605F0C0FB0246504B1B681046194607F063FB03461A464D4B1A60464B1A684B4B1B681046194607F057FB03461A46484B1A60404BD3
:403640001A68474B1B681046194607F04BFB03461A46444B1A603A4B1A68414B1B681046194607F0F3FB03461A463F4B1A60344B1A68394B1B681046194607F0E7FB0346D3
:403680001A463A4B1A602E4B1A68394B1B681046194607F0E3FC0346002B0CD0354B00221A70354B1A78354B1A70334B0C221A70334803F0ABFB2F4B1B78012B40F02B8127
:4036C00006F030FE0346002B0DD12A4B00221A70294B1A78294B1A70274B0F221A70284803F094FB17E1274B1B78012B4ED1264B00221A80002006F047FA002006F036FEFA
:40370000002006F083F91E4803F080FB194B00221A70194B1A78194B1A70174B0E221A70F9E000BF3884FF1F4083FF1F1085FF1F6484FF1FF884FF1F6584FF1F2885FF1F9B
:403740004484FF1F9485FF1F3D81FF1FF485FF1F8F84FF1FD083FF1FDC83FF1F6884FF1F4485FF1F1485FF1F3484FF1F9885FF1FE885FF1F7885FF1F9D85FF1FC483FF1F96
:4037800020A107002C84FF1F3A83FF1F012006F03DF9394B1B68B3F57A7F37D3374B1B68184607F065F802460B463548354908F057F9354B1B68184607F05AF802460B46C3
:4037C0003248334908F04CF9324B1B68184607F04FF802460B463048304908F041F9304B1B68184607F044F802460B462D482E4908F036F92D4B1A782D4B1B78DBB210460B
:40380000194601F0F1FC1C4B00221A60022006F0ADFD284B1A681C4B1B681046194607F057F90346184607F023F802460B46104619460FA3D3E9002307F0ECF80346002BC4
:403840003CD01D4B1B8801339AB21B4B1A801A4B1B88B3F57F6F03D9174B4FF47F621A80154B1B88184606F08FF954E0AFF300807B14AE47E17A743F4083FF1F4484FF1F89
:40388000A484FF1FA8A00300DC83FF1FA885FF1FB0A003006884FF1F1C84FF1FB8A003009885FF1FC485FF1FC0A003009D85FF1FD485FF1F4485FF1F3A83FF1FA84B1A6846
:4038C000A84B1B681046194607F002F90346184606F0CEFF02460B46104619469AA3D3E9002307F097F80346002B14D09E4B1B88013B9AB29C4B1A809B4B1B88002B05D1DA
:40390000994B00221A80994B00221A70964B1B88184606F039F9954B1B78002B48D1944B1B68B3F57A7F37D3924B1B68184606F09FFF02460B469048904908F091F8894B98
:403940001B68184606F094FF02460B468C488D4908F086F88C4B1B68184606F089FF02460B468A488A4908F07BF88A4B1B68184606F07EFF02460B468748884908F070F883
:40398000874B1A78874B1B78DBB21046194601F02BFC774B00221A60734B00221A80002006F0F2F8002006F0E1FC002006F02EF804F04EFF0346002B15D07B4B1B78002BBF
:4039C0000CBF01230023DBB21A46774B1A70774B1B689BB21BB2184604F0A2F8744B1B68184603F013FA704B1B78012B40F0498104F084F803461A466C4B1A60694B1B788C
:403A0000002B30D16B4B1A68684B1B689A422AD0684B1A68654B1B689A420ADD664B1B6818464FF07E5107F053F803461A46624B1A60604B1A685D4B1B689A420ADA5E4B78
:403A40001B6818464FF07E5107F044F803461A46594B1A60554B1B68564A1360574B1B68184603F0D3F94F4B1B785BB2012B48D1504B1A684D4B1B689A4242D04D4B1A6826
:403A80004A4B1B689A4216DD4B4B1B68184606F0EFFE02460B46104619462DA3D3E9002306F086FD02460B461046194606F0BCFF0246414B1A603F4B1A683C4B1B689A4210
:403AC00016DA3D4B1B68184606F0D2FE02460B46104619461EA3D3E9002306F06BFD02460B461046194606F09FFF0246324B1A602E4B1B682F4A1360304B1B68184603F003
:403B000085F9284B1B785BB2022B40F08780294B1A68264B1B689A4200F08080254B1A68224B1B689A4253DD234B1B68184606F09FFE02460B461046194607A3D3E9002333
:403B400006F036FD02463BE07B14AE47E17A743F9A9999999999B93F7B14AE47E17A843FDC83FF1F4485FF1F3A83FF1F7885FF1F4083FF1F4484FF1F0085FF1FA8A00300E7
:403B80004884FF1FB0A003001485FF1F8085FF1FCCA003003484FF1FD484FF1FC0A003009D85FF1FD485FF1F4084FF1F4883FF1F6084FF1F4483FF1F5C84FF1FA485FF1F22
:403BC0000B461046194606F02FFF0246764B1A60764B1A68764B1B689A4216DA724B1B68184606F045FE02460B46104619466CA3D3E9002306F0DEFC02460B461046194694
:403C000006F012FF0246684B1A60694B1B68674A1360684B1B68184603F0F8F8624B1B681846796807F01AFA0346002B0BD05E4A7B6813605F4B1A6813469B0013445B009D
:403C4000184603F0E3F8584B1B6818464FF0000107F0E6F90346002B0FD0574B00221A70514B4FF000021A60524B1A6813469B0013445B00184603F0C9F84B4B1B684F4AFD
:403C800013604F4B1B78002B17D04E4B1B68184603F0BCF8484B1B78002B08D103F0CCF80346012B06D1444B01221A7002E0424B00221A70444B00221A70444B1B78002B25
:403CC0000ED0434B1B78002B0CBF01230023DBB21A463F4B1A703B4B1B68184603F096F83C4B1B78002B0ED03B4B1B78002B0CBF01230023DBB21A46374B1A70314B1B682E
:403D0000184603F083F8354B1B78002B10D0032003F006FF284B00221A702B4B00221A702F4B02221A70274B1B68184603F06EF82C4B1B78002B15D02B4B1B78DBB2DBB22C
:403D40000133DBB2DAB2284B1A70274B1B785BB2022B02DD244B02221A701A4B1B68184603F054F8214B1B78002B15D01E4B1B78DBB2DBB2013BDBB2DAB21B4B1A701A4B6A
:403D80001B785BB2002B02DA174B00221A700D4B1B68184603F03AF80C37BD4690BD00BF7B14AE47E17A843F5C84FF1F4483FF1F4883FF1FA485FF1F7885FF1F4485FF1FE7
:403DC0009385FF1F6084FF1F4084FF1FFA84FF1F6584FF1F4A85FF1F2485FF1F5984FF1F9D85FF1F9285FF1FD485FF1F5884FF1F90B583B000AF012006F072F906F0F6F9E3
:403E0000774B1B687B60774B1B680133754A136004F0F8FD03469AB2734B1A8004F060FF03461A46714B1A80714B1B78012B15D1012006F03BF96C4B1B889BB21BB2184611
:403E400004F038FE02466B4B1B681046194606F049FF03461A46684B1A6014E0002006F025F9614B1B889BB21BB2184604F022FE0246624B1B681046194606F033FF03462D
:403E80001A465D4B1A605E4B1B78184606F0D6FE02465C4B1B681046194606F023FF03461A46584B1A60574B1A68534B1B681046194606F00FFE03461A46524B1A60514BBE
:403EC0001C684F4B1B780133184606F0B7FE03462046194606F0BAFF03461A46494B1A60484B1B68444A1360474B1B78012B10D13E4B1B881BB2184604F04AFF0246434BAD
:403F00001B681046194606F0EDFE03461A46404B1A60394B1A683E4B1B681046194606F0E1FE03461A463B4B1A603B4B1A68324B1B681046194606F089FF03461A46374B0F
:403F40001A602D4B1A68364B1B681046194607F085F80346002B0CD0324B00221A70324B1A78324B1A70304B0C221A70304802F04DFF2C4B1B78012B40F0258106F0D2F95B
:403F80000346002B0DD1274B00221A70264B1A78264B1A70244B0F221A70254802F036FF11E1244B1B78012B48D1234B00221A80002005F0E9FD002006F0D8F9002005F07B
:403FC00025FD1B4802F022FF164B00221A70164B1A78164B1A70144B0E221A70F3E000BF3084FF1F4083FF1F1085FF1FF884FF1F6584FF1F2885FF1F4484FF1F9485FF1FA4
:404000003D81FF1FF485FF1F8F84FF1FD083FF1FDC83FF1F6884FF1F1485FF1F4485FF1FE885FF1F7885FF1F9D85FF1FC483FF1F20A107002C84FF1F3A83FF1F012005F074
:40404000E5FC394B1B68B3F57A7F37D3374B1B68184606F00DFC02460B463548354907F0FFFC354B1B68184606F002FC02460B463248334907F0F4FC324B1B68184606F0A6
:40408000F7FB02460B463048304907F0E9FC304B1B68184606F0ECFB02460B462D482E4907F0DEFC2D4B1A782D4B1B78DBB21046194601F099F81C4B00221A60022006F025
:4040C00055F9284B1A681F4B1B681046194606F0FFFC0346184606F0CBFB02460B46104619460FA3D3E9002306F094FC0346002B3CD01D4B1B8801339AB21B4B1A801A4BB2
:404100001B88B3F57F6F03D9174B4FF47F621A80154B1B88184605F037FD54E0AFF300809A9999999999A93F4083FF1F4484FF1FA484FF1FA8A00300DC83FF1FA885FF1FCB
:40414000B0A003006884FF1F1C84FF1FB8A003009885FF1FC485FF1FC0A003009D85FF1FD485FF1F1485FF1F3A83FF1FA24B1A68A24B1B681046194606F0AAFC03461846A4
:4041800006F076FB02460B461046194696A3D3E9002306F03FFC0346002B14D0984B1B88013B9AB2964B1A80954B1B88002B05D1934B00221A80934B00221A70904B1B88FA
:4041C000184605F0E1FC8F4B1B78002B48D18E4B1B68B3F57A7F37D38C4B1B68184606F047FB02460B468A488A4907F039FC8A4B1B68184606F03CFB02460B468748884961
:4042000007F02EFC7D4B1B68184606F031FB02460B468448844907F023FC844B1B68184606F026FB02460B468148824907F018FC814B1A78814B1B78DBB21046194600F05C
:40424000D3FF714B00221A606D4B00221A80002005F09AFC002006F089F8002005F0D6FB04F0F6FA0346002B15D0754B1B78002B0CBF01230023DBB21A46714B1A70714BBC
:404280001B689BB21BB2184603F04AFC6E4B1B68184602F0BBFD6A4B1B78012B40F0088103F02CFC03461A46664B1A60634B1B78002B29D1654B1A68624B1B689A4223D0D3
:4042C000624B1A685F4B1B689A4209DD604B1B681846604906F0FCFB03461A465C4B1A605A4B1A68574B1B689A4209DA584B1B681846584906F0EEFB03461A46544B1A60E3
:40430000504B1B68514A13604C4B1B785BB2012B2BD14E4B1A684B4B1B689A4225D04B4B1A68484B1B689A420ADD494B1B6818464FF07E5106F0CCFB03461A46444B1A600A
:40434000424B1A683F4B1B689A420ADA404B1B6818464FF07E5106F0BDFB03461A463C4B1A60384B1B68394A1360344B1B785BB2022B7CD1354B1A68324B1B689A4276D0D6
:40438000324B1A682F4B1B689A4216DD304B1B68184606F06DFA02460B461046194614A3D3E9002306F004F902460B461046194606F03AFB0246264B1A60244B1A68214B99
:4043C0001B689A424FDA224B1B68184606F050FA02460B461046194605A3D3E9002306F0E9F802460B4637E09A9999999999A93F9A9999999999B93F6884FF1F1485FF1F7C
:404400003A83FF1F7885FF1F4083FF1F4484FF1F0085FF1FA8A003004485FF1F4884FF1FB0A003008085FF1FCCA003003484FF1FD484FF1FC0A003009D85FF1FD485FF1FB5
:404440004084FF1F4883FF1F6084FF1F4483FF1F7C85FF1F000020411046194606F0E4FA02465A4B1A605A4B1B685A4A1360574B1B681846796806F0F1FD0346002B02D04D
:40448000524A7B681360514B1B6818464FF0000106F0C6FD0346002B06D04F4B00221A704A4B4FF000021A60484B1B684B4A13604B4B1B78002B17D04A4B1B68184602F0F3
:4044C000A5FC454B1B78002B08D102F0B5FC0346012B06D1404B01221A7002E03E4B00221A70414B00221A70404B1B78002B0ED03F4B1B78002B0CBF01230023DBB21A4610
:404500003B4B1A70374B1B68184602F07FFC394B1B78002B0ED0384B1B78002B0CBF01230023DBB21A46344B1A702E4B1B68184602F06CFC314B1B78002B10D0032003F04E
:40454000EFFA254B00221A70274B00221A702C4B02221A70234B1B68184602F057FC294B1B78002B15D0284B1B78DBB2DBB20133DBB2DAB2244B1A70234B1B785BB2022BA7
:4045800002DD214B02221A70164B1B68184602F03DFC1E4B1B78002B15D01B4B1B78DBB2DBB2013BDBB2DAB2174B1A70164B1B785BB2002B02DA144B00221A70094B1B684B
:4045C000184602F023FC0C37BD4690BD7C85FF1F4883FF1F4483FF1F7885FF1F1485FF1F9385FF1F6084FF1F4084FF1FFA84FF1F6584FF1F4A85FF1F2485FF1F5984FF1F8E
:404600009D85FF1F9285FF1FD485FF1F5884FF1F90B583B000AF012005F062FD05F0E6FD184B1B687B60184B1B683B60174B1B680133164A136004F0E5F903469AB2144B2C
:404640001A8004F04DFB03461A46124B1A80124B1B78012B26D1012005F028FD0C4B1B889BB21BB2184604F025FA02460B4B1B681046194606F036FB03461A46084B1A607E
:4046800025E000BF6885FF1F3C84FF1F4083FF1F1085FF1FF884FF1F6584FF1F2885FF1F4484FF1F002005F001FDA14B1B889BB21BB2184604F0FEF902469E4B1B68104658
:4046C000194606F00FFB03461A469B4B1A609B4B1B78184606F0B2FA0246994B1B681046194606F0FFFA03461A46954B1A60944B1A68914B1B681046194606F0EBF90346EB
:404700001A468F4B1A608E4B1C688C4B1B780133184606F093FA03462046194606F096FB03461A46864B1A60854B1B68824A1360844B1B78012B10D1834B1B881BB21846C3
:4047400004F026FB0246814B1B681046194606F0C9FA03461A467E4B1A60774B1A687C4B1B681046194606F071FB03461A46794B1A60714B1A68784B1B681046194606F078
:4047800065FB03461A46754B1A606B4B1A686A4B1B681046194606F0A5FA03461A466E4B1B681046194606F051FB03461A466C4B1A60614B1A68664B1B681046194606F039
:4047C00091FA03461A46674B1A605B4B1A68664B1B681046194606F041FC0346002B0CD0624B00221A70624B1A78624B1A70604B0C221A70604802F009FB5C4B1B78012B8F
:4048000040F0158105F08EFD0346002B0CD1574B00221A70564B1A78564B1A70544B0F221A70554802F0F2FA544B1B78002B18D04E4B00221A704E4B1A784E4B1A704C4BF1
:404840000E221A704E4B00221A80002005F09CF9002005F08BFD002005F0D8F8464802F0D5FA012005F0D2F8464B1B68B3F57A7F37D3314B1B68184605F0FAFF02460B462B
:404880004148424907F0ECF8314B1B68184605F0EFFF02460B463E483E4907F0E1F8314B1B68184605F0E4FF02460B463A483B4907F0D6F8274B1B68184605F0D9FF024652
:4048C0000B463748374907F0CBF8294B1A78364B1B78DBB21046194600F086FC294B00221A60022005F042FD1B4B1A68194B1B681046194606F0ECF80346184605F0B8FFC9
:4049000002460B461046194607A3D3E9002306F081F80346002B5DD0194B1B88013B9AB244E000BFAFF300809A9999999999A93F1085FF1F9485FF1F4484FF1F3D81FF1FD1
:40494000F485FF1F8F84FF1FF884FF1FD083FF1FDC83FF1F9885FF1F3484FF1F4485FF1F1485FF1F6884FF1FE885FF1F7885FF1F9D85FF1FC483FF1F20A107002C84FF1F4D
:404980003A83FF1F4083FF1FA484FF1FA8A00300A885FF1FB0A003001C84FF1FB8A00300C485FF1FD4A00300D485FF1F084B1A80074B1B88B3F57F6F03D9054B4FF47F62D6
:4049C0001A80034B1B88184605F0DEF82FE000BF3A83FF1F9A4B1A689A4B1B681046194606F076F80346184605F042FF02460B461046194690A3D3E9002306F00BF80346F3
:404A0000002B14D0904B1B8801339AB28E4B1A808D4B1B88002B05D18B4B00221A808B4B00221A70884B1B88184605F0ADF8874B1B78002B48D1864B1B68B3F57A7F37D350
:404A4000844B1B68184605F013FF02460B468248824907F005F8824B1B68184605F008FF02460B467F48804906F0FAFF7F4B1B68184605F0FDFE02460B467D487D4906F0E6
:404A8000EFFF704B1B68184605F0F2FE02460B4679487A4906F0E4FF794B1A78794B1B78DBB21046194600F09FFB694B00221A60654B00221A80002005F066F8002005F0D4
:404AC00055FC002004F0A2FF03F0C2FE0346002B10D06D4B1B78002B0CBF01230023DBB21A46694B1A70694B1B689BB21BB2184603F016F8644B1B78012B40F0638102F0D2
:404B0000FDFF03461A46614B1A605E4B1B78002B29D15F4B1A685D4B1B689A4223D05C4B1A685A4B1B689A4209DD5A4B1B681846594905F0CDFF03461A46564B1A60544BC4
:404B40001A68524B1B689A4209DA524B1B681846514905F0BFFF03461A464E4B1A604B4B1B684B4A1360474B1B785BB2012B29D1474B1A68454B1B689A4223D0444B1A68CD
:404B8000424B1B689A4209DD424B1B681846434905F09EFF03461A463E4B1A603C4B1A683A4B1B689A4209DA3A4B1B6818463B4905F090FF03461A46364B1A60334B1B6808
:404BC000334A13602F4B1B785BB2022B29D1304B1A682E4B1B689A4223D02D4B1A682B4B1B689A4209DD2B4B1B6818462C4905F06FFF03461A46274B1A60254B1A68234BE3
:404C00001B689A4209DA234B1B681846244905F061FF03461A461F4B1A601C4B1B681C4A1360184B1B785BB2032B63D1184B1A68164B1B6836E000BF9A9999999999A93F4F
:404C40009885FF1F3484FF1F3A83FF1F7885FF1F4083FF1F4484FF1FA484FF1FA8A003004485FF1F4884FF1FB0A003001485FF1F8085FF1FCCA00300D484FF1FD4A003007B
:404C80009D85FF1FD485FF1F4084FF1F4883FF1F4483FF1F7485FF1F00007A440000C842000020419A4225D08F4B1A688F4B1B689A420ADD8E4B1B6818464FF07E5105F043
:404CC00007FF03461A468A4B1A60874B1A68874B1B689A420ADA864B1B6818464FF07E5105F0F8FE03461A46814B1A607F4B1B687D4A13607F4B1B785BB2042B43D17A4BBA
:404D00001A687A4B1B689A423DD0774B1A68774B1B689A4216DD764B1B68184605F0A8FD02460B46104619466DA3D3E9002305F03FFC02460B461046194605F075FE0246C1
:404D40006B4B1A60684B1A68684B1B689A4216DA674B1B68184605F08BFD02460B46104619465FA3D3E9002305F024FC02460B461046194605F058FE02465D4B1A605B4BCF
:404D80001B68594A13605A4B1B681846796806F065F90346002B02D0554A7B681360544B1B681846396806F03BF90346002B05D0514B00221A704E4A3B6813604C4B1B68C0
:404DC0004E4A13604E4B1B78002B17D04D4B1B68184602F01BF8484B1B78002B08D102F02BF80346012B06D1434B01221A7002E0414B00221A70444B00221A70434B1B78B0
:404E0000002B0ED0424B1B78002B0CBF01230023DBB21A463E4B1A703A4B1B68184601F0F5FF3C4B1B78002B0ED03B4B1B78002B0CBF01230023DBB21A46374B1A70314BD3
:404E40001B68184601F0E2FF344B1B78002B10D0032002F065FE284B00221A702A4B00221A702F4B02221A70264B1B68184601F0CDFF2C4B1B78002B15D01E4B1B78DBB2D0
:404E8000DBB20133DBB2DAB21A4B1A70194B1B785BB2042B02DD174B04221A70194B1B68184601F0B3FF204B1B78002B15D0114B1B78DBB2DBB2013BDBB2DAB20D4B1A70CF
:404EC0000C4B1B785BB2002B02DA0A4B00221A700C4B1B68184601F099FF0C37BD4690BD9A9999999999B93F4483FF1F4883FF1F7485FF1FD485FF1F7885FF1F3484FF1F83
:404F00009385FF1F6084FF1F4084FF1FFA84FF1F6584FF1F4A85FF1F2485FF1F5984FF1F9D85FF1F9285FF1F5884FF1FAFF3008098B500AF404B1B6801333F4A13603E4BB1
:404F40001B68B3F57A7F0ED33C4B1C780020032101F0E6FF0346DBB22046194600F044F9354B00221A6003F073FC0346002B52D00020032101F0D4FF0346032B0FD1304B41
:404F80001B789BB21BB2184602F0CAFD2B4B06221A702C4B1B68184601F038FF3BE00020032101F0BDFF0346022B0FD1264B1B789BB21BB2184602F0B3FD204B07221A70E7
:404FC000204B1B68184601F021FF24E00020032101F0A6FF0346012B0BD1032002F0A0FD164B08221A70174B1B68184601F00EFF11E00020032101F093FF0346002B0AD116
:40500000032002F08DFD0D4B01221A700D4B1B68184601F0FBFE0D4B1B78002B0AD0032002F07EFD054B01221A70064B1B68184601F0ECFE98BD00BF4083FF1F9D85FF1FEA
:40504000C085FF1F6084FF1FFB84FF1F5984FF1F80B500AF1D4B1B6801331C4A13601B4B1B68B3F57A7F10D30B2001F013FF0346DBB2184601F0D8FF154B1B78184603214B
:4050800000F0B2F8114B00221A6003F0E1FB0346002B0AD0032002F043FD0D4B05221A700C4B1B68184601F0B1FE0B4B1B78002B0AD0032002F034FD054B05221A70054B86
:4050C0001B68184601F0A2FE80BD00BF4083FF1F9D85FF1F6084FF1F9385FF1F80B500AF1D4B1B6801331C4A13601B4B1B68B3F57A7F10D30B2001F0CDFE0346DBB2184685
:4051000001F0C8FF154B1B781846022100F06CF8114B00221A6003F09BFB0346002B0AD0022002F0FDFC0D4B05221A700C4B1B68184601F06BFE0B4B1B78002B0AD0022068
:4051400002F0EEFC054B05221A70054B1B68184601F05CFE80BD00BF4083FF1F9D85FF1F6084FF1F9385FF1F80B500AF1A4B1B680133194A1360184B1B68B3F57A7F0AD347
:4051800002F032F8154B1B781846032100F02CF8114B00221A6003F05BFB0346002B0AD0012002F0BDFC0D4B05221A700C4B1B68184601F02BFE0B4B1B78002B0AD0012085
:4051C00002F0AEFC054B05221A70054B1B68184601F01CFE80BD00BF4083FF1F9D85FF1F6084FF1F5984FF1F90B58BB004AF03460A46FB711346BB71FB79BB73BB7B122BEA
:4052000001F2F08501A252F823F000BF25540000C9540000B7550000A5560000B56A0000CD5E0000115E0000555D0000096000009166000021610000B152000059520000AF
:405240007553000009530000CD530000C9570000F9570000F75C00008D48FBF76BFE8C48FBF7FAFE8A488B49FBF716FC884828210C22894BFBF74AFB85488649FBF70CFCA7
:40528000834802211C22854BFBF740FB80488149FBF702FC7E4804213C22814BFBF736FB7B48FBF755FE0346002BD8D101F09BBD7748FBF73FFE7648FBF7CEFE74487549B9
:4052C000FBF7EAFB724828210C22734BFBF71EFB6F487049FBF7E0FB6D4802211C22714BFBF714FB6A486B49FBF7D6FB684804213C226B4BFBF70AFB6548FBF729FE0346B5
:40530000002BD8D101F06FBD6148FBF713FE6048FBF7A2FE5E485F49FBF7BEFB5C4828210C225D4BFBF7F2FA59485A49FBF7B4FB574802211C225C4BFBF7E8FA5448554962
:40534000FBF7AAFB524802212B22584BFBF7DEFA4F485049FBF7A0FB4D4804213C22504BFBF7D4FA4A48FBF7F3FD0346002BCED101F039BD4648FBF7DDFD4548FBF76CFE3E
:4053800043484449FBF788FB414828210C22424BFBF7BCFA3E483F49FBF77EFB3C4802211C22434BFBF7B2FA39483A49FBF774FB374804213C223A4BFBF7A8FA3448FBF7B3
:4053C000C7FD0346002BD8D101F00DBD3048FBF7B1FD2F48FBF740FE2D482E49FBF75CFB2B4828210C222C4BFBF790FA28482949FBF752FB264802211C222E4BFBF786FA65
:4054000023482449FBF748FB214804213C22244BFBF77CFA1E48FBF79BFD0346002BD8D101F0E1BC1A48FBF785FD1948FBF714FE17481849FBF730FB154802210D221E4BD1
:40544000FBF764FA12481349FBF726FB104802211D221A4BFBF75AFA0D480E49FBF71CFB0B4802212D22164BFBF750FA08480949FBF712FB064802213C22124BFBF746FA98
:405480000348FBF765FD0346002BCED101F0ABBCE083FF1FC8840300DCA00300E4A00300F4A0030004A1030014A10300C484FF1F20A103002CA103006C84FF1F3CA103002D
:4054C0004CA103005CA10300B248FBF733FDB148FBF7C2FDBB79032B0AD110230093AD48002100228023FCF751FCAA48FBF7DCFDA848A949FBF7D0FAA64802210D22A74B4B
:40550000FBF704FAA348FBF7A7FDBB79022B0AD1102300939F48002110228023FCF736FC9C48FBF7C1FD9B489B49FBF7B5FA994802211D229A4BFBF7E9F99648FBF78CFDA5
:40554000BB79012B0AD1102300939248002120228023FCF71BFC8F48FBF7A6FD8D488E49FBF79AFA8B4802212D228E4BFBF7CEF98848FBF771FDBB79002B0AD1102300939B
:405580008448002130228023FCF700FC8148FBF78BFD80488049FBF77FFA7E4802213C22814BFBF7B3F97B48FBF7D2FC0346002B8DD101F018BC7748FBF7BCFC7548FBF7F8
:4055C0004BFDBB79032B0AD1102300937148002100228023FCF7DAFB6E48FBF765FD6D486D49FBF759FA6B4802210D226F4BFBF78DF96848FBF730FDBB79022B0AD11023CA
:4056000000936448002110228023FCF7BFFB6148FBF74AFD5F486049FBF73EFA5D4802211D22634BFBF772F95A48FBF715FDBB79012B0AD1102300935648002120228023CF
:40564000FCF7A4FB5348FBF72FFD52485249FBF723FA504802212D22564BFBF757F94D48FBF7FAFCBB79002B0AD1102300934948002130228023FCF789FB4648FBF714FD82
:4056800044484549FBF708FA424802213C224A4BFBF73CF93F48FBF75BFC0346002B8DD101F0A1BB3B48FBF745FC3A48FBF7D4FCBB79032B0AD11023009336480021002268
:4056C0008023FCF763FB3348FBF7EEFC31483249FBF7E2F92F4802210D22384BFBF716F92C48FBF7B9FCBB79022B0AD1102300932848002110228023FCF748FB2548FBF739
:40570000D3FC24482449FBF7C7F9224802211D222B4BFBF7FBF81F48FBF79EFCBB79012B0AD1102300931B48002120228023FCF72DFB1848FBF7B8FC16481749FBF7ACF915
:40574000144802212D221F4BFBF7E0F81148FBF783FCBB79002B0AD1102300930D48002130228023FCF712FB0A48FBF79DFC09480949FBF791F9074802213C220E4BFBF7DB
:40578000C5F80448FBF7E4FB0346002B8DD101F02ABB00BFE083FF1FC884030068A1030078A103004CA103005CA1030088A1030098A10300A4A10300B4A10300C8A103004C
:4057C000D8A10300E4A10300A648FBF7B3FBA548FBF742FCA348A449FBF75EF9A1481E210C22A24BFBF792F89E48FBF7B1FB0346002BECD101F0F7BA9A48FBF79BFB994878
:40580000FBF72AFCBB79022B1AD1994B1B78002B07D1102300939348002100228023FCF7B5FA934B1B78012B07D1102300938D482B2100228023FCF7A9FA8A48FBF734FCB6
:4058400088488949FBF728F98A4B1B881BB2092B06DC844852210D22874BFBF757F81EE0844B1B881BB2632B06DC7E484A210D22814BFBF74BF812E07E4B1B881BB2B3F5B6
:405880007A7F06DA774842210D227B4BFBF73EF805E074483A210D22774BFBF737F8BB79022B06D1724B1B78012B02D16D48FBF7D3FB6C486C49FBF7EFF86A4802210D2280
:4058C0006E4BFBF723F8BB79022B33D1684B1B78012B2FD16348FBF7E7FB694B1B78002B02D13B23FB7519E0654B1B785BB2012B02D14323FB7511E0614B1B785BB2022BF1
:4059000002D14B23FB7509E05D4B1B785BB2032B02D15323FB7501E03B23FB75FB7D0533DCB2FA7D0E2300934E4811460E222346FBF7C8F84B48FBF78FFBBB79012B1AD1E4
:405940004B4B1B78002B07D1102300934548002110228023FCF71AFA454B1B78012B07D1102300933F482B2110228023FCF70EFA3C48FBF799FB3B483B49FBF78DF8414B07
:405980001B88092B06D8374852211D223E4BFAF7BDFF29E03B4B1B88632B06D831484A211D22394BFAF7B2FF1EE0364B1B88B3F57A7F06D22B4842211D22334BFAF7A6FF20
:4059C00012E0304B1B8842F20F72934206D825483A211D222C4BFAF799FF05E0214832211D22294BFAF792FFBB79012B06D1204B1B78012B02D11B48FBF72EFB19481A49DC
:405A0000FBF74AF8174802211D22204BFAF77EFFBB79012B52D1164B1B78012B4ED11148FBF742FB164B1B78002B02D13323BB7538E0134B1B785BB2012B02D13B23BB7533
:405A400030E00F4B1B785BB2022B02D14323BB7528E00B4B1B785BB2032B19D14B23BB7520E000BFE083FF1FC8840300F4A103004084FF1F9085FF1FB484FF1F04A2030097
:405A8000D485FF1FA085FF1FE884FF1F0CA20300A54B1B785BB2042B02D15323BB7501E03323BB75BB7D0533DCB2BA7D1E2300939E4811461E222346FBF704F89B48FBF7A0
:405AC000CBFABB79002B1AD1994B1B78002B07D1102300939548002120228023FCF756F9934B1B78012B07D1102300938F482B2120228023FCF74AF98C48FBF7D5FA8B4851
:405B00008C49FAF7C9FF8C4B1B785BB2092B05DC864852212D22894BFAF7F8FE864B1B785BB2632B06DC81484A212D22834BFAF7EDFE05E07D4842212D22804BFAF7E6FEF6
:405B4000BB79002B06D17A4B1B78012B02D17748FBF782FA75487749FAF79EFF734802212D22774BFAF7D2FEBB79002B23D1704B1B78012B1FD16D48FBF796FA6A4B1B7874
:405B8000002B02D14B237B7509E0674B1B785BB2012B02D153237B7501E03B237B757B7D0533DCB27A7D2E230093604811462E222346FAF787FF5D48FBF74EFA102300934D
:405BC0005A48002133228023FCF7E0F85748FBF76BFA56485749FAF75FFF3E2300935348202134222023FAF76DFF3E2300934F48402134224023FAF765FF3E2300934B4855
:405C0000602134226023FAF75DFF4E4B1B78002B0BD1392300930E2301933F23029343480E2133221423FBF7FFFF464B1B78012B1FD13D2300933D480E2135220E23FAF749
:405C400041FF3D23009339480F2135220F23FAF739FF3D2300933548112135221123FAF731FF3D2300933148122135221223FAF729FF2F4B1B78002B0AD12C482D49FAF70E
:405C80000BFF2A4825213E222F4BFAF73FFE0DE0274B1B78012B09D124482649FAF7FCFE224829213E22294BFAF730FE3B2300931E48752136227523FAF704FF3B230093F3
:405CC0001A486D213B227523FAF7FCFE3B230093702301933E2302931448702138226B23FBF7A2FF1148FBF733F90346002B7FF486AD01F078B80D48FBF71CF90B48FBF70B
:405D0000ABF90A480B49FAF7C7FE08481E210C220F4BFAF7FBFD0548FBF71AF90346002BECD101F060B800BFD485FF1FE083FF1F4084FF1FC88403007085FF1F9484FF1FA6
:405D400014A203007885FF1F1CA2030020A2030024A20300A348FBF7EDF8A248FBF77CF9A048A149FAF798FE9E4802210D229F4BFAF7CCFD9B489C49FAF78EFE9948602111
:405D80000D229B4BFAF7C2FD9648FBF765F995489549FAF781FE934802211D22954BFAF7B5FD102300938F48582110222C23FBF7EDFF8C48FBF778F98A488B49FAF76CFE58
:405DC000884860211D228C4BFAF7A0FD8548FBF743F984488449FAF75FFE824802212D22864BFAF793FD7F48FBF736F97D487E49FAF752FE7B4802213C22814BFAF786FD05
:405E00007848FBF7A5F80346002BA6D100F0EBBF7448FBF78FF87348FBF71EF971487249FAF73AFE6F4802210D22704BFAF76EFD102300936B48582100222C23FBF7A6FFDE
:405E40006848FBF731F967486749FAF725FE654860210D22664BFAF759FD6248FBF7FCF860486149FAF718FE5E4802211D22614BFAF74CFD5B485C49FAF70EFE5948602150
:405E80001D225D4BFAF742FD5648FBF7E5F855485549FAF701FE534802212D22574BFAF735FD5048FBF7D8F84E484F49FAF7F4FD4C4802213C22524BFAF728FD4948FBF7AC
:405EC00047F80346002BA6D100F08DBF4548FBF731F84448FBF7C0F8BB79032B0AD1102300934048002100228023FBF74FFF3D48FBF7DAF83B483C49FAF7CEFD39480221FC
:405F00000D223A4BFAF702FD36483749FAF7C4FD344860210D22364BFAF7F8FC3148FBF79BF8BB79022B0AD1102300932D48002110228023FBF72AFF2A48FBF7B5F8294873
:405F40002949FAF7A9FD274802211D222D4BFAF7DDFC24482449FAF79FFD224860211D22254BFAF7D3FC1F48FBF776F8BB79012B0AD1102300931B48002120228023FBF722
:405F800005FF1848FBF790F816481749FAF784FD144802212D22194BFAF7B8FC1148FBF75BF8BB79002B0AD1102300930D48002130228023FBF7EAFE0A48FBF775F8094817
:405FC0000949FAF769FD074802213C220C4BFAF79DFC0448FAF7BCFF0346002B7FF479AF00F001BFE083FF1FC884030034A20300B885FF1F40A203001C85FF1F48A20300FB
:40600000B4A1030054A20300AB48FAF793FFAA48FBF722F8BB79002B0AD110230093A648002100228023FBF7B1FEA348FBF73CF8A148A249FAF730FD9F4802210D22A04BFF
:40604000FAF764FC9C489D49FAF726FD9A485A210D229C4BFAF75AFC9748FAF7FDFFBB79022B0AD1102300939348002110228023FBF78CFE9048FBF717F88F488F49FAF7A3
:406080000BFD8D4802211D228F4BFAF73FFC8A488A49FAF701FD88485A211D228B4BFAF735FC8548FAF7D8FFBB79002B0AD1102300938148002120228023FBF767FE7E4804
:4060C000FAF7F2FF7C487D49FAF7E6FC7A4802212D227F4BFAF71AFC7748FAF7BDFFBB79032B0AD1102300937348002130228023FBF74CFE7048FAF7D7FF6F486F49FAF701
:40610000CBFC6D4802213C22724BFAF7FFFB6A48FAF71EFF0346002B7FF479AF00F063BE6548FAF707FF16237B736348FAF794FF694B1B78002B40F00581684B1B68184624
:406140004FF07E5104F06CFF0346002B0DD05A486349FAF7A1FC7B7B1F33DBB2564819461A22604BFAF7D2FB51E05C4B1B6818465D4904F055FF0346002B0DD04E485849DF
:40618000FAF78AFC7B7B1833DBB24B4819461A22544BFAF7BBFB3AE0504B1B681846534904F03EFF0346002B0DD043484C49FAF773FC7B7B1133DBB23F4819461A22494B75
:4061C000FAF7A4FB23E0454B1B681846484904F027FF0346002B0DD037484149FAF75CFC7B7B0233DBB2344819461A223D4BFAF78DFB0CE030483A49FAF74EFC7B7B0D3B1D
:40620000DBB22D4819461A22364BFAF77FFB2A482A49FAF741FC284861211A22354BFAF775FB25482549FAF737FC234804212B22314BFAF76BFB314B1B78002B0AD11E4889
:406240001E49FAF729FC1C4840212B222C4BFAF75DFB09E018481949FAF71EFC164840212B22284BFAF752FB274B1B78012B40F04781BB79002B03D17B7B0C3B3B7548E0EB
:40628000BB79012B03D17B7B03333B7541E0BB79022B03D17B7B12333B753AE0BB79032B03D17B7B23333B7533E0BB79042B2DD17B7B3A333B752CE0E083FF1FC8840300DE
:4062C0005CA20300C484FF1F68A20300D483FF1F74A20300B4A103007885FF1F3484FF1F50D60000D484FF1F000020410000C84200007A4484A20300A484FF1F2485FF1F58
:406300004884FF1F8085FF1F4084FF1F7B7B32333B753B7D0C33DCB23A7D1B230093AD4811461B222346FAF7CDFB3B7D0C33DCB23A7D1C230093A74811461C222346FAF7BF
:40634000C1FBDDE0A44B1B78012B40F0D980A34B1B6818464FF07E5104F062FE0346002B0DD09C489E49FAF797FB7B7B1F33DBB2984819461A229B4BFAF7C8FA51E0974BA1
:406380001B681846984904F04BFE0346002B0DD090489349FAF780FB7B7B1833DBB28D4819461A228F4BFAF7B1FA3AE08B4B1B6818468E4904F034FE0346002B0DD08548CD
:4063C0008749FAF769FB7B7B1133DBB2814819461A22844BFAF79AFA23E0804B1B681846834904F01DFE0346002B0DD079487C49FAF752FB7B7B0233DBB2764819461A2249
:40640000784BFAF783FA0CE072487549FAF744FB7B7B0D3BDBB26F4819461A22714BFAF775FA6C487349FAF737FB6A4860211A22714BFAF76BFA67486E49FAF72DFB65481E
:4064400004212B226D4BFAF761FA6D4B1B78002B0AD160486749FAF71FFB5E4840212B22684BFAF753FA09E05A486249FAF714FB584840212B22644BFAF748FA634B1B7806
:40648000012B3DD1BB79002B03D17B7B0C3BFB741EE0BB79012B03D17B7B0333FB7417E0BB79022B03D17B7B1233FB7410E0BB79032B03D17B7B2333FB7409E0BB79042BF3
:4064C00003D17B7B3A33FB7402E07B7B3233FB74FB7C0C33DCB2FA7C1B2300933D4811461B222346FAF7EEFAFB7C0C33DCB2FA7C1C230093374811461C222346FAF7E2FA8E
:40650000102300933348002133228023FBF73EFC3048FAF7C9FD2F483649FAF7BDFA3E2300932C48202134222023FAF7CBFA3E2300932848402134224023FAF7C3FA3E2383
:4065400000932448602134226023FAF7BBFA224B1B78002B0BD1392300930E2301933F2302931C480E2133221423FBF75DFB1A4B1B78012B1FD13D23009316480E21352216
:406580000E23FAF79FFA3D23009312480F2135220F23FAF797FA3D2300930E48112135221123FAF78FFA3D2300930A48122135221223FAF787FA164B1B78002B2CD1054839
:4065C0000C49FAF769FA034829213E22114BFAF79DF92FE0E083FF1F7885FF1F9885FF1F50D60000C485FF1F000020410000C84200007A44C884030084A20300A484FF1FC0
:406600002485FF1FA885FF1F1C84FF1F4084FF1F6584FF1F88A20300A84B1B78012B09D1A748A849FAF738FAA54829213E22A64BFAF76CF93B230093A148752136227523A7
:40664000FAF740FA3B2300939D486D213B227523FAF738FA3B230093702301933E2302939748702138226B23FBF7DEFA94489749FAF712FA924849213E22954BFAF746F9D6
:406680008F48FAF765FC0346002B7FF44CADAAE38B48FAF74FFC0E233B738948FAF7DCFC8C4B1B78002B40F094808B4B1B6818468A4904F0B5FC0346002B0DD080488849CA
:4066C000FAF7EAF93B7B1C33DBB27D4819461A22844BFAF71BF923E07F4B1B681846824904F09EFC0346002B0DD075487C49FAF7D3F93B7B0933DBB2714819461A22794BD2
:40670000FAF704F90CE06E487549FAF7C5F93B7B063BDBB26A4819461A22724BFAF7F6F867486849FAF7B8F9654804212B226F4BFAF7ECF86E4B1B78002B0AD1604861499B
:40674000FAF7AAF95E4840212B226A4BFAF7DEF809E05B485B49FAF79FF9594840212B22654BFAF7D3F8654B1B78012B40F0FC80BB79002B03D13B7B0A33BB7410E0BB79AD
:40678000012B03D13B7B1A33BB7409E0BB79022B03D13B7B3233BB7402E03B7B3233BB74BB7C0C33DCB2BA7C1B230093444811461B222346FAF786F9BB7C0C33DCB2BA7CD5
:4067C0001C2300933E4811461C222346FAF77AF9CAE0404B1B78012B40F0C680484B1B6818463E4904F01CFC0346002B0DD034483B49FAF751F93B7B1C33DBB23048194679
:406800001A22404BFAF782F823E03D4B1B681846354904F005FC0346002B0DD028483049FAF73AF93B7B0933DBB2254819461A22344BFAF76BF80CE021482949FAF72CF9B2
:406840003B7B063BDBB21E4819461A222D4BFAF75DF81B481B49FAF71FF9194804212B22294BFAF753F8224B1B78002B0AD114481449FAF711F9124840212B22234BFAF761
:4068800045F809E00E480F49FAF706F90C4840212B221F4BFAF73AF8184B1B78012B63D1BB79002B03D13B7B0A337B7444E0BB79012B2FD13B7B1A337B743DE06584FF1F80
:4068C000E083FF1FC88403008CA20300A44A030090A203007885FF1F1485FF1F0000204150D600008085FF1F0000C8420085FF1F2485FF1F4884FF1FD484FF1F4084FF1F3F
:406900006884FF1F1C84FF1FA484FF1FA885FF1FC485FF1FBB79022B0BD13B7B1A46920013441A4691001A460B4613445B007B7402E03B7B32337B747B7C0C33DCB27A7C72
:406940001B230093B44811461B222346FAF7BAF87B7C0C33DCB27A7C1C230093AE4811461C222346FAF7AEF810230093AA48002133228023FBF70AFAA748FAF795FBA6486E
:40698000A649FAF789F83E230093A348202134222023FAF797F83E2300939F48402134224023FAF78FF83E2300939B48602134226023FAF787F89A4B1B78002B0BD1392354
:4069C00000930E2301933F23029393480E2133221423FBF729F9924B1B78012B1FD13D2300938D480E2135220E23FAF76BF83D23009389480F2135220F23FAF763F83D2316
:406A000000938548112135221123FAF75BF83D2300938148122135221223FAF753F8814B1B78002B0AD17C487C49FAF735F87A4829213E227C4BF9F769FF0DE0794B1B7863
:406A4000012B09D174487549FAF726F8724829213E22764BF9F75AFF3B2300936E48752136227523FAF72EF83B2300936A486D213B227523FAF726F83B2300937023019388
:406A80003E2302936448702138226B23FBF7CCF861486749FAF700F85F4849213E22654BF9F734FF5C48FAF753FA0346002B7FF4F2AD98E15848FAF73DFA5748FAF7CCFA80
:406AC000574B1B78002B5ED153485B49F9F7E4FF514818211A22594BF9F718FF4E484F49F9F7DAFF4C4804212B22554BF9F70EFF544B1B78002B0AD147484849F9F7CCFF8F
:406B0000454840212B22504BF9F700FF09E042484249F9F7C1FF404840212B224B4BF9F7F5FE4B4B1B78012B40F0B680BB79002B02D11A233B740DE0BB79012B02D13223E5
:406B40003B7407E0BB79022B02D140233B7401E032233B743B7C0C33DCB23A7C1B2300932D4811461B222346F9F7ACFF3B7C0C33DCB23A7C1C230093274811461C222346C3
:406B8000F9F7A0FF88E0264B1B78012B40F0848021482949F9F780FF1F4818211A222D4BF9F7B4FE1C481D49F9F776FF1A4804212B22294BF9F7AAFE224B1B78002B0AD125
:406BC00015481649F9F768FF134840212B22234BF9F79CFE09E010481049F9F75DFF0E4840212B221E4BF9F791FE194B1B78012B52D1BB79002B02D11A23FB7334E0BB7944
:406C0000012B02D13223FB732EE0BB79022B29D14023FB7328E000BFE083FF1FC88403007885FF1F6584FF1F88A203008CA20300A44A030090A2030050D600004884FF1F0B
:406C40000085FF1F2485FF1F8085FF1FD484FF1F4084FF1FA885FF1FA484FF1F1C84FF1FC485FF1F3223FB73FB7B0C33DCB2FA7B1B2300935D4811461B222346F9F722FF7A
:406C8000FB7B0C33DCB2FA7B1C230093574811461C222346F9F716FF102300935348002133228023FBF772F85048FAF7FDF94F484F49F9F7F1FE3E2300934C482021342226
:406CC0002023F9F7FFFE3E2300934848402134224023F9F7F7FE3E2300934448602134226023F9F7EFFE434B1B78002B0BD1392300930E2301933F2302933C480E2133224F
:406D00001423FAF791FF3B4B1B78012B1FD13D23009336480E2135220E23F9F7D3FE3D23009332480F2135220F23F9F7CBFE3D2300932E48112135221123F9F7C3FE3D2367
:406D400000932A48122135221223F9F7BBFE2A4B1B78002B0AD125482549F9F79DFE234829213E22254BF9F7D1FD0DE0224B1B78012B09D11D481E49F9F78EFE1B48292107
:406D80003E221F4BF9F7C2FD3B2300931748752136227523F9F796FE3B23009313486D213B227523F9F78EFE3B230093702301933E2302930D48702138226B23FAF734FFB5
:406DC0000A481049F9F768FE084849213E220E4BF9F79CFD0548FAF7BBF80346002B7FF46CAE00E000BF1C37BD4690BDE083FF1FC88403007885FF1F6584FF1F88A2030043
:406E00008CA20300A44A030090A2030080B582B000AF7860074B1B78012B07D1786803F0A1F8002003F076F803F048F80837BD4680BD00BF9C85FF1F80B500AF02F03EFE75
:406E40000346012B0BD1104B1A78104B1A700E4B0B221A700E48FFF7D9FF002311E002F03DFE0346002B0BD1074B1A78074B1A70054B0D221A700648FFF7C8FF002300E053
:406E80000123184680BD00BF9D85FF1FC483FF1F20A1070080B582B000AF0346FB8000F02DFE03469AB21B4B1A801B4B1A88194B1B889A4228D0194B1B681846FFF7A6FF9A
:406EC000144B1B884FF6F972934205D9002000F027FE104B00221A800E4B1B881A46FB88013B9A420CDBFB88013B9BB29BB21BB2184600F015FEFB88013B9AB2054B1A8087
:406F0000044B1A88044B1A80034B1B8818460837BD4680BD4885FF1F4085FF1FA485FF1F80B582B000AF03460A46FB801346BB8000F0E4FD03469AB21E4B1A801E4B1A8862
:406F40001C4B1B889A422ED01C4B1B681846FFF75DFF184B1B884FF6F972934205D9002000F0DEFD134B00221A80124B1B88FA889A4207D9FB881BB2184600F0D1FD0D4A24
:406F8000FB8813800B4B1B88BA889A4207D8BB881BB2184600F0C4FD064ABB881380054B1A88054B1A80044B1B8818460837BD4680BD00BF4885FF1F4085FF1FA485FF1F01
:406FC00080B500AF01F014FC03461A46104B1A7001F01AFC03461A460E4B1A7001F020FC03461A460C4B1A7001F026FC03461A460A4B1A7002F0F2FC03461A46084B1A70F3
:4070000002F0F8FC03461A46064B1A7080BD00BF9385FF1FFA84FF1F4A85FF1F5984FF1F5884FF1F9285FF1F80B584B000AF0346FB71FB79FB60FB68092B01DD0A23FB6068
:40704000FB68002B01DC0023FB60FB68DBB2184602F08CFCFB68DAB20B4B1A700B480C49FA6804F0FDFCFB68DBB21A46920013441A4691001A460B461344DBB2184602F08A
:4070800075FC1037BD4680BDC085FF1FB885FF1F94A2030080B584B000AF0346FB71FB79FB60FB68092B01DD0A23FB60FB68002B01DC0023FB60FB68DAB20A4B1A700A483F
:4070C0000A49FA6804F0CCFCFB68DBB21A46920013445B00DBB2184602F044FA1037BD4680BD00BFFB84FF1F1C85FF1F94A2030080B582B000AF0346FB7100F027F8114B5F
:407100001B78002B03D1104B01221A700CE00D4B1B785AB2FB799A4203DB0B4B01221A7002E0094B00221A70FB79143BDAB2054B1B78DBB21046194600F084F80837BD469D
:4071400080BD00BFCE84FF1F2C84FF1F80B500AF1F4B0A221A704820012102F0AFF803461A461C4B1A601B4B1B68002B06D1002002F02EF90346DAB2174B1A7002F0FCF859
:40718000134B1B781A46154B1B6803FB02F3134A1360114B1B785AB2104B1B6813440F4A13600E4B1B680A4A12780132B3FBF2F30A4A1360094B1B68DAB2074B1A70064B05
:4071C0001B785BB2064807491A4604F049FC80BD5C85FF1F0C86FF1FCE84FF1FC883FF1FD483FF1F98A2030080B500AF074801F0E5FA0246064B1A60044B1B881BB205481F
:4072000005491A4604F02CFC80BD00BFD084FF1F0C86FF1FC484FF1F98A2030080B582B000AF0346FB71FB79002B02D102F0FEFE05E002F0B3FEFB79184602F027FF0837E7
