:400000000080002011000000295500002955000080B500AF024A034B1B68136005F0B2FABC760040FA46004010B5054C237833B9044B13B10448AFF300800123237010BD6A
:400040001882FF1F00000000C4B50000084B10B51BB108480849AFF300800848036803B910BD074B002BFBD0BDE81040184700BF00000000C4B500001C82FF1F0881FF1F2D
:400080000000000090B484B000AF7860084611461A460346FB700B46BB7013467B70BC783B7E2344DCB22346013BDCB27B6893F839207B6893F83B30FA73BB73BB787B7357
:4000C00023463B73BA7B7B7B9A420DD3FA7B3B7B9A4201D8012314E07A7B3B7B9A4201D901230EE000230CE0FA7B3B7B9A4207D87A7B3B7B9A4201D9012302E0002300E038
:400100000023002B01D1002332E0FC787B782344DCB22346013BDCB27B6893F838207B6893F83A30FA72BB72FB787B7223463B72BA7A7B7A9A420DD3FA7A3B7A9A4201D86B
:40014000012314E07A7A3B7A9A4201D901230EE000230CE0FA7A3B7A9A4207D87A7A3B7A9A4201D9012302E0002300E0002300BF18461037BD4690BC704700BF90B585B0D5
:4001800000AFF860B9601346FB71BB689C68FB79F86801211A460023A047034618461437BD4690BD90B585B000AFF860B9601346FB71BB689C68FB79F86803211A46002390
:4001C000A0471437BD4690BD90B583B000AF786039603B689C687868042100220023A0470C37BD4690BD00BF90B583B000AF786039603B689C687868042101220023A0474A
:400200000C37BD4690BD00BF90B585B000AFF860B9601346FB71BB689C68FB79F86802211A460023A0471437BD4690BD90B585B000AFF860B9601346FB71BB689C68FB79F0
:40024000F86805211A460023A047034618461437BD4690BD90B585B000AFF860B9603B601346FB71BB689C68FB79F86806211A463B68A047034618461437BD4690BD00BF45
:4002800080B586B000AFF860B9607A600023FB757B681B78BB75FB7D002B10D1BB7DFF2B0AD0BB7DF868B9681A46FFF7BFFF0346002B63D1002365E00123FB755EE0BB7DF9
:4002C000FF2B0AD1BB7DF868B9681A46FFF7AEFF0346002B50D1002354E0BB7DFE2B02D100BF01234EE0BB7DEF2B45D8BB7DDF2B09D9BB7D03F00F03DBB2F868B9681A46CE
:40030000FFF782FF38E0BB7DCF2B09D9BB7D03F00F03DBB2F868B9681A46FFF743FF2BE0BB7DBF2B1CD9F868B968FFF74DFFBB7D03F00F03BB75BB7D1B01BB75BB7D0233F4
:40034000BB75BB7D9BB2184601F050FDF868B968FFF74AFFBB7D9BB2184601F047FD0BE0BB7DBD2B08D8BB7D5BB2002B04DBBB7D9BB2184601F03AFD0023FB757B68013365
:400380007B6085E718461837BD4680BD80B485B000AFF8607B600B46FB721346BB72FB7A062B11D801A252F823F000BFC9030000C9030000C9030000C9030000C903000030
:4003C000C9030000C9030000012318461437BD465DF8047B704700BF80B483B000AF78600B46FB70FB787A6813447B607B681B7818460C37BD465DF8047B704780B485B00C
:4004000000AF78600B46FB70FB787A6813447B607B681B78FB817B6801337B60FB891B02FB817B681B789AB2FB891344FB81FB8918461437BD465DF8047B704780B582B0B6
:4004400000AF786078680021FFF7C6FF034618460837BD4680BD00BF80B582B000AF78607868FFF7EBFF0346012B05D0022B05D0002B05D1062304E0032302E0062300E03B
:40048000032318460837BD4680BD00BF80B582B000AF786078680521FFF79EFF034618460837BD4680BD00BF80B582B000AF786078680621FFF7A2FF034618460837BD4699
:4004C00080BD00BF80B582B000AF786078680821FFF794FF034618460837BD4680BD00BF80B582B000AF786078680A21FFF774FF034618460837BD4680BD00BF80B582B0ED
:4005000000AF786078680B21FFF766FF034618460837BD4680BD00BF80B582B000AF786078680C21FFF758FF0346DBB25BB218460837BD4680BD00BF80B582B000AF786033
:4005400078680D21FFF748FF0346DBB25BB218460837BD4680BD00BF80B582B000AF786078680E21FFF738FF0346DBB25BB218460837BD4680BD00BF80B582B000AF78601A
:4005800078680F21FFF728FF0346DBB25BB218460837BD4680BD00BF80B582B000AF786078681021FFF718FF0346DBB25BB218460837BD4680BD00BF80B582B000AF786016
:4005C00039607868FFF748FF03461A463B68134418460837BD4680BD80B584B000AF786039607B689B681846FFF728FF0346002B01D0022B1BD13B681A787B68DA773B6871
:400600005A787B6883F820203B6803331B78DAB27B681A773B6804331B78DAB27B685A773B6805331B78DAB27B689A7730E03B681B78FB73FB7B03F00F03DAB27B689A7794
:400640007B689B7FDBB2023BDBB2DAB27B689A77FB7B1B09FB73FA7B7B685A773B685B78FB73FB7B03F00F03DAB27B6883F82020FB7B1B09FB737B68FA7BDA773B689B7885
:40068000FB73FB7B1B09FB73FA7B7B681A7700BF1037BD4680BD00BF80B483B000AF78607B6800221A777B680022DA777B68002283F820207B6800225A777B6800229A7750
:4006C0000C37BD465DF8047B704700BF80B586B000AF78600B46FB707B689B687B617B689B681846FFF7AAFE03463B747B689B681846FFF7B1FE0346FB73FF237B743B7CB8
:40070000012B01D10F237B747B689B681846FFF7E7FE0346FB747B689B681846FFF7EEFE0346BB737B689B681846FFF7CBFE0346BB81FB78602B09D9BB89002B06D0BB8935
:400740007A6913447B616123FB7416E07B689B681846FFF7A9FE0346BB81FB78402B09D9BB89002B06D0BB897A6913447B614123FB7402E07B6911337B61FA78BB7B9A4278
:4007800004D97868FFF788FF002332E0FB7CBB74BA7CBB7B9A4228D87B691B78FF2B03D17B6901337B6117E0BA7CFB789A4205D178687969FFF710FF7B691AE07B69023363
:4007C0001A787B7C1340DBB21A467B6913447B61FB7B7A6913447B61BA7CBB7B9A4200D103E0BB7C0133BB74D6E77868FFF754FF002318461837BD4680BD00BF90B589B0C4
:4008000002AF7860084611461A460346FB700B46BB7013467B707B7878681946FFF756FFF860FB68002B01D1002369E07B689B681846F968FFF7C0FE78617B68DB7FFB7239
:400840007B6893F82030BB727B685B7FDAB2FB781344FB707B689B7FDBB2BA78D31ABB70BB78013BBB70BA78BB7AD31ADBB20133DAB2F978FC7ABB7A009378682346FFF712
:4008800001FC0346002B02D17B681B7F38E0FB7A0733FB72FB7ADB08FB72BB783B743A7CBB7AD31A3B743B7C01333B740023BB7420E0FB787B740023FB7411E07B691B78CD
:4008C000797C3A7C00937868002300F07FFB7B6901337B617B7C08337B74FB7C0133FB74FA7CFB7A9A42E9D33B7C01333B74BB7C0133BB74BA7CBB7A9A42DAD37B681B7FF6
:400900005BB218461C37BD4690BD00BF80B586B000AFF8607B600B46FB721346BB720023FB75FB685B6AF868984703461A46BB7A1344BB7213E07B681B78F97ABA7AF8688D
:40094000FFF75CFF0346BB75BA7DFB7A1344FB72BA7DFB7D1344FB757B6801337B607B681B78002BE7D1FB7D18461837BD4680BD80B584B000AF78607B689B68002B00D145
:400980006CE07B6893F82830002B14D17B689B681846FFF77BFD0346DAB27B6883F829207B689B681846FFF7B7FD03461A467B6883F82A202DE07B6893F82830012B14D1C4
:4009C0007B689B681846FFF7D7FD03461A467B6883F829207B689B681846FFF7DDFD03461A467B6883F82A2013E07B689B681846FFF7A2FD03461A467B6883F829207B6835
:400A00009B681846FFF7A8FD03461A467B6883F82A207B6893F829305BB29AB27B6893F82A305BB29BB2D31A9BB2FB817B6893F82B30402B0DD0FB89DBB2FB817B6893F865
:400A40002B309BB2FA8902FB03F3FB81FB899B09FB81FB89DAB27B6883F82C201037BD4680BD00BF80B483B000AF7860002318460C37BD465DF8047B704700BF80B483B0D2
:400A800000AF78607B68034A5A620C37BD465DF8047B7047650A000080B582B000AF786039607B689A683B689A4208D07B683A689A607868FFF75CFF7868FFF7DFFF08371D
:400AC000BD4680BD80B584B000AF7860084611461A460346FB700B46BB7013467B7000237B72FA787B789A4204D9FA787B78D31A7B7303E07A78FB78D31A7B73BA783B7ED1
:400B00009A4204D9BA783B7ED31A3B7303E03A7EBB78D31A3B733A7B7B7B9A4213D901237B727B7B3B723B7B7B733B7A3B73FB783B72BB78FB703B7ABB707B783B723B7EE8
:400B40007B703B7A3B76FA787B789A420BD9FB783B727B78FB703B7A7B70BB783B723B7EBB703B7A3B767B7B5B08DBB2FB723A7EBB789A4202D90123BB7201E0FF23BB7241
:400B8000BB78BB737B78FF2B02D17B78013B7B70FB78FB7326E07B7A002B07D1FA7BBB7B786811461A4600F0FFF906E0BA7BFB7B786811461A4600F0F7F9FA7A3B7BD31AA2
:400BC000DBB2FB7297F90B30002B08DABA7ABB7B1344BB73FA7A7B7B1344DBB2FB72FB7B0133FB73FA7B7B789A42D4D91037BD4680BD00BF90B585B000AFF860B9603B60F5
:400C00001346FB71BB681C68FB79F868B9681A463B68A047034618461437BD4690BD00BF80B584B000AF786039607B685B6B02209847786839680A220023FFF7DBFF03464C
:400C4000FB737B685B6B032098477B685B6B00209847FB7B18461037BD4680BD80B582B000AF786039607B685B6B022098477B685B6B012098477868396814220023FFF7AE
:400C8000B9FF7B683833786839681722FFF7B2FF7B685B6B002098470837BD4680BD00BF80B584B000AF786039607B685B6B022098477B685B6B0120984778683968152253
:400CC0000023FFF797FF0346FB73FB7B002B06D07B683833786839681722FFF78BFF7B685B6B00209847FB7B18461037BD4680BD80B584B000AFF860B9601346FB71FB1D26
:400D0000F868B9680F22FFF775FF034618461037BD4680BD80B586B000AFF860B96011461A460B46FB711346BB71FB682D337B617B69FA791A707B69BA795A70F868B96803
:400D400032227B69FFF756FF1837BD4680BD00BF80B586B000AFF860B96011461A460B46FB711346BB71FB682D337B617B69FA791A707B69BA795A707B6997F82020DA70C0
:400D80007B6997F824209A70F868B9683B227B69FFF730FF1837BD4680BD00BF80B584B000AF7860396007F10F03786839684622FFF720FFFB7B18461037BD4680BD00BF92
:400DC00080B584B000AF7860396007F10F03786839684722FFF70EFFFB7B18461037BD4680BD00BF80B582B000AF786039607868396848220023FFF7FDFE034618460837ED
:400E0000BD4680BD80B582B000AF78607B685B6878681946FFF7C2FF03461A467B681A707B685B6878681946FFF7CAFF03461A467B685A707B685B6878681946FFF7D2FF2C
:400E400003461A467B68DA747B685A687B683833786811461722FFF7CDFE0837BD4680BD80B582B000AF78607B6800229A607B680022DA607B6800225A747B6801221A7462
:400E80007B6822229A747B6800229A617868012100F0B8F87868FFF7F1FD7B68012283F828207B68002283F829207B68002283F82A207B68402283F82B207B68002283F8B0
:400EC0002C207B68024A5A630837BD4680BD00BFD91D000080B582B000AF78607B685B6878681946FFF79CFE0346002B01D1002303E07868FFF786FF012318460837BD46B8
:400F000080BD00BF80B584B000AFF860B9607A60F868FFF7A5FFFB68BA685A60FB685B687A689A60F868FFF7D5FF034618461037BD4680BD80B582B000AF78607B685B682B
:400F400078681946FFF78AFE0837BD4680BD00BF80B582B000AF78607B689B69002B03D07B689B69786898477B685B6878681946FFF796FE034618460837BD4680BD00BFA9
:400F800080B582B000AF78600B46FB707B685A68FB78786811461A46FFF7AAFE034618460837BD4680BD00BF80B582B000AF78600B46FB701346BB707B685968FA78BB78DE
:400FC0007868FFF7A7FE0837BD4680BD90B585B002AF7860084611461A460346FB700B46BB7013467B707B685968FA78BC787B7800933B7E019378682346FFF7A9FE0C3735
:40100000BD4690BD80B483B000AF78600B46FB707B68FA7883F831200C37BD465DF8047B704700BF80B485B000AF78607B68DB7CFB73FB7B282B01D1FF2306E07B68DB7C90
:40104000022B01D1032300E0012318461437BD465DF8047B704700BF80B582B000AF78607B68DB7C302B08D17B68FF2283F831207B68FF2283F8322007E07868FFF7D2FFC6
:40108000034678681946FFF7BDFF0837BD4680BD80B483B000AF7860002318460C37BD465DF8047B704700BF80B582B000AF78607868FFF7EDFF034678681946FFF7A2FFA9
:4010C0000837BD4680BD00BF80B483B000AF78607B6800229A707B681A787B68DA707B68DB78013BDAB27B68DA707B6800221A710C37BD465DF8047B704700BF90B482B052
:4011000000AF78607B689A787B681B781344DAB27B689A707B689A787B685B789A4201D3002318E07B681B790133DAB27B681A717B68DC787B681B782344DCB27B685B787A
:40114000A34204D87B685C782346013BDCB27B682246DA70012318460837BD4690BC704780B485B000AF78607B689B68FB60FB68BB607B685B791A46BB681344BB60FB68AA
:401180005A1CFA6000221A70FA68BB689A42F6D11437BD465DF8047B704700BF80B485B000AF78600B46FB701346BB707B68DB78FA789A4294BF01230023DBB2FB737B68C7
:4011C0009B78BA789A422CBF01230023DBB2BB73FA78BB789A428CBF01230023DBB27B73FB7B3B73FA7BBB7B1340FB73BA7B7B7B1340BB737A7B3B7B13407B73FA7BBB7B80
:401200001343FB73FA7B7B7B1343FB73FB7B03F00103DBB218461437BD465DF8047B704780B483B000AF786039603B6800221A707B689A783B685A707B685A793B689A70EF
:401240003B689B78013BDAB23B689A707B68DA783B68DA700C37BD465DF8047B704700BF80B584B000AF786039603B685B78FB73FB7BBB733B68DB78032B13D801A252F884
:4012800023F000BFA512000095120000A51200009D120000BB7B0833BB7303E0FB7B083BFB7300BFFA7BBB7B786811461A46FFF775FF034618461037BD4680BD80B584B0ED
:4012C00000AFF860B9607A60FB685A79FB689B68B8687968FEF7BEFF034618461037BD4680BD00BF90B484B000AF7860084611461A460346FB700B46BB7013467B707B685D
:401300009B68FB607B689B78BA78D31ABB700124BB7803F00703BB702246BB7802FA03F3DCB2FB78FA681344FB607B78002B06D0FB681B782343DAB2FB681A7007E0E34317
:40134000DCB2FB681B782340DAB2FB681A701037BD4690BC704700BF80B582B000AF786039603B685A787B689B789A4200D216E03B685A787B68DB789A4200D90FE03B6879
:401380001A787B685B799A4200D308E03B6819783B685A783B681B797868FFF7A3FF0837BD4680BD90B585B000AF786039603B689C780023FB730023BB733B68DB78032B1F
:4013C0001AD801A252F823F0D9130000E1130000E9130000F1130000FB7B0133FB730BE0BB7B0133BB7307E0FB7B013BFB7303E0BB7B013BBB7300BFE3B25BB2002B03DA8D
:4014000078683968FFF7A8FF3B681A78FB7B1344DAB23B681A703B685A78BB7B1344DAB23B685A706300DCB2002CE5D11437BD4690BD00BF80B586B000AFF860B9603B6085
:401440001346FB71BB685B687B61FB790A3B3E2B00F2BA8001A252F823F000BFC9150000C9150000C9150000C9150000C9150000C9150000C9150000C9150000C91500000A
:40148000C91500007D1500008D150000C9150000A7150000C9150000C9150000C9150000C9150000C9150000C9150000C9150000C9150000C9150000C9150000C9150000F6
:4014C000C9150000C9150000C9150000C9150000C9150000C9150000C9150000C9150000C9150000C9150000C9150000C9150000C9150000C9150000C91500007315000062
:40150000C9150000C9150000C9150000C9150000C9150000C9150000C9150000C915000059150000C9150000C9150000C9150000C9150000C9150000C9150000C91500003B
:40154000C9150000C9150000C9150000B1150000BB150000C515000078693968FFF780FE0346002B04D078693968FFF71BFF2BE02AE078693968FFF7EFFE25E07869FFF73B
:40158000EFFD7B691846FFF79FFD1DE07B691846FFF7B4FD0346002B01D1002315E07869FFF7DEFD10E078693968FFF739FE0BE07B695A793B681A7006E07B695A783B68C8
:4015C0001A7001E0012300E0012318461837BD4680BD00BF80B483B000AF78607B681A897B685B8912B21BB29A4201DB00233AE07B689B899AB27B689B889BB213449BB2A1
:401600009AB27B689A817B68DB899AB27B68DB889BB213449BB29AB27B68DA817B68DB891BB2002B15DD7B689B899AB27B681B889BB213449BB29AB27B689A817B68DB8980
:401640009AB27B685B889BB2D31A9BB29AB27B68DA817B681B899BB29BB201339BB29AB27B681A81012318460C37BD465DF8047B704700BF80B487B000AFF86008461146B2
:401680001A4603467B810B463B811346FB80FA887B89D31A9BB2BB823A8C3B89D31A9BB29AB2FB685A80FB683A8C5A81FB683A891A81FB687A899A81B7F91430002B08DB12
:4016C000FB6801221A80BB8AFB82FB680022DA8110E0FB684FF6FF721A80BB8A5B429BB2FB82FB685B889BB2C3F101039BB29AB2FB68DA81B7F91420FB685B881BB292FBB3
:40170000F3F39AB2FB689A80B7F91630FA68528812B293FBF2F102FB01F29B1A9AB2FB68DA801C37BD465DF8047B704780B483B000AF78600B46FB70FB780133FB707B6865
:401740001B7EFA789A4201D30023FB70FB7818460C37BD465DF8047B704700BF80B483B000AF78600B46FB70FB78013BFB707B681B7EFA789A4203D37B681B7E013BFB7038
:40178000FB7818460C37BD465DF8047B704700BF80B584B000AF78600B467B8013467B707A78796813465B001344DB000B4428331B7AFB737A78796813465B001344DB0029
:4017C0000B4428335B68FA7B7868114698470346FB73FB7B7A689B0013445B88B7F902201BB29A4200D00AE07A78796813465B001344DB000B442833FA7B1A72DAE710376C
:40180000BD4680BD80B584B000AF78607B68484A5A647B68474ADA627B685B88FB817B685B88BB817B68002283F830200123FB7226E0FB7A7A689B0013445B88B7F90E20E0
:401840001BB29A4205DAFB7A7A689B0013445B88FB81FB7A7A689B0013445B88B7F90C201BB29A4209DD7B68FA7A83F83020FB7A7A689B0013445B88BB81FB7A0133FB7201
:401880007B681B7EFA7A9A42D3D37B68FA895A837B685B8B9AB2BB89D31A9BB29AB27B685A837B685B8B002B01D100233CE07B6893F830207B6883F84820B7F90C3078687F
:4018C00019460122FFF764FFB7F90C30786819460022FFF75DFF7B6801225A767B6893F830301A467B6833F822207B6893F8483019467B6833F8213012B21BB29A4203D036
:401900007B6800225A760EE07B685B8B9BB29BB2013B9BB29AB27B685A837B685B8B002B01D1002300E0012318461037BD4680BD2D1700005D17000090B585B000AF786061
:4019400039607B681B8DFB817B68B3F84030BB817B689B8F7B81B7F90A30002B00DA5FE0B7F90A303A685278934200DB58E0B7F90E20B7F90C309A4229DAB7F90C30002B58
:4019800000DA4DE0B7F90E303A681278934200DB46E0B7F90E30002B01DA0023FB81B7F90C303A681278934202DB3B681B78BB81FB89D9B27B89DCB2BB89DAB2FB89DBB2DF
:4019C000D31ADBB23868224600F09CF928E0B7F90E30002B00DA23E0B7F90C303A681278934200DB1CE0B7F90C30002B01DA0023FB81B7F90E303A681278934202DB3B681E
:401A00001B78FB81BB89D9B27B89DCB2FB89DAB2BB89DBB2D31ADBB23868224600F072F91437BD4690BD00BF90B589B002AF78600B46FB70FB785A1C13465B001344DB008C
:401A40007A68134404337B617B691B7DFB74FB7C7A689B0013445B883B82FA7C7B6833F82230FB817B691B69FA7C7868114698470346FB74FB7C7A689B0013445B88BB81DC
:401A8000FA7C7B6833F822307B817B69FA7C1A75B7F90E10B7F91020B7F90A40B7F90C30009378692346FFF7E5FD1C37BD4690BD80B584B000AF786039607B685B8BFB81B1
:401AC00078680021FFF7B0FF78680121FFF7ACFF7B685B7E002B09D07B681C331846FFF779FD7B6834331846FFF774FD78683968FFF722FF03E078680021FFF795FF7B68E9
:401B00001C331846FFF766FD0346002BF3D003E078680121FFF788FF7B6834331846FFF759FD0346002BF3D0FB899BB2013B9BB2FB81B7F90E30002BD8DC1037BD4680BDB1
:401B400080B483B000AF78607B6800221A760C37BD465DF8047B704780B485B000AFF860B96011461A460B46FB801346BB80FB681B7E052B13D8FB681B7E1946FB68FA881A
:401B800023F82120FB681B7EFA689B001344BA885A80FB681B7E0133DAB2FB681A761437BD465DF8047B704780B582B000AF786039607868FFF726FE0346002B00D103E02C
:401BC00078683968FFF774FF0837BD4680BD00BF80B500AF0148FFF7B3FF80BD6C83FF1F80B582B000AF78600B467B8013463B80B7F90220B7F9003003487968FFF7ACFFD1
:401C00000837BD4680BD00BF6C83FF1F80B582B000AF786003487968FFF7C6FF0837BD4680BD00BF6C83FF1F80B584B000AFF860084611461A4603467B810B463B81134619
:401C4000FB80FFF7C5FFB7F90A20B7F90830F86811461A46FFF7C4FFB7F90620B7F91830F86811461A46FFF7BBFFB7F91C20B7F92030F86811461A46FFF7B2FFF868FFF708
:401C8000C5FF1037BD4680BD80B586B002AF7860084611461A460346FB700B46BB7013467B70FF23FB730DE0F978BA78FB7B009378680023FFF78AF97B78083B7B70FB7833
:401CC0000833FB707B78072BEED87B78002B15D07B7883F007037B707B7801337B70FA7B7B7803F0070302FA03F3FB73F978BA78FB7B009378680023FFF768F91037BD46CE
:401D000080BD00BF90B585B002AF7860084611461A460346FB700B46BB7013467B70F978BA787C780123009378682346FEF7AAF90346002B00D105E0F978BA787B7878685C
:401D4000FFF7A2FF0C37BD4690BD00BF80B582B000AF7860084611461A460346FB700B46BB7013467B70F978BA787B787868FFF78BFFBB780133BB703B7C013B3B743B7C32
:401D8000002BF0D10837BD4680BD00BF90B585B002AF7860084611461A460346FB700B46BB7013467B70F978BA787C783B7E009378682346FEF766F90346002B00D108E0D0
:401DC000F978BA787C783B7E009378682346FFF7BDFF0C37BD4690BD80B483B000AF0346FB710C37BD465DF8047B704780B582B000AF0346FB80FB88184604F0B1FB08373C
:401E0000BD4680BD80B500AF012004F0CBFB80BD80B500AF0A2004F0C5FB80BD90B587B000AFF8607B600B46FB721346BB72FB7A072B68D801A252F823F000BF071F0000F9
:401E40005D1E00008B1E00009D1E0000CD1E0000DB1E0000E91E0000E91E0000BB7A012B02D805F04BFE0DE0BB7A022B02D805F045FE07E0BB7A032B02D805F03FFE01E080
:401E800005F03CFEFFF7BEFF3DE0FFF7C1FFBB7A184605F0EFFEFFF7BBFF34E0BB7A002B0ED10023FB7504E0FFF7B2FFFB7D0133FB75FB7D042BF7D9012005F0F9FE02E055
:401EC000002005F0F5FEFFF79DFF1CE0BB7A184605F0B2FEFFF79CFF15E0BB7A184605F049FEFFF78FFF0EE07C6808E023465C1C1B78184605F03EFEBB7A013BBB72BB7AAB
:401F0000002BF3D100BF012318461C37BD4690BD80B586B000AFF860B9603B601346FB71FB790A3B0B2B7AD801A252F823F000BF611F00001F2000001F2000001F200000A6
:401F40001F200000C51F000003200000112000001F2000001F2000001F200000771F0000F868B968FF22FEF709F9F868B968324AFEF786F953E0BB685B687B61F868B96817
:401F80002E4AFEF77DF97B691B7963F04F03DBB2F868B9681A46FEF749F9F868B9680122FEF732F97869F968BA68FFF787F90346002B01D100233AE0F868B9680022FEF7C3
:401FC000F1F82CE0F868B9680122FEF7EBF8F868B9680022FEF718F9F868B9688122FEF725F93B681B789B08DBB2F868B9681A46FEF71CF9F868B9680022FEF7D3F80123B8
:4020000015E0F868B9680E4AFEF73AF901230EE0F868B9680B4AFEF733F9012307E0FB79F868B9681A463B68FFF704FA034618461837BD4680BD00BFC07F0300E07F030011
:40204000E87F0300F47F030080B500AF1A4B1B4A1A601B4B1B4A1A601B4B1C4A1A601C4B1C4A1A601C4B2D221A701C4B4FF07E521A601B4B4FF000021A601A4B4FF000028F
:402080001A6000F03BF8184B01221A70174B01221A70032003F030FF154B00221A70154B41F288321A60144B4FF47A721A6003F075F900F065F8FAE71C84FF1F00000243B2
:4020C0003C85FF1F0000F0412084FF1F000040402484FF1F000020418E84FF1F4085FF1FBC83FF1FC884FF1FB883FF1F0B85FF1FF084FF1F4884FF1F0C85FF1F80B500AF77
:4021000062B6052003F0F8FE03F0CEFE05F0E2FB03F0E2FD002004F0EFFC04F0E3FA05F031FF04F0E5FD04F0A1FE04F04FFF05F00BF804F0D7FA05F019F904F061FC05F06C
:40214000EBFE0B480B490C4AFEF7DCFE08483721FEF716FF05F0C8FDB42003F053F9074B01221A7005F0D0FB042003F073F980BDCC83FF1F3081FF1F1D1E00000A85FF1F88
:4021800080B500AF474B1B780F2B00F2888001A252F823F02F220000D5210000DB210000E1210000E7210000F9210000FF210000052200000B220000ED210000F3210000E5
:4021C0002922000023220000112200001D2200001722000000F0C2F962E000F00FFA5FE000F0A6FA5CE000F0B7FA59E000F074FE56E001F0D1F953E001F02EFD50E001F016
:4022000093FD4DE001F0BAFD4AE001F0E1FD47E000F09CF844E000F0DBF841E000F01AF93EE000F059F93BE000F04EF838E003F051FE03461A461C4B1A601B4B1B681B48A9
:402240001B491A4607F0CAFB1A48FEF773FE1948FEF702FF17481849FEF71EFC154828210C22164BFEF752FB12481349FEF714FC104802211C22124BFEF748FB0D480E49C4
:40228000FEF70AFC0B4804213C220E4BFEF73EFB0848FEF75DFE0346002BD8D100E000BF80BD00BF0B85FF1F4483FF1F5085FF1F00800300CC83FF1F4064030004800300CA
:4022C0000C8003001C80030080B500AF164B1B781846002101F0A2FD144B1B78002B18D1134B1B78002B14D1124B1B78002B10D1114B1B78002B0CD1104B1B78002B08D1DD
:402300000F4B1B78002B04D104F0E6FC0346002B08D00C4B1A78044B1A700B4B1B68184602F04AFF80BD00BF0B85FF1F0985FF1F9284FF1FD684FF1F4184FF1F4084FF1F93
:402340000885FF1FB883FF1F4884FF1F80B500AF164B1B781846002101F060FD144B1B78002B18D1134B1B78002B14D1124B1B78002B10D1114B1B78002B0CD1104B1B78E2
:40238000002B08D10F4B1B78002B04D104F0A4FC0346002B08D00C4B1A78044B1A700B4B1B68184602F008FF80BD00BF0B85FF1F0985FF1F9284FF1FD684FF1F4184FF1F75
:4023C0004084FF1F0885FF1FB883FF1F4884FF1F80B500AF164B1B781846002101F01EFD144B1B78002B18D1134B1B78002B14D1124B1B78002B10D1114B1B78002B0CD1B0
:40240000104B1B78002B08D10F4B1B78002B04D104F062FC0346002B08D00C4B1A78044B1A700B4B1B68184602F0C6FE80BD00BF0B85FF1F0985FF1F9284FF1FD684FF1F6E
:402440004184FF1F4084FF1F0885FF1FB883FF1F4884FF1F80B500AF164B1B781846002101F0DCFC144B1B78002B18D1134B1B78002B14D1124B1B78002B10D1114B1B7897
:40248000002B0CD1104B1B78002B08D10F4B1B78002B04D104F020FC0346002B08D00C4B1A78044B1A700B4B1B68184602F084FE80BD00BF0B85FF1F0985FF1F9284FF1FE2
:4024C000D684FF1F4184FF1F4084FF1F0885FF1FB883FF1F4884FF1F80B500AF164B1B781846002101F09AFC144B1B78002B18D1134B1B78002B14D1124B1B78002B10D1D0
:40250000114B1B78002B0CD1104B1B78002B08D10F4B1B78002B04D104F0DEFB0346002B08D00C4B1A78044B1A700B4B1B68184602F042FE80BD00BF0B85FF1F0985FF1F2B
:402540009284FF1FD684FF1F4184FF1F4084FF1F0885FF1FB883FF1F4884FF1F98B500AF244B1C780020032102F0C8FE0346DBB22046194601F052FC04F0AEFB0346002B16
:4025800037D00020032102F0B9FE0346032B0BD1032003F0B1FC174B02221A70164B1B68184602F009FE24E00020032102F0A6FE0346022B0BD1032003F09EFC0D4B032269
:4025C0001A700D4B1B68184602F0F6FD11E00020032102F093FE0346002B0AD1032003F08BFC044B05221A70034B1B68184602F0E3FD98BD0B85FF1F4884FF1F98B500AFA5
:40260000414B00221A70002005F048FC3F4B1C780020032102F072FE0346DBB22046194601F0FCFB04F058FB0346002B5BD00220032102F063FE0346032B13D1032003F0D2
:402640005BFC324B04221A70314B4FF07C521A60304B4FF07C521A602F4B1B68184602F0ABFD40E00020032102F048FE0346022B11D1032003F040FC244B09221A70274B00
:40268000274A1A60274B264A1A60234B1B68184602F092FD27E00020032102F02FFE0346012B0ED1032003F027FC184B0A221A701A4B1D4A1A60184B1B68184602F07CFDFE
:4026C00011E00020032102F019FE0346002B0AD1032003F011FC0D4B01221A700E4B1B68184602F069FD114B1B78002B0AD0032003F002FC054B01221A70074B1B6818465B
:4027000002F05AFD98BD00BFF084FF1F0B85FF1FD084FF1F4484FF1F4884FF1FA884FF1F00002841F484FF1F00007A444184FF1F98B500AF064B1C780020032102F0DEFDDE
:402740000346DBB22046194601F068FB98BD00BF0B85FF1F0000000090B583B000AF864B1B687B60002002F03DFD844B1B680133824A1360824B1A78824B1B7852B25BB271
:402780009A4206DB804B00221A70804B01221A700BE07B4B1B785AB27A4B1B785BB2053B9A4202DA794B00221A7004F06FFB03469AB2774B1A8004F0D7FC03461A46754BD1
:4027C0001A80734B1B889BB21BB2184604F0B6FB03461846704906F069FA03461A466F4B1A606F4B1B78184606F00CFA02466D4B1B681046194606F059FA03461A46694BA6
:402800001A60684B1A68654B1B681046194606F045F903461A46634B1A60624B1C68604B1B780133184606F0EDF903462046194606F0F0FA03461A465A4B1A60594B1B6842
:40284000564A1360534B1B881BB2184604F0E4FC03461846194606F021F903461A46524B1A604E4B1A68504B1B681046194606F01DFA03461A464D4B1A60484B1A684C4BCD
:402880001B681046194606F011FA03461A46494B1A603D4B1B78012B40F0CD80012005F0FDFA364B1B68B3F57A7F2ED33B4B1B68184605F0C1FF02460B463F483F4907F0F6
:4028C0008DF8394B1B68184605F0B6FF02460B463B483C4907F082F8344B1B68184605F0ABFF02460B463848384907F077F8384B1A78384B1B78DBB21046194601F08EFA4D
:4029000002F0D0FD1D4B00221A60022004F0F4F8274B1A68244B1B681046194606F0BCF80346184605F088FF02460B46104619460FA3D3E9002306F047F80346002B4DD0C5
:40294000254B1B8801339AB2234B1A80224B1B88B3F57F6F03D9204B4FF47F621A801E4B1B88184605F01EFB65E000BFAFF300807B14AE47E17A743F2084FF1F3883FF1F46
:402980008A84FF1F8E84FF1FF084FF1F1884FF1FA484FF1F9084FF1F000070412C84FF1F3E81FF1F4885FF1FC883FF1F4C84FF1FD084FF1FA884FF1F7084FF1F2C800300DC
:4029C0001085FF1F348003000884FF1F3C8003000B85FF1F3C81FF1F3483FF1FA84B1A68A84B1B681046194606F056F80346184605F022FF02460B46104619469AA3D3E9BE
:402A0000002305F0EBFF0346002B14D09E4B1B88013B9AB29C4B1A809B4B1B88002B05D1994B00221A80994B00221A70964B1B88184605F0B7FA954B1B78002B3FD1944BD8
:402A40001B68B3F57A7F2ED3924B1B68184605F0F3FE02460B469048904906F0BFFF894B1B68184605F0E8FE02460B468C488D4906F0B4FF8C4B1B68184605F0DDFE024643
:402A80000B468A488A4906F0A9FF8A4B1A788A4B1B78DBB21046194601F0C0F902F002FD7B4B00221A60784B00221A80002005F079FA002004F020F8002005F0EFF904F050
:402AC0000BF90346002B15D07C4B1B78002B0CBF01230023DBB21A46784B1A70784B1B689BB21BB2184603F007FA764B1B68184602F062FB714B1B78012B40F0448103F0A2
:402B0000E9F903461A466E4B1A606B4B1B78002B30D16D4B1A686A4B1B689A422AD06A4B1A68674B1B689A420ADD684B1B6818464FF07E5105F0B0FF03461A46634B1A60D4
:402B4000614B1A685E4B1B689A420ADA5F4B1B6818464FF07E5105F0A1FF03461A465B4B1A60574B1B68584A1360594B1B68184602F022FB504B1B785BB2012B48D1524B59
:402B80001A684F4B1B689A4242D04F4B1A684C4B1B689A4216DD4D4B1B68184605F04CFE02460B461046194631A3D3E9002305F0E3FC02460B461046194605F019FF024653
:402BC000424B1A60404B1A683D4B1B689A4216DA3E4B1B68184605F02FFE02460B461046194623A3D3E9002305F0C8FC02460B461046194605F0FCFE0246344B1A60304BB9
:402C00001B68314A1360324B1B68184602F0D4FA294B1B785BB2022B40F082802A4B1A68274B1B689A427BD0274B1A68244B1B689A424FDD254B1B68184605F0FDFD024609
:402C40000B46104619460CA3D3E9002305F094FC02460B461046194605F0CAFE02461B4B1A6037E0AFF300807B14AE47E17A743F9A9999999999B93F7B14AE47E17A843F0C
:402C8000C883FF1FD084FF1F3483FF1FF084FF1F3883FF1F2C84FF1F9484FF1F2C8003003084FF1F34800300A884FF1FF884FF1F448003000B85FF1F3C81FF1F2884FF1FBF
:402CC0004083FF1F4884FF1F3C83FF1F4484FF1F0C85FF1F704B1A68704B1B689A4216DA6F4B1B68184605F0A7FD02460B461046194667A3D3E9002305F040FC02460B461B
:402D00001046194605F074FE0246654B1A60634B1B68614A1360634B1B68184602F04CFA5F4B1B681846796806F07CF90346002B0BD05B4A7B6813605A4B1A6813469B00B3
:402D400013445B00184602F037FA554B1B6818464FF0000106F048F90346002B0FD0524B00221A704E4B4FF000021A604D4B1A6813469B0013445B00184602F01DFA484B7E
:402D80001B684A4A13604A4B1B78002B17D0494B1B68184602F010FA434B1B78002B08D102F038FA0346012B06D13F4B01221A7002E03D4B00221A703F4B00221A703F4B3C
:402DC0001B78002B15D03C4B1B78002B0CBF01230023DBB21A46384B1A70304B1B689BB21BB2184603F088F8324B1B68184602F0E3F9334B1B78002B10D0032003F07CF824
:402E0000294B00221A702C4B00221A702D4B02221A70284B1B68184602F0CEF92A4B1B78002B15D0294B1B78DBB2DBB20133DBB2DAB2264B1A70254B1B785BB2022B02DD7F
:402E4000224B02221A701B4B1B68184602F0B4F91F4B1B78002B15D01C4B1B78DBB2DBB2013BDBB2DAB2194B1A70184B1B785BB2002B02DA154B00221A700E4B1B6818469D
:402E800002F09AF90C37BD4690BD00BFAFF300807B14AE47E17A843F3C83FF1F4083FF1F4484FF1F0C85FF1FF084FF1FD084FF1F0985FF1F4884FF1F2884FF1F9284FF1F8C
:402EC0004184FF1F0B85FF1F0885FF1F3C81FF1F4084FF1FAFF3008090B583B000AF804B1B687B60002002F07DF97E4B1B6801337C4A13607C4B1A787C4B1B7852B25BB262
:402F00009A4206DB7A4B00221A707A4B01221A700BE0754B1B785AB2744B1B785BB2053B9A4202DA734B00221A7003F0AFFF03469AB2714B1A8004F017F903461A466F4BF3
:402F40001A806D4B1B889BB21BB2184603F0F6FF034618466A4905F0A9FE03461A46694B1A60694B1B78184605F04CFE0246674B1B681046194605F099FE03461A46634B36
:402F80001A60624B1A685F4B1B681046194605F085FD03461A465D4B1A605C4B1C685A4B1B780133184605F02DFE03462046194605F030FF03461A46544B1A60534B1B681A
:402FC000504A13604D4B1B881BB2184604F024F903461846194605F061FD03461A464C4B1A60484B1A684A4B1B681046194605F05DFE03461A46474B1A603D4B1B78012B0C
:4030000040F0CB80012004F049FF364B1B68B3F57A7F2ED33B4B1B68184605F00DFC02460B463D483D4906F0D9FC394B1B68184605F002FC02460B4639483A4906F0CEFC89
:40304000344B1B68184605F0F7FB02460B463648364906F0C3FC364B1A78364B1B78DBB21046194600F0DAFE02F01CFA1D4B00221A60022003F040FD2F4B1A68254B1B6840
:403080001046194605F008FD0346184605F0D4FB02460B46104619460FA3D3E9002305F09DFC0346002B4BD0244B1B8801339AB2224B1A80214B1B88B3F57F6F03D91F4B76
:4030C0004FF47F621A801D4B1B88184604F06AFF63E000BFAFF300809A9999999999A93F1C84FF1F3883FF1F8A84FF1F8E84FF1FF084FF1F1884FF1FA484FF1F9084FF1FF2
:40310000000070412C84FF1F3E81FF1F4885FF1FC883FF1F4C84FF1F7084FF1F2C8003001085FF1F348003000884FF1F3C8003000B85FF1F3C81FF1FA884FF1F3483FF1FB5
:40314000A74B1A68A74B1B681046194605F0A4FC0346184605F070FB02460B461046194699A3D3E9002305F039FC0346002B14D09D4B1B88013B9AB29B4B1A809A4B1B880F
:40318000002B05D1984B00221A80984B00221A70954B1B88184604F005FF944B1B78002B3FD1934B1B68B3F57A7F2ED3914B1B68184605F041FB02460B468F488F4906F02B
:4031C0000DFC8F4B1B68184605F036FB02460B468C488D4906F002FC824B1B68184605F02BFB02460B468948894906F0F7FB894B1A78894B1B78DBB21046194600F00EFEB6
:4032000002F050F97A4B00221A60774B00221A80002004F0C7FE002003F06EFC002004F03DFE03F059FD0346002B10D07B4B1B78002B0CBF01230023DBB21A46774B1A7063
:40324000774B1B689BB21BB2184602F055FE734B1B78012B40F01D8102F03CFE03461A466F4B1A606C4B1B78002B2BD16D4B1A686B4B1B689A4225D06A4B1A68684B1B68D6
:403280009A420ADD684B1B6818464FF07E5105F003FC03461A46644B1A60624B1A68604B1B689A420ADA604B1B6818464FF07E5105F0F4FB03461A465B4B1A60584B1B6859
:4032C000584A1360544B1B785BB2012B43D1554B1A68534B1B689A423DD0524B1A68504B1B689A4216DD504B1B68184605F0A4FA02460B461046194635A3D3E9002305F0F9
:403300003BF902460B461046194605F071FB0246454B1A60434B1A68414B1B689A4216DA414B1B68184605F087FA02460B461046194627A3D3E9002305F020F902460B46EC
:403340001046194605F054FB0246374B1A60344B1B68344A1360304B1B785BB2022B77D1304B1A682E4B1B689A4271D02D4B1A682B4B1B689A4216DD2B4B1B68184605F069
:403380005BFA02460B461046194613A3D3E9002305F0F2F802460B461046194605F028FB0246214B1A601F4B1A681D4B1B689A424ADA1D4B1B68184605F03EFA02460B467C
:4033C0001046194632E000BF9A9999999999A93F9A9999999999B93F7B14AE47E17A843F4C84FF1FA884FF1F3483FF1FF084FF1F3883FF1F2C84FF1F9484FF1F2C8003006C
:40340000D084FF1F3084FF1F34800300F884FF1F448003000B85FF1F3C81FF1F2884FF1F4083FF1F3C83FF1FF484FF1F4AA3D3E9002305F0A3F802460B461046194605F0EA
:40344000D7FA0246464B1A60464B1B68464A1360434B1B681846796805F0E4FD0346002B02D03F4A7B6813603D4B1B6818464FF0000105F0B9FD0346002B06D03B4B002280
:403480001A70374B4FF000021A60354B1B68384A1360384B1B78002B0CD0344B1B78002B0CBF01230023DBB21A46304B1A70324B00221A70314B1B78002B10D02E4B1B78A0
:4034C000002B0CBF01230023DBB21A462A4B1A70244B1B689BB21BB2184602F00DFD284B1B78002B0BD0032002F006FD1F4B00221A70214B00221A70224B02221A70224B63
:403500001B78002B10D0214B1B78DBB2DBB20133DBB2DAB21D4B1A701C4B1B785BB2022B02DD1A4B02221A70194B1B78002B10D0164B1B78DBB2DBB2013BDBB2DAB2134BAC
:403540001A70124B1B785BB2002B02DA0F4B00221A700C37BD4690BD7B14AE47E17A843FF484FF1F4083FF1F3C83FF1FF084FF1FA884FF1F0985FF1F2884FF1F9284FF1FA8
:403580004184FF1F0B85FF1F0885FF1F3C81FF1F4084FF1FAFF3008090B583B000AF804B1B687B60002001F01DFE7E4B1B6801337C4A13607C4B1A787C4B1B7852B25BB2F7
:4035C0009A4206DB7A4B00221A707A4B01221A700BE0754B1B785AB2744B1B785BB2053B9A4202DA734B00221A7003F04FFC03469AB2714B1A8003F0B7FD03461A466F4BED
:403600001A806D4B1B889BB21BB2184603F096FC034618466A4905F049FB03461A46694B1A60694B1B78184605F0ECFA0246674B1B681046194605F039FB03461A46634BFC
:403640001A60624B1A685F4B1B681046194605F025FA03461A465D4B1A605C4B1C685A4B1B780133184605F0CDFA03462046194605F0D0FB03461A46544B1A60534B1B687E
:40368000504A13604D4B1B881BB2184603F0C4FD03461846194605F001FA03461A464C4B1A60484B1A684A4B1B681046194605F0FDFA03461A46474B1A603D4B1B78012B69
:4036C00040F0CB80012004F0E9FB364B1B68B3F57A7F2ED33B4B1B68184605F0ADF802460B463D483D4906F079F9394B1B68184605F0A2F802460B4639483A4906F06EF9B5
:40370000344B1B68184605F097F802460B463648364906F063F9364B1A78364B1B78DBB21046194600F07AFB01F0BCFE1D4B00221A60022003F0E0F92F4B1A68254B1B6863
:403740001046194605F0A8F90346184605F074F802460B46104619460FA3D3E9002305F03DF90346002B4BD0244B1B8801339AB2224B1A80214B1B88B3F57F6F03D91F4BD9
:403780004FF47F621A801D4B1B88184604F00AFC63E000BFAFF300809A9999999999A93F1C84FF1F3883FF1F8A84FF1F8E84FF1FF084FF1F1884FF1FA484FF1F9084FF1F8E
:4037C000000070412C84FF1F3E81FF1F4885FF1FC883FF1F4C84FF1F7084FF1F2C8003001085FF1F348003000884FF1F3C8003000B85FF1F3C81FF1FA884FF1F3483FF1FEF
:40380000A74B1A68A74B1B681046194605F044F90346184605F010F802460B461046194699A3D3E9002305F0D9F80346002B14D09D4B1B88013B9AB29B4B1A809A4B1B8872
:40384000002B05D1984B00221A80984B00221A70954B1B88184604F0A5FB944B1B78002B3FD1934B1B68B3F57A7F2ED3914B1B68184604F0E1FF02460B468F488F4906F025
:40388000ADF88F4B1B68184604F0D6FF02460B468C488D4906F0A2F8824B1B68184604F0CBFF02460B468948894906F097F8894B1A78894B1B78DBB21046194600F0AEFA38
:4038C00001F0F0FD7A4B00221A60774B00221A80002004F067FB002003F00EF9002004F0DDFA03F0F9F90346002B10D07B4B1B78002B0CBF01230023DBB21A46774B1A7088
:40390000774B1B689BB21BB2184602F0F5FA734B1B78012B40F01D8102F0DCFA03461A466F4B1A606C4B1B78002B2BD16D4B1A686B4B1B689A4225D06A4B1A68684B1B68D7
:403940009A420ADD684B1B6818464FF07E5105F0A3F803461A46644B1A60624B1A68604B1B689A420ADA604B1B6818464FF07E5105F094F803461A465B4B1A60584B1B6859
:40398000584A1360544B1B785BB2012B43D1554B1A68534B1B689A423DD0524B1A68504B1B689A4216DD504B1B68184604F044FF02460B461046194635A3D3E9002304F08F
:4039C000DBFD02460B461046194605F011F80246454B1A60434B1A68414B1B689A4216DA414B1B68184604F027FF02460B461046194627A3D3E9002304F0C0FD02460B469E
:403A00001046194604F0F4FF0246374B1A60344B1B68344A1360304B1B785BB2022B77D1304B1A682E4B1B689A4271D02D4B1A682B4B1B689A4216DD2B4B1B68184604F000
:403A4000FBFE02460B461046194613A3D3E9002304F092FD02460B461046194604F0C8FF0246214B1A601F4B1A681D4B1B689A424ADA1D4B1B68184604F0DEFE02460B4627
:403A80001046194632E000BF9A9999999999A93F9A9999999999B93F7B14AE47E17A843F4C84FF1FA884FF1F3483FF1FF084FF1F3883FF1F2C84FF1F9484FF1F2C800300A5
:403AC000D084FF1F3084FF1F34800300F884FF1F448003000B85FF1F3C81FF1F2884FF1F4083FF1F3C83FF1FF484FF1F4AA3D3E9002304F043FD02460B461046194604F081
:403B000077FF0246464B1A60464B1B68464A1360434B1B681846796805F084FA0346002B02D03F4A7B6813603D4B1B6818464FF0000105F059FA0346002B06D03B4B0022DA
:403B40001A70374B4FF000021A60354B1B68384A1360384B1B78002B0CD0344B1B78002B0CBF01230023DBB21A46304B1A70324B00221A70314B1B78002B10D02E4B1B78D9
:403B8000002B0CBF01230023DBB21A462A4B1A70244B1B689BB21BB2184602F0ADF9284B1B78002B0BD0032002F0A6F91F4B00221A70214B00221A70224B02221A70224B64
:403BC0001B78002B10D0214B1B78DBB2DBB20133DBB2DAB21D4B1A701C4B1B785BB2022B02DD1A4B02221A70194B1B78002B10D0164B1B78DBB2DBB2013BDBB2DAB2134BE6
:403C00001A70124B1B785BB2002B02DA0F4B00221A700C37BD4690BD7B14AE47E17A843FF484FF1F4083FF1F3C83FF1FF084FF1FA884FF1F0985FF1F2884FF1F9284FF1FE1
:403C40004184FF1F0B85FF1F0885FF1F3C81FF1F4084FF1FAFF3008098B500AF2E4B1C780020032101F04AFB0346DBB22046194600F0D4F8002001F0B5FA03F02DF803462E
:403C8000002B3ED00020032101F038FB0346032B0AD1224B1B789BB21BB2184602F02CF91D4B06221A702CE00020032101F026FB0346022B0AD11A4B1B789BB21BB2184645
:403CC00002F01AF9144B07221A701AE00020032101F014FB0346012B06D1032002F00CF90D4B08221A700CE00020032101F006FB0346002B05D1032002F0FEF8064B012212
:403D00001A70084B1B78002B05D0032002F0F4F8014B01221A7098BD0B85FF1F2885FF1F9384FF1F4184FF1F80B500AFFF2001F09FFA0346DBB2184601F064FB0D4B1B7837
:403D40001846032100F06AF802F0C6FF0346002B05D0032002F0D0F8064B05221A70064B1B78002B05D0032002F0C6F8014B05221A7080BD0B85FF1F0985FF1F80B500AF61
:403D8000642001F075FA0346DBB2184601F062FB0D4B1B781846022100F040F802F09CFF0346002B05D0022002F0A6F8064B05221A70064B1B78002B05D0022002F09CF8F3
:403DC000014B05221A7080BD0B85FF1F0985FF1F80B500AF01F066FB01F08CFB0D4B1B781846032100F01AF802F076FF0346002B05D0012002F080F8064B05221A70064B84
:403E00001B78002B05D0012002F076F8014B05221A7080BD0B85FF1F4184FF1F90B589B004AF03460A46FB711346BB71FB797B727B7A0F2B01F2A38101A252F823F000BF82
:403E400039400000D9400000C7410000B5420000614E00005545000099440000DD43000091460000B94A0000A9470000D93E0000813E0000893F0000313F0000E13F000073
:403E80008848FDF757F88748FDF7E6F885488649FCF702FE834828210C22844BFCF736FD80488149FCF7F8FD7E4802211C22804BFCF72CFD7B487C49FCF7EEFD79480421B4
:403EC0003C227C4BFCF722FD7648FDF741F80346002BD8D101F054B97248FDF72BF87148FDF7BAF86F487049FCF7D6FD6D4828210C226E4BFCF70AFD6A486B49FCF7CCFD1E
:403F0000684802211C226C4BFCF700FD65486649FCF7C2FD634804213C22664BFCF7F6FC6048FDF715F80346002BD8D101F028B95C48FCF7FFFF5B48FDF78EF859485A4969
:403F4000FCF7AAFD574828210C22584BFCF7DEFC54485549FCF7A0FD524802211C22574BFCF7D4FC4F485049FCF796FD4D4804213C22504BFCF7CAFC4A48FCF7E9FF03461F
:403F8000002BD8D101F0FCB84648FCF7D3FF4548FDF762F843484449FCF77EFD414828210C22424BFCF7B2FC3E483F49FCF774FD3C4802211C22424BFCF7A8FC39483A4927
:403FC000FCF76AFD374804213C223A4BFCF79EFC3448FCF7BDFF0346002BD8D101F0D0B83048FCF7A7FF2F48FDF736F82D482E49FCF752FD2B4828210C222C4BFCF786FCE4
:4040000028482949FCF748FD264802211C222D4BFCF77CFC23482449FCF73EFD214804213C22244BFCF772FC1E48FCF791FF0346002BD8D101F0A4B81A48FCF77BFF19486F
:40404000FDF70AF817481849FCF726FD154802210D221D4BFCF75AFC12481349FCF71CFD104802211D22194BFCF750FC0D480E49FCF712FD0B4802212D22154BFCF746FCED
:4040800008480949FCF708FD064802213C22114BFCF73CFC0348FCF75BFF0346002BCED101F06EB8CC83FF1F406403004C80030054800300648003007480030084800300AF
:4040C000908003009C8003005084FF1FAC800300BC800300CC800300B248FCF72BFFB148FCF7BAFFBB79032B0AD110230093AD48002100228023FDF749FEAA48FCF7D4FF52
:40410000A848A949FCF7C8FCA64802210D22A74BFCF7FCFBA348FCF79FFFBB79022B0AD1102300939F48002110228023FDF72EFE9C48FCF7B9FF9B489B49FCF7ADFC99487C
:4041400002211D229A4BFCF7E1FB9648FCF784FFBB79012B0AD1102300939248002120228023FDF713FE8F48FCF79EFF8D488E49FCF792FC8B4802212D228E4BFCF7C6FB89
:404180008848FCF769FFBB79002B0AD1102300938448002130228023FDF7F8FD8148FCF783FF80488049FCF777FC7E4802213C22814BFCF7ABFB7B48FCF7CAFE0346002B36
:4041C0008DD100F0DDBF7748FCF7B4FE7548FCF743FFBB79032B0AD1102300937148002100228023FDF7D2FD6E48FCF75DFF6D486D49FCF751FC6B4802210D226F4BFCF7B8
:4042000085FB6848FCF728FFBB79022B0AD1102300936448002110228023FDF7B7FD6148FCF742FF5F486049FCF736FC5D4802211D22634BFCF76AFB5A48FCF70DFFBB79B4
:40424000012B0AD1102300935648002120228023FDF79CFD5348FCF727FF52485249FCF71BFC504802212D22564BFCF74FFB4D48FCF7F2FEBB79002B0AD11023009349485C
:40428000002130228023FDF781FD4648FCF70CFF44484549FCF700FC424802213C224A4BFCF734FB3F48FCF753FE0346002B8DD100F066BF3B48FCF73DFE3A48FCF7CCFE7D
:4042C000BB79032B0AD1102300933648002100228023FDF75BFD3348FCF7E6FE31483249FCF7DAFB2F4802210D22384BFCF70EFB2C48FCF7B1FEBB79022B0AD1102300939D
:404300002848002110228023FDF740FD2548FCF7CBFE24482449FCF7BFFB224802211D222B4BFCF7F3FA1F48FCF796FEBB79012B0AD1102300931B48002120228023FDF7C9
:4043400025FD1848FCF7B0FE16481749FCF7A4FB144802212D221F4BFCF7D8FA1148FCF77BFEBB79002B0AD1102300930D48002130228023FDF70AFD0A48FCF795FE094879
:404380000949FCF789FB074802213C22124BFCF7BDFA0448FCF7DCFD0346002B8DD100F0EFBE00BFCC83FF1F40640300D8800300AC800300BC800300CC800300E880030080
:4043C000F880030004810300148103002881030034810300408103004C810300A348FCF7A9FDA248FCF738FEA048A149FCF754FB9E4802210D229F4BFCF788FA9B489C4920
:40440000FCF74AFB994860210D229B4BFCF77EFA9648FCF721FE95489549FCF73DFB934802211D22954BFCF771FA102300938F48582110222C23FDF7A9FC8C48FCF734FEE8
:404440008A488B49FCF728FB884860211D228C4BFCF75CFA8548FCF7FFFD84488449FCF71BFB824802212D22864BFCF74FFA7F48FCF7F2FD7D487E49FCF70EFB7B48022112
:404480003C22814BFCF742FA7848FCF761FD0346002BA6D100F074BE7448FCF74BFD7348FCF7DAFD71487249FCF7F6FA6F4802210D22704BFCF72AFA102300936B485821E5
:4044C00000222C23FDF762FC6848FCF7EDFD67486749FCF7E1FA654860210D22664BFCF715FA6248FCF7B8FD60486149FCF7D4FA5E4802211D22614BFCF708FA5B485C49D9
:40450000FCF7CAFA594860211D225D4BFCF7FEF95648FCF7A1FD55485549FCF7BDFA534802212D22574BFCF7F1F95048FCF794FD4E484F49FCF7B0FA4C4802213C22524B98
:40454000FCF7E4F94948FCF703FD0346002BA6D100F016BE4548FCF7EDFC4448FCF77CFDBB79032B0AD1102300934048002100228023FDF70BFC3D48FCF796FD3B483C4958
:40458000FCF78AFA394802210D223A4BFCF7BEF936483749FCF780FA344860210D22364BFCF7B4F93148FCF757FDBB79022B0AD1102300932D48002110228023FDF7E6FBC8
:4045C0002A48FCF771FD29482949FCF765FA274802211D222D4BFCF799F924482449FCF75BFA224860211D22254BFCF78FF91F48FCF732FDBB79012B0AD1102300931B48C2
:40460000002120228023FDF7C1FB1848FCF74CFD16481749FCF740FA144802212D22194BFCF774F91148FCF717FDBB79002B0AD1102300930D48002130228023FDF7A6FB4B
:404640000A48FCF731FD09480949FCF725FA074802213C220C4BFCF759F90448FCF778FC0346002B7FF479AF00F08ABDCC83FF1F40640300588103002085FF1F6481030012
:40468000B084FF1F6C810300148103007C8103009B48FCF74FFC9A48FCF7DEFCBB79002B0AD1102300939648002100228023FDF76DFB9348FCF7F8FC91489249FCF7ECF9E2
:4046C0008F4802210D22904BFCF720F98C488D49FCF7E2F98A485A210D228C4BFCF716F98748FCF7B9FCBB79022B0AD1102300938348002110228023FDF748FB8048FCF7B1
:40470000D3FC7F487F49FCF7C7F97D4802211D227F4BFCF7FBF87A487A49FCF7BDF978485A211D227B4BFCF7F1F87548FCF794FCBB79002B0AD110230093714800212022EB
:404740008023FDF723FB6E48FCF7AEFC6C486D49FCF7A2F96A4802212D226F4BFCF7D6F86748FCF779FCBB79032B0AD1102300936348002130228023FDF708FB6048FCF72D
:4047800093FC5F485F49FCF787F95D4802213C22624BFCF7BBF85A48FCF7DAFB0346002B7FF479AF00F0ECBC5548FCF7C3FB5448FCF752FC5A4B1B78012B14D15048594970
:4047C000FCF76AF94E4822211A22524BFCF79EF84B484C49FCF760F9494804212B22524BFCF794F8CCE0514B1B78002B4FD144484C49FCF751F9424818211A224C4BFCF788
:4048000085F83F483F49FCF747F93D4804212B22484BFCF77BF83A483A49FCF73DF9384840212B22444BFCF771F8444B1B78012B40F0A680BB79002B02D11A23FB730DE014
:40484000BB79012B02D13223FB7307E0BB79022B02D14023FB7301E03223FB73FB7B0C33DCB2FA7B1B230093254811461B222346FCF728F9FB7B0C33DCB2FA7B1C23009321
:404880001F4811461C222346FCF71CF978E0274B1B78012B74D11A482249FCF7FDF8184818211A22264BFCF731F815481549FCF7F3F8134804212B22224BFCF727F8104869
:4048C0001049FCF7E9F80E4840212B221E4BFCF71DF81A4B1B78012B52D1BB79002B02D11A23BB7334E0BB79012B02D13223BB732EE0BB79022B29D14023BB7328E000BFA7
:40490000CC83FF1F40640300848103008084FF1F90810300C083FF1F9C810300148103001884FF1FC8B50000A8810300F084FF1FB88103009484FF1F3084FF1F2884FF1F09
:404940000884FF1F7084FF1F1085FF1F3223BB73BB7B0C33DCB2BA7B1B230093AD4811461B222346FCF7AEF8BB7B0C33DCB2BA7B1C230093A74811461C222346FCF7A2F82D
:4049800010230093A348002133228023FDF7FEF9A048FCF789FB9F489F49FCF77DF83E2300939C48202134222023FCF78BF83E2300939848402134224023FCF783F83E23C7
:4049C00000939448602134226023FCF77BF8934B1B78002B0BD1392300930E2301933F2302938C480E2133221423FDF71DF98B4B1B78012B1FD13D23009386480E21352200
:404A00000E23FCF75FF83D23009382480F2135220F23FCF757F83D2300937E48112135221123FCF74FF83D2300937A48122135221223FCF747F87A4B1B78002B0AD17548D2
:404A40007549FCF729F8734825213E22754BFBF75DFF0DE0724B1B78012B09D16D486E49FCF71AF86B4829213E226F4BFBF74EFF3B2300936748752136227523FCF722F8B8
:404A80003B23009363486D213B227523FCF71AF83B230093702301933E2302935D48702138226B23FDF7C0F85A48FCF751FA0346002B7FF47CAE63E35648FCF73BFA0E23CC
:404AC0003B725448FCF7C8FA544B1B78002B40F08580564B1B681846554904F085FA0346002B0DD04B485349FBF7D6FF3B7A1833DBB2484819461A224F4BFBF707FF23E0FF
:404B00004A4B1B6818464D4904F06EFA0346002B0DD040484749FBF7BFFF3B7A0933DBB23C4819461A22444BFBF7F0FE0CE039484049FBF7B1FF3B7A063BDBB235481946F1
:404B40001A223D4BFBF7E2FE32483349FBF7A4FF304804212B223A4BFBF7D8FE2D482E49FBF79AFF2B4840212B22364BFBF7CEFE2B4B1B78012B40F0D780BB79002B03D117
:404B80003B7A1A337B7310E0BB79012B03D13B7A32337B7309E0BB79022B03D13B7A40337B7302E03B7A32337B737B7B0C33DCB27A7B1B230093174811461B222346FBF7E4
:404BC00081FF7B7B0C33DCB27A7B1C230093114811461C222346FBF775FFA5E00F4B1B78012B40F0A180184B1B681846104904F0FBF90346002B2BD006480E49FBF74CFF29
:404C00003B7A1833DBB2034819461A220F4BFBF77DFE41E0CC83FF1F40640300F084FF1F2884FF1FC0810300C4810300A884FF1F00002041C8B50000F884FF1F0000C84251
:404C40009484FF1F3084FF1F4C84FF1F0884FF1FAF4B1B681846AF4904F0C6F90346002B0DD0AD48AD49FBF717FF3B7A0933DBB2A94819461A22AA4BFBF748FE0CE0A648B9
:404C8000A649FBF709FF3B7A063BDBB2A24819461A22A34BFBF73AFE9F48A249FBF7FCFE9D4804212B22A04BFBF730FE9A489D49FBF7F2FE984840212B229C4BFBF726FE96
:404CC0009B4B1B78012B2FD1BB79002B03D13B7A1A333B7310E0BB79012B03D13B7A32333B7309E0BB79022B03D13B7A9B013B7302E03B7A32333B733B7B0C33DCB23A7B41
:404D00001B230093844811461B222346FBF7DAFE3B7B0C33DCB23A7B1C2300937E4811461C222346FBF7CEFE102300937A48002133228023FDF72AF87748FCF7B5F97648AE
:404D40007849FBF7A9FE3E2300937348202134222023FBF7B7FE3E2300936F48402134224023FBF7AFFE3E2300936B48602134226023FBF7A7FE6F4B1B78002B0BD13923FD
:404D800000930E2301933F23029363480E2133221423FCF749FF674B1B78012B1FD13D2300935D480E2135220E23FBF78BFE3D23009359480F2135220F23FBF783FE3D23B8
:404DC00000935548112135221123FBF77BFE3D2300935148122135221223FBF773FE544B1B78002B0AD14C484E49FBF755FE4A4825213E22504BFBF789FD0DE04C4B1B78A3
:404E0000012B09D144484749FBF746FE424829213E224A4BFBF77AFD3B2300933E48752136227523FBF74EFE3B2300933A486D213B227523FBF746FE3B2300937023019369
:404E40003E2302933448702138226B23FCF7ECFE3148FCF77DF80346002B7FF430AE8FE12D48FCF767F82C48FCF7F6F8344B1B78012B14D128482949FBF70EFE2648222184
:404E80001A22304BFBF742FD23482649FBF704FE214804212B222C4BFBF738FDC9E0254B1B78002B73D11C481C49FBF7F5FD1A4818211A22254BFBF729FD17481949FBF7E9
:404EC000EBFD154804212B22214BFBF71FFD12481449FBF7E1FD104840212B221D4BFBF715FD134B1B78012B40F0A380BB79002B02D11A23FB7231E0BB79012B02D13223A3
:404F0000FB722BE0BB79022B26D14023FB7225E04C84FF1F0000C842CC83FF1FC8B500000884FF1F406403007084FF1F1085FF1F2884FF1FF084FF1FC0810300C4810300EC
:404F40001884FF1FC083FF1FA88103003084FF1F9484FF1FF884FF1F3223FB72FB7A0C33DCB2FA7A1B230093874811461B222346FBF7A8FDFB7A0C33DCB2FA7A1C23009314
:404F8000814811461C222346FBF79CFD51E07F4B1B78012B4DD17C487D49FBF77DFD7A4818211A227B4BFBF7B1FC77487A49FBF773FD754804212B22784BFBF7A7FC724810
:404FC0007549FBF769FD704840212B22744BFBF79DFC744B1B78012B2BD1BB79002B02D11A23BB720DE0BB79012B02D13223BB7207E0BB79022B02D14023BB7201E0322352
:40500000BB72BB7A0C33DCB2BA7A1B2300935E4811461B222346FBF755FDBB7A0C33DCB2BA7A1C230093584811461C222346FBF749FD102300935448002133228023FCF709
:40504000A5FE5148FCF730F84F485349FBF724FD3E2300934C48202134222023FBF732FD3E2300934848402134224023FBF72AFD3E2300934448602134226023FBF722FD6E
:40508000424B1B78002B0BD1392300930E2301933F2302933C480E2133221423FCF7C4FD3A4B1B78012B1FD13D23009336480E2135220E23FBF706FD3D23009332480F213D
:4050C00035220F23FBF7FEFC3D2300932E48112135221123FBF7F6FC3D2300932A48122135221223FBF7EEFC2E4B1B78002B0AD125482949FBF7D0FC234825213E222A4BFC
:40510000FBF704FC0DE0274B1B78012B09D11E482149FBF7C1FC1C4829213E22234BFBF7F5FB3B2300931848752136227523FBF7C9FC3B23009314486D213B227523FBF758
:40514000C1FC3B230093702301933E2302930E48702138226B23FCF767FD0B481449FBF79BFC094849213E22124BFBF7CFFB0648FBF7EEFE0346002B7FF475AE00E000BFFC
:405180001437BD4690BD00BFCC83FF1FF084FF1FC8B500001085FF1F406403007084FF1F0884FF1F2884FF1FC0810300C48103001C2A0300C881030080B582B000AF78602A
:4051C000074B1B78012B07D1786803F0D9F8002003F0AEF803F080F80837BD4680BD00BF0A85FF1F80B582B000AF0346FB71084B1B78012B09D1FB79012B01D102F084FB79
:40520000FB79002B01D102F0C3FB0837BD4680BD0A85FF1F80B500AF02F05EFE0346012B0BD1104B1A78104B1A700E4B0B221A700E48FFF7C1FF002311E002F05DFE034606
:40524000002B0BD1074B1A78074B1A70054B0D221A700648FFF7B0FF002300E00123184680BD00BF0B85FF1FB883FF1F20A1070080B582B000AF0346FB8000F02BFE0346DF
:405280009AB21B4B1A801B4B1A88194B1B889A4228D0194B1B681846FFF78EFF144B1B884FF6F972934205D9002000F025FE104B00221A800E4B1B881A46FB88013B9A4251
:4052C0000CDBFB88013B9BB29BB21BB2184600F013FEFB88013B9AB2054B1A80044B1A88044B1A80034B1B8818460837BD4680BDD484FF1FCC84FF1F0C85FF1F80B582B0AB
:4053000000AF03460A46FB801346BB8000F0E2FD03469AB21E4B1A801E4B1A881C4B1B889A422ED01C4B1B681846FFF745FF184B1B884FF6F972934205D9002000F0DCFDEC
:40534000134B00221A80124B1B88FA889A4207D9FB881BB2184600F0CFFD0D4AFB8813800B4B1B88BA889A4207D8BB881BB2184600F0C2FD064ABB881380054B1A88054B83
:405380001A80044B1B8818460837BD4680BD00BFD484FF1FCC84FF1F0C85FF1F80B500AF01F06AFC03461A46104B1A7001F070FC03461A460E4B1A7001F076FC03461A4674
:4053C0000C4B1A7001F07CFC03461A460A4B1A7002F04CFD03461A46084B1A7002F052FD03461A46064B1A7080BD00BF0985FF1F9284FF1FD684FF1F4184FF1F4084FF1F3C
:405400000885FF1F80B584B000AF0346FB71FB79FB60FB68FE2B01DDFF23FB60FB68002B01DC0023FB60FB68DBB2184602F0E6FCFB68DAB2044B1A7004480549FA6804F07B
:40544000CDFA1037BD4680BD2885FF1F2085FF1FCC81030080B584B000AF0346FB71FB79FB60FB68632B01DD6423FB60FB68002B01DC0023FB60FB68DBB2184602F0BCFAD4
:40548000FB68DAB2044B1A7004480549FA6804F0A5FA1037BD4680BD9384FF1FB084FF1FCC81030080B500AF4820012102F04AF903461A460B4B1A600A4B1B68002B06D141
:4054C000002002F0C9F90346DAB2074B1A7002F097F9054B1B785BB2044805491A4604F07DFA80BD6085FF1F8A84FF1FC083FF1FD081030080B500AF074801F0A3FB024625
:40550000064B1A60044B1B881BB2054805491A4604F064FA80BD00BF8C84FF1F6085FF1F8084FF1FD081030080B400AFFEE700BF80B584B000AF7860104B1A687B68134463
:405540001A460F4BD31AB3F5007F09DC0B4B1B68FB600A4B1A687B681344084A136007E003F06AFD02460C2313604FF0FF33FB60FB6818461037BD4680BD00BF4081FF1F91
:405580009085FF1F80B586B000AF224B7B61224B3B61204B7B6135E03B691B68FB603B695B68BB603B699B683B6000237B600CE0FB681A68BB681A60BB680433BB60FB6866
:4055C0000433FB607B6804337B607A683B689A42EED13B69DB683B6000237B6008E0BB6800221A60BB680433BB607B6804337B607A683B689A42F2D13B6910333B617B69E8
:40560000013B7B617B69002BC6D103F01BFDFCF71BFDFEE701000000C484030080B582B000AF184B184A1A60184A184B1B6843F40073136000237B600FE07B68032B04D8D1
:40564000134A7B6852F8233000E0124B12497A6841F822307B6801337B607B682F2BECD90E4B1B78DAB20E4B1A700E4B0A4A1A6000F044FA00F07CFD0B4B00221A6008370A
:40568000BD4680BD0CED00E00004FA0514ED00E000000000295500000080FF1FBC7600400481FF1F08ED00E00081FF1F80B582B000AF78603960786800213A6803F0F3FC3C
:4056C0000837BD4680BD00BF80B584B000AFF860B9607A60F868B9687A6803F0D9FC1037BD4680BD80B483B000AF0346FB71FEE780B487B000AF7860396000233B6100233A
:405700007B6127E07B699B007A6813441B68BB60BB68FB73BB6823F0FF03BB6014E03B695B003A6813441B781A46BB68134419463B695B003A6813445B780B703B69013376
:405740003B61FB7B013BFB73FB7B002BE7D17B6901337B617B69292BD4D91C37BD465DF8047B704780B582B000AF4F4B00221A804E4B50221A704E4B00221A804D4B5822F2
:405780001A704D4B04221A804C4B19221A704C4B95221A804B4B18221A704B4B40F22B121A804A4B18221A70494B40F2DF121A80484B19221A70484B01221A80474B1B22A9
:4057C0001A70474847490822FFF77EFF464B02221A704FF0402308221A70444B04221A70434B444A1278D2B21A70434B40F619721A80424B42F251221A800023FB7019235A
:405800007B6014E0FB785B00DAB23D4B1B78DBB203F00103DBB21343DBB203F00303FB704FF4F07000F078FC7B68013B7B607B68002B02D0FB78032BE4D17B68002B02D1B4
:405840000320FFF74FFF2F4B4FF480721A802D4B07221A702C4B00221A702C4B48221A70284B00221A702A4B02221A70294B04221A70294A284B1B78DBB243F07F03DBB211
:405880001370264A254B1B78DBB243F00303DBB21370234A224B1B78DBB263F07F03DBB213700837BD4680BD80400040824000408440004086400040884000408A400040A0
:4058C0008C4000408E40004090400040924000409440004096400040984000409A40004000410040A00C00480043004000420040A146004089010049224200402042004056
:4059000025420040044000400640004008400040014000400B400040A2430040A1430040A043004080B483B000AF2A4B1B78FB71294B1B78BB71294B1B787B71284AFB7920
:4059400003F00703DBB21370264AFB791B09DBB21370214ABB7943F00303DBB213701F4A7B7943F00303DBB213701F4B4FF442521A801E4B80221A701D4B80221A701D4B08
:4059800080221A701C4B10221A701C4B08221A701B4B02221A701B4B20221A701A4B01221A701A4B20221A70194B40F201121A80184B01221A70094A7B791370064ABB7953
:4059C0001370154B44221A700C37BD465DF8047B704700BFCF010049F8460040F94600406E5800406F5800402C510040705800400159004009590040905A0040C05A00409C
:405A0000205B0040235B0040285B00402B5B0040405B0040585B00407658004080B483B000AF0346FB71FB79022B24D8FA79FB791344FB71FB79124A52F82330FA7910493D
:405A400051F822201178FA790E48825C0A43D2B21A70FB790133FB71FB79094A52F82330FA79074951F822201178FA790548825C0A43D2B21A700C37BD465DF8047B7047F7
:405A8000D8810300F081030080B483B000AF0346FB71FB79022B28D8FA79FB791344FB71FB79144A52F82330FA79124951F822201178FA791048825CD243D2B20A40D2B29F
:405AC0001A70FB790133FB71FB790A4A52F82330FA79084951F822201178FA790648825CD243D2B20A40D2B21A700C37BD465DF8047B7047D8810300F081030080B586B02F
:405B000000AF72B6584B60221A70FFF72BFE574A564B1B78DBB243F00403DBB213700023FB7513E0FA7D13465B0013445B00504A13443B613B691A683B699B889BB2104694
:405B40001946FFF7B3FDFB7D0133FB75FB7D062BE8D90023FB751CE0FA7D13469B0013445B00444A1344FB60FB681B68BB60FB685B687B60FB681A7A5B7A1B0213437B8072
:405B80007B88B86879681A46FFF79EFDFB7D0133FB75FB7D002BDFD04FF090403649FFF7A7FD364B0A221A7035480421FFF77EFD34480421FFF77AFD33480421FFF776FDF9
:405BC000324A324B1B78DBB243F00203DBB213702F4A2F4B1B78DBB243F00203DBB213702C4A2C4B1B78DBB243F04003DBB21370294A294B1B78DBB243F01003DBB21370F9
:405C0000264827490A22FFF75FFD264826490822FFF75AFD254826490822FFF755FD254825490A22FFF750FD244825490A22FFF74BFD244824490822FFF746FD234B842288
:405C40001A70234A224B1B78DBB243F00803DBB21370FFF767FE1F480E490E22FFF734FD1837BD4680BD00BF00480040E84600400482030030820300A80000488358004055
:405C80000076004008760040107600400350014013500140A0430040C243004000510040640C0048C2510040700C0048F2510040780C004810510040800C00482051004035
:405CC0008C0C004832510040980C0048DB06014022430040B043004080B500AF054B1B78002B04D100F008F8024B01221A7000F041F880BD4883FF1F80B582B000AF1A4BA0
:405D00001B78DBB223F03F03FB71174AFB7943F00903DBB21370154A144B1B78DBB243F00103DBB21370EF2000F034F8EF2000F04FF86E2000F05CF8002000F069F800F095
:405D40000AFA0346BB710A4A094B1B78DBB243F01003DBB21370BB79184600F000FA00F029F80837BD4680BD796400409A6400409964004080B400AF054A054B1B78DBB246
:405D800063F07F03DBB21370BD465DF8047B70477964004080B483B000AF0346FB71044AFB7913700C37BD465DF8047B704700BF0A64004080B500AF01E000F045F800F023
:405DC00037F8034603F01003002BF6D180BD00BF80B483B000AF0346FB71044AFB7913700C37BD465DF8047B704700BF4A64004080B483B000AF0346FB71044AFB79137099
:405E00000C37BD465DF8047B704700BF2A64004080B483B000AF0346FB71044AFB7913700C37BD465DF8047B704700BF8964004080B400AF034B1B78DBB21846BD465DF830
:405E4000047B70476964004080B400AF034B1B78DBB21846BD465DF8047B70475A64004080B400AFBD465DF8047B704780B582B000AF0F2000F06AF800F058F800F06BF908
:405E80000346FB71074A074B1B78DBB243F01003DBB21370FB79184600F061F90837BD4680BD00BF9364004080B500AF00F0AEF84FF4004000F0D6F8054B1B78002B04D1E5
:405EC000FFF7CEFF024B01221A70FFF7CFFF80BD4983FF1F80B582B000AF00F0D3F80346FB80FB88A3F500439BB2BB80BB881BB218460837BD4680BD80B584B000AF034631
:405F0000FB80B7F90630002B04DBFB88A3F50043FB8103E0FB88A3F50043FB81FB89184600F0A0F81037BD4680BD00BF80B400AF054B1B78DBB203F00F03DBB21846BD4669
:405F40005DF8047B704700BF6364004080B483B000AF0346FB71044AFB7913700C37BD465DF8047B704700BF8364004080B582B000AF1C4B1B78DBB223F00703FB71194A80
:405F8000FB791370174B1B78DBB223F00303FB71144AFB79137000F0B1F84FF4004000F08DF84FF4004000F05DF8002000F03EF800F04CF84FF4004000F090F800F0CBF80D
:405FC0000346BB71084A084B1B78DBB243F01003DBB21370BB79184600F0C1F80837BD4680BD00BF736400409764004080B400AF054A054B1B78DBB263F07F03DBB21370BF
:40600000BD465DF8047B70477364004080B500AF054B1B78002B04D1FFF7A8FF024B01221A70FFF7E3FF80BD4A83FF1F80B483B000AF0346FB71044AFB7913700C37BD4607
:406040005DF8047B704700BF8764004080B400AF034B1B78DBB21846BD465DF8047B70476764004080B483B000AF0346FB80044AFB8813800C37BD465DF8047B704700BF95
:406080000C68004080B400AF044B1B78044B1B889BB21846BD465DF8047B7047066400408C68004080B400AF034B1B889BB21846BD465DF8047B70478C68004080B483B0B6
:4060C00000AF0346FB80044AFB8813800C37BD465DF8047B704700BF4C68004080B483B000AF0346FB80044AFB8813800C37BD465DF8047B704700BF6C68004080B500AF7F
:4061000001E0FFF7CFFFFFF7A1FF034603F04003002BF6D180BD00BF142816D902B4012114381049097811F0C001890904B40E4A515C04BC00BF00BF00BF8841FDD500BF26
:4061400000BF02BC704700BF00BF70F10400FCD570470B050709EFF3108072B6704780F3108870470048004052610000AFF3008080B483B000AF134B7F221A70124B802252
:406180001A707F23FB710CE0FB79DB0003F1804303F5F043FA79013AD2B21A70FB79013BFB71FB79002BEFD1FB79DB0003F1804303F5F04300221A700C37BD465DF8047BFC
:4061C000704700BF4581FF1F4481FF1F80B485B000AF03460A46FB711346BB710123FB60FB79172B2FD8BB79002B0ED0FB791A01184B1344FA791101164A0A441278D2B2BD
:4062000042F02002D2B21A700DE0FB791A01114B1344FA7911010F4A0A441278D2B222F02002D2B21A70FB791A010A4B1344FA791101084A0A441278D2B242F00102D2B22A
:406240001A700023FB60FB6818461437BD465DF8047B70471070004080B485B000AF03460A46FB711346BB710123FB60FB79172B18D8FB791A010F4B13441B78DBB223F082
:406280000E03FB72FB791A010A4B1344BA7902F00702D2B25200D1B2FA7A0A43D2B21A700023FB60FB6818461437BD465DF8047B704700BF1070004080B485B000AF0346D7
:4062C000FB710B46BB8013467B800123FB60BB8841F6FF72934202D14FF40053BB807B8841F6FF72934202D14FF400537B80FB79172B17D8FB79DB0003F1804303F5EC43B9
:406300000433BB60BB68BA881A80FB79DB0003F1804303F5EC430633BB60BB687A881A800023FB60FB6818461437BD465DF8047B704700BF80B485B000AF03460A46FB71D8
:406340001346BB710123FB60FB79172B07D8FB791A01064B1344BA795A720023FB60FB6818461437BD465DF8047B70471070004090B484B000AF0446084611461A46234697
:40638000FB710346BB710B467B7113463B710123FB60FB79172B34D8FB79DB0003F1804303F5EC43BA7902F07F02D1B27A79D201D2B20A43D2B21A70FB79DB0003F1804378
:4063C00003F5EC433A7E1201D1B23A7902F00F02D2B20A43D2B25A70FB79DB0003F1804303F5EC433A7F02F00F02D2B29A70FB79DB0003F1804303F5EC430022DA70002320
:40640000FB60FB6818461037BD4690BC704700BF80B582B000AFFF23FB71FFF79CFE0346BB71104B1B78182B12D90F4B1B78FB710C4B1B78013BDAB20A4B1A70FB79DB0036
:4064400003F1804303F5F0431B78DAB2064B1A70BB791846FFF783FEFB7918460837BD4680BD00BF4481FF1F4581FF1F90B484B000AF0446084611461A462346FB710346CC
:40648000BB800B46BB711346FB700123FB60FB795BB2002B23DBBB8823F47F6323F00F039BB2002B1BD1FB79DB0003F1804303F5F043BB60BB68BA881A80FB79DB0003F1E4
:4064C000804303F5F043BA799A70FB79DB0003F1804303F5F043FA78DA700023FB60FB6818461037BD4690BC704700BF80B485B000AF0346FB710B46BB8013467B80012368
:40650000FB60FB795BB2002B17DBFB79DB0003F1804303F5F0430433BB60BB68BA881A80FB79DB0003F1804303F5F0430633BB60BB687A881A800023FB60FB681846143712
:40654000BD465DF8047B704780B483B000AF0346FB7101BE0C37BD465DF8047B704700BF80B582B000AF786008E00C4B1B681846FFF7D2FD7B68A3F500437B607B68B3F57C
:40658000004FF2D8064B1B687A6802FB03F31846FFF7C2FD0837BD4680BD00BF5881FF1F5081FF1F80B582B000AF0346FB80FB88044A127802FB03F31846FFF7ADFD08377D
:4065C000BD4680BD5481FF1F80B584B000AF03463960FB710F4B1B68FB60FB791F2B02D90020FFF7B1FFFB7903F01F0310339B00FA6813441B68BB60FB7903F01F031033E1
:406600009B00FA6813443A681A60BB6818461037BD4680BD08ED00E080B582B000AF03460A46FB711346BB71BB79072B02D90020FFF78AFFFB791F2B02D90020FFF784FF5B
:40664000FB7903F01F0303F1604303F56443BA795201D2B21A700837BD4680BD80B500AF00F028F9022000F05DF9042000F07AF900F0E0F9FFF7CCFE03461A46084B1A7055
:40668000FFF7C6FE03461A46064B1A700648052100F038F80548FA2100F06CF880BD00BF4E83FF1F4F83FF1F3C8203004482030080B500AF00F01CF900F0C2F9074B1B786E
:4066C00018460121FFF782FD054B1B7818460121FFF77CFD002000F065F980BD4C83FF1F4D83FF1F80B500AF054B1B78002B04D1FFF7B4FF024B01221A70FFF7D9FF80BDD8
:406700004B83FF1F80B582B000AF78600B467B807B681B0C9BB2012001211A464FF4804300F060F803461A46104B1A70104B19780F4B1B787A88084611461A460123FFF763
:4067400095FE0B4B1A787B689BB21046194645F68232FFF7CBFE054B1A78054B1B7810461946FFF7E7FD0837BD4680BD4C83FF1F4E83FF1F80B582B000AF78600B467B8022
:406780007B681B0C9BB2012001211A464FF4804300F05CF803461A46104B1A70104B19780F4B1B787A88084611461A460123FFF75DFE0B4B1A787B689BB21046194645F6AA
:4067C0008232FFF793FE054B1A78054B1B7810461946FFF7AFFD0837BD4680BD4D83FF1F4F83FF1F90B585B002AF0446084611461A462346FB710346BB710B46BB8013463C
:406800007B80114B01221A700F4B1878F979BA7900230093002301930023FFF7A9FD0A4B1978BA887B88084611461A46FFF744FD054B1B7818460221FFF70EFD024B1B78ED
:4068400018460C37BD4690BD5C81FF1F90B585B002AF0446084611461A462346FB710346BB710B46BB8013467B80114B02221A700F4B1878F979BA79002300930023019382
:406880000023FFF775FD0A4B1978BA887B88084611461A46FFF710FD054B1B7818460221FFF7DAFC024B1B7818460C37BD4690BD5D81FF1F80B500AF0A4B00221A700A4BE3
:4068C00000221A70094A094B1B78DBB243F00803DBB21370002000F045F8022000F022F880BD00BF2858004029580040975A004080B400AF094A094B1B78DBB243F00403CC
:40690000DBB21370064A064B1B78DBB243F00403DBB21370BD465DF8047B7047A8430040B843004080B483B000AF0346FB710C4A0B4B1B78DBB223F00203DBB21370084938
:40694000074B1B78DAB2FB7903F00203DBB21343DBB20B700C37BD465DF8047B704700BF2858004080B582B000AF0346FB710C4A0B4B1B78DBB223F00C03DBB213700849E5
:40698000074B1B78DAB2FB7903F00C03DBB21343DBB20B7000F016F80837BD4680BD00BF2858004080B483B000AF0346FB71044AFB7913700C37BD465DF8047B704700BF69
:4069C000825B004080B483B000AF0B4B1B78DBB203F00C039B08DBB20633FB71074AFB7903F1924303F594731B78DBB213700C37BD465DF8047B7047285800400A460040C6
:406A000080B400AF094A094B1B78DBB243F00403DBB21370064A064B1B78DBB243F00403DBB21370BD465DF8047B7047A2430040B243004080B500AF022000F025F880BD1F
:406A400080B400AF0D4A0D4B1B78DBB243F06003DBB213700A4A0A4B1B78DBB243F00103DBB21370074A074B1B78DBB243F00103DBB21370BD465DF8047B70477758004007
:406A8000A4430040B443004080B483B000AF0346FB710C4A0B4B1B78DBB223F00303DBB213700849074B1B78DAB2FB7903F00303DBB21343DBB20B700C37BD465DF8047B84
:406AC000704700BF5858004080B582B000AF0023FB7106E0FB791846FEF7D6FFFB790133FB71FB79022BF5D9024BFF221A700837BD4680BD5E81FF1F80B582B000AF0346B3
:406B0000FB71FFF7E1FFFB791846FEF787FF034AFB7913700837BD4680BD00BF5E81FF1F80B582B000AF4FF0FF337B6001F044FC01F0C2FC0346002B0AD1012001F08AFC1E
:406B40000346072B01D107237B6001F0E9FC01E004237B607B6818460837BD4680BD00BF80B584B000AF78601D4B1B78DBB203F00203002B28D11A4B1B78DBB29B08DBB242
:406B8000002B1ED107F108031846022101F036FC0346022B11D13B7A012B04D17B7A9AB27B681A8006E07B7A9BB25B429BB29AB27B681A800023FB6008E04FF0FF33FB603B
:406BC00004E00723FB6001E01023FB60FB68072B01D001F0A5FCFB6818461037BD4680BD2247004080B584B000AF7860FFF798FFB860BB68072B1DD14FF4FA53FB8116E0FA
:406C0000BB68072B06D00E4B1B78DBB203F00203002B0FD1BB68072B03D17868FFF7A0FFB8600A20FFF7BEFCFB890A3BFB81FB89002BE5D1BB6818461037BD4680BD00BFAC
:406C40002247004080B584B000AF78600223FB720AE07868FFF7C6FFF860FB68002B00D005E0FB7A013BFB72FB7A002BF1D1FB6818461037BD4680BD80B400AF034B1B783D
:406C8000DBB21846BD465DF8047B70476264004080B400AF034B1B78DBB21846BD465DF8047B70476664004080B400AF034B1B78DBB21846BD465DF8047B704769650040C3
:406CC00080B400AF034B1B78DBB21846BD465DF8047B70476464004080B400AF034B1B78DBB21846BD465DF8047B70476465004080B500AF054B1B78002B04D100F008F852
:406D0000024B01221A7000F023F880BD5083FF1F80B500AF00200721FFF77EFC00200949FFF752FC084A084B1B78DBB243F00603DBB213700C2000F071F8044B00221A802D
:406D400080BD00BFC16F0000015900406C85FF1F80B582B000AFFFF7FEF90346FB71264A254B1B78DBB243F00103DBB21370234A224B1B78DBB243F00103DBB21370204B93
:406D80001B78BB71BB7943F00203BB71BB7943F00103BB711A4ABB7913701A4B18221A70194A194B1B78DBB243F04003DBB21370154A154B1B78DBB223F00303DBB213702C
:406DC000124BC8221A70124B02221A70114A114B1B78DBB243F00803DBB213700A20FFF7E1FB0D4B01221A60FB791846FFF7B7F90837BD4680BD00BFAB430040BB4300407F
:406E00000359004006590040055900400059004014460040275B004080E200E080B584B000AF0346FB71FB790A2B07D00C2B02D0082B06D008E0C223FB730BE08223FB73AA
:406E400008E04223FB7305E0C223FB730020FFF77BFB00BF044AFB7B1370FB79184600F02FF81037BD4680BD0259004080B400AF054A054B1B78DBB243F00103DBB2137099
:406E8000BD465DF8047B70470059004080B483B000AF094B1B88FB80084B1B889BB29BB2FA88D31A9BB29BB21BB218460C37BD465DF8047B704700BFA05B00406685FF1F8B
:406EC00080B584B000AF0346FB71FB790A2B08D00C2B02D0082B08D00BE04FF48053FB600DE04FF48063FB6009E04FF48073FB6005E00023FB600020FFF726FB00BF0C4B3C
:406F000000221A80FB6842F2107202FB03F303F58063002B01DA03F2FF73DB121A46054B1A60054B00221A801037BD4680BD00BF6485FF1F6885FF1F6685FF1F90B585B043
:406F400000AF0346FB801A4B1B889BB2002B09D0174B1B889BB21AB213469B0013445B00FB6002E0134B1B68FB60134B1B889BB2FA889BB2D31A9BB2FB80B7F906301846F2
:406F800001F040FE034618460C4901F08FFE03461C46F86801F036FE03462046194601F039FF0346BB60BB6818461437BD4690BD6485FF1F6885FF1F6C85FF1F00002041BF
:406FC00080B400AFBD465DF8047B704780B500AF054B1B78002B04D100F008F8024B01221A7000F023F880BD5183FF1F80B500AF01200721FFF710FB01200949FFF7E4FAC0
:40700000084A084B1B78DBB243F00603DBB213700C2000F071F8044B00221A8080BD00BF9D720000095900407685FF1F80B582B000AFFFF790F80346FB71264A254B1B782D
:40704000DBB243F00203DBB21370234A224B1B78DBB243F00203DBB21370204B1B78BB71BB7943F00203BB71BB7943F00103BB711A4ABB7913701A4B18221A70194A194B95
:407080001B78DBB243F04003DBB21370154A154B1B78DBB223F00303DBB21370124BC8221A70124B02221A70114A114B1B78DBB243F00803DBB213700A20FFF773FA0D4B3C
:4070C00002221A60FB791846FFF749F80837BD4680BD00BFAB430040BB4300400B5900400E5900400D59004008590040164600402F5B004080E200E080B584B000AF0346A4
:40710000FB71FB790A2B07D00C2B02D0082B06D008E0C223FB730BE08223FB7308E04223FB7305E0C223FB730020FFF70DFA00BF044AFB7B1370FB79184600F02FF81037D2
:40714000BD4680BD0A59004080B400AF054A054B1B78DBB243F00103DBB21370BD465DF8047B70470859004080B483B000AF094B1B88FB80084B1B889BB29BB2FA88D31A8D
:407180009BB29BB21BB218460C37BD465DF8047B704700BFA25B00407485FF1F80B584B000AF0346FB71FB790A2B08D00C2B02D0082B08D00BE04FF48053FB600DE04FF438
:4071C0008063FB6009E04FF48073FB6005E00023FB600020FFF7B8F900BF0C4B00221A80FB6842F2107202FB03F303F58063002B01DA03F2FF73DB121A46054B1A60054B20
:4072000000221A801037BD4680BD00BF7885FF1F7085FF1F7485FF1F90B585B000AF0346FB801A4B1B889BB2002B09D0174B1B889BB21AB213469B0013445B00FB6002E0C0
