:400000000080002011000000295800002958000080B500AF024A034B1B68136005F032FCBC760040FA46004010B5054C237833B9044B13B10448AFF300800123237010BDE2
:400040001882FF1F00000000B8B80000084B10B51BB108480849AFF300800848036803B910BD074B002BFBD0BDE81040184700BF00000000B8B800001C82FF1F0881FF1F3F
:400080000000000090B484B000AF7860084611461A460346FB700B46BB7013467B70BC783B7E2344DCB22346013BDCB27B6893F839207B6893F83B30FA73BB73BB787B7357
:4000C00023463B73BA7B7B7B9A420DD3FA7B3B7B9A4201D8012314E07A7B3B7B9A4201D901230EE000230CE0FA7B3B7B9A4207D87A7B3B7B9A4201D9012302E0002300E038
:400100000023002B01D1002332E0FC787B782344DCB22346013BDCB27B6893F838207B6893F83A30FA72BB72FB787B7223463B72BA7A7B7A9A420DD3FA7A3B7A9A4201D86B
:40014000012314E07A7A3B7A9A4201D901230EE000230CE0FA7A3B7A9A4207D87A7A3B7A9A4201D9012302E0002300E0002300BF18461037BD4690BC704700BF90B585B0D5
:4001800000AFF860B9601346FB71BB689C68FB79F86801211A460023A047034618461437BD4690BD90B585B000AFF860B9601346FB71BB689C68FB79F86803211A46002390
:4001C000A0471437BD4690BD90B583B000AF786039603B689C687868042100220023A0470C37BD4690BD00BF90B583B000AF786039603B689C687868042101220023A0474A
:400200000C37BD4690BD00BF90B585B000AFF860B9601346FB71BB689C68FB79F86802211A460023A0471437BD4690BD90B585B000AFF860B9601346FB71BB689C68FB79F0
:40024000F86805211A460023A047034618461437BD4690BD90B585B000AFF860B9603B601346FB71BB689C68FB79F86806211A463B68A047034618461437BD4690BD00BF45
:4002800080B586B000AFF860B9607A600023FB757B681B78BB75FB7D002B10D1BB7DFF2B0AD0BB7DF868B9681A46FFF7BFFF0346002B63D1002365E00123FB755EE0BB7DF9
:4002C000FF2B0AD1BB7DF868B9681A46FFF7AEFF0346002B50D1002354E0BB7DFE2B02D100BF01234EE0BB7DEF2B45D8BB7DDF2B09D9BB7D03F00F03DBB2F868B9681A46CE
:40030000FFF782FF38E0BB7DCF2B09D9BB7D03F00F03DBB2F868B9681A46FFF743FF2BE0BB7DBF2B1CD9F868B968FFF74DFFBB7D03F00F03BB75BB7D1B01BB75BB7D0233F4
:40034000BB75BB7D9BB2184601F050FDF868B968FFF74AFFBB7D9BB2184601F047FD0BE0BB7DBD2B08D8BB7D5BB2002B04DBBB7D9BB2184601F03AFD0023FB757B68013365
:400380007B6085E718461837BD4680BD80B485B000AFF8607B600B46FB721346BB72FB7A062B11D801A252F823F000BFC9030000C9030000C9030000C9030000C903000030
:4003C000C9030000C9030000012318461437BD465DF8047B704700BF80B483B000AF78600B46FB70FB787A6813447B607B681B7818460C37BD465DF8047B704780B485B00C
:4004000000AF78600B46FB70FB787A6813447B607B681B78FB817B6801337B60FB891B02FB817B681B789AB2FB891344FB81FB8918461437BD465DF8047B704780B582B0B6
:4004400000AF786078680021FFF7C6FF034618460837BD4680BD00BF80B582B000AF78607868FFF7EBFF0346012B05D0022B05D0002B05D1062304E0032302E0062300E03B
:40048000032318460837BD4680BD00BF80B582B000AF786078680521FFF79EFF034618460837BD4680BD00BF80B582B000AF786078680621FFF7A2FF034618460837BD4699
:4004C00080BD00BF80B582B000AF786078680821FFF794FF034618460837BD4680BD00BF80B582B000AF786078680A21FFF774FF034618460837BD4680BD00BF80B582B0ED
:4005000000AF786078680B21FFF766FF034618460837BD4680BD00BF80B582B000AF786078680C21FFF758FF0346DBB25BB218460837BD4680BD00BF80B582B000AF786033
:4005400078680D21FFF748FF0346DBB25BB218460837BD4680BD00BF80B582B000AF786078680E21FFF738FF0346DBB25BB218460837BD4680BD00BF80B582B000AF78601A
:4005800078680F21FFF728FF0346DBB25BB218460837BD4680BD00BF80B582B000AF786078681021FFF718FF0346DBB25BB218460837BD4680BD00BF80B582B000AF786016
:4005C00039607868FFF748FF03461A463B68134418460837BD4680BD80B584B000AF786039607B689B681846FFF728FF0346002B01D0022B1BD13B681A787B68DA773B6871
:400600005A787B6883F820203B6803331B78DAB27B681A773B6804331B78DAB27B685A773B6805331B78DAB27B689A7730E03B681B78FB73FB7B03F00F03DAB27B689A7794
:400640007B689B7FDBB2023BDBB2DAB27B689A77FB7B1B09FB73FA7B7B685A773B685B78FB73FB7B03F00F03DAB27B6883F82020FB7B1B09FB737B68FA7BDA773B689B7885
:40068000FB73FB7B1B09FB73FA7B7B681A7700BF1037BD4680BD00BF80B483B000AF78607B6800221A777B680022DA777B68002283F820207B6800225A777B6800229A7750
:4006C0000C37BD465DF8047B704700BF80B586B000AF78600B46FB707B689B687B617B689B681846FFF7AAFE03463B747B689B681846FFF7B1FE0346FB73FF237B743B7CB8
:40070000012B01D10F237B747B689B681846FFF7E7FE0346FB747B689B681846FFF7EEFE0346BB737B689B681846FFF7CBFE0346BB81FB78602B09D9BB89002B06D0BB8935
:400740007A6913447B616123FB7416E07B689B681846FFF7A9FE0346BB81FB78402B09D9BB89002B06D0BB897A6913447B614123FB7402E07B6911337B61FA78BB7B9A4278
:4007800004D97868FFF788FF002332E0FB7CBB74BA7CBB7B9A4228D87B691B78FF2B03D17B6901337B6117E0BA7CFB789A4205D178687969FFF710FF7B691AE07B69023363
:4007C0001A787B7C1340DBB21A467B6913447B61FB7B7A6913447B61BA7CBB7B9A4200D103E0BB7C0133BB74D6E77868FFF754FF002318461837BD4680BD00BF90B589B0C4
:4008000002AF7860084611461A460346FB700B46BB7013467B707B7878681946FFF756FFF860FB68002B01D1002369E07B689B681846F968FFF7C0FE78617B68DB7FFB7239
:400840007B6893F82030BB727B685B7FDAB2FB781344FB707B689B7FDBB2BA78D31ABB70BB78013BBB70BA78BB7AD31ADBB20133DAB2F978FC7ABB7A009378682346FFF712
:4008800001FC0346002B02D17B681B7F38E0FB7A0733FB72FB7ADB08FB72BB783B743A7CBB7AD31A3B743B7C01333B740023BB7420E0FB787B740023FB7411E07B691B78CD
:4008C000797C3A7C00937868002300F07FFB7B6901337B617B7C08337B74FB7C0133FB74FA7CFB7A9A42E9D33B7C01333B74BB7C0133BB74BA7CBB7A9A42DAD37B681B7FF6
:400900005BB218461C37BD4690BD00BF80B586B000AFF8607B600B46FB721346BB720023FB75FB685B6AF868984703461A46BB7A1344BB7213E07B681B78F97ABA7AF8688D
:40094000FFF75CFF0346BB75BA7DFB7A1344FB72BA7DFB7D1344FB757B6801337B607B681B78002BE7D1FB7D18461837BD4680BD80B584B000AF78607B689B68002B00D145
:400980006CE07B6893F82830002B14D17B689B681846FFF77BFD0346DAB27B6883F829207B689B681846FFF7B7FD03461A467B6883F82A202DE07B6893F82830012B14D1C4
:4009C0007B689B681846FFF7D7FD03461A467B6883F829207B689B681846FFF7DDFD03461A467B6883F82A2013E07B689B681846FFF7A2FD03461A467B6883F829207B6835
:400A00009B681846FFF7A8FD03461A467B6883F82A207B6893F829305BB29AB27B6893F82A305BB29BB2D31A9BB2FB817B6893F82B30402B0DD0FB89DBB2FB817B6893F865
:400A40002B309BB2FA8902FB03F3FB81FB899B09FB81FB89DAB27B6883F82C201037BD4680BD00BF80B483B000AF7860002318460C37BD465DF8047B704700BF80B483B0D2
:400A800000AF78607B68034A5A620C37BD465DF8047B7047650A000080B582B000AF786039607B689A683B689A4208D07B683A689A607868FFF75CFF7868FFF7DFFF08371D
:400AC000BD4680BD80B584B000AF7860084611461A460346FB700B46BB7013467B7000237B72FA787B789A4204D9FA787B78D31A7B7303E07A78FB78D31A7B73BA783B7ED1
:400B00009A4204D9BA783B7ED31A3B7303E03A7EBB78D31A3B733A7B7B7B9A4213D901237B727B7B3B723B7B7B733B7A3B73FB783B72BB78FB703B7ABB707B783B723B7EE8
:400B40007B703B7A3B76FA787B789A420BD9FB783B727B78FB703B7A7B70BB783B723B7EBB703B7A3B767B7B5B08DBB2FB723A7EBB789A4202D90123BB7201E0FF23BB7241
:400B8000BB78BB737B78FF2B02D17B78013B7B70FB78FB7326E07B7A002B07D1FA7BBB7B786811461A4600F0FFF906E0BA7BFB7B786811461A4600F0F7F9FA7A3B7BD31AA2
:400BC000DBB2FB7297F90B30002B08DABA7ABB7B1344BB73FA7A7B7B1344DBB2FB72FB7B0133FB73FA7B7B789A42D4D91037BD4680BD00BF90B585B000AFF860B9603B60F5
:400C00001346FB71BB681C68FB79F868B9681A463B68A047034618461437BD4690BD00BF80B584B000AF786039607B685B6B02209847786839680A220023FFF7DBFF03464C
:400C4000FB737B685B6B032098477B685B6B00209847FB7B18461037BD4680BD80B582B000AF786039607B685B6B022098477B685B6B012098477868396814220023FFF7AE
:400C8000B9FF7B683833786839681722FFF7B2FF7B685B6B002098470837BD4680BD00BF80B584B000AF786039607B685B6B022098477B685B6B0120984778683968152253
:400CC0000023FFF797FF0346FB73FB7B002B06D07B683833786839681722FFF78BFF7B685B6B00209847FB7B18461037BD4680BD80B584B000AFF860B9601346FB71FB1D26
:400D0000F868B9680F22FFF775FF034618461037BD4680BD80B586B000AFF860B96011461A460B46FB711346BB71FB682D337B617B69FA791A707B69BA795A70F868B96803
:400D400032227B69FFF756FF1837BD4680BD00BF80B586B000AFF860B96011461A460B46FB711346BB71FB682D337B617B69FA791A707B69BA795A707B6997F82020DA70C0
:400D80007B6997F824209A70F868B9683B227B69FFF730FF1837BD4680BD00BF80B584B000AF7860396007F10F03786839684622FFF720FFFB7B18461037BD4680BD00BF92
:400DC00080B584B000AF7860396007F10F03786839684722FFF70EFFFB7B18461037BD4680BD00BF80B582B000AF786039607868396848220023FFF7FDFE034618460837ED
:400E0000BD4680BD80B582B000AF78607B685B6878681946FFF7C2FF03461A467B681A707B685B6878681946FFF7CAFF03461A467B685A707B685B6878681946FFF7D2FF2C
:400E400003461A467B68DA747B685A687B683833786811461722FFF7CDFE0837BD4680BD80B582B000AF78607B6800229A607B680022DA607B6800225A747B6801221A7462
:400E80007B6822229A747B6800229A617868012100F0B8F87868FFF7F1FD7B68012283F828207B68002283F829207B68002283F82A207B68402283F82B207B68002283F8B0
:400EC0002C207B68024A5A630837BD4680BD00BFD91D000080B582B000AF78607B685B6878681946FFF79CFE0346002B01D1002303E07868FFF786FF012318460837BD46B8
:400F000080BD00BF80B584B000AFF860B9607A60F868FFF7A5FFFB68BA685A60FB685B687A689A60F868FFF7D5FF034618461037BD4680BD80B582B000AF78607B685B682B
:400F400078681946FFF78AFE0837BD4680BD00BF80B582B000AF78607B689B69002B03D07B689B69786898477B685B6878681946FFF796FE034618460837BD4680BD00BFA9
:400F800080B582B000AF78600B46FB707B685A68FB78786811461A46FFF7AAFE034618460837BD4680BD00BF80B582B000AF78600B46FB701346BB707B685968FA78BB78DE
:400FC0007868FFF7A7FE0837BD4680BD90B585B002AF7860084611461A460346FB700B46BB7013467B707B685968FA78BC787B7800933B7E019378682346FFF7A9FE0C3735
:40100000BD4690BD80B483B000AF78600B46FB707B68FA7883F831200C37BD465DF8047B704700BF80B485B000AF78607B68DB7CFB73FB7B282B01D1FF2306E07B68DB7C90
:40104000022B01D1032300E0012318461437BD465DF8047B704700BF80B582B000AF78607B68DB7C302B08D17B68FF2283F831207B68FF2283F8322007E07868FFF7D2FFC6
:40108000034678681946FFF7BDFF0837BD4680BD80B483B000AF7860002318460C37BD465DF8047B704700BF80B582B000AF78607868FFF7EDFF034678681946FFF7A2FFA9
:4010C0000837BD4680BD00BF80B483B000AF78607B6800229A707B681A787B68DA707B68DB78013BDAB27B68DA707B6800221A710C37BD465DF8047B704700BF90B482B052
:4011000000AF78607B689A787B681B781344DAB27B689A707B689A787B685B789A4201D3002318E07B681B790133DAB27B681A717B68DC787B681B782344DCB27B685B787A
:40114000A34204D87B685C782346013BDCB27B682246DA70012318460837BD4690BC704780B485B000AF78607B689B68FB60FB68BB607B685B791A46BB681344BB60FB68AA
:401180005A1CFA6000221A70FA68BB689A42F6D11437BD465DF8047B704700BF80B485B000AF78600B46FB701346BB707B68DB78FA789A4294BF01230023DBB2FB737B68C7
:4011C0009B78BA789A422CBF01230023DBB2BB73FA78BB789A428CBF01230023DBB27B73FB7B3B73FA7BBB7B1340FB73BA7B7B7B1340BB737A7B3B7B13407B73FA7BBB7B80
:401200001343FB73FA7B7B7B1343FB73FB7B03F00103DBB218461437BD465DF8047B704780B483B000AF786039603B6800221A707B689A783B685A707B685A793B689A70EF
:401240003B689B78013BDAB23B689A707B68DA783B68DA700C37BD465DF8047B704700BF80B584B000AF786039603B685B78FB73FB7BBB733B68DB78032B13D801A252F884
:4012800023F000BFA512000095120000A51200009D120000BB7B0833BB7303E0FB7B083BFB7300BFFA7BBB7B786811461A46FFF775FF034618461037BD4680BD80B584B0ED
:4012C00000AFF860B9607A60FB685A79FB689B68B8687968FEF7BEFF034618461037BD4680BD00BF90B484B000AF7860084611461A460346FB700B46BB7013467B707B685D
:401300009B68FB607B689B78BA78D31ABB700124BB7803F00703BB702246BB7802FA03F3DCB2FB78FA681344FB607B78002B06D0FB681B782343DAB2FB681A7007E0E34317
:40134000DCB2FB681B782340DAB2FB681A701037BD4690BC704700BF80B582B000AF786039603B685A787B689B789A4200D216E03B685A787B68DB789A4200D90FE03B6879
:401380001A787B685B799A4200D308E03B6819783B685A783B681B797868FFF7A3FF0837BD4680BD90B585B000AF786039603B689C780023FB730023BB733B68DB78032B1F
:4013C0001AD801A252F823F0D9130000E1130000E9130000F1130000FB7B0133FB730BE0BB7B0133BB7307E0FB7B013BFB7303E0BB7B013BBB7300BFE3B25BB2002B03DA8D
:4014000078683968FFF7A8FF3B681A78FB7B1344DAB23B681A703B685A78BB7B1344DAB23B685A706300DCB2002CE5D11437BD4690BD00BF80B586B000AFF860B9603B6085
:401440001346FB71BB685B687B61FB790A3B3E2B00F2BA8001A252F823F000BFC9150000C9150000C9150000C9150000C9150000C9150000C9150000C9150000C91500000A
:40148000C91500007D1500008D150000C9150000A7150000C9150000C9150000C9150000C9150000C9150000C9150000C9150000C9150000C9150000C9150000C9150000F6
:4014C000C9150000C9150000C9150000C9150000C9150000C9150000C9150000C9150000C9150000C9150000C9150000C9150000C9150000C9150000C91500007315000062
:40150000C9150000C9150000C9150000C9150000C9150000C9150000C9150000C915000059150000C9150000C9150000C9150000C9150000C9150000C9150000C91500003B
:40154000C9150000C9150000C9150000B1150000BB150000C515000078693968FFF780FE0346002B04D078693968FFF71BFF2BE02AE078693968FFF7EFFE25E07869FFF73B
:40158000EFFD7B691846FFF79FFD1DE07B691846FFF7B4FD0346002B01D1002315E07869FFF7DEFD10E078693968FFF739FE0BE07B695A793B681A7006E07B695A783B68C8
:4015C0001A7001E0012300E0012318461837BD4680BD00BF80B483B000AF78607B681A897B685B8912B21BB29A4201DB00233AE07B689B899AB27B689B889BB213449BB2A1
:401600009AB27B689A817B68DB899AB27B68DB889BB213449BB29AB27B68DA817B68DB891BB2002B15DD7B689B899AB27B681B889BB213449BB29AB27B689A817B68DB8980
:401640009AB27B685B889BB2D31A9BB29AB27B68DA817B681B899BB29BB201339BB29AB27B681A81012318460C37BD465DF8047B704700BF80B487B000AFF86008461146B2
:401680001A4603467B810B463B811346FB80FA887B89D31A9BB2BB823A8C3B89D31A9BB29AB2FB685A80FB683A8C5A81FB683A891A81FB687A899A81B7F91430002B08DB12
:4016C000FB6801221A80BB8AFB82FB680022DA8110E0FB684FF6FF721A80BB8A5B429BB2FB82FB685B889BB2C3F101039BB29AB2FB68DA81B7F91420FB685B881BB292FBB3
:40170000F3F39AB2FB689A80B7F91630FA68528812B293FBF2F102FB01F29B1A9AB2FB68DA801C37BD465DF8047B704780B483B000AF78600B46FB70FB780133FB707B6865
:401740001B7EFA789A4201D30023FB70FB7818460C37BD465DF8047B704700BF80B483B000AF78600B46FB70FB78013BFB707B681B7EFA789A4203D37B681B7E013BFB7038
:40178000FB7818460C37BD465DF8047B704700BF80B584B000AF78600B467B8013467B707A78796813465B001344DB000B4428331B7AFB737A78796813465B001344DB0029
:4017C0000B4428335B68FA7B7868114698470346FB73FB7B7A689B0013445B88B7F902201BB29A4200D00AE07A78796813465B001344DB000B442833FA7B1A72DAE710376C
:40180000BD4680BD80B584B000AF78607B68484A5A647B68474ADA627B685B88FB817B685B88BB817B68002283F830200123FB7226E0FB7A7A689B0013445B88B7F90E20E0
:401840001BB29A4205DAFB7A7A689B0013445B88FB81FB7A7A689B0013445B88B7F90C201BB29A4209DD7B68FA7A83F83020FB7A7A689B0013445B88BB81FB7A0133FB7201
:401880007B681B7EFA7A9A42D3D37B68FA895A837B685B8B9AB2BB89D31A9BB29AB27B685A837B685B8B002B01D100233CE07B6893F830207B6883F84820B7F90C3078687F
:4018C00019460122FFF764FFB7F90C30786819460022FFF75DFF7B6801225A767B6893F830301A467B6833F822207B6893F8483019467B6833F8213012B21BB29A4203D036
:401900007B6800225A760EE07B685B8B9BB29BB2013B9BB29AB27B685A837B685B8B002B01D1002300E0012318461037BD4680BD2D1700005D17000090B585B000AF786061
:4019400039607B681B8DFB817B68B3F84030BB817B689B8F7B81B7F90A30002B00DA5FE0B7F90A303A685278934200DB58E0B7F90E20B7F90C309A4229DAB7F90C30002B58
:4019800000DA4DE0B7F90E303A681278934200DB46E0B7F90E30002B01DA0023FB81B7F90C303A681278934202DB3B681B78BB81FB89D9B27B89DCB2BB89DAB2FB89DBB2DF
:4019C000D31ADBB23868224600F09CF928E0B7F90E30002B00DA23E0B7F90C303A681278934200DB1CE0B7F90C30002B01DA0023FB81B7F90E303A681278934202DB3B681E
:401A00001B78FB81BB89D9B27B89DCB2FB89DAB2BB89DBB2D31ADBB23868224600F072F91437BD4690BD00BF90B589B002AF78600B46FB70FB785A1C13465B001344DB008C
:401A40007A68134404337B617B691B7DFB74FB7C7A689B0013445B883B82FA7C7B6833F82230FB817B691B69FA7C7868114698470346FB74FB7C7A689B0013445B88BB81DC
:401A8000FA7C7B6833F822307B817B69FA7C1A75B7F90E10B7F91020B7F90A40B7F90C30009378692346FFF7E5FD1C37BD4690BD80B584B000AF786039607B685B8BFB81B1
:401AC00078680021FFF7B0FF78680121FFF7ACFF7B685B7E002B09D07B681C331846FFF779FD7B6834331846FFF774FD78683968FFF722FF03E078680021FFF795FF7B68E9
:401B00001C331846FFF766FD0346002BF3D003E078680121FFF788FF7B6834331846FFF759FD0346002BF3D0FB899BB2013B9BB2FB81B7F90E30002BD8DC1037BD4680BDB1
:401B400080B483B000AF78607B6800221A760C37BD465DF8047B704780B485B000AFF860B96011461A460B46FB801346BB80FB681B7E052B13D8FB681B7E1946FB68FA881A
:401B800023F82120FB681B7EFA689B001344BA885A80FB681B7E0133DAB2FB681A761437BD465DF8047B704780B582B000AF786039607868FFF726FE0346002B00D103E02C
:401BC00078683968FFF774FF0837BD4680BD00BF80B500AF0148FFF7B3FF80BD6C83FF1F80B582B000AF78600B467B8013463B80B7F90220B7F9003003487968FFF7ACFFD1
:401C00000837BD4680BD00BF6C83FF1F80B582B000AF786003487968FFF7C6FF0837BD4680BD00BF6C83FF1F80B584B000AFF860084611461A4603467B810B463B81134619
:401C4000FB80FFF7C5FFB7F90A20B7F90830F86811461A46FFF7C4FFB7F90620B7F91830F86811461A46FFF7BBFFB7F91C20B7F92030F86811461A46FFF7B2FFF868FFF708
:401C8000C5FF1037BD4680BD80B586B002AF7860084611461A460346FB700B46BB7013467B70FF23FB730DE0F978BA78FB7B009378680023FFF78AF97B78083B7B70FB7833
:401CC0000833FB707B78072BEED87B78002B15D07B7883F007037B707B7801337B70FA7B7B7803F0070302FA03F3FB73F978BA78FB7B009378680023FFF768F91037BD46CE
:401D000080BD00BF90B585B002AF7860084611461A460346FB700B46BB7013467B70F978BA787C780123009378682346FEF7AAF90346002B00D105E0F978BA787B7878685C
:401D4000FFF7A2FF0C37BD4690BD00BF80B582B000AF7860084611461A460346FB700B46BB7013467B70F978BA787B787868FFF78BFFBB780133BB703B7C013B3B743B7C32
:401D8000002BF0D10837BD4680BD00BF90B585B002AF7860084611461A460346FB700B46BB7013467B70F978BA787C783B7E009378682346FEF766F90346002B00D108E0D0
:401DC000F978BA787C783B7E009378682346FFF7BDFF0C37BD4690BD80B483B000AF0346FB710C37BD465DF8047B704780B582B000AF0346FB80FB88184604F079FC083773
:401E0000BD4680BD80B500AF012004F093FC80BD80B500AF0A2004F08DFC80BD90B587B000AFF8607B600B46FB721346BB72FB7A072B68D801A252F823F000BF071F000067
:401E40005D1E00008B1E00009D1E0000CD1E0000DB1E0000E91E0000E91E0000BB7A012B02D805F0F7FE0DE0BB7A022B02D805F0F1FE07E0BB7A032B02D805F0EBFE01E07C
:401E800005F0E8FEFFF7BEFF3DE0FFF7C1FFBB7A184605F09BFFFFF7BBFF34E0BB7A002B0ED10023FB7504E0FFF7B2FFFB7D0133FB75FB7D042BF7D9012005F0A5FF02E04F
:401EC000002005F0A1FFFFF79DFF1CE0BB7A184605F05EFFFFF79CFF15E0BB7A184605F0F5FEFFF78FFF0EE07C6808E023465C1C1B78184605F0EAFEBB7A013BBB72BB7AF9
:401F0000002BF3D100BF012318461C37BD4690BD80B586B000AFF860B9603B601346FB71FB790A3B0B2B7AD801A252F823F000BF611F00001F2000001F2000001F200000A6
:401F40001F200000C51F000003200000112000001F2000001F2000001F200000771F0000F868B968FF22FEF709F9F868B968324AFEF786F953E0BB685B687B61F868B96817
:401F80002E4AFEF77DF97B691B7963F04F03DBB2F868B9681A46FEF749F9F868B9680122FEF732F97869F968BA68FFF787F90346002B01D100233AE0F868B9680022FEF7C3
:401FC000F1F82CE0F868B9680122FEF7EBF8F868B9680022FEF718F9F868B9688122FEF725F93B681B789B08DBB2F868B9681A46FEF71CF9F868B9680022FEF7D3F80123B8
:4020000015E0F868B9680E4AFEF73AF901230EE0F868B9680B4AFEF733F9012307E0FB79F868B9681A463B68FFF704FA034618461837BD4680BD00BFB8820300D88203001B
:40204000E0820300EC82030080B500AF1C4B1D4A1A601D4B1D4A1A601D4B1E4A1A601E4B1E4A1A601E4B2D221A701E4B4FF07E521A601D4B4FF000021A601C4B4FF0000281
:402080001A60642004F034FB00F03CF8184B01221A70184B01221A70032003F0F5FF164B00221A70154B41F288321A60144B4FF47A721A6003F0F2FA00F068F8FAE700BF06
:4020C0001C84FF1F000002433C85FF1F0000F0412084FF1F000040402484FF1F000020418E84FF1F4085FF1FBC83FF1FC884FF1FB883FF1F0B85FF1FF084FF1F4884FF1F07
:402100000C85FF1F80B500AF62B6052003F0BCFF03F092FF002006F0B3FA04F0ABFB05F0DFFF04F081FE04F03DFF04F0EBFF05F0A7F804F09FFB05F0B5F904F029FD05F018
:4021400099FF06F05FFA0D480D490E4AFEF7DAFE0A483721FEF714FF05F074FEFF2003F0D1FA094B01221A7005F07AFC042003F0F1FA05F05BFC06F0CDF980BDCC83FF1F92
:402180003081FF1F1D1E00000A85FF1F80B500AF4E4B1B78122B00F2978001A252F823F059220000ED210000F3210000F9210000FF21000023220000292200002F2200005A
:4021C00035220000052200000B220000532200004D2200003B220000472200004122000011220000172200001D22000000F0CAF96BE000F017FA68E000F0AEFA65E000F068
:4022000087FB62E000F068FF5FE001F0D9FA5CE000F00CFB59E000F03BFB56E000F06AFB53E001F041FE50E001F0A6FE4DE001F0CDFE4AE001F0F4FE47E000F09BF844E077
:4022400000F0DAF841E000F019F93EE000F058F93BE000F04DF838E003F004FF03461A461B4B1A601A4B1B681A481B491A4607F03FFF1A48FEF75EFE1848FEF7EDFE17489E
:402280001749FEF709FC154828210C22154BFEF73DFB12481249FEF7FFFB104802211C22114BFEF733FB0D480D49FEF7F5FB0B4804213C220D4BFEF729FB0848FEF748FE25
:4022C0000346002BD8D100E000BF80BD0B85FF1F4483FF1F5085FF1FF8820300CC83FF1F38670300FC820300048303001483030080B500AF164B1B781846002101F0B6FE32
:40230000144B1B78002B18D1134B1B78002B14D1124B1B78002B10D1114B1B78002B0CD1104B1B78002B08D10F4B1B78002B04D104F06EFD0346002B08D00C4B1A78044BE1
:402340001A700B4B1B68184603F0B6F880BD00BF0B85FF1F0985FF1F9284FF1FD684FF1F4184FF1F4084FF1F0885FF1FB883FF1F4884FF1F80B500AF164B1B7818460021EF
:4023800001F074FE144B1B78002B18D1134B1B78002B14D1124B1B78002B10D1114B1B78002B0CD1104B1B78002B08D10F4B1B78002B04D104F02CFD0346002B08D00C4B21
:4023C0001A78044B1A700B4B1B68184603F074F880BD00BF0B85FF1F0985FF1F9284FF1FD684FF1F4184FF1F4084FF1F0885FF1FB883FF1F4884FF1F80B500AF164B1B784F
:402400001846002101F032FE144B1B78002B18D1134B1B78002B14D1124B1B78002B10D1114B1B78002B0CD1104B1B78002B08D10F4B1B78002B04D104F0EAFC0346002BD5
:4024400008D00C4B1A78044B1A700B4B1B68184603F032F880BD00BF0B85FF1F0985FF1F9284FF1FD684FF1F4184FF1F4084FF1F0885FF1FB883FF1F4884FF1F80B500AFD5
:40248000164B1B781846002101F0F0FD144B1B78002B18D1134B1B78002B14D1124B1B78002B10D1114B1B78002B0CD1104B1B78002B08D10F4B1B78002B04D104F0A8FC5A
:4024C0000346002B08D00C4B1A78044B1A700B4B1B68184602F0F0FF80BD00BF0B85FF1F0985FF1F9284FF1FD684FF1F4184FF1F4084FF1F0885FF1FB883FF1F4884FF1F01
:4025000080B500AF164B1B781846002101F0AEFD144B1B78002B18D1134B1B78002B14D1124B1B78002B10D1114B1B78002B0CD1104B1B78002B08D10F4B1B78002B04D1CF
:4025400004F066FC0346002B08D00C4B1A78044B1A700B4B1B68184602F0AEFF80BD00BF0B85FF1F0985FF1F9284FF1FD684FF1F4184FF1F4084FF1F0885FF1FB883FF1F56
:402580004884FF1F98B500AF244B1C780020032103F034F80346DBB22046194601F066FD04F036FC0346002B37D00020032103F025F80346032B0BD1032003F065FD174BBE
:4025C00002221A70164B1B68184602F075FF24E00020032103F012F80346022B0BD1032003F052FD0D4B03221A700D4B1B68184602F062FF11E00020032102F0FFFF034688
:40260000002B0AD1032003F03FFD044B05221A70034B1B68184602F04FFF98BD0B85FF1F4884FF1F98B500AF414B00221A70002005F0E2FC3F4B1C780020032102F0DEFF8E
:402640000346DBB22046194601F010FD04F0E0FB0346002B5BD00220032102F0CFFF0346032B13D1032003F00FFD324B04221A70314B4FF07C521A60304B4FF07C521A609E
:402680002F4B1B68184602F017FF40E00020032102F0B4FF0346022B11D1032003F0F4FC244B09221A70274B274A1A60274B264A1A60234B1B68184602F0FEFE27E000200F
:4026C000032102F09BFF0346012B0ED1032003F0DBFC184B0A221A701A4B1D4A1A60184B1B68184602F0E8FE11E00020032102F085FF0346002B0AD1032003F0C5FC0D4B45
:4027000001221A700E4B1B68184602F0D5FE114B1B78002B0AD0032003F0B6FC054B01221A70074B1B68184602F0C6FE98BD00BFF084FF1F0B85FF1FD084FF1F4484FF1F9F
:402740004884FF1FA884FF1F00002841F484FF1F00007A444184FF1F98B500AF2F4B00221A70002005F048FC2D4B1C780020032102F044FF0346DBB22046194601F076FC87
:4027800004F046FB0346002B37D00220032102F035FF0346032B0BD1032003F075FC204B10221A701F4B1B68184602F085FE24E00220032102F022FF0346022B0BD103206A
:4027C00003F062FC164B11221A70164B1B68184602F072FE11E00020032102F00FFF0346002B0AD1032003F04FFC0D4B01221A700C4B1B68184602F05FFE0B4B1B78002B41
:402800000AD0032003F040FC054B01221A70054B1B68184602F050FE98BD00BFF084FF1F0B85FF1F4884FF1F4184FF1F80B500AF134B1B781846002101F018FC002005F06F
:40284000E5F8012005F0D8FB012005F019FF0D4B1B78002B13D0032003F016FC002005F00FFF094B00221A70002005F0C5FB044B03221A70054B1B68184602F01DFE80BDD2
:402880000B85FF1F4184FF1FF084FF1F4884FF1F80B500AF134B1B781846002101F0E6FB012005F0B3F8012005F0A6FB012005F0E7FE0D4B1B78002B13D0032003F0E4FB84
:4028C000002005F0DDFE094B00221A70002005F093FB044B03221A70054B1B68184602F0EBFD80BD0B85FF1F4184FF1FF084FF1F4884FF1F80B500AF034B1B7818460021AE
:4029000001F0B4FB80BD00BF0B85FF1F0000000090B583B000AF05F08FFE0346002B0CD1934B00221A70934B1A78934B1A70914B0F221A70914802F0BFFD914B1B687B6099
:40294000002002F0CFFD8F4B1B6801338D4A13608D4B1A788D4B1B7852B25BB29A4206DB834B00221A708A4B01221A700BE0864B1B785AB2854B1B785BB2053B9A4202DA3C
:40298000834B00221A7004F01DFB03469AB2814B1A8004F085FC03461A467F4B1A807D4B1B889BB21BB2184604F064FB034618467A4906F005FD03461A46794B1A60794BD1
:4029C0001B78184606F0A8FC0246774B1B681046194606F0F5FC03461A46734B1A60724B1A686F4B1B681046194606F0E1FB03461A466D4B1A606C4B1C686A4B1B780133AD
:402A0000184606F089FC03462046194606F08CFD03461A46644B1A60634B1B68604A13605D4B1B881BB2184604F092FC0346184606F07AF802460B461046194648A3D3E914
:402A4000002306F0C5F802460B461046194606F059FB0246554B1A60514B1A68534B1B681046194606F0ACFC03461A46504B1A604B4B1A684F4B1B681046194606F0A0FCBA
:402A800003461A464C4B1A60394B1B78012B40F0D280012005F0B0FA3A4B1B68B3F57A7F2ED33F4B1B68184606F03EF802460B464248434907F01CFB3C4B1B68184606F07B
:402AC00033F802460B463F483F4907F011FB384B1B68184606F028F802460B463B483C4907F006FB234B1A783A4B1B78DBB21046194601F0BBFA02F055FE224B00221A609F
:402B0000022005F0BDFD2B4B1A68284B1B681046194606F04BFB0346184606F005F802460B461046194610A3D3E9002306F0E0FA0346002B52D0284B1B8801339AB2264BFE
:402B40001A80254B1B88B3F57F6F03D9224B4FF47F621A80204B1B88184605F0D1FA6AE07B14AE47E17AF03F7B14AE47E17A743FF084FF1F0B85FF1FB883FF1F20A1070094
:402B80002084FF1F3883FF1F8A84FF1F8E84FF1F1884FF1FA484FF1F9084FF1F000070412C84FF1F3E81FF1F4885FF1FC883FF1F4C84FF1FD084FF1FA884FF1F7084FF1F80
:402BC000248303001085FF1F2C8303000884FF1F348303003C81FF1F3483FF1FA84B1A68A84B1B681046194606F0E0FA0346184605F09AFF02460B46104619469AA3D3E9C6
:402C0000002306F075FA0346002B14D09E4B1B88013B9AB29C4B1A809B4B1B88002B05D1994B00221A80994B00221A70964B1B88184605F065FA954B1B78002B3FD1944BA2
:402C40001B68B3F57A7F2ED3924B1B68184605F06BFF02460B469048904907F049FA894B1B68184605F060FF02460B468C488D4907F03EFA8C4B1B68184605F055FF0246CA
:402C80000B468A488A4907F033FA8A4B1A788A4B1B78DBB21046194601F0E8F902F082FD7B4B00221A60784B00221A80002005F027FA002005F0E4FC002005F09DF904F0FB
:402CC000A7F80346002B15D07C4B1B78002B0CBF01230023DBB21A46784B1A70784B1B689BB21BB2184603F0CFF9764B1B68184602F0E2FB714B1B78012B40F0448103F0BE
:402D0000B1F903461A466E4B1A606B4B1B78002B30D16D4B1A686A4B1B689A422AD06A4B1A68674B1B689A420ADD684B1B6818464FF07E5106F03AFA03461A46634B1A6084
:402D4000614B1A685E4B1B689A420ADA5F4B1B6818464FF07E5106F02BFA03461A465B4B1A60574B1B68584A1360594B1B68184602F0A2FB504B1B785BB2012B48D1524B51
:402D80001A684F4B1B689A4242D04F4B1A684C4B1B689A4216DD4D4B1B68184605F0C4FE02460B461046194631A3D3E9002305F05BFD02460B461046194606F0A3F90246DB
:402DC000424B1A60404B1A683D4B1B689A4216DA3E4B1B68184605F0A7FE02460B461046194623A3D3E9002305F040FD02460B461046194606F086F90246344B1A60304B40
:402E00001B68314A1360324B1B68184602F054FB294B1B785BB2022B40F082802A4B1A68274B1B689A427BD0274B1A68244B1B689A424FDD254B1B68184605F075FE02460D
:402E40000B46104619460CA3D3E9002305F00CFD02460B461046194606F054F902461B4B1A6037E0AFF300807B14AE47E17A743F9A9999999999B93F7B14AE47E17A843F0B
:402E8000C883FF1FD084FF1F3483FF1FF084FF1F3883FF1F2C84FF1F9484FF1F248303003084FF1F2C830300A884FF1FF884FF1F3C8303000B85FF1F3C81FF1F2884FF1FCC
:402EC0004083FF1F4884FF1F3C83FF1F4484FF1F0C85FF1F704B1A68704B1B689A4216DA6F4B1B68184605F01FFE02460B461046194667A3D3E9002305F0B8FC02460B4628
:402F00001046194606F0FEF80246654B1A60634B1B68614A1360634B1B68184602F0CCFA5F4B1B681846796806F006FC0346002B0BD05B4A7B6813605A4B1A6813469B001F
:402F400013445B00184602F0B7FA554B1B6818464FF0000106F0D2FB0346002B0FD0524B00221A704E4B4FF000021A604D4B1A6813469B0013445B00184602F09DFA484BF0
:402F80001B684A4A13604A4B1B78002B17D0494B1B68184602F090FA434B1B78002B08D102F0B8FA0346012B06D13F4B01221A7002E03D4B00221A703F4B00221A703F4B3A
:402FC0001B78002B15D03C4B1B78002B0CBF01230023DBB21A46384B1A70304B1B689BB21BB2184603F050F8324B1B68184602F063FA334B1B78002B10D0032003F044F811
:40300000294B00221A702C4B00221A702D4B02221A70284B1B68184602F04EFA2A4B1B78002B15D0294B1B78DBB2DBB20133DBB2DAB2264B1A70254B1B785BB2022B02DDFC
:40304000224B02221A701B4B1B68184602F034FA1F4B1B78002B15D01C4B1B78DBB2DBB2013BDBB2DAB2194B1A70184B1B785BB2002B02DA154B00221A700E4B1B6818461A
:4030800002F01AFA0C37BD4690BD00BFAFF300807B14AE47E17A843F3C83FF1F4083FF1F4484FF1F0C85FF1FF084FF1FD084FF1F0985FF1F4884FF1F2884FF1F9284FF1F09
:4030C0004184FF1F0B85FF1F0885FF1F3C81FF1F4084FF1FAFF3008090B583B000AF884B1B687B6005F0A8FA0346002B0CD1854B00221A70844B1A78844B1A70824B0F2241
:403100001A70834802F0D8F9002002F0EBF9814B1B6801337F4A13607F4B1A787F4B1B7852B25BB29A4206DB764B00221A707C4B01221A700BE0784B1B785AB2774B1B78B8
:403140005BB2053B9A4202DA754B00221A7003F039FF03469AB2734B1A8004F0A1F803461A46714B1A806F4B1B889BB21BB2184603F080FF034618466C4906F021F903463E
:403180001A466B4B1A606B4B1B78184606F0C4F80246694B1B681046194606F011F903461A46654B1A60644B1A68614B1B681046194605F0FDFF03461A465F4B1A605E4BA3
:4031C0001C685C4B1B780133184606F0A5F803462046194606F0A8F903461A46564B1A60554B1B68524A13604F4B1B881BB2184604F0AEF803461846194605F0D9FF034633
:403200001A464E4B1A604A4B1A684C4B1B681046194606F0D5F803461A46494B1A60394B1B78012B40F0CD80012004F0E5FE394B1B68B3F57A7F2ED33D4B1B68184605F0FC
:4032400073FC02460B463F483F4906F051FF3B4B1B68184605F068FC02460B463B483C4906F046FF364B1B68184605F05DFC02460B463848384906F03BFF234B1A78374B59
:403280001B78DBB21046194600F0F0FE02F08AFA204B00221A60022005F0F2F9304B1A68274B1B681046194605F080FF0346184605F03AFC02460B46104619460EA3D3E934
:4032C000002305F015FF0346002B4DD0254B1B8801339AB2234B1A80224B1B88B3F57F6F03D9204B4FF47F621A801E4B1B88184604F006FF65E000BF9A9999999999A93FE5
:403300001C84FF1FF084FF1F0B85FF1FB883FF1F20A107003883FF1F8A84FF1F8E84FF1F1884FF1FA484FF1F9084FF1F000070412C84FF1F3E81FF1F4885FF1FC883FF1F57
:403340004C84FF1F7084FF1F248303001085FF1F2C8303000884FF1F348303003C81FF1FA884FF1F3483FF1FA74B1A68A74B1B681046194605F01AFF0346184605F0D4FBC9
:4033800002460B461046194699A3D3E9002305F0AFFE0346002B14D09D4B1B88013B9AB29B4B1A809A4B1B88002B05D1984B00221A80984B00221A70954B1B88184604F08B
:4033C0009FFE944B1B78002B3FD1934B1B68B3F57A7F2ED3914B1B68184605F0A5FB02460B468F488F4906F083FE8F4B1B68184605F09AFB02460B468C488D4906F078FE7B
:40340000824B1B68184605F08FFB02460B468948894906F06DFE894B1A78894B1B78DBB21046194600F022FE02F0BCF97A4B00221A60774B00221A80002004F061FE00208A
:4034400005F01EF9002004F0D7FD03F0E1FC0346002B10D07B4B1B78002B0CBF01230023DBB21A46774B1A70774B1B689BB21BB2184602F009FE734B1B78012B40F01D8164
:4034800002F0F0FD03461A466F4B1A606C4B1B78002B2BD16D4B1A686B4B1B689A4225D06A4B1A68684B1B689A420ADD684B1B6818464FF07E5105F079FE03461A46644B05
:4034C0001A60624B1A68604B1B689A420ADA604B1B6818464FF07E5105F06AFE03461A465B4B1A60584B1B68584A1360544B1B785BB2012B43D1554B1A68534B1B689A429C
:403500003DD0524B1A68504B1B689A4216DD504B1B68184605F008FB02460B461046194635A3D3E9002305F09FF902460B461046194605F0E7FD0246454B1A60434B1A68E3
:40354000414B1B689A4216DA414B1B68184605F0EBFA02460B461046194627A3D3E9002305F084F902460B461046194605F0CAFD0246374B1A60344B1B68344A1360304B04
:403580001B785BB2022B77D1304B1A682E4B1B689A4271D02D4B1A682B4B1B689A4216DD2B4B1B68184605F0BFFA02460B461046194613A3D3E9002305F056F902460B4659
:4035C0001046194605F09EFD0246214B1A601F4B1A681D4B1B689A424ADA1D4B1B68184605F0A2FA02460B461046194632E000BF9A9999999999A93F9A9999999999B93F7A
:403600007B14AE47E17A843F4C84FF1FA884FF1F3483FF1FF084FF1F3883FF1F2C84FF1F9484FF1F24830300D084FF1F3084FF1F2C830300F884FF1F3C8303000B85FF1FC2
:403640003C81FF1F2884FF1F4083FF1F3C83FF1FF484FF1F4AA3D3E9002305F007F902460B461046194605F04DFD0246464B1A60464B1B68464A1360434B1B681846796849
:4036800006F05AF80346002B02D03F4A7B6813603D4B1B6818464FF0000106F02FF80346002B06D03B4B00221A70374B4FF000021A60354B1B68384A1360384B1B78002BE5
:4036C0000CD0344B1B78002B0CBF01230023DBB21A46304B1A70324B00221A70314B1B78002B10D02E4B1B78002B0CBF01230023DBB21A462A4B1A70244B1B689BB21BB229
:40370000184602F0C1FC284B1B78002B0BD0032002F0BAFC1F4B00221A70214B00221A70224B02221A70224B1B78002B10D0214B1B78DBB2DBB20133DBB2DAB21D4B1A70F9
:403740001C4B1B785BB2022B02DD1A4B02221A70194B1B78002B10D0164B1B78DBB2DBB2013BDBB2DAB2134B1A70124B1B785BB2002B02DA0F4B00221A700C37BD4690BD39
:403780007B14AE47E17A843FF484FF1F4083FF1F3C83FF1FF084FF1FA884FF1F0985FF1F2884FF1F9284FF1F4184FF1F0B85FF1F0885FF1F3C81FF1F4084FF1FAFF3008072
:4037C00090B583B000AF884B1B687B6004F034FF0346002B0CD1854B00221A70844B1A78844B1A70824B0F221A70834801F064FE002001F077FE814B1B6801337F4A1360D8
:403800007F4B1A787F4B1B7852B25BB29A4206DB764B00221A707C4B01221A700BE0784B1B785AB2774B1B785BB2053B9A4202DA754B00221A7003F0C5FB03469AB2734B07
:403840001A8003F02DFD03461A46714B1A806F4B1B889BB21BB2184603F00CFC034618466C4905F0ADFD03461A466B4B1A606B4B1B78184605F050FD0246694B1B68104630
:40388000194605F09DFD03461A46654B1A60644B1A68614B1B681046194605F089FC03461A465F4B1A605E4B1C685C4B1B780133184605F031FD03462046194605F034FE9A
:4038C00003461A46564B1A60554B1B68524A13604F4B1B881BB2184603F03AFD03461846194605F065FC03461A464E4B1A604A4B1A684C4B1B681046194605F061FD0346A6
:403900001A46494B1A60394B1B78012B40F0CD80012004F071FB394B1B68B3F57A7F2ED33D4B1B68184605F0FFF802460B463F483F4906F0DDFB3B4B1B68184605F0F4F81C
:4039400002460B463B483C4906F0D2FB364B1B68184605F0E9F802460B463848384906F0C7FB234B1A78374B1B78DBB21046194600F07CFB01F016FF204B00221A6002206C
:4039800004F07EFE304B1A68274B1B681046194605F00CFC0346184605F0C6F802460B46104619460EA3D3E9002305F0A1FB0346002B4DD0254B1B8801339AB2234B1A80FE
:4039C000224B1B88B3F57F6F03D9204B4FF47F621A801E4B1B88184604F092FB65E000BF9A9999999999A93F1C84FF1FF084FF1F0B85FF1FB883FF1F20A107003883FF1FB6
:403A00008A84FF1F8E84FF1F1884FF1FA484FF1F9084FF1F000070412C84FF1F3E81FF1F4885FF1FC883FF1F4C84FF1F7084FF1F248303001085FF1F2C8303000884FF1F8F
:403A4000348303003C81FF1FA884FF1F3483FF1FA74B1A68A74B1B681046194605F0A6FB0346184605F060F802460B461046194699A3D3E9002305F03BFB0346002B14D07E
:403A80009D4B1B88013B9AB29B4B1A809A4B1B88002B05D1984B00221A80984B00221A70954B1B88184604F02BFB944B1B78002B3FD1934B1B68B3F57A7F2ED3914B1B68B2
:403AC000184605F031F802460B468F488F4906F00FFB8F4B1B68184605F026F802460B468C488D4906F004FB824B1B68184605F01BF802460B468948894906F0F9FA894B4D
:403B00001A78894B1B78DBB21046194600F0AEFA01F048FE7A4B00221A60774B00221A80002004F0EDFA002004F0AAFD002004F063FA03F06DF90346002B10D07B4B1B786F
:403B4000002B0CBF01230023DBB21A46774B1A70774B1B689BB21BB2184602F095FA734B1B78012B40F01D8102F07CFA03461A466F4B1A606C4B1B78002B2BD16D4B1A6856
:403B80006B4B1B689A4225D06A4B1A68684B1B689A420ADD684B1B6818464FF07E5105F005FB03461A46644B1A60624B1A68604B1B689A420ADA604B1B6818464FF07E51AB
:403BC00005F0F6FA03461A465B4B1A60584B1B68584A1360544B1B785BB2012B43D1554B1A68534B1B689A423DD0524B1A68504B1B689A4216DD504B1B68184604F094FF22
:403C000002460B461046194635A3D3E9002304F02BFE02460B461046194605F073FA0246454B1A60434B1A68414B1B689A4216DA414B1B68184604F077FF02460B461046AF
:403C4000194627A3D3E9002304F010FE02460B461046194605F056FA0246374B1A60344B1B68344A1360304B1B785BB2022B77D1304B1A682E4B1B689A4271D02D4B1A68D0
:403C80002B4B1B689A4216DD2B4B1B68184604F04BFF02460B461046194613A3D3E9002304F0E2FD02460B461046194605F02AFA0246214B1A601F4B1A681D4B1B689A42A9
:403CC0004ADA1D4B1B68184604F02EFF02460B461046194632E000BF9A9999999999A93F9A9999999999B93F7B14AE47E17A843F4C84FF1FA884FF1F3483FF1FF084FF1FC8
:403D00003883FF1F2C84FF1F9484FF1F24830300D084FF1F3084FF1F2C830300F884FF1F3C8303000B85FF1F3C81FF1F2884FF1F4083FF1F3C83FF1FF484FF1F4AA3D3E95A
:403D4000002304F093FD02460B461046194605F0D9F90246464B1A60464B1B68464A1360434B1B681846796805F0E6FC0346002B02D03F4A7B6813603D4B1B6818464FF029
:403D8000000105F0BBFC0346002B06D03B4B00221A70374B4FF000021A60354B1B68384A1360384B1B78002B0CD0344B1B78002B0CBF01230023DBB21A46304B1A70324BCA
:403DC00000221A70314B1B78002B10D02E4B1B78002B0CBF01230023DBB21A462A4B1A70244B1B689BB21BB2184602F04DF9284B1B78002B0BD0032002F046F91F4B00223A
:403E00001A70214B00221A70224B02221A70224B1B78002B10D0214B1B78DBB2DBB20133DBB2DAB21D4B1A701C4B1B785BB2022B02DD1A4B02221A70194B1B78002B10D03A
:403E4000164B1B78DBB2DBB2013BDBB2DAB2134B1A70124B1B785BB2002B02DA0F4B00221A700C37BD4690BD7B14AE47E17A843FF484FF1F4083FF1F3C83FF1FF084FF1FD2
:403E8000A884FF1F0985FF1F2884FF1F9284FF1F4184FF1F0B85FF1F0885FF1F3C81FF1F4084FF1FAFF3008098B500AF2E4B1C780020032101F0A2FB0346DBB2204619467D
:403EC00000F0D4F8002001F00DFB02F0A1FF0346002B3ED00020032101F090FB0346032B0AD1224B1B789BB21BB2184602F0CCF81D4B06221A702CE00020032101F07EFBC5
:403F00000346022B0AD11A4B1B789BB21BB2184602F0BAF8144B07221A701AE00020032101F06CFB0346012B06D1032002F0ACF80D4B08221A700CE00020032101F05EFBE9
:403F40000346002B05D1032002F09EF8064B01221A70084B1B78002B05D0032002F094F8014B01221A7098BD0B85FF1F2885FF1F9384FF1F4184FF1F80B500AFFF2001F0F4
:403F8000F7FA0346DBB2184601F0BCFB0D4B1B781846032100F06AF802F03AFF0346002B05D0032002F070F8064B05221A70064B1B78002B05D0032002F066F8014B0522B8
:403FC0001A7080BD0B85FF1F0985FF1F80B500AF642001F0CDFA0346DBB2184601F0BAFB0D4B1B781846022100F040F802F010FF0346002B05D0022002F046F8064B0522FE
:404000001A70064B1B78002B05D0022002F03CF8014B05221A7080BD0B85FF1F0985FF1F80B500AF01F0BEFB01F0E4FB0D4B1B781846032100F01AF802F0EAFE0346002B1B
:4040400005D0012002F020F8064B05221A70064B1B78002B05D0012002F016F8014B05221A7080BD0B85FF1F4184FF1F90B589B004AF03460A46FB711346BB71FB797B7252
:404080007B7A122B01F2F58101A252F823F000BF954200003543000023440000114500005D5100006948000081470000C546000081490000AF4D0000994A00003541000049
:4040C000DD400000E54100008D4100003D4200003546000065460000954600008848FCF729FF8748FCF7B8FF85488649FCF7D4FC834828210C22844BFCF708FC80488149D2
:40410000FCF7CAFC7E4802211C22804BFCF7FEFB7B487C49FCF7C0FC794804213C227C4BFCF7F4FB7648FCF713FF0346002BD8D101F0A0B97248FCF7FDFE7148FCF78CFFBB
:404140006F487049FCF7A8FC6D4828210C226E4BFCF7DCFB6A486B49FCF79EFC684802211C226C4BFCF7D2FB65486649FCF794FC634804213C22664BFCF7C8FB6048FCF7FF
:40418000E7FE0346002BD8D101F074B95C48FCF7D1FE5B48FCF760FF59485A49FCF77CFC574828210C22584BFCF7B0FB54485549FCF772FC524802211C22574BFCF7A6FBB2
:4041C0004F485049FCF768FC4D4804213C22504BFCF79CFB4A48FCF7BBFE0346002BD8D101F048B94648FCF7A5FE4548FCF734FF43484449FCF750FC414828210C22424BF3
:40420000FCF784FB3E483F49FCF746FC3C4802211C22424BFCF77AFB39483A49FCF73CFC374804213C223A4BFCF770FB3448FCF78FFE0346002BD8D101F01CB93048FCF791
:4042400079FE2F48FCF708FF2D482E49FCF724FC2B4828210C222C4BFCF758FB28482949FCF71AFC264802211C222D4BFCF74EFB23482449FCF710FC214804213C22244B10
:40428000FCF744FB1E48FCF763FE0346002BD8D101F0F0B81A48FCF74DFE1948FCF7DCFE17481849FCF7F8FB154802210D221D4BFCF72CFB12481349FCF7EEFB10480221AA
:4042C0001D22194BFCF722FB0D480E49FCF7E4FB0B4802212D22154BFCF718FB08480949FCF7DAFB064802213C22114BFCF70EFB0348FCF72DFE0346002BCED101F0BAB8F2
:40430000CC83FF1F38670300448303004C8303005C8303006C8303007C83030088830300948303005084FF1FA4830300B4830300C4830300B248FCF7FDFDB148FCF78CFED7
:40434000BB79032B0AD110230093AD48002100228023FDF71BFDAA48FCF7A6FEA848A949FCF79AFBA64802210D22A74BFCF7CEFAA348FCF771FEBB79022B0AD11023009324
:404380009F48002110228023FDF700FD9C48FCF78BFE9B489B49FCF77FFB994802211D229A4BFCF7B3FA9648FCF756FEBB79012B0AD1102300939248002120228023FDF7D9
:4043C000E5FC8F48FCF770FE8D488E49FCF764FB8B4802212D228E4BFCF798FA8848FCF73BFEBB79002B0AD1102300938448002130228023FDF7CAFC8148FCF755FE804894
:404400008049FCF749FB7E4802213C22814BFCF77DFA7B48FCF79CFD0346002B8DD101F029B87748FCF786FD7548FCF715FEBB79032B0AD110230093714800210022802372
:40444000FDF7A4FC6E48FCF72FFE6D486D49FCF723FB6B4802210D226F4BFCF757FA6848FCF7FAFDBB79022B0AD1102300936448002110228023FDF789FC6148FCF714FEEE
:404480005F486049FCF708FB5D4802211D22634BFCF73CFA5A48FCF7DFFDBB79012B0AD1102300935648002120228023FDF76EFC5348FCF7F9FD52485249FCF7EDFA504839
:4044C00002212D22564BFCF721FA4D48FCF7C4FDBB79002B0AD1102300934948002130228023FDF753FC4648FCF7DEFD44484549FCF7D2FA424802213C224A4BFCF706FAA0
:404500003F48FCF725FD0346002B8DD100F0B2BF3B48FCF70FFD3A48FCF79EFDBB79032B0AD1102300933648002100228023FDF72DFC3348FCF7B8FD31483249FCF7ACFAE6
:404540002F4802210D22384BFCF7E0F92C48FCF783FDBB79022B0AD1102300932848002110228023FDF712FC2548FCF79DFD24482449FCF791FA224802211D222B4BFCF74C
:40458000C5F91F48FCF768FDBB79012B0AD1102300931B48002120228023FDF7F7FB1848FCF782FD16481749FCF776FA144802212D221F4BFCF7AAF91148FCF74DFDBB79A3
:4045C000002B0AD1102300930D48002130228023FDF7DCFB0A48FCF767FD09480949FCF75BFA074802213C220E4BFCF78FF90448FCF7AEFC0346002B8DD100F03BBF00BF1D
:40460000CC83FF1F38670300D0830300E0830300B4830300C4830300F0830300008403000C8403001C84030030840300408403004C8403008148FCF77DFC8048FCF70CFDAE
:404640007E487F49FCF728FA7C481E210C227D4BFCF75CF97948FCF77BFC0346002BECD100F008BF7548FCF765FC7448FCF7F4FC72487349FCF710FA70481E210C22724B3E
:40468000FCF744F96D48FCF763FC0346002BECD100F0F0BE6948FCF74DFC6848FCF7DCFC66486749FCF7F8F964481E210C22674BFCF72CF96148FCF74BFC0346002BECD153
:4046C00000F0D8BE5D48FCF735FC5C48FCF7C4FC5A485B49FCF7E0F9584802210D225C4BFCF714F955485649FCF7D6F9534860210D22584BFCF70AF95048FCF7ADFC4F48BC
:404700004F49FCF7C9F94D4802211D22524BFCF7FDF8102300934948582110222C23FDF735FB4648FCF7C0FC44484549FCF7B4F9424860211D22494BFCF7E8F83F48FCF719
:404740008BFC3E483E49FCF7A7F93C4802212D22434BFCF7DBF83948FCF77EFC37483849FCF79AF9354802213C223E4BFCF7CEF83248FCF7EDFB0346002BA6D100F07ABEAC
:404780002E48FCF7D7FB2D48FCF766FC2B482C49FCF782F9294802210D222D4BFCF7B6F8102300932548582100222C23FDF7EEFA2248FCF779FC21482149FCF76DF91F4864
:4047C00060210D22234BFCF7A1F81C48FCF744FC1A481B49FCF760F9184802211D221E4BFCF794F815481649FCF756F9134860211D221A4BFCF78AF81048FCF72DFC0F48FE
:404800000F49FCF749F90D4802212D22144BFCF77DF80A48FCF720FC08480949FCF73CF9064802213C220F4BFCF770F80348FCF78FFB0346002BA6D100F01CBECC83FF1FC4
:40484000386703005C8403006C84030078840300888403002085FF1F94840300B084FF1F9C8403001C840300B748FCF763FBB648FCF7F2FBBB79032B0AD110230093B24891
:40488000002100228023FDF781FAAF48FCF70CFCAD48AE49FCF700F9AB4802210D22AC4BFCF734F8A848A949FCF7F6F8A64860210D22A84BFCF72AF8A348FCF7CDFBBB793B
:4048C000022B0AD1102300939F48002110228023FDF75CFA9C48FCF7E7FB9B489B49FCF7DBF8994802211D229B4BFCF70FF896489649FCF7D1F8944860211D22974BFCF770
:4049000005F89148FCF7A8FBBB79012B0AD1102300938D48002120228023FDF737FA8A48FCF7C2FB88488949FCF7B6F8864802212D228B4BFBF7EAFF8348FCF78DFBBB79DA
:40494000002B0AD1102300937F48002130228023FDF71CFA7C48FCF7A7FB7B487B49FCF79BF8794802213C227E4BFBF7CFFF7648FCF7EEFA0346002B7FF479AF00F07ABD84
:404980007148FCF7D7FA7048FCF766FBBB79002B0AD1102300936C48002100228023FDF7F5F96948FCF780FB67486849FCF774F8654802210D226C4BFBF7A8FF624863496F
:4049C000FCF76AF860485A210D22684BFBF79EFF5D48FCF741FBBB79022B0AD1102300935948002110228023FDF7D0F95648FCF75BFB55485549FCF74FF8534802211D224B
:404A00005B4BFBF783FF50485049FCF745F84E485A211D22574BFBF779FF4B48FCF71CFBBB79002B0AD1102300934748002120228023FDF7ABF94448FCF736FB424843490F
:404A4000FCF72AF8404802212D224B4BFBF75EFF3D48FCF701FBBB79032B0AD1102300933948002130228023FDF790F93648FCF71BFB35483549FCF70FF8334802213C223F
:404A8000384BFBF743FF3048FCF762FA0346002B7FF479AF00F0EEBC2B48FCF74BFA2A48FCF7DAFA354B1B78012B14D126483449FBF7F2FF244822211A222E4BFBF726FF7E
:404AC00021482249FBF7E8FF1F4804212B222D4BFBF71CFFCFE02C4B1B78002B79D11A482749FBF7D9FF18480E211A22274BFBF70DFF15481549FBF7CFFF134804212B225E
:404B0000234BFBF703FF10481049FBF7C5FF0E4840212B221F4BFBF7F9FE1F4B1B78012B40F0A980BB79002B02D11A23FB7337E0BB79012B02D13223FB7331E0BB79022B77
:404B40002CD14023FB732BE0CC83FF1F38670300888403002085FF1FAC840300B084FF1F9C8403001C840300B48403008084FF1FC0840300C083FF1FCC8403001884FF1F1E
:404B8000C0B80000D8840300F084FF1FE88403009484FF1F3084FF1F2884FF1F3223FB73FB7B0C33DCB2FA7B1B230093B44811461B222346FBF786FFFB7B0C33DCB2FA7BD7
:404BC0001C230093AE4811461C222346FBF77AFF51E0AC4B1B78012B4DD1A948AA49FBF75BFFA74818211A22A84BFBF78FFEA448A749FBF751FFA24804212B22A54BFBF71D
:404C000085FE9F48A249FBF747FF9D4840212B22A14BFBF77BFEA14B1B78012B2BD1BB79002B02D11A23BB730DE0BB79012B02D13223BB7307E0BB79022B02D14023BB736A
:404C400001E03223BB73BB7B0C33DCB2BA7B1B2300938B4811461B222346FBF733FFBB7B0C33DCB2BA7B1C230093854811461C222346FBF727FF10230093814800213322E1
:404C80008023FDF783F87E48FCF70EFA7C488049FBF702FF3E2300937948202134222023FBF710FF3E2300937548402134224023FBF708FF3E230093714860213422602346
:404CC000FBF700FF6F4B1B78002B0BD1392300930E2301933F23029369480E2133221423FCF7A2FF674B1B78012B1FD13D23009363480E2135220E23FBF7E4FE3D23009347
:404D00005F480F2135220F23FBF7DCFE3D2300935B48112135221123FBF7D4FE3D2300935748122135221223FBF7CCFE5B4B1B78002B0AD152485649FBF7AEFE504825212F
:404D40003E22574BFBF7E2FD0DE0544B1B78012B09D14B484E49FBF79FFE494829213E22504BFBF7D3FD3B2300934548752136227523FBF7A7FE3B23009341486D213B22EA
:404D80007523FBF79FFE3B230093702301933E2302933B48702138226B23FCF745FF3848FCF7D6F80346002B7FF479AE62E33448FCF7C0F80E233B723148FCF74DF9314BC4
:404DC0001B78002B40F0A680374B1B681846374904F094FC0346002B0DD029482A49FBF75BFE3B7A1833DBB2254819461A22304BFBF78CFD23E02C4B1B6818462D4904F068
:404E00007DFC0346002B0DD01D481F49FBF744FE3B7A0933DBB21A4819461A22244BFBF775FD0CE016481849FBF736FE3B7A063BDBB2134819461A221D4BFBF767FD1048F9
:404E40001349FBF729FE0E4804212B221A4BFBF75DFD0B480E49FBF71FFE094840212B22164BFBF753FD0D4B1B78012B40F0DA80BB79002B24D13B7A1A337B7331E000BF34
:404E8000CC83FF1FF084FF1FC0B800000884FF1F386703007084FF1F1085FF1F2884FF1FF4840300F8840300A884FF1F00002041F884FF1F0000C8429484FF1F3084FF1F4F
:404EC000BB79012B03D13B7A32337B7309E0BB79022B03D13B7A40337B7302E03B7A32337B737B7B0C33DCB27A7B1B230093AB4811461B222346FBF7E5FD7B7B0C33DCB248
:404F00007A7B1C230093A54811461C222346FBF7D9FD87E0A24B1B78012B40F08380A14B1B681846A04904F0E9FB0346002B0DD09A489E49FBF7B0FD3B7A1833DBB29748FE
:404F400019461A229A4BFBF7E1FC23E0954B1B681846984904F0D2FB0346002B0DD08F489249FBF799FD3B7A0933DBB28B4819461A228F4BFBF7CAFC0CE088488B49FBF7F1
:404F80008BFD3B7A063BDBB2844819461A22884BFBF7BCFC81488849FBF77EFD7F4804212B22864BFBF7B2FC7C488349FBF774FD7A4840212B22824BFBF7A8FC814B1B782C
:404FC000012B2FD1BB79002B03D13B7A1A333B7310E0BB79012B03D13B7A32333B7309E0BB79022B03D13B7A9B013B7302E03B7A32333B733B7B0C33DCB23A7B1B230093E6
:40500000664811461B222346FBF75CFD3B7B0C33DCB23A7B1C230093604811461C222346FBF750FD102300935C48002133228023FCF7ACFE5948FCF737F858485E49FBF76F
:405040002BFD3E2300935548202134222023FBF739FD3E2300935148402134224023FBF731FD3E2300934D48602134226023FBF729FD4B4B1B78002B0BD1392300930E2363
:4050800001933F23029345480E2133221423FCF7CBFD434B1B78012B1FD13D2300933F480E2135220E23FBF70DFD3D2300933B480F2135220F23FBF705FD3D230093374863
:4050C000112135221123FBF7FDFC3D2300933348122135221223FBF7F5FC3A4B1B78002B0AD12E483449FBF7D7FC2C4825213E22354BFBF70BFC0DE0324B1B78012B09D18C
:4051000026482D49FBF7C8FC244829213E222F4BFBF7FCFB3B2300932048752136227523FBF7D0FC3B2300931C486D213B227523FBF7C8FC3B230093702301933E23029323
:405140001648702138226B23FCF76EFD1348FBF7FFFE0346002B7FF42DAE8BE10F48FBF7E9FE0E48FBF778FF194B1B78012B35D10A480E49FBF790FC084822211A22154B14
:40518000FBF7C4FB05480C49FBF786FC034804212B22114BFBF7BAFBC5E000BFCC83FF1FF084FF1F4C84FF1F00002041C0B800000884FF1F0000C842386703007084FF1FD6
:4051C0001085FF1F2884FF1FF4840300F88403001884FF1FC083FF1FD8840300A74B1B78002B4ED1A648A749FBF756FCA44818211A22A54BFBF78AFBA148A449FBF74CFCF5
:405200009F4804212B22A24BFBF780FB9C489F49FBF742FC9A4840212B229E4BFBF776FB9D4B1B78012B7ED1BB79002B02D11A23FB720DE0BB79012B02D13223FB7207E048
:40524000BB79022B02D14023FB7201E03223FB72FB7A0C33DCB2FA7A1B230093884811461B222346FBF72EFCFB7A0C33DCB2FA7A1C230093824811461C222346FBF722FCB7
:4052800051E07E4B1B78012B4DD17D487D49FBF703FC7B4818211A22804BFBF737FB78487A49FBF7F9FB764804212B227C4BFBF72DFB73487549FBF7EFFB714840212B223E
:4052C000784BFBF723FB744B1B78012B2BD1BB79002B02D11A23BB720DE0BB79012B02D13223BB7207E0BB79022B02D14023BB7201E03223BB72BB7A0C33DCB2BA7A1B23A1
:4053000000935F4811461B222346FBF7DBFBBB7A0C33DCB2BA7A1C230093594811461C222346FBF7CFFB102300935548002133228023FCF72BFD5248FBF7B6FE5048534900
:40534000FBF7AAFB3E2300934D48202134222023FBF7B8FB3E2300934948402134224023FBF7B0FB3E2300934548602134226023FBF7A8FB414B1B78002B0BD139230093CD
:405380000E2301933F2302933D480E2133221423FCF74AFC394B1B78012B1FD13D23009337480E2135220E23FBF78CFB3D23009333480F2135220F23FBF784FB3D23009358
:4053C0002F48112135221123FBF77CFB3D2300932B48122135221223FBF774FB2E4B1B78002B0AD126482949FBF756FB244825213E222D4BFBF78AFA0DE0274B1B78012B37
:4054000009D11F482149FBF747FB1D4829213E22264BFBF77BFA3B2300931948752136227523FBF74FFB3B23009315486D213B227523FBF747FB3B230093702301933E2314
:4054400002930F48702138226B23FCF7EDFB0C481749FBF721FB0A4849213E22154BFBF755FA0748FBF774FD0346002B7FF479AE00E000BF1437BD4690BD00BFF084FF1F22
:40548000CC83FF1FC0B800003084FF1F386703009484FF1FF884FF1F2884FF1F1085FF1F7084FF1F0884FF1FF4840300F8840300142D0300FC84030080B582B000AF7860DB
:4054C000074B1B78012B07D1786803F007F8002002F0DCFF02F0AEFF0837BD4680BD00BF0A85FF1F80B582B000AF0346FB71084B1B78012B09D1FB79012B01D102F0B0FAB5
:40550000FB79002B01D102F0EFFA0837BD4680BD0A85FF1F80B500AF02F08CFD0346012B0BD1104B1A78104B1A700E4B0B221A700E48FFF7C1FF002311E002F08BFD03467E
:40554000002B0BD1074B1A78074B1A70054B0D221A700648FFF7B0FF002300E00123184680BD00BF0B85FF1FB883FF1F20A1070080B582B000AF0346FB8000F073FD034695
:405580009AB21B4B1A801B4B1A88194B1B889A4228D0194B1B681846FFF78EFF144B1B884FF6F972934205D9002000F06DFD104B00221A800E4B1B881A46FB88013B9A4207
:4055C0000CDBFB88013B9BB29BB21BB2184600F05BFDFB88013B9AB2054B1A80044B1A88044B1A80034B1B8818460837BD4680BDD484FF1FCC84FF1F0C85FF1F80B582B061
:4056000000AF03460A46FB801346BB8000F02AFD03469AB21E4B1A801E4B1A881C4B1B889A422ED01C4B1B681846FFF745FF184B1B884FF6F972934205D9002000F024FD59
:40564000134B00221A80124B1B88FA889A4207D9FB881BB2184600F017FD0D4AFB8813800B4B1B88BA889A4207D8BB881BB2184600F00AFD064ABB881380054B1A88054BF0
:405680001A80044B1B8818460837BD4680BD00BFD484FF1FCC84FF1F0C85FF1F80B500AF01F086FB03461A46104B1A7001F08CFB03461A460E4B1A7001F092FB03461A4620
:4056C0000C4B1A7001F098FB03461A460A4B1A7002F07AFC03461A46084B1A7002F080FC03461A46064B1A7080BD00BF0985FF1F9284FF1FD684FF1F4184FF1F4084FF1FC4
:405700000885FF1F80B584B000AF0346FB71FB79FB60FB68FE2B01DDFF23FB60FB68002B01DC0023FB60FB68DBB2184602F014FCFB68DAB2044B1A7004480549FA6804F04A
:40574000D7FC1037BD4680BD2885FF1F2085FF1F0085030080B584B000AF0346FB71FB79FB60FB68632B01DD6423FB60FB68002B01DC0023FB60FB68DBB2184602F0E8F962
:40578000FB68DAB2044B1A7004480549FA6804F0AFFC1037BD4680BD9384FF1FB084FF1F0085030080B500AF4820012102F066F803461A460B4B1A600A4B1B68002B06D1DF
:4057C000002002F0E5F80346DAB2074B1A7002F0B3F8054B1B785BB2044805491A4604F087FC80BD6085FF1F8A84FF1FC083FF1F0485030080B500AF074801F0BFFA02468D
:40580000064B1A60044B1B881BB2054805491A4604F06EFC80BD00BF8C84FF1F6085FF1F8084FF1F0485030080B400AFFEE700BF80B584B000AF7860104B1A687B6813441C
:405840001A460F4BD31AB3F5007F09DC0B4B1B68FB600A4B1A687B681344084A136007E003F074FF02460C2313604FF0FF33FB60FB6818461037BD4680BD00BF4081FF1F82
:405880009085FF1F80B586B000AF224B7B61224B3B61204B7B6135E03B691B68FB603B695B68BB603B699B683B6000237B600CE0FB681A68BB681A60BB680433BB60FB6863
:4058C0000433FB607B6804337B607A683B689A42EED13B69DB683B6000237B6008E0BB6800221A60BB680433BB607B6804337B607A683B689A42F2D13B6910333B617B69E5
:40590000013B7B617B69002BC6D103F025FFFCF79BFBFEE701000000D487030080B582B000AF184B184A1A60184A184B1B6843F40073136000237B600FE07B68032B04D831
:40594000134A7B6852F8233000E0124B12497A6841F822307B6801337B607B682F2BECD90E4B1B78DAB20E4B1A700E4B0A4A1A6000F056FA00F0C4FC0B4B00221A600837AE
:40598000BD4680BD0CED00E00004FA0514ED00E000000000295800000080FF1FBC7600400481FF1F08ED00E00081FF1F80B582B000AF78603960786800213A6803F0FDFE2A
:4059C0000837BD4680BD00BF80B584B000AFF860B9607A60F868B9687A6803F0E3FE1037BD4680BD80B483B000AF0346FB71FEE780B487B000AF7860396000233B6100232B
:405A00007B6127E07B699B007A6813441B68BB60BB68FB73BB6823F0FF03BB6014E03B695B003A6813441B781A46BB68134419463B695B003A6813445B780B703B69013373
:405A40003B61FB7B013BFB73FB7B002BE7D17B6901337B617B69282BD4D91C37BD465DF8047B704780B582B000AF514B00221A80504B50221A70504B00221A804F4B5822E8
:405A80001A704F4B04221A804E4B19221A704E4B95221A804D4B18221A704D4B40F22B121A804C4B18221A704B4B40F2DF121A804A4B19221A704A4B41F2BF221A80494BDE
:405AC00019221A70484B01221A80484B1B221A70474848490822FFF777FF474B02221A704FF0402308221A70444B04221A70444B444A1278D2B21A70434B40F619721A800E
:405B0000424B42F251221A800023FB7019237B6014E0FB785B00DAB23D4B1B78DBB203F00103DBB21343DBB203F00303FB704FF4F07000F0B9FB7B68013B7B607B68002BE2
:405B400002D0FB78032BE4D17B68002B02D10320FFF748FF2F4B4FF480721A802D4B07221A702D4B00221A702C4B48221A70294B00221A702A4B02221A702A4B04221A7051
:405B8000294B1B78284BFF221A70284A274B1B78DBB243F00303DBB21370254A244B1B78DBB263F07F03DBB213700837BD4680BD8040004082400040844000408640004005
:405BC000884000408A4000408C4000408E40004090400040924000409440004096400040984000409A4000409C4000409E40004000410040480D004800430040004200409E
:405C0000A146004089010049224200402042004025420040044000400640004008400040014000400B400040A2430040A1430040A043004080B582B000AF2D4B1B78FB71E6
:405C40002C4B1B78BB712C4B1B787B712B4AFB7903F00703DBB21370294AFB791B09DBB21370244ABB7943F00303DBB21370224A7B7943F00303DBB21370224B4CF208029E
:405C80001A80214B80221A70204B80221A70204B80221A701F4B20221A701F4B40221A701E4B40221A701E4B04221A701D4B20221A701D4B08221A701C4B20221A701C4BA0
:405CC0004FF481721A801B4B48221A701A4B01221A700A2000F02EFD074A7B791370054ABB791370154B44221A700837BD4680BDCF010049F8460040F94600406E5800406A
:405D00006F5800402C510040725800400159004009590040985A0040D85A0040005B0040205B0040235B0040285B00402B5B0040465B0040585B00405B5B00407658004040
:405D400080B483B000AF0346FB71FB79022B24D8FA79FB791344FB71FB79124A52F82330FA79104951F822201178FA790E48825C0A43D2B21A70FB790133FB71FB79094AE7
:405D800052F82330FA79074951F822201178FA790548825C0A43D2B21A700C37BD465DF8047B70470C8503002485030080B483B000AF0346FB71FB79022B28D8FA79FB7912
:405DC0001344FB71FB79144A52F82330FA79124951F822201178FA791048825CD243D2B20A40D2B21A70FB790133FB71FB790A4A52F82330FA79084951F822201178FA7931
:405E00000648825CD243D2B20A40D2B21A700C37BD465DF8047B70470C8503002485030080B586B000AF72B6564B60221A70FFF719FE554A544B1B78DBB243F00403DBB213
:405E400013700023FB7513E0FA7D13465B0013445B004E4A13443B613B691A683B699B889BB210461946FFF7A1FDFB7D0133FB75FB7D062BE8D90023FB751CE0FA7D134649
:405E80009B0013445B00424A1344FB60FB681B68BB60FB685B687B60FB681A7A5B7A1B0213437B807B88B86879681A46FFF78CFDFB7D0133FB75FB7D002BDFD04FF09040BB
:405EC0003449FFF795FD344B0A221A7033480421FFF76CFD32480421FFF768FD31480421FFF764FD304A304B1B78DBB243F00203DBB213702D4A2D4B1B78DBB243F00203D6
:405F0000DBB213702A4A2A4B1B78DBB243F04003DBB21370274A274B1B78DBB243F01003DBB21370244825490822FFF74DFD244824490822FFF748FD234824490A22FFF7ED
:405F400043FD234823490A22FFF73EFD224823490822FFF739FD224822490822FFF734FD214A214B1B78DBB243F00803DBB21370FFF760FE1D480E490E22FFF725FD18376F
:405F8000BD4680BD00480040E84600403885030064850300A4000048835800400076004008760040107600400350014013500140A0430040C243004002510040100D004826
:405FC000C2510040180D0048F0510040200D0048105100402C0D004822510040380D004832510040400D004822430040B043004080B400AFBD465DF8047B704780B582B081
:4060000000AF0F2000F06AF800F058F800F06BF90346FB71074A074B1B78DBB243F01003DBB21370FB79184600F061F90837BD4680BD00BF9464004080B500AF00F0AEF8C2
:406040004FF4004000F0D6F8054B1B78002B04D1FFF7CEFF024B01221A70FFF7CFFF80BD4883FF1F80B582B000AF00F0D3F80346FB80FB88A3F500439BB2BB80BB881BB2CA
:4060800018460837BD4680BD80B584B000AF0346FB80B7F90630002B04DBFB88A3F50043FB8103E0FB88A3F50043FB81FB89184600F0A0F81037BD4680BD00BF80B400AF0D
:4060C000054B1B78DBB203F00F03DBB21846BD465DF8047B704700BF6464004080B483B000AF0346FB71044AFB7913700C37BD465DF8047B704700BF8464004080B582B0BC
:4061000000AF1C4B1B78DBB223F00703FB71194AFB791370174B1B78DBB223F00303FB71144AFB79137000F0B1F84FF4004000F08DF84FF4004000F05DF8002000F03EF84B
:4061400000F04CF84FF4004000F090F800F0CBF80346BB71084A084B1B78DBB243F01003DBB21370BB79184600F0C1F80837BD4680BD00BF746400409665004080B400AFFE
:40618000054A054B1B78DBB263F07F03DBB21370BD465DF8047B70477464004080B500AF054B1B78002B04D1FFF7A8FF024B01221A70FFF7E3FF80BD4983FF1F80B483B0D1
:4061C00000AF0346FB71044AFB7913700C37BD465DF8047B704700BF8665004080B400AF034B1B78DBB21846BD465DF8047B70476665004080B483B000AF0346FB80044ACB
:40620000FB8813800C37BD465DF8047B704700BF0A68004080B400AF044B1B78044B1B889BB21846BD465DF8047B7047056400408A68004080B400AF034B1B889BB21846BC
:40624000BD465DF8047B70478A68004080B483B000AF0346FB80044AFB8813800C37BD465DF8047B704700BF4A68004080B483B000AF0346FB80044AFB8813800C37BD461A
:406280005DF8047B704700BF6A68004080B500AF01E0FFF7CFFFFFF7A1FF034603F04003002BF6D180BD00BF142816D902B4012114381049097811F0C001890904B40E4A69
:4062C000515C04BC00BF00BF00BF8841FDD500BF00BF02BC704700BF00BF70F10400FCD570470B050709EFF3108072B6704780F31088704700480040E2620000AFF30080DA
:4063000080B483B000AF134B7F221A70124B80221A707F23FB710CE0FB79DB0003F1804303F5F043FA79013AD2B21A70FB79013BFB71FB79002BEFD1FB79DB0003F18043CD
:4063400003F5F04300221A700C37BD465DF8047B704700BF4581FF1F4481FF1F80B485B000AF03460A46FB711346BB710123FB60FB79172B2FD8BB79002B0ED0FB791A0145
:40638000184B1344FA791101164A0A441278D2B242F02002D2B21A700DE0FB791A01114B1344FA7911010F4A0A441278D2B222F02002D2B21A70FB791A010A4B1344FA7927
:4063C0001101084A0A441278D2B242F00102D2B21A700023FB60FB6818461437BD465DF8047B70471070004080B485B000AF03460A46FB711346BB710123FB60FB79172BEB
:4064000018D8FB791A010F4B13441B78DBB223F00E03FB72FB791A010A4B1344BA7902F00702D2B25200D1B2FA7A0A43D2B21A700023FB60FB6818461437BD465DF8047B89
:40644000704700BF1070004080B485B000AF0346FB710B46BB8013467B800123FB60BB8841F6FF72934202D14FF40053BB807B8841F6FF72934202D14FF400537B80FB79FE
:40648000172B17D8FB79DB0003F1804303F5EC430433BB60BB68BA881A80FB79DB0003F1804303F5EC430633BB60BB687A881A800023FB60FB6818461437BD465DF8047B8C
:4064C000704700BF80B485B000AF03460A46FB711346BB710123FB60FB79172B07D8FB791A01064B1344BA795A720023FB60FB6818461437BD465DF8047B70471070004062
:4065000090B484B000AF0446084611461A462346FB710346BB710B467B7113463B710123FB60FB79172B34D8FB79DB0003F1804303F5EC43BA7902F07F02D1B27A79D201FC
:40654000D2B20A43D2B21A70FB79DB0003F1804303F5EC433A7E1201D1B23A7902F00F02D2B20A43D2B25A70FB79DB0003F1804303F5EC433A7F02F00F02D2B29A70FB7901
:40658000DB0003F1804303F5EC430022DA700023FB60FB6818461037BD4690BC704700BF80B582B000AFFF23FB71FFF79CFE0346BB71104B1B78182B12D90F4B1B78FB714D
:4065C0000C4B1B78013BDAB20A4B1A70FB79DB0003F1804303F5F0431B78DAB2064B1A70BB791846FFF783FEFB7918460837BD4680BD00BF4481FF1F4581FF1F90B484B087
:4066000000AF0446084611461A462346FB710346BB800B46BB711346FB700123FB60FB795BB2002B23DBBB8823F47F6323F00F039BB2002B1BD1FB79DB0003F1804303F5D6
:40664000F043BB60BB68BA881A80FB79DB0003F1804303F5F043BA799A70FB79DB0003F1804303F5F043FA78DA700023FB60FB6818461037BD4690BC704700BF80B485B0BE
:4066800000AF0346FB710B46BB8013467B800123FB60FB795BB2002B17DBFB79DB0003F1804303F5F0430433BB60BB68BA881A80FB79DB0003F1804303F5F0430633BB6072
:4066C000BB687A881A800023FB60FB6818461437BD465DF8047B704780B483B000AF0346FB7101BE0C37BD465DF8047B704700BF80B582B000AF786008E00C4B1B6818469B
:40670000FFF7D2FD7B68A3F500437B607B68B3F5004FF2D8064B1B687A6802FB03F31846FFF7C2FD0837BD4680BD00BF5881FF1F5081FF1F80B582B000AF0346FB80FB881A
:40674000044A127802FB03F31846FFF7ADFD0837BD4680BD5481FF1F80B584B000AF03463960FB710F4B1B68FB60FB791F2B02D90020FFF7B1FFFB7903F01F0310339B007A
:40678000FA6813441B68BB60FB7903F01F0310339B00FA6813443A681A60BB6818461037BD4680BD08ED00E080B582B000AF03460A46FB711346BB71BB79072B02D9002068
:4067C000FFF78AFFFB791F2B02D90020FFF784FFFB7903F01F0303F1604303F56443BA795201D2B21A700837BD4680BD80B500AF00F028F9022000F05DF9042000F07AF932
:4068000000F0E0F9FFF7CCFE03461A46084B1A70FFF7C6FE03461A46064B1A700648642100F038F805487D2100F06CF880BD00BF4D83FF1F4E83FF1F70850300D4850300AC
:4068400080B500AF00F01CF900F0C2F9074B1B7818460121FFF782FD054B1B7818460121FFF77CFD002000F065F980BD4B83FF1F4C83FF1F80B500AF054B1B78002B04D18D
:40688000FFF7B4FF024B01221A70FFF7D9FF80BD4A83FF1F80B582B000AF78600B467B807B681B0C9BB2012001211A464FF4804300F060F803461A46104B1A70104B197843
:4068C0000F4B1B787A88084611461A460123FFF795FE0B4B1A787B689BB21046194645F68332FFF7CBFE054B1A78054B1B7810461946FFF7E7FD0837BD4680BD4B83FF1FBC
:406900004D83FF1F80B582B000AF78600B467B807B681B0C9BB2012001211A464FF4804300F05CF803461A46104B1A70104B19780F4B1B787A88084611461A460123FFF763
:406940005DFE0B4B1A787B689BB21046194645F68332FFF793FE054B1A78054B1B7810461946FFF7AFFD0837BD4680BD4C83FF1F4E83FF1F90B585B002AF044608461146E7
:406980001A462346FB710346BB710B46BB8013467B80114B01221A700F4B1878F979BA7900230093002301930023FFF7A9FD0A4B1978BA887B88084611461A46FFF744FD22
:4069C000054B1B7818460221FFF70EFD024B1B7818460C37BD4690BD5C81FF1F90B585B002AF0446084611461A462346FB710346BB710B46BB8013467B80114B02221A70B8
:406A00000F4B1878F979BA7900230093002301930023FFF775FD0A4B1978BA887B88084611461A46FFF710FD054B1B7818460221FFF7DAFC024B1B7818460C37BD4690BD9B
:406A40005D81FF1F80B500AF0A4B00221A700A4B00221A70094A094B1B78DBB243F00803DBB21370002000F045F8022000F022F880BD00BF2C5800402D5800409F5A0040E8
:406A800080B400AF094A094B1B78DBB243F00803DBB21370064A064B1B78DBB243F00803DBB21370BD465DF8047B7047A8430040B843004080B483B000AF0346FB710C4ABA
:406AC0000B4B1B78DBB223F00203DBB213700849074B1B78DAB2FB7903F00203DBB21343DBB20B700C37BD465DF8047B704700BF2C58004080B582B000AF0346FB710C4A6A
:406B00000B4B1B78DBB223F00C03DBB213700849074B1B78DAB2FB7903F00C03DBB21343DBB20B7000F016F80837BD4680BD00BF2C58004080B483B000AF0346FB71044A71
:406B4000FB7913700C37BD465DF8047B704700BF835B004080B483B000AF0B4B1B78DBB203F00C039B08DBB20633FB71074AFB7903F1924303F59C731B78DBB213700C3792
:406B8000BD465DF8047B70472C5800400B46004080B400AF094A094B1B78DBB243F00403DBB21370064A064B1B78DBB243F00403DBB21370BD465DF8047B7047A243004040
:406BC000B243004080B500AF022000F025F880BD80B400AF0D4A0D4B1B78DBB243F06003DBB213700A4A0A4B1B78DBB243F00803DBB21370074A074B1B78DBB243F00803A0
:406C0000DBB21370BD465DF8047B704777580040A4430040B443004080B483B000AF0346FB710C4A0B4B1B78DBB223F00303DBB213700849074B1B78DAB2FB7903F003035A
:406C4000DBB21343DBB20B700C37BD465DF8047B704700BF5E58004080B582B000AF4FF0FF337B6001F020FD01F09EFD0346002B0AD1012001F066FD0346072B01D107236C
:406C80007B6001F0C5FD01E004237B607B6818460837BD4680BD00BF80B584B000AF78601D4B1B78DBB203F00203002B28D11A4B1B78DBB29B08DBB2002B1ED107F108037E
:406CC0001846022101F012FD0346022B11D13B7A012B04D17B7A9AB27B681A8006E07B7A9BB25B429BB29AB27B681A800023FB6008E04FF0FF33FB6004E00723FB6001E0F0
:406D00001023FB60FB68072B01D001F081FDFB6818461037BD4680BD2247004080B584B000AF7860FFF798FFB860BB68072B1DD14FF4FA53FB8116E0BB68072B06D00E4BA1
:406D40001B78DBB203F00203002B0FD1BB68072B03D17868FFF7A0FFB8600A20FFF7EAFCFB890A3BFB81FB89002BE5D1BB6818461037BD4680BD00BF2247004080B584B0B1
:406D800000AF78600223FB720AE07868FFF7C6FFF860FB68002B00D005E0FB7A013BFB72FB7A002BF1D1FB6818461037BD4680BD80B400AF034B1B78DBB21846BD465DF8CB
:406DC000047B70476964004080B400AF034B1B78DBB21846BD465DF8047B70476B65004080B400AF034B1B78DBB21846BD465DF8047B70476B64004080B400AF034B1B78F3
:406E0000DBB21846BD465DF8047B70476764004080B400AF034B1B78DBB21846BD465DF8047B70476864004080B500AF054B1B78002B04D100F008F8024B01221A7000F0E4
:406E400023F880BD4F83FF1F80B500AF00200721FFF7AAFC00200949FFF77EFC084A084B1B78DBB243F00603DBB213700C2000F071F8044B00221A8080BD00BFF97000001A
:406E8000095900406C85FF1F80B582B000AFFFF72AFA0346FB71264A254B1B78DBB243F00203DBB21370234A224B1B78DBB243F00203DBB21370204B1B78BB71BB7943F021
:406EC0000203BB71BB7943F00103BB711A4ABB7913701A4B18221A70194A194B1B78DBB243F04003DBB21370154A154B1B78DBB223F00303DBB21370124BC8221A70124BE3
:406F000002221A70114A114B1B78DBB243F00803DBB213700A20FFF70DFC0D4B01221A60FB791846FFF7E3F90837BD4680BD00BFAB430040BB4300400B5900400E590040C7
:406F40000D59004008590040164600402F5B004080E200E080B584B000AF0346FB71FB790A2B07D00C2B02D0082B06D008E0C223FB730BE08223FB7308E04223FB7305E0EA
:406F8000C223FB730020FFF7A7FB00BF044AFB7B1370FB79184600F02FF81037BD4680BD0A59004080B400AF054A054B1B78DBB243F00103DBB21370BD465DF8047B704736
:406FC0000859004080B483B000AF094B1B88FB80084B1B889BB29BB2FA88D31A9BB29BB21BB218460C37BD465DF8047B704700BFA25B00406685FF1F80B584B000AF03466D
:40700000FB71FB790A2B08D00C2B02D0082B08D00BE04FF48053FB600DE04FF48063FB6009E04FF48073FB6005E00023FB600020FFF752FB00BF0C4B00221A80FB6842F2DC
:40704000107202FB03F303F58063002B01DA03F2FF73DB121A46054B1A60054B00221A801037BD4680BD00BF6485FF1F6885FF1F6685FF1F90B585B000AF0346FB801A4B7D
:407080001B889BB2002B09D0174B1B889BB21AB213469B0013445B00FB6002E0134B1B68FB60134B1B889BB2FA889BB2D31A9BB2FB80B7F90630184602F02EF903461846C9
:4070C0000C4902F07DF903461C46F86802F024F903462046194602F027FA0346BB60BB6818461437BD4690BD6485FF1F6885FF1F6C85FF1F0000204180B400AFBD465DF85B
:40710000047B704780B500AF054B1B78002B04D100F008F8024B01221A7000F023F880BD5083FF1F80B500AF01200721FFF73CFB01200949FFF710FB084A084B1B78DBB29C
:4071400043F00603DBB213700C2000F071F8044B00221A8080BD00BFD5730000015900407685FF1F80B582B000AFFFF7BCF80346FB71264A254B1B78DBB243F00103DBB203
:407180001370234A224B1B78DBB243F00103DBB21370204B1B78BB71BB7943F00203BB71BB7943F00103BB711A4ABB7913701A4B18221A70194A194B1B78DBB243F0400311
:4071C000DBB21370154A154B1B78DBB223F00303DBB21370124BC8221A70124B02221A70114A114B1B78DBB243F00803DBB213700A20FFF79FFA0D4B02221A60FB791846F5
:40720000FFF775F80837BD4680BD00BFAB430040BB4300400359004006590040055900400059004014460040275B004080E200E080B584B000AF0346FB71FB790A2B07D0E4
