:400000000080002011000000253C0000253C000080B500AF024A034B1B68136003F030FEBC760040FA46004010B5054C237833B9044B13B10448AFF300800123237010BD24
:400040001882FF1F00000000C09C0000084B10B51BB108480849AFF300800848036803B910BD074B002BFBD0BDE81040184700BF00000000C09C00001C82FF1F0881FF1F67
:400080000000000090B484B000AF7860084611461A460346FB700B46BB7013467B70BC783B7E2344DCB22346013BDCB27B6893F839207B6893F83B30FA73BB73BB787B7357
:4000C00023463B73BA7B7B7B9A420DD3FA7B3B7B9A4201D8012314E07A7B3B7B9A4201D901230EE000230CE0FA7B3B7B9A4207D87A7B3B7B9A4201D9012302E0002300E038
:400100000023002B01D1002332E0FC787B782344DCB22346013BDCB27B6893F838207B6893F83A30FA72BB72FB787B7223463B72BA7A7B7A9A420DD3FA7A3B7A9A4201D86B
:40014000012314E07A7A3B7A9A4201D901230EE000230CE0FA7A3B7A9A4207D87A7A3B7A9A4201D9012302E0002300E0002300BF18461037BD4690BC704700BF90B585B0D5
:4001800000AFF860B9601346FB71BB689C68FB79F86801211A460023A047034618461437BD4690BD90B585B000AFF860B9601346FB71BB689C68FB79F86803211A46002390
:4001C000A0471437BD4690BD90B583B000AF786039603B689C687868042100220023A0470C37BD4690BD00BF90B583B000AF786039603B689C687868042101220023A0474A
:400200000C37BD4690BD00BF90B585B000AFF860B9601346FB71BB689C68FB79F86802211A460023A0471437BD4690BD90B585B000AFF860B9601346FB71BB689C68FB79F0
:40024000F86805211A460023A047034618461437BD4690BD90B585B000AFF860B9603B601346FB71BB689C68FB79F86806211A463B68A047034618461437BD4690BD00BF45
:4002800080B586B000AFF860B9607A600023FB757B681B78BB75FB7D002B10D1BB7DFF2B0AD0BB7DF868B9681A46FFF7BFFF0346002B63D1002365E00123FB755EE0BB7DF9
:4002C000FF2B0AD1BB7DF868B9681A46FFF7AEFF0346002B50D1002354E0BB7DFE2B02D100BF01234EE0BB7DEF2B45D8BB7DDF2B09D9BB7D03F00F03DBB2F868B9681A46CE
:40030000FFF782FF38E0BB7DCF2B09D9BB7D03F00F03DBB2F868B9681A46FFF743FF2BE0BB7DBF2B1CD9F868B968FFF74DFFBB7D03F00F03BB75BB7D1B01BB75BB7D0233F4
:40034000BB75BB7D9BB2184601F050FDF868B968FFF74AFFBB7D9BB2184601F047FD0BE0BB7DBD2B08D8BB7D5BB2002B04DBBB7D9BB2184601F03AFD0023FB757B68013365
:400380007B6085E718461837BD4680BD80B485B000AFF8607B600B46FB721346BB72FB7A062B11D801A252F823F000BFC9030000C9030000C9030000C9030000C903000030
:4003C000C9030000C9030000012318461437BD465DF8047B704700BF80B483B000AF78600B46FB70FB787A6813447B607B681B7818460C37BD465DF8047B704780B485B00C
:4004000000AF78600B46FB70FB787A6813447B607B681B78FB817B6801337B60FB891B02FB817B681B789AB2FB891344FB81FB8918461437BD465DF8047B704780B582B0B6
:4004400000AF786078680021FFF7C6FF034618460837BD4680BD00BF80B582B000AF78607868FFF7EBFF0346012B05D0022B05D0002B05D1062304E0032302E0062300E03B
:40048000032318460837BD4680BD00BF80B582B000AF786078680521FFF79EFF034618460837BD4680BD00BF80B582B000AF786078680621FFF7A2FF034618460837BD4699
:4004C00080BD00BF80B582B000AF786078680821FFF794FF034618460837BD4680BD00BF80B582B000AF786078680A21FFF774FF034618460837BD4680BD00BF80B582B0ED
:4005000000AF786078680B21FFF766FF034618460837BD4680BD00BF80B582B000AF786078680C21FFF758FF0346DBB25BB218460837BD4680BD00BF80B582B000AF786033
:4005400078680D21FFF748FF0346DBB25BB218460837BD4680BD00BF80B582B000AF786078680E21FFF738FF0346DBB25BB218460837BD4680BD00BF80B582B000AF78601A
:4005800078680F21FFF728FF0346DBB25BB218460837BD4680BD00BF80B582B000AF786078681021FFF718FF0346DBB25BB218460837BD4680BD00BF80B582B000AF786016
:4005C00039607868FFF748FF03461A463B68134418460837BD4680BD80B584B000AF786039607B689B681846FFF728FF0346002B01D0022B1BD13B681A787B68DA773B6871
:400600005A787B6883F820203B6803331B78DAB27B681A773B6804331B78DAB27B685A773B6805331B78DAB27B689A7730E03B681B78FB73FB7B03F00F03DAB27B689A7794
:400640007B689B7FDBB2023BDBB2DAB27B689A77FB7B1B09FB73FA7B7B685A773B685B78FB73FB7B03F00F03DAB27B6883F82020FB7B1B09FB737B68FA7BDA773B689B7885
:40068000FB73FB7B1B09FB73FA7B7B681A7700BF1037BD4680BD00BF80B483B000AF78607B6800221A777B680022DA777B68002283F820207B6800225A777B6800229A7750
:4006C0000C37BD465DF8047B704700BF80B586B000AF78600B46FB707B689B687B617B689B681846FFF7AAFE03463B747B689B681846FFF7B1FE0346FB73FF237B743B7CB8
:40070000012B01D10F237B747B689B681846FFF7E7FE0346FB747B689B681846FFF7EEFE0346BB737B689B681846FFF7CBFE0346BB81FB78602B09D9BB89002B06D0BB8935
:400740007A6913447B616123FB7416E07B689B681846FFF7A9FE0346BB81FB78402B09D9BB89002B06D0BB897A6913447B614123FB7402E07B6911337B61FA78BB7B9A4278
:4007800004D97868FFF788FF002332E0FB7CBB74BA7CBB7B9A4228D87B691B78FF2B03D17B6901337B6117E0BA7CFB789A4205D178687969FFF710FF7B691AE07B69023363
:4007C0001A787B7C1340DBB21A467B6913447B61FB7B7A6913447B61BA7CBB7B9A4200D103E0BB7C0133BB74D6E77868FFF754FF002318461837BD4680BD00BF90B589B0C4
:4008000002AF7860084611461A460346FB700B46BB7013467B707B7878681946FFF756FFF860FB68002B01D1002369E07B689B681846F968FFF7C0FE78617B68DB7FFB7239
:400840007B6893F82030BB727B685B7FDAB2FB781344FB707B689B7FDBB2BA78D31ABB70BB78013BBB70BA78BB7AD31ADBB20133DAB2F978FC7ABB7A009378682346FFF712
:4008800001FC0346002B02D17B681B7F38E0FB7A0733FB72FB7ADB08FB72BB783B743A7CBB7AD31A3B743B7C01333B740023BB7420E0FB787B740023FB7411E07B691B78CD
:4008C000797C3A7C00937868002300F07FFB7B6901337B617B7C08337B74FB7C0133FB74FA7CFB7A9A42E9D33B7C01333B74BB7C0133BB74BA7CBB7A9A42DAD37B681B7FF6
:400900005BB218461C37BD4690BD00BF80B586B000AFF8607B600B46FB721346BB720023FB75FB685B6AF868984703461A46BB7A1344BB7213E07B681B78F97ABA7AF8688D
:40094000FFF75CFF0346BB75BA7DFB7A1344FB72BA7DFB7D1344FB757B6801337B607B681B78002BE7D1FB7D18461837BD4680BD80B584B000AF78607B689B68002B00D145
:400980006CE07B6893F82830002B14D17B689B681846FFF77BFD0346DAB27B6883F829207B689B681846FFF7B7FD03461A467B6883F82A202DE07B6893F82830012B14D1C4
:4009C0007B689B681846FFF7D7FD03461A467B6883F829207B689B681846FFF7DDFD03461A467B6883F82A2013E07B689B681846FFF7A2FD03461A467B6883F829207B6835
:400A00009B681846FFF7A8FD03461A467B6883F82A207B6893F829305BB29AB27B6893F82A305BB29BB2D31A9BB2FB817B6893F82B30402B0DD0FB89DBB2FB817B6893F865
:400A40002B309BB2FA8902FB03F3FB81FB899B09FB81FB89DAB27B6883F82C201037BD4680BD00BF80B483B000AF7860002318460C37BD465DF8047B704700BF80B483B0D2
:400A800000AF78607B68034A5A620C37BD465DF8047B7047650A000080B582B000AF786039607B689A683B689A4208D07B683A689A607868FFF75CFF7868FFF7DFFF08371D
:400AC000BD4680BD80B584B000AF7860084611461A460346FB700B46BB7013467B7000237B72FA787B789A4204D9FA787B78D31A7B7303E07A78FB78D31A7B73BA783B7ED1
:400B00009A4204D9BA783B7ED31A3B7303E03A7EBB78D31A3B733A7B7B7B9A4213D901237B727B7B3B723B7B7B733B7A3B73FB783B72BB78FB703B7ABB707B783B723B7EE8
:400B40007B703B7A3B76FA787B789A420BD9FB783B727B78FB703B7A7B70BB783B723B7EBB703B7A3B767B7B5B08DBB2FB723A7EBB789A4202D90123BB7201E0FF23BB7241
:400B8000BB78BB737B78FF2B02D17B78013B7B70FB78FB7326E07B7A002B07D1FA7BBB7B786811461A4600F0FFF906E0BA7BFB7B786811461A4600F0F7F9FA7A3B7BD31AA2
:400BC000DBB2FB7297F90B30002B08DABA7ABB7B1344BB73FA7A7B7B1344DBB2FB72FB7B0133FB73FA7B7B789A42D4D91037BD4680BD00BF90B585B000AFF860B9603B60F5
:400C00001346FB71BB681C68FB79F868B9681A463B68A047034618461437BD4690BD00BF80B584B000AF786039607B685B6B02209847786839680A220023FFF7DBFF03464C
:400C4000FB737B685B6B032098477B685B6B00209847FB7B18461037BD4680BD80B582B000AF786039607B685B6B022098477B685B6B012098477868396814220023FFF7AE
:400C8000B9FF7B683833786839681722FFF7B2FF7B685B6B002098470837BD4680BD00BF80B584B000AF786039607B685B6B022098477B685B6B0120984778683968152253
:400CC0000023FFF797FF0346FB73FB7B002B06D07B683833786839681722FFF78BFF7B685B6B00209847FB7B18461037BD4680BD80B584B000AFF860B9601346FB71FB1D26
:400D0000F868B9680F22FFF775FF034618461037BD4680BD80B586B000AFF860B96011461A460B46FB711346BB71FB682D337B617B69FA791A707B69BA795A70F868B96803
:400D400032227B69FFF756FF1837BD4680BD00BF80B586B000AFF860B96011461A460B46FB711346BB71FB682D337B617B69FA791A707B69BA795A707B6997F82020DA70C0
:400D80007B6997F824209A70F868B9683B227B69FFF730FF1837BD4680BD00BF80B584B000AF7860396007F10F03786839684622FFF720FFFB7B18461037BD4680BD00BF92
:400DC00080B584B000AF7860396007F10F03786839684722FFF70EFFFB7B18461037BD4680BD00BF80B582B000AF786039607868396848220023FFF7FDFE034618460837ED
:400E0000BD4680BD80B582B000AF78607B685B6878681946FFF7C2FF03461A467B681A707B685B6878681946FFF7CAFF03461A467B685A707B685B6878681946FFF7D2FF2C
:400E400003461A467B68DA747B685A687B683833786811461722FFF7CDFE0837BD4680BD80B582B000AF78607B6800229A607B680022DA607B6800225A747B6801221A7462
:400E80007B6822229A747B6800229A617868012100F0B8F87868FFF7F1FD7B68012283F828207B68002283F829207B68002283F82A207B68402283F82B207B68002283F8B0
:400EC0002C207B68024A5A630837BD4680BD00BFD91D000080B582B000AF78607B685B6878681946FFF79CFE0346002B01D1002303E07868FFF786FF012318460837BD46B8
:400F000080BD00BF80B584B000AFF860B9607A60F868FFF7A5FFFB68BA685A60FB685B687A689A60F868FFF7D5FF034618461037BD4680BD80B582B000AF78607B685B682B
:400F400078681946FFF78AFE0837BD4680BD00BF80B582B000AF78607B689B69002B03D07B689B69786898477B685B6878681946FFF796FE034618460837BD4680BD00BFA9
:400F800080B582B000AF78600B46FB707B685A68FB78786811461A46FFF7AAFE034618460837BD4680BD00BF80B582B000AF78600B46FB701346BB707B685968FA78BB78DE
:400FC0007868FFF7A7FE0837BD4680BD90B585B002AF7860084611461A460346FB700B46BB7013467B707B685968FA78BC787B7800933B7E019378682346FFF7A9FE0C3735
:40100000BD4690BD80B483B000AF78600B46FB707B68FA7883F831200C37BD465DF8047B704700BF80B485B000AF78607B68DB7CFB73FB7B282B01D1FF2306E07B68DB7C90
:40104000022B01D1032300E0012318461437BD465DF8047B704700BF80B582B000AF78607B68DB7C302B08D17B68FF2283F831207B68FF2283F8322007E07868FFF7D2FFC6
:40108000034678681946FFF7BDFF0837BD4680BD80B483B000AF7860002318460C37BD465DF8047B704700BF80B582B000AF78607868FFF7EDFF034678681946FFF7A2FFA9
:4010C0000837BD4680BD00BF80B483B000AF78607B6800229A707B681A787B68DA707B68DB78013BDAB27B68DA707B6800221A710C37BD465DF8047B704700BF90B482B052
:4011000000AF78607B689A787B681B781344DAB27B689A707B689A787B685B789A4201D3002318E07B681B790133DAB27B681A717B68DC787B681B782344DCB27B685B787A
:40114000A34204D87B685C782346013BDCB27B682246DA70012318460837BD4690BC704780B485B000AF78607B689B68FB60FB68BB607B685B791A46BB681344BB60FB68AA
:401180005A1CFA6000221A70FA68BB689A42F6D11437BD465DF8047B704700BF80B485B000AF78600B46FB701346BB707B68DB78FA789A4294BF01230023DBB2FB737B68C7
:4011C0009B78BA789A422CBF01230023DBB2BB73FA78BB789A428CBF01230023DBB27B73FB7B3B73FA7BBB7B1340FB73BA7B7B7B1340BB737A7B3B7B13407B73FA7BBB7B80
:401200001343FB73FA7B7B7B1343FB73FB7B03F00103DBB218461437BD465DF8047B704780B483B000AF786039603B6800221A707B689A783B685A707B685A793B689A70EF
:401240003B689B78013BDAB23B689A707B68DA783B68DA700C37BD465DF8047B704700BF80B584B000AF786039603B685B78FB73FB7BBB733B68DB78032B13D801A252F884
:4012800023F000BFA512000095120000A51200009D120000BB7B0833BB7303E0FB7B083BFB7300BFFA7BBB7B786811461A46FFF775FF034618461037BD4680BD80B584B0ED
:4012C00000AFF860B9607A60FB685A79FB689B68B8687968FEF7BEFF034618461037BD4680BD00BF90B484B000AF7860084611461A460346FB700B46BB7013467B707B685D
:401300009B68FB607B689B78BA78D31ABB700124BB7803F00703BB702246BB7802FA03F3DCB2FB78FA681344FB607B78002B06D0FB681B782343DAB2FB681A7007E0E34317
:40134000DCB2FB681B782340DAB2FB681A701037BD4690BC704700BF80B582B000AF786039603B685A787B689B789A4200D216E03B685A787B68DB789A4200D90FE03B6879
:401380001A787B685B799A4200D308E03B6819783B685A783B681B797868FFF7A3FF0837BD4680BD90B585B000AF786039603B689C780023FB730023BB733B68DB78032B1F
:4013C0001AD801A252F823F0D9130000E1130000E9130000F1130000FB7B0133FB730BE0BB7B0133BB7307E0FB7B013BFB7303E0BB7B013BBB7300BFE3B25BB2002B03DA8D
:4014000078683968FFF7A8FF3B681A78FB7B1344DAB23B681A703B685A78BB7B1344DAB23B685A706300DCB2002CE5D11437BD4690BD00BF80B586B000AFF860B9603B6085
:401440001346FB71BB685B687B61FB790A3B3E2B00F2BA8001A252F823F000BFC9150000C9150000C9150000C9150000C9150000C9150000C9150000C9150000C91500000A
:40148000C91500007D1500008D150000C9150000A7150000C9150000C9150000C9150000C9150000C9150000C9150000C9150000C9150000C9150000C9150000C9150000F6
:4014C000C9150000C9150000C9150000C9150000C9150000C9150000C9150000C9150000C9150000C9150000C9150000C9150000C9150000C9150000C91500007315000062
:40150000C9150000C9150000C9150000C9150000C9150000C9150000C9150000C915000059150000C9150000C9150000C9150000C9150000C9150000C9150000C91500003B
:40154000C9150000C9150000C9150000B1150000BB150000C515000078693968FFF780FE0346002B04D078693968FFF71BFF2BE02AE078693968FFF7EFFE25E07869FFF73B
:40158000EFFD7B691846FFF79FFD1DE07B691846FFF7B4FD0346002B01D1002315E07869FFF7DEFD10E078693968FFF739FE0BE07B695A793B681A7006E07B695A783B68C8
:4015C0001A7001E0012300E0012318461837BD4680BD00BF80B483B000AF78607B681A897B685B8912B21BB29A4201DB00233AE07B689B899AB27B689B889BB213449BB2A1
:401600009AB27B689A817B68DB899AB27B68DB889BB213449BB29AB27B68DA817B68DB891BB2002B15DD7B689B899AB27B681B889BB213449BB29AB27B689A817B68DB8980
:401640009AB27B685B889BB2D31A9BB29AB27B68DA817B681B899BB29BB201339BB29AB27B681A81012318460C37BD465DF8047B704700BF80B487B000AFF86008461146B2
:401680001A4603467B810B463B811346FB80FA887B89D31A9BB2BB823A8C3B89D31A9BB29AB2FB685A80FB683A8C5A81FB683A891A81FB687A899A81B7F91430002B08DB12
:4016C000FB6801221A80BB8AFB82FB680022DA8110E0FB684FF6FF721A80BB8A5B429BB2FB82FB685B889BB2C3F101039BB29AB2FB68DA81B7F91420FB685B881BB292FBB3
:40170000F3F39AB2FB689A80B7F91630FA68528812B293FBF2F102FB01F29B1A9AB2FB68DA801C37BD465DF8047B704780B483B000AF78600B46FB70FB780133FB707B6865
:401740001B7EFA789A4201D30023FB70FB7818460C37BD465DF8047B704700BF80B483B000AF78600B46FB70FB78013BFB707B681B7EFA789A4203D37B681B7E013BFB7038
:40178000FB7818460C37BD465DF8047B704700BF80B584B000AF78600B467B8013467B707A78796813465B001344DB000B4428331B7AFB737A78796813465B001344DB0029
:4017C0000B4428335B68FA7B7868114698470346FB73FB7B7A689B0013445B88B7F902201BB29A4200D00AE07A78796813465B001344DB000B442833FA7B1A72DAE710376C
:40180000BD4680BD80B584B000AF78607B68484A5A647B68474ADA627B685B88FB817B685B88BB817B68002283F830200123FB7226E0FB7A7A689B0013445B88B7F90E20E0
:401840001BB29A4205DAFB7A7A689B0013445B88FB81FB7A7A689B0013445B88B7F90C201BB29A4209DD7B68FA7A83F83020FB7A7A689B0013445B88BB81FB7A0133FB7201
:401880007B681B7EFA7A9A42D3D37B68FA895A837B685B8B9AB2BB89D31A9BB29AB27B685A837B685B8B002B01D100233CE07B6893F830207B6883F84820B7F90C3078687F
:4018C00019460122FFF764FFB7F90C30786819460022FFF75DFF7B6801225A767B6893F830301A467B6833F822207B6893F8483019467B6833F8213012B21BB29A4203D036
:401900007B6800225A760EE07B685B8B9BB29BB2013B9BB29AB27B685A837B685B8B002B01D1002300E0012318461037BD4680BD2D1700005D17000090B585B000AF786061
:4019400039607B681B8DFB817B68B3F84030BB817B689B8F7B81B7F90A30002B00DA5FE0B7F90A303A685278934200DB58E0B7F90E20B7F90C309A4229DAB7F90C30002B58
:4019800000DA4DE0B7F90E303A681278934200DB46E0B7F90E30002B01DA0023FB81B7F90C303A681278934202DB3B681B78BB81FB89D9B27B89DCB2BB89DAB2FB89DBB2DF
:4019C000D31ADBB23868224600F09CF928E0B7F90E30002B00DA23E0B7F90C303A681278934200DB1CE0B7F90C30002B01DA0023FB81B7F90E303A681278934202DB3B681E
:401A00001B78FB81BB89D9B27B89DCB2FB89DAB2BB89DBB2D31ADBB23868224600F072F91437BD4690BD00BF90B589B002AF78600B46FB70FB785A1C13465B001344DB008C
:401A40007A68134404337B617B691B7DFB74FB7C7A689B0013445B883B82FA7C7B6833F82230FB817B691B69FA7C7868114698470346FB74FB7C7A689B0013445B88BB81DC
:401A8000FA7C7B6833F822307B817B69FA7C1A75B7F90E10B7F91020B7F90A40B7F90C30009378692346FFF7E5FD1C37BD4690BD80B584B000AF786039607B685B8BFB81B1
:401AC00078680021FFF7B0FF78680121FFF7ACFF7B685B7E002B09D07B681C331846FFF779FD7B6834331846FFF774FD78683968FFF722FF03E078680021FFF795FF7B68E9
:401B00001C331846FFF766FD0346002BF3D003E078680121FFF788FF7B6834331846FFF759FD0346002BF3D0FB899BB2013B9BB2FB81B7F90E30002BD8DC1037BD4680BDB1
:401B400080B483B000AF78607B6800221A760C37BD465DF8047B704780B485B000AFF860B96011461A460B46FB801346BB80FB681B7E052B13D8FB681B7E1946FB68FA881A
:401B800023F82120FB681B7EFA689B001344BA885A80FB681B7E0133DAB2FB681A761437BD465DF8047B704780B582B000AF786039607868FFF726FE0346002B00D103E02C
:401BC00078683968FFF774FF0837BD4680BD00BF80B500AF0148FFF7B3FF80BD6C83FF1F80B582B000AF78600B467B8013463B80B7F90220B7F9003003487968FFF7ACFFD1
:401C00000837BD4680BD00BF6C83FF1F80B582B000AF786003487968FFF7C6FF0837BD4680BD00BF6C83FF1F80B584B000AFF860084611461A4603467B810B463B81134619
:401C4000FB80FFF7C5FFB7F90A20B7F90830F86811461A46FFF7C4FFB7F90620B7F91830F86811461A46FFF7BBFFB7F91C20B7F92030F86811461A46FFF7B2FFF868FFF708
:401C8000C5FF1037BD4680BD80B586B002AF7860084611461A460346FB700B46BB7013467B70FF23FB730DE0F978BA78FB7B009378680023FFF78AF97B78083B7B70FB7833
:401CC0000833FB707B78072BEED87B78002B15D07B7883F007037B707B7801337B70FA7B7B7803F0070302FA03F3FB73F978BA78FB7B009378680023FFF768F91037BD46CE
:401D000080BD00BF90B585B002AF7860084611461A460346FB700B46BB7013467B70F978BA787C780123009378682346FEF7AAF90346002B00D105E0F978BA787B7878685C
:401D4000FFF7A2FF0C37BD4690BD00BF80B582B000AF7860084611461A460346FB700B46BB7013467B70F978BA787B787868FFF78BFFBB780133BB703B7C013B3B743B7C32
:401D8000002BF0D10837BD4680BD00BF90B585B002AF7860084611461A460346FB700B46BB7013467B70F978BA787C783B7E009378682346FEF766F90346002B00D108E0D0
:401DC000F978BA787C783B7E009378682346FFF7BDFF0C37BD4690BD80B483B000AF0346FB710C37BD465DF8047B704780B582B000AF0346FB80FB88184602F02DFF0837BE
:401E0000BD4680BD80B500AF012002F047FF80BD80B500AF0A2002F041FF80BD90B587B000AFF8607B600B46FB721346BB72FB7A072B68D801A252F823F000BF071F0000FD
:401E40005D1E00008B1E00009D1E0000CD1E0000DB1E0000E91E0000E91E0000BB7A012B02D804F0C9F90DE0BB7A022B02D804F0C3F907E0BB7A032B02D804F0BDF901E018
:401E800004F0BAF9FFF7BEFF3DE0FFF7C1FFBB7A184604F06DFAFFF7BBFF34E0BB7A002B0ED10023FB7504E0FFF7B2FFFB7D0133FB75FB7D042BF7D9012004F077FA02E0EB
:401EC000002004F073FAFFF79DFF1CE0BB7A184604F030FAFFF79CFF15E0BB7A184604F0C7F9FFF78FFF0EE07C6808E023465C1C1B78184604F0BCF9BB7A013BBB72BB7AC9
:401F0000002BF3D100BF012318461C37BD4690BD80B586B000AFF860B9603B601346FB71FB790A3B0B2B7AD801A252F823F000BF611F00001F2000001F2000001F200000A6
:401F40001F200000C51F000003200000112000001F2000001F2000001F200000771F0000F868B968FF22FEF709F9F868B968324AFEF786F953E0BB685B687B61F868B96817
:401F80002E4AFEF77DF97B691B7963F04F03DBB2F868B9681A46FEF749F9F868B9680122FEF732F97869F968BA68FFF787F90346002B01D100233AE0F868B9680022FEF7C3
:401FC000F1F82CE0F868B9680122FEF7EBF8F868B9680022FEF718F9F868B9688122FEF725F93B681B789B08DBB2F868B9681A46FEF71CF9F868B9680022FEF7D3F80123B8
:4020000015E0F868B9680E4AFEF73AF901230EE0F868B9680B4AFEF733F9012307E0FB79F868B9681A463B68FFF704FA034618461837BD4680BD00BFC0660300E066030043
:40204000E8660300F466030080B500AF144B154A1A60154B154A1A60154B4FF080421A60144B2D221A70144B4FF07E521A60134B4FF000021A60124B4FF000021A6000F041
:4020800025F8104B04221A70032002F0B1FA0E4B00221A7001F000FD00F05CF8FAE700BF1884FF1F0000C8421485FF1F0000F0411C84FF1F7E84FF1F1885FF1FB883FF1FC3
:4020C000B084FF1FE784FF1FD084FF1F80B500AF62B6052002F08CFA02F062FA03F076FF04F038FC02F076F9002003F081F802F075FE04F0A5FA03F077F903F033FA03F0C1
:40210000E1FA03F09DFB02F069FE03F0ABFC02F0F3FF04F05FFA0B480B490C4AFEF7F2FE08483721FEF72CFF04F05CF9B42001F0E7FC074B01221A7003F062FF042001F012
:4021400007FD80BDC883FF1F3081FF1F1D1E0000E684FF1F80B500AF2A4B1B78082B4ED801A252F823F000BFBD2100008D21000093210000992100009F210000A52100009F
:40218000AB210000B1210000B721000000F046F836E000F08FF833E000F0DEF830E000F0EFF82DE000F068FD2AE000F0DDFD27E000F00EFE24E000F03FFE21E002F006FAD1
:4021C00003461A46104B1A600F4B1B680F4810491A4606F091F90F48FEF73EFF0D480E49FEF75AFC0B4802210C22084BFEF78EFB0848FEF7ADFE0346002BECD100E000BF3F
:4022000080BD00BFE784FF1F4483FF1F1C85FF1F00670300C883FF1F404B030098B500AF234B1C780020032101F0EEFB0346DBB22046194600F030FE002001F08DFB03F0B3
:40224000C7F80346002B31D00020032101F0DCFB0346032B09D1032002F0CAF9144B02221A70012001F078FB20E00020032101F0CBFB0346022B09D1032002F0B9F90C4BFA
:4022800003221A70012001F067FB0FE00020032101F0BAFB0346002B08D1032002F0A8F9034B05221A70012001F056FB98BD00BFE784FF1F98B500AF244B00221A700020E9
:4022C00004F06AF9224B1C780020032101F09CFB0346DBB22046194600F0DEFD002001F03BFB03F075F80346002B20D00220032101F08AFB0346032B09D1032002F078F9B6
:40230000134B04221A70012001F026FB0FE00020032101F079FB0346002B08D1032002F067F90B4B01221A70012001F015FB094B1B78002B08D0032002F05AF9044B012219
:402340001A70012001F008FB98BD00BFD084FF1FE784FF1F3984FF1F98B500AF074B1C780020032101F050FB0346DBB22046194600F092FD002001F0EFFA98BDE784FF1F80
:40238000B0B582B000AF012004F006F9002001F0E3FA6F4B1B6801336D4A13606D4B1B6818464FF0000105F083FB0346002B02D0694B00221A70694B1A78694B1B7852B2B7
:4023C0005BB29A4206DB644B00221A70654B01221A700BE0614B1B785AB2614B1B785BB2053B9A4202DA5F4B00221A7003F0CAF803469AB25C4B1A805B4B1B889BB21BB29D
:40240000184603F017F903461846584905F0BCF903461A46564B1A6003F022FA03461A46544B1A80534B1B881BB2184603F070FA03461846194605F09FF803461A464E4BF7
:402440001A604B4B1A684C4B1B681046194605F09BF903461A46494B1A60454B1A683D4B1B681046194605F08FF903461A46444B1A60394B1B78012B40F0C080344B1B6805
:40248000B3F57A7F2ED33A4B1B68184604F030FD02460B463B483C4906F02EF8364B1B68184604F025FD02460B463848384906F023F8324B1B68184604F01AFD02460B4611
:4024C0003448354906F018F8344B1A78344B1B78DBB21046194600F0DFFC01F061FB1C4B00221A60022002F083FE1A4B1A68224B1B681046194605F03DF80346184604F076
:40250000F7FC02460B46104619460FA3D3E9002304F0C8FF0346002B46D0224B1B8801339AB2204B1A801F4B1B88B3F57F6F03D31C4B4FF47F621A801A4B1B88184604F0F7
:402540008FF85BE0AFF300807B14AE47E17A843F3883FF1F4083FF1FD084FF1F7A84FF1F7E84FF1F1484FF1F9484FF1F000020422484FF1F8084FF1FC483FF1F3C84FF1FF4
:402580002C85FF1F6084FF1F04670300E884FF1F0C6703000484FF1F14670300E784FF1F3C81FF1F3483FF1F9F4B1A689F4B1B681046194604F0DEFF0346184604F098FCF1
:4025C00002460B461046194695A3D3E9002304F073FF0346002B11D0954B1B88013B9AB2934B1A80924B1B88002B02D1904B00221A808F4B1B88184604F032F88D4B1B78BF
:40260000002B3CD18C4B1B68B3F57A7F2ED38B4B1B68184604F06CFC02460B468848894905F06AFF814B1B68184604F061FC02460B468548854905F05FFF854B1B68184684
:4026400004F056FC02460B468248834905F054FF824B1A78824B1B78DBB21046194600F01BFC01F09DFA744B00221A60704B00221A80002003F0F4FF002002F0B9FD02F07B
:40268000A7FE0346002B2ED0764B1B78002B0CBF01230023DBB21A46724B1A70704B1B78002B07D1704B1B789BB21BB2184601F09FFF18E06A4B1B785BB2012B07D16B4B91
:4026C0001B789BB21BB2184601F092FF0BE0644B1B785BB2022B06D1654B1B789BB21BB2184601F085FF5F4B1B78012B40F087815B4B1B78002B0FD15E4B1B68184605F07B
:4027000009FA03469BB20020194601F07DF90346DAB2554B1A701EE1514B1B785BB2012B52D100237B6000237B6001F04FFF03467B607B68002B1ADA09237B607B689BB2F9
:402740001BB2184601F054FF474B1B78002B08D100237B607B689BB21BB2184601F048FF05E0414B1B78013BDAB23F4B1A707B68092B24DD00237B607B689BB21BB21846DF
:4027800001F036FF384B1B780133DAB2364B1A70354B1B78184604F0A3FF0246354B1B681046194605F0ACF90346002B07D009237B607B689BB21BB2184601F019FF7B68D8
:4027C000DAB22A4B1A70C6E0254B1B785BB2022B40F0C18000233B6000233B6001F0F6FE03463B603B68002B66DA09233B603B689BB21BB2184601F0FBFE1B4B1B78002BB7
:402800003AD11A4B1B78002B36D100233B603B689BB21BB2184601F0EBFE4DE0AFF300807B14AE47E17A843FC483FF1F4083FF1F3483FF1FD084FF1F3883FF1F2484FF1F93
:402840008484FF1F046703002884FF1F0C6703002C85FF1FD484FF1F1C670300E784FF1F3C81FF1F2084FF1F3D83FF1F3D81FF1F3C83FF1F1C84FF1F9F4B1B78002B15D0B1
:402880009E4B1B78002B11D109233B603B689BB21BB2184601F0ACFE984B09221A70964B1B78013BDAB2944B1A7005E0934B1B78013BDAB2914B1A703B68092B47DD002333
:4028C0003B603B689BB21BB2184601F091FE8B4B1B78092B06D8894B1B780133DAB2874B1A7034E0854B1B78092B09D9834B00221A70814B1B780133DAB27F4B1A7026E024
:402900007D4B1B78184604F0EBFE02467C4B1B681046194605F0CCF80346002B17D0774B1B78092B13D109233B603B689BB21BB2184601F05DFE724B1B68184605F0EAF896
:402940000346DAB26C4B1A706C4B09221A703B68DAB26C4B1A70684B1B78184604F0C0FE0246674B1B681046194605F0C9F80346002B08D0624B1B68184605F0CBF803464C
:40298000DAB25D4B1A705C4B1B78184604F09EFA04460D46594B1B78184604F097FA02460B461046194650A3D3E9002304F0F4FA02460B462046294604F03CF902460B464C
:4029C00014461D464F4B1B78184604F07FFA02460B461046194646A3D3E9002304F0DCFA02460B462046294604F024F902460B461046194604F06AFD0246434B1A60434B3C
:402A00001B78002B0FD0424B1B78002B0CBF01230023DBB21A463E4B1A70032001F0E8FD3C4B00221A703C4B1B78002B2ED0394B1B78002B0CBF01230023DBB21A46354B6C
:402A40001A70364B1B78002B07D12B4B1B789BB21BB2184601F0CCFD18E0304B1B785BB2012B07D1254B1B789BB21BB2184601F0BFFD0BE0294B1B785BB2022B06D1214BCC
:402A80001B789BB21BB2184601F0B2FD244B1B78002B08D0032001F0ABFD1D4B00221A70204B02221A70204B1B78002B57D01B4B1B78DBB2DBB20133DBB2DAB2174B1A70E1
:402AC000164B1B785BB2012B02DD144B02221A70124B1B78002B29D1074B1B789BB21BB2184601F085FD3AE09A9999999999B93F7B14AE47E17A843F3D83FF1F3D81FF1FD3
:402B00001C84FF1F3C83FF1F4083FF1FE584FF1FD084FF1F2084FF1F8284FF1F3C81FF1F3984FF1FE784FF1FE484FF1F4C4B1B785BB2012B07D14B4B1B789BB21BB2184699
:402B400001F056FD0BE0464B1B785BB2022B06D1454B1B789BB21BB2184601F049FD434B1B78002B35D03E4B1B78DBB2DBB2013BDBB2DAB23A4B1A70394B1B785BB2002BE5
:402B800002DC374B00221A70354B1B78002B07D1374B1B789BB21BB2184601F029FD18E02F4B1B785BB2012B07D12E4B1B789BB21BB2184601F01CFD0BE0294B1B785BB2AC
:402BC000022B06D1284B1B789BB21BB2184601F00FFD274B1B78184604F078F904460D46204B1B78184604F071F902460B461046194617A3D3E9002304F0CEF902460B46FC
:402C00002046294604F016F802460B4614461D46154B1B78184604F059F902460B46104619460DA3D3E9002304F0B6F902460B462046294603F0FEFF02460B4610461946A4
:402C400004F044FC02460B4B1A600837BD46B0BD9A9999999999B93F7B14AE47E17A843F3C81FF1F3D81FF1F3C83FF1F3884FF1F3D83FF1F4083FF1F98B500AF364B1C78EA
:402C80000020032100F0C0FE0346DBB22046194600F002F9002000F05FFE02F099FB0346002B4AD00020032100F0AEFE0346032B0DD12A4B1B789BB21BB2184601F098FCE1
:402CC000254B06221A70012000F046FE35E00020032100F099FE0346022B0DD1204B1B789BB21BB2184601F083FC1B4B07221A70012000F031FE20E00020032100F084FE34
:402D00000346012B09D1032001F072FC124B08221A70012000F020FE0FE00020032100F073FE0346002B08D1032001F061FC0A4B01221A70012000F00FFE0A4B1B78002BFD
:402D400008D0032001F054FC034B01221A70012000F002FE98BD00BFE784FF1F0085FF1F8384FF1F3984FF1F80B500AFFF2000F00BFE0346DBB2184600F0C2FE124B1B78FB
:402D80001846032100F088F8002000F0E5FD02F01FFB0346002B08D0032001F029FC0A4B05221A70012000F0D7FD084B1B78002B08D0032001F01CFC034B05221A7001207E
:402DC00000F0CAFD80BD00BFE784FF1FE584FF1F80B500AFFF2000F0D7FD0346DBB2184600F0B6FE124B1B781846022100F054F8002000F0B1FD02F0EBFA0346002B08D0E3
:402E0000022001F0F5FB0A4B05221A70012000F0A3FD084B1B78002B08D0022001F0E8FB034B05221A70012000F096FD80BD00BFE784FF1FE584FF1F80B500AF00F0B0FEC8
:402E400000F0D6FE124B1B781846032100F024F8002000F081FD02F0BBFA0346002B08D0012001F0C5FB0A4B05221A70012000F073FD084B1B78002B08D0012001F0B8FB88
:402E8000034B05221A70012000F066FD80BD00BFE784FF1F3984FF1F90B589B004AF03460A46FB711346BB71FB797B737B7B082B00F2398501A252F823F000BFE12E00007B
:402EC0004D2F00003B3000005531000011360000E5330000FB32000041320000FB3400009148FEF727F89048FEF7B6F88E488F49FDF7D2FD8C4802210D228D4BFDF706FD69
:402F000089488A49FDF7C8FD874802211D22894BFDF7FCFC84488549FDF7BEFD824802212D22854BFDF7F2FC7F488049FDF7B4FD7D4802213C22814BFDF7E8FC7A48FEF736
:402F400007F80346002BCED100F0EEBC7648FDF7F1FF7548FEF780F8BB79032B0AD1102300937148002100228023FEF70FFF6E48FEF79AF86C486D49FDF78EFD6A48022139
:402F80000D226F4BFDF7C2FC6748FEF765F8BB79022B0AD1102300936348002110228023FEF7F4FE6048FEF77FF85F485F49FDF773FD5D4802211D225E4BFDF7A7FC5A483B
:402FC000FEF74AF8BB79012B0AD1102300935648002120228023FEF7D9FE5348FEF764F851485249FDF758FD4F4802212D22524BFDF78CFC4C48FEF72FF8BB79002B0AD1B4
:40300000102300934848002130228023FEF7BEFE4548FEF749F844484449FDF73DFD424802213C22454BFDF771FC3F48FDF790FF0346002B8DD100F077BC3B48FDF77AFF7E
:403040003948FEF709F8BB79032B0AD1102300933548002100228023FEF798FE3248FEF723F831483149FDF717FD2F4802210D22344BFDF74BFC2C48FDF7EEFFBB79022B2A
:403080000AD1102300932848002110228023FEF77DFE2548FEF708F823482449FDF7FCFC214802211D22284BFDF730FC1E48FDF7D3FFBB79012B0AD1102300931A48002165
:4030C00020228023FEF762FE1748FDF7EDFF16481649FDF7E1FC144802212D221B4BFDF715FC1148FDF7B8FFBB79002B0AD1102300930D48002130228023FEF747FE0A4895
:40310000FDF7D2FF08480949FDF7C6FC064802213C220F4BFDF7FAFB0348FDF719FF0346002B8DD100F000BCC883FF1F404B03004084FF1F246703003467030044670300D8
:40314000506703006067030070670300806703008C6703009748FDF7EDFE9648FDF77CFFBB79032B0AD1102300939248002100228023FEF70BFE8F48FDF796FF8D488E4939
:40318000FDF78AFC8B4802210D228C4BFDF7BEFB8848FDF761FFBB79022B0AD1102300938448002110228023FEF7F0FD8148FDF77BFF80488049FDF76FFC7E4802211D22D3
:4031C0007F4BFDF7A3FB7B48FDF746FFBB79012B0AD1102300937748002120228023FEF7D5FD7448FDF760FF72487349FDF754FC704802212D22734BFDF788FB6D48FDF719
:403200002BFFBB79002B0AD1102300936948002130228023FEF7BAFD6648FDF745FF65486549FDF739FC634802213C22664BFDF76DFB6048FDF78CFE0346002B8DD173E300
:403240005C48FDF777FE5B48FDF706FF59485A49FDF722FC574802210D225C4BFDF756FB54485549FDF718FC524860210D22584BFDF74CFB4F48FDF7EFFE4E484E49FDF76F
:403280000BFC4C4802211D22524BFDF73FFB102300934848582110222C23FEF777FD4548FDF702FF43484449FDF7F6FB414860211D22494BFDF72AFB3E48FDF7CDFE3D484E
:4032C0003D49FDF7E9FB3B4802212D22434BFDF71DFB3848FDF7C0FE36483749FDF7DCFB344802213C223E4BFDF710FB3148FDF72FFE0346002BA6D116E32E48FDF71AFE61
:403300002C48FDF7A9FE2B482B49FDF7C5FB294802210D222D4BFDF7F9FA102300932548582100222C23FEF731FD2248FDF7BCFE20482149FDF7B0FB1E4860210D22244B73
:40334000FDF7E4FA1B48FDF787FE1A481A49FDF7A3FB184802211D221E4BFDF7D7FA15481549FDF799FB134860211D221A4BFDF7CDFA1048FDF770FE0E480F49FDF78CFBF7
:403380000C4802212D22154BFDF7C0FA0948FDF763FE08480849FDF77FFB064802213C220F4BFDF7B3FA0348FDF7D2FD0346002BA6D1B9E2C883FF1F404B0300A067030025
:4033C000AC670300B8670300C4670300D0670300F884FF1FDC6703009884FF1FE46703008C670300B648FDF7A5FDB548FDF734FEBB79032B0AD110230093B14800210022D9
:403400008023FEF7C3FCAE48FDF74EFEAC48AD49FDF742FBAA4802210D22AB4BFDF776FAA748A849FDF738FBA54860210D22A74BFDF76CFAA248FDF70FFEBB79022B0AD12F
:40344000102300939E48002110228023FEF79EFC9B48FDF729FE9A489A49FDF71DFB984802211D229A4BFDF751FA95489549FDF713FB934860211D22964BFDF747FA9048A0
:40348000FDF7EAFDBB79012B0AD1102300938C48002120228023FEF779FC8948FDF704FE87488849FDF7F8FA854802212D228A4BFDF72CFA8248FDF7CFFDBB79002B0AD1AD
:4034C000102300937E48002130228023FEF75EFC7B48FDF7E9FD7A487A49FDF7DDFA784802213C227D4BFDF711FA7548FDF730FD0346002B7FF479AF16E27148FDF71AFD3D
:403500006F48FDF7A9FDBB79002B0AD1102300936B48002100228023FEF738FC6848FDF7C3FD67486749FDF7B7FA654802210D226B4BFDF7EBF962486249FDF7ADFA6048EB
:403540005A210D22674BFDF7E1F95D48FDF784FDBB79022B0AD1102300935948002110228023FEF713FC5648FDF79EFD54485549FDF792FA524802211D225B4BFDF7C6F92E
:403580004F485049FDF788FA4D485A211D22574BFDF7BCF94A48FDF75FFDBB79002B0AD1102300934648002120228023FEF7EEFB4348FDF779FD42484249FDF76DFA40488A
:4035C00002212D224A4BFDF7A1F93D48FDF744FDBB79032B0AD1102300933948002130228023FEF7D3FB3648FDF75EFD34483549FDF752FA324802213C22384BFDF786F927
:403600002F48FDF7A5FC0346002B7FF479AF8BE12B48FDF78FFC2A48FDF71EFD354B1B78012B14D126483449FDF736FA244822211A222E4BFDF76AF921482249FDF72CFAB4
:403640001F4804212B222D4BFDF760F9CFE02C4B1B78002B79D11A482749FDF71DFA184818211A22274BFDF751F915481549FDF713FA134804212B22234BFDF747F9104899
:403680001049FDF709FA0E4840212B221F4BFDF73DF91F4B1B78012B40F0A980BB79002B02D11A23FB7337E0BB79012B02D13223FB7331E0BB79022B2CD14023FB732BE06B
:4036C000C883FF1F404B0300D0670300F884FF1FF46703009884FF1FE46703008C670300FC6703007084FF1F08680300BC83FF1F146803001484FF1FC89C000020680300B7
:40370000D084FF1F2884FF1F8484FF1FD484FF1F2084FF1F3223FB73FB7B0C33DCB2FA7B1B230093824811461B222346FDF7CAF9FB7B0C33DCB2FA7B1C2300937C48114680
:403740001C222346FDF7BEF951E07A4B1B78012B4DD177487849FDF79FF9754818211A22764BFDF7D3F872487549FDF795F9704804212B22734BFDF7C9F86D487049FDF76D
:403780008BF96B4840212B226F4BFDF7BFF86F4B1B78012B2BD1BB79002B02D11A23BB730DE0BB79012B02D13223BB7307E0BB79022B02D14023BB7301E03223BB73BB7BC4
:4037C0000C33DCB2BA7B1B230093594811461B222346FDF777F9BB7B0C33DCB2BA7B1C230093534811461C222346FDF76BF9102300934F48002133228023FEF7C7FA4C4839
:40380000FDF752FC4A484E49FDF746F93E2300934748202134222023FDF754F93E2300934348402134224023FDF74CF93E2300933F48602134226023FDF744F93D4B1B7859
:40384000002B0BD1392300930E2301933F23029337480E2133221423FEF7E6F9354B1B78012B1FD13D23009331480E2135220E23FDF728F93D2300932D480F2135220F2300
:40388000FDF720F93D2300932948112135221123FDF718F93D2300932548122135221223FDF710F9294B1B78002B0AD120482449FDF7F2F81E4825213E22254BFDF726F86B
:4038C0000DE0224B1B78012B09D119481C49FDF7E3F8174829213E221E4BFDF717F83B2300931348752136227523FDF7EBF83B2300930F486D213B227523FDF7E3F83B232A
:403900000093702301933E2302930948702138226B23FEF789F90648FDF71AFB0346002B7FF479AE00E000BF1437BD4690BD00BFC883FF1FD084FF1FC89C0000E884FF1F6F
:40394000404B03006084FF1F0484FF1F2084FF1F306803003468030080B582B000AF0346FB71084B1B78012B09D1FB79012B01D102F046FBFB79002B01D102F087FB083795
:40398000BD4680BDE684FF1F80B582B000AF0346FB8000F01BFE03469AB2194B1A80194B1A88174B1B889A4223D0154B1B884FF6F972934205D9002000F01AFE104B0022E4
:4039C0001A800F4B1B881A46FB88013B9A420CDBFB88013B9BB29BB21BB2184600F008FEFB88013B9AB2064B1A80054B1A88054B1A80044B1B8818460837BD4680BD00BF74
:403A0000B684FF1FB484FF1F80B582B000AF03460A46FB801346BB8000F0D8FD03469AB21B4B1A801B4B1A88194B1B889A4229D0174B1B884FF6F972934205D9002000F064
:403A4000D7FD134B00221A80114B1B88FA889A4207D9FB881BB2184600F0CAFD0C4AFB8813800B4B1B88BA889A4207D8BB881BB2184600F0BDFD064ABB881380044B1A8825
:403A8000044B1A80034B1B8818460837BD4680BDB684FF1FB484FF1F80B500AF01F068FC03461A46104B1A7001F06EFC03461A460E4B1A7001F074FC03461A460C4B1A7008
:403AC00001F07AFC03461A460A4B1A7002F04CFD03461A46084B1A7002F052FD03461A46064B1A7080BD00BFE584FF1F8284FF1FB884FF1F3984FF1F3884FF1FE484FF1F15
:403B000080B584B000AF0346FB71FB79FB60FB68FE2B01DDFF23FB60FB68002B01DC0023FB60FB68DBB2184602F0E6FCFB68DAB2044B1A7004480549FA6804F0DDFC10371F
:403B4000BD4680BD0085FF1FF884FF1F3868030080B584B000AF0346FB71FB79FB60FB68FE2B01DDFF23FB60FB68002B01DC0023FB60FB68DBB2184602F0BCFAFB68DAB2D4
:403B8000044B1A7004480549FA6804F0B5FC1037BD4680BD8384FF1F9884FF1F3868030080B500AF4820012102F048F903461A460B4B1A600A4B1B68002B06D1002002F0FC
:403BC000C7F90346DAB2074B1A7002F095F9054B1B785BB2044805491A4604F08DFC80BD3485FF1F7A84FF1FBC83FF1F3C68030080B500AF074801F0A1FB0246064B1A6066
:403C0000044B1B881BB2054805491A4604F074FC80BD00BF7C84FF1F3485FF1F7084FF1F3C68030080B400AFFEE700BF80B584B000AF7860104B1A687B6813441A460F4B74
:403C4000D31AB3F5007F09DC0B4B1B68FB600A4B1A687B681344084A136007E003F07AFF02460C2313604FF0FF33FB60FB6818461037BD4680BD00BF4081FF1F6885FF1F47
:403C800080B586B000AF224B7B61224B3B61204B7B6135E03B691B68FB603B695B68BB603B699B683B6000237B600CE0FB681A68BB681A60BB680433BB60FB680433FB6020
:403CC0007B6804337B607A683B689A42EED13B69DB683B6000237B6008E0BB6800221A60BB680433BB607B6804337B607A683B689A42F2D13B6910333B617B69013B7B617B
:403D00007B69002BC6D103F02BFFFEF79DF9FEE7010000002C6B030080B582B000AF184B184A1A60184A184B1B6843F40073136000237B600FE07B68032B04D8134A7B68E1
:403D400052F8233000E0124B12497A6841F822307B6801337B607B682F2BECD90E4B1B78DAB20E4B1A700E4B0A4A1A6000F044FA00F07AFD0B4B00221A600837BD4680BD25
:403D80000CED00E00004FA0514ED00E000000000253C00000080FF1FBC7600400481FF1F08ED00E00081FF1F80B582B000AF78603960786800213A6803F003FF0837BD465D
:403DC00080BD00BF80B584B000AFF860B9607A60F868B9687A6803F0E9FE1037BD4680BD80B483B000AF0346FB71FEE780B487B000AF7860396000233B6100237B6127E0A0
:403E00007B699B007A6813441B68BB60BB68FB73BB6823F0FF03BB6014E03B695B003A6813441B781A46BB68134419463B695B003A6813445B780B703B6901333B61FB7B60
:403E4000013BFB73FB7B002BE7D17B6901337B617B69292BD4D91C37BD465DF8047B704780B582B000AF4F4B00221A804E4B50221A704E4B00221A804D4B58221A704D4BFB
:403E800004221A804C4B19221A704C4B95221A804B4B18221A704B4B40F22B121A804A4B18221A70494B40F2DF121A80484B19221A70484B01221A80474B1B221A704748CB
:403EC00047490822FFF77EFF464B02221A704FF0402308221A70444B04221A70434B444A1278D2B21A70434B40F619721A80424B42F251221A800023FB7019237B6014E0BD
:403F0000FB785B00DAB23D4B1B78DBB203F00103DBB21343DBB203F00303FB704FF4F07000F076FC7B68013B7B607B68002B02D0FB78032BE4D17B68002B02D10320FFF785
:403F40004FFF2F4B4FF480721A802D4B07221A702C4B00221A702C4B48221A70284B00221A702A4B02221A70294B04221A70294A284B1B78DBB243F07F03DBB21370264A50
:403F8000254B1B78DBB243F00303DBB21370234A224B1B78DBB263F07F03DBB213700837BD4680BD80400040824000408440004086400040884000408A4000408C400040A0
:403FC0008E40004090400040924000409440004096400040984000409A400040004100406C0C00480043004000420040A14600408901004922420040204200402542004008
:40400000044000400640004008400040014000400B400040A2430040A1430040A043004080B483B000AF2A4B1B78FB71294B1B78BB71294B1B787B71284AFB7903F00703E3
:40404000DBB21370264AFB791B09DBB21370214ABB7943F00303DBB213701F4A7B7943F00303DBB213701F4B4FF442521A801E4B80221A701D4B80221A701D4B80221A70F2
:404080001C4B10221A701C4B08221A701B4B02221A701B4B20221A701A4B01221A701A4B20221A70194B40F201121A80184B01221A70094A7B791370064ABB791370154BB5
:4040C00044221A700C37BD465DF8047B704700BFCF010049F8460040F94600406E5800406F5800402C510040705800400159004009590040905A0040C05A0040205B0040DD
:40410000235B0040285B00402B5B0040405B0040585B00407658004080B483B000AF0346FB71FB79022B24D8FA79FB791344FB71FB79124A52F82330FA79104951F8222086
:404140001178FA790E48825C0A43D2B21A70FB790133FB71FB79094A52F82330FA79074951F822201178FA790548825C0A43D2B21A700C37BD465DF8047B704744680300EC
:404180005C68030080B483B000AF0346FB71FB79022B28D8FA79FB791344FB71FB79144A52F82330FA79124951F822201178FA791048825CD243D2B20A40D2B21A70FB79C3
:4041C0000133FB71FB790A4A52F82330FA79084951F822201178FA790648825CD243D2B20A40D2B21A700C37BD465DF8047B7047446803005C68030080B586B000AF72B6C9
:40420000584B60221A70FFF72BFE574A564B1B78DBB243F00403DBB213700023FB7513E0FA7D13465B0013445B00504A13443B613B691A683B699B889BB210461946FFF72F
:40424000B3FDFB7D0133FB75FB7D062BE8D90023FB751CE0FA7D13469B0013445B00444A1344FB60FB681B68BB60FB685B687B60FB681A7A5B7A1B0213437B807B88B868BD
:4042800079681A46FFF79EFDFB7D0133FB75FB7D002BDFD04FF090403649FFF7A7FD364B0A221A7035480421FFF77EFD34480421FFF77AFD33480421FFF776FD324A324B3C
:4042C0001B78DBB243F00203DBB213702F4A2F4B1B78DBB243F00203DBB213702C4A2C4B1B78DBB243F04003DBB21370294A294B1B78DBB243F01003DBB21370264827492D
:404300000A22FFF75FFD264826490822FFF75AFD254826490822FFF755FD254825490A22FFF750FD244825490A22FFF74BFD244824490822FFF746FD234B84221A70234A88
:40434000224B1B78DBB243F00803DBB21370FFF767FE1F480E490E22FFF734FD1837BD4680BD00BF00480040E8460040706803009C680300A800004883580040007600400B
:4043800008760040107600400350014013500140A0430040C243004000510040300C0048C25100403C0C0048F2510040440C0048105100404C0C004820510040580C004828
:4043C00032510040640C00485B0C014022430040B043004080B500AF054B1B78002B04D100F008F8024B01221A7000F03FF880BD4883FF1F80B582B000AF1A4B1B78DBB229
:4044000023F03F03FB71174AFB7943F00903DBB21370154A144B1B78DBB243F00103DBB21370EF2000F032F8EF2000F04DF86E2000F05AF8002000F067F800F008FA03468B
:40444000BB71094A084B1B78DBB243F01003DBB21370BB79184600F0FEF900F027F80837BD4680BD7A6500409A65004080B400AF054A054B1B78DBB263F07F03DBB2137008
:40448000BD465DF8047B70477A65004080B483B000AF0346FB71044AFB7913700C37BD465DF8047B704700BF0A65004080B500AF01E000F045F800F037F8034603F01003A0
:4044C000002BF6D180BD00BF80B483B000AF0346FB71044AFB7913700C37BD465DF8047B704700BF4A65004080B483B000AF0346FB71044AFB7913700C37BD465DF8047B15
:40450000704700BF2A65004080B483B000AF0346FB71044AFB7913700C37BD465DF8047B704700BF8A65004080B400AF034B1B78DBB21846BD465DF8047B70476A6500401B
:4045400080B400AF034B1B78DBB21846BD465DF8047B70475A65004080B400AFBD465DF8047B704780B582B000AF0F2000F06AF800F058F800F06BF90346FB71074A074B0B
:404580001B78DBB243F01003DBB21370FB79184600F061F90837BD4680BD00BF9B64004080B500AF00F0AEF84FF4004000F0D6F8054B1B78002B04D1FFF7CEFF024B01221B
:4045C0001A70FFF7CFFF80BD4983FF1F80B582B000AF00F0D3F80346FB80FB88A3F500439BB2BB80BB881BB218460837BD4680BD80B584B000AF0346FB80B7F90630002BF1
:4046000004DBFB88A3F50043FB8103E0FB88A3F50043FB81FB89184600F0A0F81037BD4680BD00BF80B400AF054B1B78DBB203F00F03DBB21846BD465DF8047B704700BFC4
:404640006B64004080B483B000AF0346FB71044AFB7913700C37BD465DF8047B704700BF8B64004080B582B000AF1C4B1B78DBB223F00703FB71194AFB791370174B1B78E7
:40468000DBB223F00303FB71144AFB79137000F0B1F84FF4004000F08DF84FF4004000F05DF8002000F03EF800F04CF84FF4004000F090F800F0CBF80346BB71084A084BF8
:4046C0001B78DBB243F01003DBB21370BB79184600F0C1F80837BD4680BD00BF7C6400409C64004080B400AF054A054B1B78DBB263F07F03DBB21370BD465DF8047B704756
:404700007C64004080B500AF054B1B78002B04D1FFF7A8FF024B01221A70FFF7E3FF80BD4A83FF1F80B483B000AF0346FB71044AFB7913700C37BD465DF8047B704700BF5B
:404740008C64004080B400AF034B1B78DBB21846BD465DF8047B70476C64004080B483B000AF0346FB80044AFB8813800C37BD465DF8047B704700BF1868004080B400AF4B
:40478000044B1B78044B1B889BB21846BD465DF8047B70470C6400409868004080B400AF034B1B889BB21846BD465DF8047B70479868004080B483B000AF0346FB80044A87
:4047C000FB8813800C37BD465DF8047B704700BF5868004080B483B000AF0346FB80044AFB8813800C37BD465DF8047B704700BF7868004080B500AF01E0FFF7CFFFFFF7A6
:40480000A1FF034603F04003002BF6D180BD00BF142816D902B4012114381049097811F0C001890904B40E4A515C04BC00BF00BF00BF8841FDD500BF00BF02BC704700BFE7
:4048400000BF70F10400FCD570470B050709EFF3108072B6704780F310887047004800404A480000AFF3008080B483B000AF134B7F221A70124B80221A707F23FB710CE0FB
:40488000FB79DB0003F1804303F5F043FA79013AD2B21A70FB79013BFB71FB79002BEFD1FB79DB0003F1804303F5F04300221A700C37BD465DF8047B704700BF4581FF1F3F
:4048C0004481FF1F80B485B000AF03460A46FB711346BB710123FB60FB79172B2FD8BB79002B0ED0FB791A01184B1344FA791101164A0A441278D2B242F02002D2B21A70CE
:404900000DE0FB791A01114B1344FA7911010F4A0A441278D2B222F02002D2B21A70FB791A010A4B1344FA791101084A0A441278D2B242F00102D2B21A700023FB60FB683A
:4049400018461437BD465DF8047B70471070004080B485B000AF03460A46FB711346BB710123FB60FB79172B18D8FB791A010F4B13441B78DBB223F00E03FB72FB791A01F9
:404980000A4B1344BA7902F00702D2B25200D1B2FA7A0A43D2B21A700023FB60FB6818461437BD465DF8047B704700BF1070004080B485B000AF0346FB710B46BB801346AC
:4049C0007B800123FB60BB8841F6FF72934202D14FF40053BB807B8841F6FF72934202D14FF400537B80FB79172B17D8FB79DB0003F1804303F5EC430433BB60BB68BA886C
:404A00001A80FB79DB0003F1804303F5EC430633BB60BB687A881A800023FB60FB6818461437BD465DF8047B704700BF80B485B000AF03460A46FB711346BB710123FB60A4
:404A4000FB79172B07D8FB791A01064B1344BA795A720023FB60FB6818461437BD465DF8047B70471070004090B484B000AF0446084611461A462346FB710346BB710B4682
:404A80007B7113463B710123FB60FB79172B34D8FB79DB0003F1804303F5EC43BA7902F07F02D1B27A79D201D2B20A43D2B21A70FB79DB0003F1804303F5EC433A7E1201D1
:404AC000D1B23A7902F00F02D2B20A43D2B25A70FB79DB0003F1804303F5EC433A7F02F00F02D2B29A70FB79DB0003F1804303F5EC430022DA700023FB60FB6818461037C8
:404B0000BD4690BC704700BF80B582B000AFFF23FB71FFF79CFE0346BB71104B1B78182B12D90F4B1B78FB710C4B1B78013BDAB20A4B1A70FB79DB0003F1804303F5F043D0
:404B40001B78DAB2064B1A70BB791846FFF783FEFB7918460837BD4680BD00BF4481FF1F4581FF1F90B484B000AF0446084611461A462346FB710346BB800B46BB711346B6
:404B8000FB700123FB60FB795BB2002B23DBBB8823F47F6323F00F039BB2002B1BD1FB79DB0003F1804303F5F043BB60BB68BA881A80FB79DB0003F1804303F5F043BA79ED
:404BC0009A70FB79DB0003F1804303F5F043FA78DA700023FB60FB6818461037BD4690BC704700BF80B485B000AF0346FB710B46BB8013467B800123FB60FB795BB2002B9B
:404C000017DBFB79DB0003F1804303F5F0430433BB60BB68BA881A80FB79DB0003F1804303F5F0430633BB60BB687A881A800023FB60FB6818461437BD465DF8047B7047A4
:404C400080B483B000AF0346FB7101BE0C37BD465DF8047B704700BF80B582B000AF786008E00C4B1B681846FFF7D2FD7B68A3F500437B607B68B3F5004FF2D8064B1B6836
:404C80007A6802FB03F31846FFF7C2FD0837BD4680BD00BF5881FF1F5081FF1F80B582B000AF0346FB80FB88044A127802FB03F31846FFF7ADFD0837BD4680BD5481FF1F50
:404CC00080B584B000AF03463960FB710F4B1B68FB60FB791F2B02D90020FFF7B1FFFB7903F01F0310339B00FA6813441B68BB60FB7903F01F0310339B00FA6813443A6837
:404D00001A60BB6818461037BD4680BD08ED00E080B582B000AF03460A46FB711346BB71BB79072B02D90020FFF78AFFFB791F2B02D90020FFF784FFFB7903F01F0303F1ED
:404D4000604303F56443BA795201D2B21A700837BD4680BD80B500AF00F028F9022000F05DF9042000F07AF900F0E0F9FFF7CCFE03461A46084B1A70FFF7C6FE03461A4688
:404D8000064B1A700648052100F038F80548FA2100F06CF880BD00BF4E83FF1F4F83FF1FA8680300B068030080B500AF00F01CF900F0C2F9074B1B7818460121FFF782FD51
:404DC000054B1B7818460121FFF77CFD002000F065F980BD4C83FF1F4D83FF1F80B500AF054B1B78002B04D1FFF7B4FF024B01221A70FFF7D9FF80BD4B83FF1F80B582B093
:404E000000AF78600B467B807B681B0C9BB2012001211A464FF4804300F060F803461A46104B1A70104B19780F4B1B787A88084611461A460123FFF795FE0B4B1A787B6871
:404E40009BB21046194645F68232FFF7CBFE054B1A78054B1B7810461946FFF7E7FD0837BD4680BD4C83FF1F4E83FF1F80B582B000AF78600B467B807B681B0C9BB2012021
:404E800001211A464FF4804300F05CF803461A46104B1A70104B19780F4B1B787A88084611461A460123FFF75DFE0B4B1A787B689BB21046194645F68232FFF793FE054BB0
:404EC0001A78054B1B7810461946FFF7AFFD0837BD4680BD4D83FF1F4F83FF1F90B585B002AF0446084611461A462346FB710346BB710B46BB8013467B80114B01221A70DC
:404F00000F4B1878F979BA7900230093002301930023FFF7A9FD0A4B1978BA887B88084611461A46FFF744FD054B1B7818460221FFF70EFD024B1B7818460C37BD4690BD19
:404F40005C81FF1F90B585B002AF0446084611461A462346FB710346BB710B46BB8013467B80114B02221A700F4B1878F979BA7900230093002301930023FFF775FD0A4BAC
:404F80001978BA887B88084611461A46FFF710FD054B1B7818460221FFF7DAFC024B1B7818460C37BD4690BD5D81FF1F80B500AF0A4B00221A700A4B00221A70094A094B89
:404FC0001B78DBB243F00803DBB21370002000F045F8022000F022F880BD00BF2858004029580040975A004080B400AF094A094B1B78DBB243F00403DBB21370064A064B87
:405000001B78DBB243F00403DBB21370BD465DF8047B7047A8430040B843004080B483B000AF0346FB710C4A0B4B1B78DBB223F00203DBB213700849074B1B78DAB2FB791D
:4050400003F00203DBB21343DBB20B700C37BD465DF8047B704700BF2858004080B582B000AF0346FB710C4A0B4B1B78DBB223F00C03DBB213700849074B1B78DAB2FB79FE
:4050800003F00C03DBB21343DBB20B7000F016F80837BD4680BD00BF2858004080B483B000AF0346FB71044AFB7913700C37BD465DF8047B704700BF825B004080B483B0E3
:4050C00000AF0B4B1B78DBB203F00C039B08DBB20633FB71074AFB7903F1924303F594731B78DBB213700C37BD465DF8047B7047285800400A46004080B400AF094A094BD9
:405100001B78DBB243F00403DBB21370064A064B1B78DBB243F00403DBB21370BD465DF8047B7047A2430040B243004080B500AF022000F025F880BD80B400AF0D4A0D4B30
:405140001B78DBB243F06003DBB213700A4A0A4B1B78DBB243F00103DBB21370074A074B1B78DBB243F00103DBB21370BD465DF8047B704777580040A4430040B443004054
:4051800080B483B000AF0346FB710C4A0B4B1B78DBB223F00303DBB213700849074B1B78DAB2FB7903F00303DBB21343DBB20B700C37BD465DF8047B704700BF5858004095
:4051C00080B582B000AF0023FB7106E0FB791846FEF7D8FFFB790133FB71FB79022BF5D9024BFF221A700837BD4680BD5E81FF1F80B582B000AF0346FB71FFF7E1FFFB797A
:405200001846FEF789FF034AFB7913700837BD4680BD00BF5E81FF1F80B582B000AF4FF0FF337B6001F008FC01F086FC0346002B0AD1012001F04EFC0346072B01D1072328
:405240007B6001F0ADFC01E004237B607B6818460837BD4680BD00BF80B584B000AF78601D4B1B78DBB203F00203002B28D11A4B1B78DBB29B08DBB2002B1ED107F10803F1
:405280001846022101F0FAFB0346022B11D13B7A012B04D17B7A9AB27B681A8006E07B7A9BB25B429BB29AB27B681A800023FB6008E04FF0FF33FB6004E00723FB6001E064
:4052C0001023FB60FB68072B01D001F069FCFB6818461037BD4680BD2247004080B584B000AF7860FFF798FFB860BB68072B1DD14FF4FA53FB8116E0BB68072B06D00E4B15
:405300001B78DBB203F00203002B0FD1BB68072B03D17868FFF7A0FFB8600A20FFF7BEFCFB890A3BFB81FB89002BE5D1BB6818461037BD4680BD00BF2247004080B584B037
:4053400000AF78600223FB720AE07868FFF7C6FFF860FB68002B00D005E0FB7A013BFB72FB7A002BF1D1FB6818461037BD4680BD80B400AF034B1B78DBB21846BD465DF825
:40538000047B70476164004080B400AF034B1B78DBB21846BD465DF8047B70476565004080B400AF034B1B78DBB21846BD465DF8047B70476364004080B400AF034B1B7863
:4053C000DBB21846BD465DF8047B70476064004080B400AF034B1B78DBB21846BD465DF8047B70476765004080B500AF054B1B78002B04D100F008F8024B01221A7000F046
:4054000023F880BD5083FF1F80B500AF00200721FFF77EFC00200949FFF752FC084A084B1B78DBB243F00603DBB213700C2000F071F8044B00221A8080BD00BFB956000025
:40544000015900404085FF1F80B582B000AFFFF7FEF90346FB71264A254B1B78DBB243F00103DBB21370234A224B1B78DBB243F00103DBB21370204B1B78BB71BB7943F0DE
:405480000203BB71BB7943F00103BB711A4ABB7913701A4B18221A70194A194B1B78DBB243F04003DBB21370154A154B1B78DBB223F00303DBB21370124BC8221A70124B3D
:4054C00002221A70114A114B1B78DBB243F00803DBB213700A20FFF7E1FB0D4B01221A60FB791846FFF7B7F90837BD4680BD00BFAB430040BB43004003590040065900408B
:40550000055900400059004014460040275B004080E200E080B584B000AF0346FB71FB790A2B07D00C2B02D0082B06D008E0C223FB730BE08223FB7308E04223FB7305E05E
:40554000C223FB730020FFF77BFB00BF044AFB7B1370FB79184600F02FF81037BD4680BD0259004080B400AF054A054B1B78DBB243F00103DBB21370BD465DF8047B7047C4
:405580000059004080B483B000AF094B1B88FB80084B1B889BB29BB2FA88D31A9BB29BB21BB218460C37BD465DF8047B704700BFA05B00403A85FF1F80B584B000AF0346FD
:4055C000FB71FB790A2B08D00C2B02D0082B08D00BE04FF48053FB600DE04FF48063FB6009E04FF48073FB6005E00023FB600020FFF726FB00BF0C4B00221A80FB6842F263
:40560000107202FB03F303F58063002B01DA03F2FF73DB121A46054B1A60054B00221A801037BD4680BD00BF3885FF1F3C85FF1F3A85FF1F90B585B000AF0346FB801A4B5B
:405640001B889BB2002B09D0174B1B889BB21AB213469B0013445B00FB6002E0134B1B68FB60134B1B889BB2FA889BB2D31A9BB2FB80B7F90630184602F032F80346184620
:405680000C4902F081F803461C46F86802F028F803462046194602F02BF90346BB60BB6818461437BD4690BD3885FF1F3C85FF1F4085FF1F0000204180B400AFBD465DF830
:4056C000047B704780B500AF054B1B78002B04D100F008F8024B01221A7000F023F880BD5183FF1F80B500AF01200721FFF710FB01200949FFF7E4FA084A084B1B78DBB24F
:4057000043F00603DBB213700C2000F071F8044B00221A8080BD00BF95590000095900404A85FF1F80B582B000AFFFF790F80346FB71264A254B1B78DBB243F00203DBB206
:405740001370234A224B1B78DBB243F00203DBB21370204B1B78BB71BB7943F00203BB71BB7943F00103BB711A4ABB7913701A4B18221A70194A194B1B78DBB243F040036A
:40578000DBB21370154A154B1B78DBB223F00303DBB21370124BC8221A70124B02221A70114A114B1B78DBB243F00803DBB213700A20FFF773FA0D4B02221A60FB7918467B
:4057C000FFF749F80837BD4680BD00BFAB430040BB4300400B5900400E5900400D59004008590040164600402F5B004080E200E080B584B000AF0346FB71FB790A2B07D041
:405800000C2B02D0082B06D008E0C223FB730BE08223FB7308E04223FB7305E0C223FB730020FFF70DFA00BF044AFB7B1370FB79184600F02FF81037BD4680BD0A590040F4
:4058400080B400AF054A054B1B78DBB243F00103DBB21370BD465DF8047B70470859004080B483B000AF094B1B88FB80084B1B889BB29BB2FA88D31A9BB29BB21BB21846C4
:405880000C37BD465DF8047B704700BFA25B00404885FF1F80B584B000AF0346FB71FB790A2B08D00C2B02D0082B08D00BE04FF48053FB600DE04FF48063FB6009E04FF4D8
:4058C0008073FB6005E00023FB600020FFF7B8F900BF0C4B00221A80FB6842F2107202FB03F303F58063002B01DA03F2FF73DB121A46054B1A60054B00221A801037BD469D
:4059000080BD00BF4C85FF1F4485FF1F4885FF1F90B585B000AF0346FB801A4B1B889BB2002B09D0174B1B889BB21AB213469B0013445B00FB6002E0134B1B68FB60134BC9
:405940001B889BB2FA889BB2D31A9BB2FB80B7F90630184601F0C4FE034618460C4901F013FF03461C46F86801F0BAFE03462046194601F0BDFF0346BB60BB68184614371E
:40598000BD4690BD4C85FF1F4485FF1F4A85FF1F0000204180B400AFBD465DF8047B704780B500AF134B02221A70134B81221A70124B08221A70124B0C221A70114B0022E3
:4059C0001A70114B4FF400421A600F200721FFF79FF90F200D49FFF773F90D4B10221A700C4B00221A700C4B00221A700B4B00221A7080BDD6490040C8490040CA4900409A
:405A0000DB490040DC49004080E100E0915A00004E85FF1F5285FF1F5A85FF1F5085FF1F80B582B000AFFEF712FF0346FB710B4A0A4B1B78DBB243F00403DBB21370084A64
:405A4000074B1B78DBB243F00403DBB21370FB791846FEF700FF0837BD4680BDA5430040B543004080B500AF074B1B78002B04D1FFF796FF044B01221A70FFF7D1FF034B61
:405A80004FF400421A6080BD5283FF1F00E100E080B582B000AFA84B1B78FB71A74B1B78DBB203F04003DBB2002B00F0AC81FB7903F00103002B00F08381A04B1B78DBB23C
:405AC000453B052B00F2788101A252F823F000BFE95A0000115C0000B95D0000B95D0000E95A0000FF5C0000FB7923F02003FB71FB7903F00A03DBB2082B46D18F4B1B7804
:405B0000DBB2452B3AD18E4B1B78DBB2002B0FD08C4A8D4B1B681B78DBB21370864B04221A708A4B01221A70844B46221A706EE0874B1B78DBB203F00203002B0FD0854BB0
:405B40001B78DBB243F00A03DAB2824B1A707B4B60221A70804B4FF400421A6057E07F4A7E4B1B78DBB243F01003DBB213707C4B10221A70704B04221A7048E06E4B002216
:405B80001A706E4B4A221A701AE1FB7903F00A03DBB20A2B37D16F4B1B78DBB263F05F03DAB26C4B1A706A4B1B78DBB203F00203002B19D0614B1B78DBB203F00803002B41
:405BC00001D0092300E00A23DAB2624B1B78DBB21343DAB25F4B1A70584B60221A705E4B4FF400421A6012E05C4A5C4B1B78DBB243F01003DBB21370594B10221A704E4B27
:405C000004221A70DCE00020FFF71AF8D8E0D7E0FB7903F00203002B42D14C4B1B78DAB2474B1B78DBB29A4214D2464A464B1B6846490978C9B20B441B78DBB213703E4BE3
:405C400004221A70414B1B78DBB20133DAB23F4B1A7053E03E4B1B78DBB203F00203002B0FD03C4B1B78DBB243F00A03DAB2394B1A70324B60221A70374B4FF400421A608B
:405C80003CE0364A354B1B78DBB243F01003DBB21370334B10221A70274B04221A708FE02B4B1B78DBB203F00203002B0FD0294B1B78DBB263F06503DAB2264B1A701F4BAF
:405CC00060221A70244B4FF400421A6016E0234A224B1B78DBB243F01003DBB21370204B10221A70144B04221A701A4B1B78DBB263F06F03DAB2174B1A7061E060E0194B07
:405D00001B68194A1278D2B213440E4A1278D2B21A70154B1B78DBB20133DAB2124B1A70114B1B78DAB2114B1B78DBB29A421FD2014B10221A703EE0D74900404E85FF1FC6
:405D40005185FF1FD84900405C85FF1F5085FF1F5885FF1F5285FF1F80E100E0D6490040D94900405485FF1F5A85FF1F5985FF1F2C4B1B78DBB203F00203002B0FD02A4BEC
:405D80001B78DBB243F00903DAB2274B1A70274B60221A70264B4FF400421A600BE0254A244B1B78DBB243F01003DBB21370224B00221A7004E003E00020FEF741FF00BFDB
:405DC000FB7903F02003002B28D0184B1B78DBB203F00803002B01D0012300E00223DAB2114B1B78DBB21343DAB20F4B1A70114A104B1B78DBB223F01003DBB213700B4B20
:405E000010221A700AE0094B1B78DBB203F01003DBB2002B02D1054B10221A700837BD4680BD00BF5885FF1F5285FF1F4E85FF1F80E100E0D6490040D749004080B485B023
:405E400000AF03460A46FB711346BB710223FB73244B1B78DBB2102B3CD1234B1B78DBB203F00803002B33D1204B4FF400421A60FB795B00FB71BB79002B07D0FB7943F042
:405E80000103FB71174B49221A7002E0154B45221A70174AFB791370134B01221A7000BF144B1B78DBB203F00103002BF8D0114B1B78DBB203F00A03DBB20A2B05D1094BF5
:405EC00010221A700323FB7304E00023FB7301E00123FB73FB7B18461437BD465DF8047B704700BF4E85FF1FD949004080E100E0D8490040D749004080B483B000AF02236E
:405F0000FB71104B1B78DBB203F00403002B12D00C4B10221A700C4B04221A700B4B10221A7000BF084B1B78DBB203F02103002BF8D00023FB71FB7918460C37BD465DF80F
:405F4000047B7047D9490040D74900404E85FF1F80B485B000AF0346FB710023FB73174B1B78DBB203F00403002B1FD0144B1B78DBB2492B05D1134B00221A70104B4A22AA
:405F80001A7000BF0F4B1B78DBB203F00103002BF8D00D4B1B78FB73FB79002B03D0094B10221A7002E0064B60221A70FB7B18461437BD465DF8047B704700BFD94900404C
:405FC0004E85FF1FD7490040D849004080B400AF094A094B1B78DBB243F00803DBB21370064A064B1B78DBB243F00803DBB21370BD465DF8047B7047A2430040B243004000
:4060000080B500AF054B1B78002B04D100F008F8024B01221A7000F033F880BD5383FF1F80B582B000AF144A134B1B78DBB243F00103DBB21370D22000F02EF8D22000F040
:4060400049F8692000F056F8002000F063F8FEF7FEFB0346FB71094A084B1B78DBB243F01003DBB21370FB791846FEF7F4FB00F023F80837BD4680BD996400409864004035
:4060800080B400AFBD465DF8047B704780B400AFBD465DF8047B704780B483B000AF0346FB71044AFB7913700C37BD465DF8047B704700BF0964004080B500AF01E000F0FC
:4060C00045F800F037F8034603F01003002BF6D180BD00BF80B483B000AF0346FB71044AFB7913700C37BD465DF8047B704700BF4964004080B483B000AF0346FB71044A61
:40610000FB7913700C37BD465DF8047B704700BF2964004080B483B000AF0346FB71044AFB7913700C37BD465DF8047B704700BF8864004080B400AF034B1B78DBB2184690
:40614000BD465DF8047B70476864004080B400AF034B1B78DBB21846BD465DF8047B70475964004080B500AF074B0F221A7000F099F800F05DF800F06BF8044B00221A7046
:40618000034B00221A7080BD896500408B6500408865004080B582B000AFFEF758FB0346FB71124A114B1B78DBB243F02003DBB213700F4A0E4B1B78DBB243F01003DBB227
:4061C00013700C4A0B4B1B78DBB243F01003DBB21370FB791846FEF73EFB00F091F800F01BF800F01FF80837BD4680BD996500409B6500409865004080B500AF054B1B7876
:40620000002B04D1FFF7AEFF024B01221A70FFF7C1FF80BD5483FF1F80B400AFBD465DF8047B704780B400AFBD465DF8047B704780B483B000AF054B1B78FB71FB791846C0
:406240000C37BD465DF8047B704700BF6B65004080B483B000AF054B1B78FB71FB7918460C37BD465DF8047B704700BF6865004080B483B000AF0346FB7100BF074B1B783B
:40628000DBB203F00403002BF8D0054AFB7913700C37BD465DF8047B704700BF6B6500404864004080B582B000AF01E0114B1B78114B1B78DBB203F02003002BF6D1FEF733
:4062C000C6FA0346FB710D4A0C4B1B78DBB243F00103DBB21370094A084B1B78DBB223F00103DBB21370FB791846FEF7B4FA0837BD4680BD586400406865004098640040EE
:4063000080B400AF094A094B1B78DBB243F00203DBB21370064A064B1B78DBB243F00203DBB21370BD465DF8047B7047A2430040B243004080B485B000AF0346FB710B4B57
:406340001B78DBB223F00203FB730849FB795B00DBB203F00203DAB2FB7B1343DBB20B701437BD465DF8047B704700BF3051004080B485B000AF0346FB710B4B1B78DBB2D6
:4063800023F02003FB730849FB795B01DBB203F02003DAB2FB7B1343DBB20B701437BD465DF8047B704700BF3051004080B485B000AF0346FB710A4B1B78DBB223F0010363
:4063C000FB730749FB7903F00103DAB2FB7B1343DBB20B701437BD465DF8047B704700BF3051004080B500AF054B1B78002B04D100F008F8024B01221A7000F03FF880BDA6
:406400005583FF1F80B582B000AF1A4B1B78DBB223F03F03FB71174AFB7943F00903DBB21370154A144B1B78DBB243F00103DBB21370FF2000F032F8FF2000F04DF86920AB
:4064400000F05AF8002000F067F8FEF700FA0346BB71094A084B1B78DBB243F01003DBB21370BB791846FEF7F6F900F027F80837BD4680BD7F6400409F64004080B400AF9E
:40648000054A054B1B78DBB263F07F03DBB21370BD465DF8047B70477F64004080B483B000AF0346FB71044AFB7913700C37BD465DF8047B704700BF0F64004080B500AF50
:4064C00001E000F045F800F037F8034603F01003002BF6D180BD00BF80B483B000AF0346FB71044AFB7913700C37BD465DF8047B704700BF4F64004080B483B000AF034640
:40650000FB71044AFB7913700C37BD465DF8047B704700BF2F64004080B483B000AF0346FB71044AFB7913700C37BD465DF8047B704700BF8F64004080B400AF034B1B78B0
:40654000DBB21846BD465DF8047B70476F64004080B400AF034B1B78DBB21846BD465DF8047B70475F64004080B400AF034B1B78DBB21846BD465DF8047B70476E64004000
:4065800080B400AF034B1B78DBB21846BD465DF8047B70476A64004080B485B000AF0346FB710B4B1B78DBB223F00403FB730849FB799B00DBB203F00403DAB2FB7B134386
:4065C000DBB20B701437BD465DF8047B704700BF1051004080B400AF094A094B1B78DBB243F01003DBB21370064A064B1B78DBB243F01003DBB21370BD465DF8047B7047B5
:40660000A2430040B243004080B500AF00F0DAF8034B1B78FF2B01D100F068F880BD00BF7081FF1F80B500AF044B1B7818460121FEF748F900F0E4F880BD00BF5783FF1FE6
:4066400080B500AF054B1B78002B04D1FFF7DCFF024B01221A70FFF7E5FF80BD5683FF1F80B584B000AF0346FB80FB88DBB203F00F03BB73FB881B099BB27B73FB88B3F54E
:406680007F6F02D90020FEF7DBFA7B7BFF2B0DD10023FB7306E0FB7B134AFF21D154FB7B0133FB73FB7B0F2BF5D919E00023FB7313E0FA7BBB7BC3F110039A4204DAFB7BE5
:4066C00009497A7BCA5405E0FB7B7A7B0132D1B2054AD154FB7B0133FB73FB7B0F2BE8D91037BD4680BD00BF6081FF1F80B500AF0120012141F6FF724FF4804300F02EF802
:4067000003461A46124B1A70FEF7FEF903461A46104B1A700F4B1A780E4B1B78104610211A460123FEF71EFA0A4B1A780A4B9BB2104619464FF4B742FEF754FA044B1A78C1
:40674000044B1B7810461946FEF770F980BD00BF5783FF1F7081FF1F6081FF1F90B585B002AF0446084611461A462346FB710346BB710B46BB8013467B80114B00221A7076
:406780000F4B1878F979BA7900230093002301930023FEF769F90A4B1978BA887B88084611461A46FEF704F9054B1B7818460221FEF7CEF8024B1B7818460C37BD4690BD51
:4067C0007481FF1F80B500AF0A4B00221A700A4B00221A70094A094B1B78DBB243F00803DBB21370042000F045F8022000F022F880BD00BF2058004021580040875A004080
:4068000080B400AF094A094B1B78DBB243F00103DBB21370064A064B1B78DBB243F00103DBB21370BD465DF8047B7047A8430040B843004080B483B000AF0346FB710C4A4A
:406840000B4B1B78DBB223F00203DBB213700849074B1B78DAB2FB7903F00203DBB21343DBB20B700C37BD465DF8047B704700BF2058004080B582B000AF0346FB710C4AF8
:406880000B4B1B78DBB223F00C03DBB213700849074B1B78DAB2FB7903F00C03DBB21343DBB20B7000F006F80837BD4680BD00BF2058004080B483B000AF0B4B1B78DBB29D
:4068C00003F00C039B08DBB20633FB71074AFB7903F1924303F590731B78DBB213700C37BD465DF8047B7047205800400846004080B582B000AF00F091F8104800F072F83D
:40690000002000F053F8002000F034F800F042F80B4800F075F8FDF79AFF0346FB71094A084B1B78DBB243F01003DBB21370FB791846FDF790FF0837BD4680BD40420F0023
:4069400020A107009665004080B400AFBD465DF8047B704780B500AF054B1B78002B04D1FFF7C6FF024B01221A70FFF7EDFF80BD5883FF1F80B483B000AF0346FB71044AF6
:40698000FB7913700C37BD465DF8047B704700BF8665004080B400AF034B1B78DBB21846BD465DF8047B70476665004080B582B000AF78600348796800F01AF90837BD467E
:4069C00080BD00BF0465004080B400AF044B1B6823F07F431846BD465DF8047B704700BF4465004080B582B000AF78600348796800F0FEF80837BD4680BD00BF24650040CD
:406A000080B582B000AF78600348796800F0F0F80837BD4680BD00BF3465004080B500AF01E0FFF7D1FFFFF7B5FF034603F04003002BF6D180BD00BF80B582B000AFFDF7A1
:406A400006FF0346FB710B4A0A4B1B78DBB243F00803DBB21370084A074B1B78DBB243F00803DBB21370FB791846FDF7F4FE0837BD4680BDA0430040B043004080B584B03C
:406A800000AF78600B46FB700023FB7314E002E00120FEF703F90D4B1B78DBB203F00103002BF5D0FB7B7A681344094A1278D2B21A70FB7B0133FB73FA7BFB789A42E6D38C
:406AC000FB7B18461037BD4680BD00BF224700402047004080B485B000AF0346FB710723FB60134B1B78DBB203F00203002B16D0104BB6221A700F4BE1221A700D4B0E2227
:406B00001A700B4B1B78DBB203F00203002B03D1084AFB79137004E00923FB6001E00423FB60FB6818461437BD465DF8047B7047224700402047004080B582B000AF042320
:406B40007B60FDF784FE0346FB70124B1B78002B16D1104B01221A7000237B600E4B1B6803F00103002B0BD00B4A0B4B1B6823F00103136000BF00BF00BF084B01221A604A
:406B8000FB781846FDF767FE7B6818460837BD4680BD00BF5C83FF1F040008406083FF1F80B582B000AFFDF752FE0346FB710D4B00221A700C4B1B68012B0BD10B4A0B4B42
:406BC0001B6843F00103136000BF00BF00BF064B00221A60FB791846FDF73DFE0837BD4680BD00BF5C83FF1F6083FF1F0400084080B485B000AF786039607B68FB603B684B
:406C0000DAB2FB681A70FB6801333A68120AD2B21A70FB6802333A68120CD2B21A701437BD465DF8047B704781F0004102E000BF83F0004330B54FEA41044FEA430594EACE
:406C4000050F08BF90EA020F1FBF54EA000C55EA020C7FEA645C7FEA655C00F0E2804FEA5454D4EB5555B8BF6D420CDD2C4480EA020281EA030382EA000083EA010180EAA7
:406C8000020281EA0303362D88BF30BD11F0004F4FEA01314FF4801C4CEA113102D0404261EB410113F0004F4FEA03334CEA133302D0524263EB430394EA050F00F0A780F4
:406CC000A4F10104D5F1200E0DDB02FA0EFC22FA05F2801841F1000103FA0EF2801843FA05F359410EE0A5F120050EF1200E012A03FA0EFC28BF4CF0020C43FA05F3C01890
:406D000051EBE37101F0004507D54FF0000EDCF1000C7EEB00006EEB0101B1F5801F1BD3B1F5001F0CD349085FEA30004FEA3C0C04F101044FEA445212F5800F80F09A80BC
:406D4000BCF1004F08BF5FEA500C50F1000041EB045141EA050130BD5FEA4C0C404141EB010111F4801FA4F10104E9D191F0000F04BF01460020B1FA81F308BF2033A3F1FC
:406D80000B03B3F120020CDA0C3208DD02F1140CC2F10C0201FA0CF021FA02F10CE002F11402D8BFC2F1200C01FA02F120FA0CFCDCBF41EA0C019040E41AA2BF01EB04515F
:406DC000294330BD6FEA04041F3C1CDA0C340EDC04F11404C4F1200220FA04F001FA02F340EA030021FA04F345EA030130BDC4F10C04C4F1200220FA02F001FA04F340EA59
:406E00000300294630BD21FA04F0294630BD94F0000F83F4801306BF81F480110134013D4EE77FEA645C18BF7FEA655C29D094EA050F08BF90EA020F05D054EA000C04BF8F
:406E40001946104630BD91EA030F1EBF0021002030BD5FEA545C05D14000494128BF41F0004130BD14F580043CBF01F5801130BD01F0004545F0FE4141F470014FF000006E
:406E800030BD7FEA645C1ABF194610467FEA655C1CBF0B46024650EA013406BF52EA033591EA030F41F4002130BD00BF90F0000F04BF0021704730B54FF4806404F13204F8
:406EC0004FF000054FF0000150E700BF90F0000F04BF0021704730B54FF4806404F1320410F0004548BF40424FF000013EE700BF42004FEAE2014FEA31014FEA02701FBF73
:406F000012F07F4393F07F4F81F06051704792F0000F14BF93F07F4F704730B54FF4607401F0004521F0004120E700BF50EA010208BF704730B54FF000050AE050EA0102A2
:406F400008BF704730B511F0004502D5404261EB41014FF4806404F132045FEA915C3FF4DCAE4FF003025FEADC0C18BF03325FEADC0C18BF033202EBDC02C2F1200300FAE3
:406F800003FC20FA02F001FA03FE40EA0E0021FA02F11444C1E600BF70B54FF0FF0C4CF4E06C1CEA11541DBF1CEA135594EA0C0F95EA0C0F00F0DEF82C4481EA030621EA2E
:406FC0004C5123EA4C5350EA013518BF52EA033541F4801143F4801338D0A0FB02CE4FF00005E1FB02E506F00042E0FB03E54FF00006E1FB03569CF0000F18BF4EF0010E4F
:40700000A4F1FF04B6F5007F64F5407404D25FEA4E0E6D4146EB060642EAC62141EA55514FEAC52040EA5E504FEACE2EB4F1FD0C88BFBCF5E06F1ED8BEF1004F08BF5FEA13
:40704000500E50F1000041EB045170BD06F0004646EA010140EA020081EA0301B4EB5C04C2BFD4EB0C0541EA045170BD41F480114FF0000E013C00F3AB8014F1360FDEBF68
:40708000002001F0004170BDC4F10004203C35DA0C341BDC04F11404C4F1200500FA05F320FA04F001FA05F240EA020001F0004221F0004110EBD37021FA04F642EB0601E5
:4070C0005EEA430E08BF20EAD37070BDC4F10C04C4F1200500FA04F320FA05F001FA04F240EA020001F0004110EBD37041F100015EEA430E08BF20EAD37070BDC4F12005A3
:4071000000FA05F24EEA020E20FA04F301FA05F243EA020321FA04F001F0004121FA04F220EA020000EBD3705EEA430E08BF20EAD37070BD94F0000F0FD101F00046400091
:4071400041EB010111F4801F08BF013CF7D041EA060195F0000F18BF704703F00046520043EB030313F4801F08BF013DF7D043EA0603704794EA0C0F0CEA135518BF95EAB3
:407180000C0F0CD050EA410618BF52EA4306D1D181EA030101F000414FF0000070BD50EA410606BF1046194652EA430619D094EA0C0F02D150EA013613D195EA0C0F05D1B2
:4071C00052EA03361CBF104619460AD181EA030101F0004141F0FE4141F470014FF0000070BD41F0FE4141F4780170BD70B54FF0FF0C4CF4E06C1CEA11541DBF1CEA135591
:4072000094EA0C0F95EA0C0F00F0A7F8A4EB050481EA030E52EA03354FEA013100F088804FEA03334FF0805545EA131343EA12634FEA022245EA111545EA10654FEA002672
