:400000000080002011000000ED220000ED22000080B500AF024A034B1B68136002F094F9BC760040FA46004010B5054C237833B9044B13B10448AFF300800123237010BD6A
:40004000F881FF1F00000000C47C0000084B10B51BB108480849AFF300800848036803B910BD074B002BFBD0BDE81040184700BF00000000C47C0000FC81FF1F0881FF1FE1
:400080000000000090B484B000AF7860084611461A460346FB700B46BB7013467B70BC783B7E2344DCB22346013BDCB27B6893F839207B6893F83B30FA73BB73BB787B7357
:4000C00023463B73BA7B7B7B9A420DD3FA7B3B7B9A4201D8012314E07A7B3B7B9A4201D901230EE000230CE0FA7B3B7B9A4207D87A7B3B7B9A4201D9012302E0002300E038
:400100000023002B01D1002332E0FC787B782344DCB22346013BDCB27B6893F838207B6893F83A30FA72BB72FB787B7223463B72BA7A7B7A9A420DD3FA7A3B7A9A4201D86B
:40014000012314E07A7A3B7A9A4201D901230EE000230CE0FA7A3B7A9A4207D87A7A3B7A9A4201D9012302E0002300E0002300BF18461037BD4690BC704700BF90B585B0D5
:4001800000AFF860B9601346FB71BB689C68FB79F86801211A460023A047034618461437BD4690BD90B585B000AFF860B9601346FB71BB689C68FB79F86803211A46002390
:4001C000A0471437BD4690BD90B583B000AF786039603B689C687868042100220023A0470C37BD4690BD00BF90B583B000AF786039603B689C687868042101220023A0474A
:400200000C37BD4690BD00BF90B585B000AFF860B9601346FB71BB689C68FB79F86802211A460023A0471437BD4690BD90B585B000AFF860B9601346FB71BB689C68FB79F0
:40024000F86805211A460023A047034618461437BD4690BD90B585B000AFF860B9603B601346FB71BB689C68FB79F86806211A463B68A047034618461437BD4690BD00BF45
:4002800080B586B000AFF860B9607A600023FB757B681B78BB75FB7D002B10D1BB7DFF2B0AD0BB7DF868B9681A46FFF7BFFF0346002B63D1002365E00123FB755EE0BB7DF9
:4002C000FF2B0AD1BB7DF868B9681A46FFF7AEFF0346002B50D1002354E0BB7DFE2B02D100BF01234EE0BB7DEF2B45D8BB7DDF2B09D9BB7D03F00F03DBB2F868B9681A46CE
:40030000FFF782FF38E0BB7DCF2B09D9BB7D03F00F03DBB2F868B9681A46FFF743FF2BE0BB7DBF2B1CD9F868B968FFF74DFFBB7D03F00F03BB75BB7D1B01BB75BB7D0233F4
:40034000BB75BB7D9BB2184601F00AF9F868B968FFF74AFFBB7D9BB2184601F001F90BE0BB7DBD2B08D8BB7D5BB2002B04DBBB7D9BB2184601F0F4F80023FB757B68013344
:400380007B6085E718461837BD4680BD80B485B000AFF8607B600B46FB721346BB72FB7A062B11D801A252F823F000BFC9030000C9030000C9030000C9030000C903000030
:4003C000C9030000C9030000012318461437BD465DF8047B704700BF80B483B000AF78600B46FB70FB787A6813447B607B681B7818460C37BD465DF8047B704780B485B00C
:4004000000AF78600B46FB70FB787A6813447B607B681B78FB817B6801337B60FB891B02FB817B681B789AB2FB891344FB81FB8918461437BD465DF8047B704780B582B0B6
:4004400000AF786078680021FFF7C6FF034618460837BD4680BD00BF80B582B000AF78607868FFF7EBFF0346012B05D0022B05D0002B05D1062304E0032302E0062300E03B
:40048000032318460837BD4680BD00BF80B582B000AF786078680521FFF79EFF034618460837BD4680BD00BF80B582B000AF786078680621FFF7A2FF034618460837BD4699
:4004C00080BD00BF80B582B000AF786078680821FFF794FF034618460837BD4680BD00BF80B582B000AF786078680A21FFF774FF034618460837BD4680BD00BF80B582B0ED
:4005000000AF786078680B21FFF766FF034618460837BD4680BD00BF80B582B000AF786078680C21FFF758FF0346DBB25BB218460837BD4680BD00BF80B582B000AF786033
:4005400078680D21FFF748FF0346DBB25BB218460837BD4680BD00BF80B582B000AF786078680E21FFF738FF0346DBB25BB218460837BD4680BD00BF80B582B000AF78601A
:4005800078680F21FFF728FF0346DBB25BB218460837BD4680BD00BF80B582B000AF786078681021FFF718FF0346DBB25BB218460837BD4680BD00BF80B582B000AF786016
:4005C00039607868FFF748FF03461A463B68134418460837BD4680BD80B584B000AF786039607B689B681846FFF728FF0346002B01D0022B1BD13B681A787B68DA773B6871
:400600005A787B6883F820203B6803331B78DAB27B681A773B6804331B78DAB27B685A773B6805331B78DAB27B689A7730E03B681B78FB73FB7B03F00F03DAB27B689A7794
:400640007B689B7FDBB2023BDBB2DAB27B689A77FB7B1B09FB73FA7B7B685A773B685B78FB73FB7B03F00F03DAB27B6883F82020FB7B1B09FB737B68FA7BDA773B689B7885
:40068000FB73FB7B1B09FB73FA7B7B681A7700BF1037BD4680BD00BF80B483B000AF78607B6800221A777B680022DA777B68002283F820207B6800225A777B6800229A7750
:4006C0000C37BD465DF8047B704700BF80B586B000AF78600B46FB707B689B687B617B689B681846FFF7AAFE03463B747B689B681846FFF7B1FE0346FB73FF237B743B7CB8
:40070000012B01D10F237B747B689B681846FFF7E7FE0346FB747B689B681846FFF7EEFE0346BB737B689B681846FFF7CBFE0346BB81FB78602B09D9BB89002B06D0BB8935
:400740007A6913447B616123FB7416E07B689B681846FFF7A9FE0346BB81FB78402B09D9BB89002B06D0BB897A6913447B614123FB7402E07B6911337B61FA78BB7B9A4278
:4007800004D97868FFF788FF002332E0FB7CBB74BA7CBB7B9A4228D87B691B78FF2B03D17B6901337B6117E0BA7CFB789A4205D178687969FFF710FF7B691AE07B69023363
:4007C0001A787B7C1340DBB21A467B6913447B61FB7B7A6913447B61BA7CBB7B9A4200D103E0BB7C0133BB74D6E77868FFF754FF002318461837BD4680BD00BF90B589B0C4
:4008000002AF7860084611461A460346FB700B46BB7013467B707B7878681946FFF756FFF860FB68002B01D1002369E07B689B681846F968FFF7C0FE78617B68DB7FFB7239
:400840007B6893F82030BB727B685B7FDAB2FB781344FB707B689B7FDBB2BA78D31ABB70BB78013BBB70BA78BB7AD31ADBB20133DAB2F978FC7ABB7A009378682346FFF712
:4008800001FC0346002B02D17B681B7F38E0FB7A0733FB72FB7ADB08FB72BB783B743A7CBB7AD31A3B743B7C01333B740023BB7420E0FB787B740023FB7411E07B691B78CD
:4008C000797C3A7C00937868002300F0B7FA7B6901337B617B7C08337B74FB7C0133FB74FA7CFB7A9A42E9D33B7C01333B74BB7C0133BB74BA7CBB7A9A42DAD37B681B7FBF
:400900005BB218461C37BD4690BD00BF80B586B000AFF8607B600B46FB721346BB720023FB75FB685B6AF868984703461A46BB7A1344BB7213E07B681B78F97ABA7AF8688D
:40094000FFF75CFF0346BB75BA7DFB7A1344FB72BA7DFB7D1344FB757B6801337B607B681B78002BE7D1FB7D18461837BD4680BD80B584B000AF78607B689B68002B00D145
:400980006CE07B6893F82830002B14D17B689B681846FFF77BFD0346DAB27B6883F829207B689B681846FFF7B7FD03461A467B6883F82A202DE07B6893F82830012B14D1C4
:4009C0007B689B681846FFF7D7FD03461A467B6883F829207B689B681846FFF7DDFD03461A467B6883F82A2013E07B689B681846FFF7A2FD03461A467B6883F829207B6835
:400A00009B681846FFF7A8FD03461A467B6883F82A207B6893F829305BB29AB27B6893F82A305BB29BB2D31A9BB2FB817B6893F82B30402B0DD0FB89DBB2FB817B6893F865
:400A40002B309BB2FA8902FB03F3FB81FB899B09FB81FB89DAB27B6883F82C201037BD4680BD00BF80B483B000AF7860002318460C37BD465DF8047B704700BF80B483B0D2
:400A800000AF78607B68034A5A620C37BD465DF8047B7047650A000080B582B000AF786039607B689A683B689A4208D07B683A689A607868FFF75CFF7868FFF7DFFF08371D
:400AC000BD4680BD90B585B000AFF860B9603B601346FB71BB681C68FB79F868B9681A463B68A047034618461437BD4690BD00BF80B584B000AF786039607B685B6B0220E1
:400B00009847786839680A220023FFF7DBFF0346FB737B685B6B032098477B685B6B00209847FB7B18461037BD4680BD80B582B000AF786039607B685B6B022098477B68BD
:400B40005B6B012098477868396814220023FFF7B9FF7B683833786839681722FFF7B2FF7B685B6B002098470837BD4680BD00BF80B584B000AF786039607B685B6B02203E
:400B800098477B685B6B012098477868396815220023FFF797FF0346FB73FB7B002B06D07B683833786839681722FFF78BFF7B685B6B00209847FB7B18461037BD4680BD8D
:400BC00080B584B000AFF860B9601346FB71FB1DF868B9680F22FFF775FF034618461037BD4680BD80B586B000AFF860B96011461A460B46FB711346BB71FB682D337B6122
:400C00007B69FA791A707B69BA795A707B6997F82020DA707B6997F824209A70F868B9683B227B69FFF74EFF1837BD4680BD00BF80B584B000AF7860396007F10F0378686E
:400C400039684622FFF73EFFFB7B18461037BD4680BD00BF80B584B000AF7860396007F10F03786839684722FFF72CFFFB7B18461037BD4680BD00BF80B582B000AF786078
:400C800039607868396848220023FFF71BFF034618460837BD4680BD80B582B000AF78607B685B6878681946FFF7C2FF03461A467B681A707B685B6878681946FFF7CAFF13
:400CC00003461A467B685A707B685B6878681946FFF7D2FF03461A467B68DA747B685A687B683833786811461722FFF7EBFE0837BD4680BD80B582B000AF78607B68002264
:400D00009A607B680022DA607B6800225A747B6801221A747B6822229A747B6800229A617868012100F0A6F87868FFF7A7FE7B68012283F828207B68002283F829207B685E
:400D4000002283F82A207B68402283F82B207B68002283F82C207B68024A5A630837BD4680BD00BF4D15000080B582B000AF78607B685B6878681946FFF7BAFE0346002B34
:400D800001D1002303E07868FFF786FF012318460837BD4680BD00BF80B584B000AFF860B9607A60F868FFF7A5FFFB68BA685A60FB685B687A689A60F868FFF7D5FF03462F
:400DC00018461037BD4680BD80B582B000AF78607B685B6878681946FFF7A8FE0837BD4680BD00BF80B582B000AF78607B689B69002B03D07B689B69786898477B685B6842
:400E000078681946FFF7B4FE034618460837BD4680BD00BF80B582B000AF78600B46FB707B685A68FB78786811461A46FFF7C8FE034618460837BD4680BD00BF90B585B072
:400E400002AF7860084611461A460346FB700B46BB7013467B707B685968FA78BC787B7800933B7E019378682346FFF7BBFE0C37BD4690BD80B483B000AF78600B46FB701E
:400E80007B68FA7883F831200C37BD465DF8047B704700BF80B485B000AF78607B68DB7CFB73FB7B282B01D1FF2306E07B68DB7C022B01D1032300E0012318461437BD4637
:400EC0005DF8047B704700BF80B582B000AF78607B68DB7C302B08D17B68FF2283F831207B68FF2283F8322007E07868FFF7D2FF034678681946FFF7BDFF0837BD4680BD64
:400F000080B483B000AF7860002318460C37BD465DF8047B704700BF80B582B000AF78607868FFF7EDFF034678681946FFF7A2FF0837BD4680BD00BF80B483B000AF7860B7
:400F40007B6800229A707B681A787B68DA707B68DB78013BDAB27B68DA707B6800221A710C37BD465DF8047B704700BF90B482B000AF78607B689A787B681B781344DAB22A
:400F80007B689A707B689A787B685B789A4201D3002318E07B681B790133DAB27B681A717B68DC787B681B782344DCB27B685B78A34204D87B685C782346013BDCB27B6843
:400FC0002246DA70012318460837BD4690BC704780B485B000AF78607B689B68FB60FB68BB607B685B791A46BB681344BB60FB685A1CFA6000221A70FA68BB689A42F6D116
:401000001437BD465DF8047B704700BF80B485B000AF78600B46FB701346BB707B68DB78FA789A4294BF01230023DBB2FB737B689B78BA789A422CBF01230023DBB2BB73DE
:40104000FA78BB789A428CBF01230023DBB27B73FB7B3B73FA7BBB7B1340FB73BA7B7B7B1340BB737A7B3B7B13407B73FA7BBB7B1343FB73FA7B7B7B1343FB73FB7B03F0B3
:401080000103DBB218461437BD465DF8047B704780B483B000AF786039603B6800221A707B689A783B685A707B685A793B689A703B689B78013BDAB23B689A707B68DA786D
:4010C0003B68DA700C37BD465DF8047B704700BF80B584B000AF786039603B685B78FB73FB7BBB733B68DB78032B13D801A252F823F000BF15110000051100001511000032
:401100000D110000BB7B0833BB7303E0FB7B083BFB7300BFFA7BBB7B786811461A46FFF775FF034618461037BD4680BD80B584B000AFF860B9607A60FB685A79FB689B6850
:40114000B8687968FFF786F8034618461037BD4680BD00BF90B484B000AF7860084611461A460346FB700B46BB7013467B707B689B68FB607B689B78BA78D31ABB700124EF
:40118000BB7803F00703BB702246BB7802FA03F3DCB2FB78FA681344FB607B78002B06D0FB681B782343DAB2FB681A7007E0E343DCB2FB681B782340DAB2FB681A701037B5
:4011C000BD4690BC704700BF80B582B000AF786039603B685A787B689B789A4200D216E03B685A787B68DB789A4200D90FE03B681A787B685B799A4200D308E03B6819788E
:401200003B685A783B681B797868FFF7A3FF0837BD4680BD90B585B000AF786039603B689C780023FB730023BB733B68DB78032B1AD801A252F823F0491200005112000004
:401240005912000061120000FB7B0133FB730BE0BB7B0133BB7307E0FB7B013BFB7303E0BB7B013BBB7300BFE3B25BB2002B03DA78683968FFF7A8FF3B681A78FB7B1344E2
:40128000DAB23B681A703B685A78BB7B1344DAB23B685A706300DCB2002CE5D11437BD4690BD00BF80B586B000AFF860B9603B601346FB71BB685B687B61FB790A3B3E2B7E
:4012C00000F2BA8001A252F823F000BF39140000391400003914000039140000391400003914000039140000391400003914000039140000ED130000FD13000039140000A4
:4013000017140000391400003914000039140000391400003914000039140000391400003914000039140000391400003914000039140000391400003914000039140000FF
:401340003914000039140000391400003914000039140000391400003914000039140000391400003914000039140000E313000039140000391400003914000039140000F4
:4013800039140000391400003914000039140000C91300003914000039140000391400003914000039140000391400003914000039140000391400003914000021140000E6
:4013C0002B1400003514000078693968FFF780FE0346002B04D078693968FFF71BFF2BE02AE078693968FFF7EFFE25E07869FFF7EFFD7B691846FFF79FFD1DE07B69184640
:40140000FFF7B4FD0346002B01D1002315E07869FFF7DEFD10E078693968FFF739FE0BE07B695A793B681A7006E07B695A783B681A7001E0012300E0012318461837BD4605
:4014400080BD00BF80B586B002AF7860084611461A460346FB700B46BB7013467B70FF23FB730DE0F978BA78FB7B009378680023FFF7E4FC7B78083B7B70FB780833FB70C7
:401480007B78072BEED87B78002B15D07B7883F007037B707B7801337B70FA7B7B7803F0070302FA03F3FB73F978BA78FB7B009378680023FFF7C2FC1037BD4680BD00BF63
:4014C00080B582B000AF7860084611461A460346FB700B46BB7013467B70F978BA787B787868FFF7AFFFBB780133BB703B7C013B3B743B7C002BF0D10837BD4680BD00BF56
:4015000090B585B002AF7860084611461A460346FB700B46BB7013467B70F978BA787C783B7E009378682346FEF7ACFD0346002B00D108E0F978BA787C783B7E0093786875
:401540002346FFF7BDFF0C37BD4690BD80B483B000AF0346FB710C37BD465DF8047B704780B582B000AF0346FB80FB88184601F0DBFE0837BD4680BD80B500AF012001F027
:40158000F5FE80BD80B500AF0A2001F0EFFE80BD90B587B000AFF8607B600B46FB721346BB72FB7A072B68D801A252F823F000BF7B160000D1150000FF15000011160000D8
:4015C000411600004F1600005D1600005D160000BB7A012B02D803F07BF90DE0BB7A022B02D803F075F907E0BB7A032B02D803F06FF901E003F06CF9FFF7BEFF3DE0FFF79F
:40160000C1FFBB7A184603F01FFAFFF7BBFF34E0BB7A002B0ED10023FB7504E0FFF7B2FFFB7D0133FB75FB7D042BF7D9012003F029FA02E0002003F025FAFFF79DFF1CE0BE
:40164000BB7A184603F0E2F9FFF79CFF15E0BB7A184603F079F9FFF78FFF0EE07C6808E023465C1C1B78184603F06EF9BB7A013BBB72BB7A002BF3D100BF012318461C37CB
:40168000BD4690BD80B586B000AFF860B9603B601346FB71FB790A3B0B2B7AD801A252F823F000BFD51600009317000093170000931700009317000039170000771700007E
:4016C00085170000931700009317000093170000EB160000F868B968FF22FEF74FFDF868B968324AFEF7CCFD53E0BB685B687B61F868B9682E4AFEF7C3FD7B691B7963F043
:401700004F03DBB2F868B9681A46FEF78FFDF868B9680122FEF778FD7869F968BA68FFF705FD0346002B01D100233AE0F868B9680022FEF737FD2CE0F868B9680122FEF70A
:4017400031FDF868B9680022FEF75EFDF868B9688122FEF76BFD3B681B789B08DBB2F868B9681A46FEF762FDF868B9680022FEF719FD012315E0F868B9680E4AFEF780FD1A
:4017800001230EE0F868B9680B4AFEF779FD012307E0FB79F868B9681A463B68FFF782FD034618461837BD4680BD00BFC0460300E0460300E8460300F446030080B500AFE5
:4017C00051485249524AFFF7E7FA4F483721FFF721FB00F0EFFC02F013F8022002F08CF84C4B00221A70032001F068FA00F006FD00F0B6F8484802F0D5F90246474B1A60E3
:40180000474B1B88DAB2474B1A70474B1B78012B1CD1464B1B78002B02D1022002F06CF8424B1B78012B14D1414B1B78002B02D1002002F0F3FF3E4B1B78012B02D1012065
:4018400002F0ECFF012002F057F802E0002002F053F802F0BFFA03469AB2364B1A80354B1B889BB21BB2184602F00CFB03461846314903F087FD03461A46304B1A602F4B4B
:401880001B68184603F01CFC02460B462C482D4904F09AFB02F00CFC03461A462A4B1A80294B1B881BB2184602F05AFC0246274B1A60264B1B68184603F002FC02460B46E4
:4018C0002348204904F080FB1C4B1A681F4B1B681046194603F056FD03461A461D4B1A601C4B1B68184603F0EBFB02460B461A481A4904F069FB7A2002F094F800F0B2FCBC
:40190000322001F011FD71E76483FF1F3081FF1F911500002D83FF1F1C83FF1FA483FF1F2883FF1F2683FF1F1583FF1F1683FF1F1783FF1F2283FF1F00002041A083FF1F9A
:401940004C83FF1F004703002483FF1F6083FF1FC883FF1FBC83FF1FAC83FF1F0847030080B500AF134B1B78052B21D801A252F823F000BF8D190000931900009919000044
:401980009F190000A5190000AB19000000F014F80FE000F051F80CE000F07EF809E000F08DF806E000F0BAF803E000F0FBF800E000BF80BD2D83FF1F98B500AF1D4B1C7829
:4019C0000020032100F0AEFB0346DBB22046194600F012F902F024F90346002B28D00020032100F09FFB0346032B06D1032001F065F9104B01221A701AE00020032100F035
:401A000091FB0346022B06D1032001F057F9094B02221A700CE00020032100F083FB0346002B05D1032001F049F9024B04221A7098BD00BF2D83FF1F98B500AF144B1C785B
:401A40000220032100F06EFB0346DBB22046194600F0D2F802F0E4F80346002B0CD00220032100F05FFB0346032B05D1032001F025F9074B03221A70064B1B78002B05D060
:401A8000032001F01BF9024B00221A7098BD00BF2D83FF1FE183FF1F98B500AF064B1C780020032100F03EFB0346DBB22046194600F0A2F898BD00BF2D83FF1F98B500AF50
:401AC000124B1C780020032100F02CFB0346DBB22046194600F090F80D4B1B78002B05D0032001F0EBF8094B01221A70094B1B78002B09D0084B1B78002B0CBF0123002396
:401B0000DBB21A46044B1A7098BD00BF2D83FF1FE183FF1FD983FF1F1583FF1F98B500AF1D4B1C780020032100F0FCFA0346DBB22046194600F060F802F072F80346002B76
:401B40001ED00020032100F0EDFA0346032B0AD1124B1B789BB21BB2184601F0AFF80E4B05221A700CE00020032100F0DBFA0346002B05D1032001F0A1F8074B00221A7016
:401B8000074B1B78002B05D0032001F097F8024B00221A7098BD00BF2D83FF1F1A83FF1FE183FF1F80B500AFFF2000F07BFA0346DBB2184600F072FB0D4B1B78184603211F
:401BC00000F01AF802F02CF80346002B05D0032001F074F8064B04221A70064B1B78002B05D0032001F06AF8014B04221A7080BD2D83FF1FE183FF1F80B586B002AF0346BB
:401C00000A46FB711346BB71FB79FB73FB7B052B00F22E8201A252F823F000BF351C0000211D0000A11D000005200000051F0000211E0000A448FFF7C7F8A348FFF744F9E6
:401C4000BB79032B0AD1102300939F48002100228023FFF755FC9C48FFF75EF99A489B49FEF71AFF984802210D22994BFEF74EFE9548FFF729F9BB79022B0AD110230093FA
:401C80009148002110228023FFF73AFC8E48FFF743F98D488D49FEF7FFFE8B4802211D228C4BFEF733FE8848FFF70EF9BB79012B0AD1102300938448002120228023FFF7BC
:401CC0001FFC8148FFF728F97F488049FEF7E4FE7D4802212D22804BFEF718FE7A48FFF7F3F8BB79002B0AD1102300937648002130228023FFF704FC7348FFF70DF9724897
:401D00007249FEF7C9FE704802213C22734BFEF7FDFD6D48FFF766F80346002B8DD1A8E16948FFF751F86848FFF7CEF8BB79032B0AD1102300936448002100228023FFF7FB
:401D4000DFFB6148FFF7E8F85F486049FEF7A4FE5D4802210D22624BFEF7D8FD5A48FFF7B3F8BB79022B0AD1102300935648002110228023FFF7C4FB5348FFF7CDF8524837
:401D80005249FEF789FE504802211D22554BFEF7BDFD4D48FFF726F80346002BC3D168E14948FFF711F84848FFF78EF8BB79032B0AD1102300934448002100228023FFF7C2
:401DC0009FFB4148FFF7A8F83F484049FEF764FE3D4802210D22444BFEF798FD3A48FFF773F8BB79022B0AD1102300933648002110228023FFF784FB3348FFF78DF8324895
:401E00003249FEF749FE304802211D22374BFEF77DFD2D48FEF7E6FF0346002BC3D128E12948FEF7D1FF2848FFF74EF826482749FEF732FE244802210D222D4BFEF766FD4D
:401E4000102300932048582100222C23FFF758FB1D48FFF761F81C481C49FEF71DFE1A4860210D22234BFEF751FD1748FFF72CF815481649FEF710FE134802211D221E4B53
:401E8000FEF744FD1048FFF71FF80F480F49FEF703FE0D4802212D22184BFEF737FD0A48FFF712F808480949FEF7F6FD064802213C22134BFEF72AFD0348FEF793FF03464F
:401EC000002BB0D1D5E000BF6483FF1F402B0300104703002047030030470300404703004C4703005C4703006C4703007847030084470300E483FF1F9047030098470300C4
:401F0000A44703005C48FEF75FFF5B48FEF7DCFFBB79032B0AD1102300935748002100228023FFF7EDFA5448FEF7F6FF52485349FEF7B2FD504802210D22514BFEF7E6FC27
:401F40004D484E49FEF7A8FD4B4860210D224D4BFEF7DCFC4848FEF7B7FFBB79022B0AD1102300934448002110228023FFF7C8FA4148FEF7D1FF40484049FEF78DFD3E4818
:401F800002211D22404BFEF7C1FC3B48FEF79CFFBB79012B0AD1102300933748002120228023FFF7ADFA3448FEF7B6FF32483349FEF772FD304802212D22344BFEF7A6FCCC
:401FC0002D48FEF781FFBB79002B0AD1102300932948002130228023FFF792FA2648FEF79BFF25482549FEF757FD234802213C22274BFEF78BFC2048FEF7F4FE0346002B30
:4020000083D136E01C48FEF7DFFE1B48FEF75CFF19482049FEF740FD174816211A221E4BFEF774FC14481549FEF736FD124804212B221A4BFEF76AFC102300930E48002106
:4020400034228023FFF75CFA0B48FEF765FF0A480A49FEF721FD084802213F22104BFEF755FC0548FEF7BEFE0346002BCDD100E000BF1037BD4680BD6483FF1F402B030099
:4020800084470300E483FF1F9047030098470300A4470300C87C0000AC470300B4470300C447030080B582B000AF0346FB8000F0F3FD03469AB2194B1A80194B1A88174B28
:4020C0001B889A4223D0154B1B884FF6F972934205D9002000F0F2FD104B00221A800F4B1B881A46FB88013B9A420CDBFB88013B9BB29BB21BB2184600F0E0FDFB88013B03
:402100009AB2064B1A80054B1A88054B1A80044B1B8818460837BD4680BD00BF2883FF1F2A83FF1F80B582B000AF03460A46FB801346BB8000F0B0FD03469AB21B4B1A807A
:402140001B4B1A88194B1B889A4229D0174B1B884FF6F972934205D9002000F0AFFD134B00221A80114B1B88FA889A4207D9FB881BB2184600F0A2FD0C4AFB8813800B4B01
:402180001B88BA889A4207D8BB881BB2184600F095FD064ABB881380044B1A88044B1A80034B1B8818460837BD4680BD2883FF1F2A83FF1F80B500AF62B6052000F07EFDA1
:4021C00000F054FD00F06CFC002001F095FB01F06FF901F0D3FB01F02FFD01F0EBFD01F099FE01F055FF01F063F902F063F802F065FCC82000F052F880BD00BF80B500AFDB
:4022000001F0EAFC03461A46114B1A7001F0F0FC03461A460F4B1A7001F0F6FC03461A460D4B1A700B4B1B78002B02D00B4B00221A70094B1B78002B09D0094B1B78002B7B
:402240000CBF01230023DBB21A46054B1A7080BDE183FF1FD883FF1FD983FF1F2D83FF1F1B83FF1F80B500AF4820012102F00EFA03461A46074B1A60064B1B68002B06D196
:40228000002002F08DFA0346DAB2034B1A7002F05BFA80BDA483FF1F1E83FF1F80B584B000AF0346FB71FB79FB60FB68FE2B01DDFF23FB60FB68002B01DC0023FB60FB6881
:4022C000DBB2184602F084FCFB68DAB2044B1A7004480549FA6803F077FE1037BD4680BD1A83FF1FE483FF1FDC47030080B400AFFEE700BF80B584B000AF7860104B1A6814
:402300007B6813441A460F4BD31AB3F5007F09DC0B4B1B68FB600A4B1A687B681344084A136007E003F07EF902460C2313604FF0FF33FB60FB6818461037BD4680BD00BF98
:402340003C81FF1F2884FF1F80B586B000AF224B7B61224B3B61204B7B6135E03B691B68FB603B695B68BB603B699B683B6000237B600CE0FB681A68BB681A60BB680433E4
:40238000BB60FB680433FB607B6804337B607A683B689A42EED13B69DB683B6000237B6008E0BB6800221A60BB680433BB607B6804337B607A683B689A42F2D13B6910335C
:4023C0003B617B69013B7B617B69002BC6D103F02FF9FFF7F3F9FEE701000000D44A030080B582B000AF184B184A1A60184A184B1B6843F40073136000237B600FE07B6811
:40240000032B04D8134A7B6852F8233000E0124B12497A6841F822307B6801337B607B682F2BECD90E4B1B78DAB20E4B1A700E4B0A4A1A6000F04CFA00F07EFD0B4B002221
:402440001A600837BD4680BD0CED00E00004FA0514ED00E000000000ED2200000080FF1FBC7600400481FF1F08ED00E00081FF1F80B582B000AF78603960786800213A6846
:4024800003F007F90837BD4680BD00BF80B584B000AFF860B9607A60F868B9687A6803F0EDF81037BD4680BD80B483B000AF0346FB71FEE780B487B000AF78603960002368
:4024C0003B6100237B6127E07B699B007A6813441B68BB60BB68FB73BB6823F0FF03BB6014E03B695B003A6813441B781A46BB68134419463B695B003A6813445B780B7002
:402500003B6901333B61FB7B013BFB73FB7B002BE7D17B6901337B617B69292BD4D91C37BD465DF8047B704780B582B000AF514B00221A80504B50221A70504B03221A8095
:402540004F4B18221A704F4B04221A804E4B19221A704E4B04221A804D4B19221A704D4B95221A804C4B18221A704C4B40F22B121A804B4B18221A704A4B40F2DF121A80FF
:40258000494B19221A70494B01221A80484B1B221A70484848490822FFF778FF474B02221A704FF0402308221A70454B04221A70444B454A1278D2B21A70444B40F6197283
:4025C0001A80434B42F251221A800023FB7019237B6014E0FB785B00DAB23E4B1B78DBB203F00103DBB21343DBB203F00303FB704FF4F07000F074FC7B68013B7B607B682B
:40260000002B02D0FB78032BE4D17B68002B02D10320FFF749FF304B4FF480721A802E4B07221A702D4B00221A702D4B48221A70294B00221A702B4B02221A702A4B042220
:402640001A702A4B1B78294BFF221A70284A284B1B78DBB243F00303DBB21370254A254B1B78DBB263F07F03DBB213700837BD4680BD00BF80400040824000408440004033
:4026800086400040884000408A4000408C4000408E40004090400040924000409440004096400040984000409A4000409C4000409E40004000410040180B004800430040C1
:4026C00000420040A146004089010049224200402042004025420040044000400640004008400040014000400B400040A2430040A1430040A043004080B483B000AF2A4BDC
:402700001B78FB71294B1B78BB71294B1B787B71284AFB7903F00703DBB21370264AFB791B09DBB21370214ABB7943F00303DBB213701F4A7B7943F00303DBB213701F4B71
:4027400043F204021A801E4B80221A701D4B80221A701D4B80221A701C4B10221A701C4B01221A701B4B20221A701B4B02221A701A4B20221A701A4B40F201121A80194B71
:4027800001221A70184B01221A70094A7B791370064ABB791370154B44221A700C37BD465DF8047B704700BFCF010049F8460040F94600406E5800406F5800401C510040DB
:4027C000705800400159004009590040905A0040205B0040235B0040285B00402B5B0040405B0040585B00405B5B00407658004080B483B000AF0346FB71FB79022B24D82F
:40280000FA79FB791344FB71FB79124A52F82330FA79104951F822201178FA790E48825C0A43D2B21A70FB790133FB71FB79094A52F82330FA79074951F822201178FA79DD
:402840000548825C0A43D2B21A700C37BD465DF8047B7047E0470300F847030080B483B000AF0346FB71FB79022B28D8FA79FB791344FB71FB79144A52F82330FA79124942
:4028800051F822201178FA791048825CD243D2B20A40D2B21A70FB790133FB71FB790A4A52F82330FA79084951F822201178FA790648825CD243D2B20A40D2B21A700C3746
:4028C000BD465DF8047B7047E0470300F847030080B586B000AF72B6564B60221A70FFF723FE554A544B1B78DBB243F00403DBB213700023FB7513E0FA7D13465B00134428
:402900005B004E4A13443B613B691A683B699B889BB210461946FFF7ABFDFB7D0133FB75FB7D072BE8D90023FB751CE0FA7D13469B0013445B00424A1344FB60FB681B68CD
:40294000BB60FB685B687B60FB681A7A5B7A1B0213437B807B88B86879681A46FFF796FDFB7D0133FB75FB7D012BDFD94FF090403449FFF79FFD344B0A221A7033480421A9
:40298000FFF776FD32480421FFF772FD314A314B1B78DBB243F00203DBB213702E4A2E4B1B78DBB243F00203DBB213702B4A2B4B1B78DBB243F04003DBB21370284A284B7C
:4029C0001B78DBB243F01003DBB21370254826490A22FFF75BFD254825490822FFF756FD244825490822FFF751FD244824490A22FFF74CFD234824490A22FFF747FD234888
:402A000023490822FFF742FD224B84221A70224A214B1B78DBB243F00803DBB21370FFF76BFE1E480D490E22FFF730FD1837BD4680BD00BF00480040E84600400C480300DF
:402A40003C480300A80000488358004000760040087600400350014013500140A0430040C243004000510040DC0A0048C2510040E80A0048F2510040F00A004810510040FE
:402A8000F80A004820510040040B004832510040100B0048DB14014022430040B043004080B500AF054B1B78002B04D100F008F8024B01221A7000F03FF880BD2E83FF1FB2
:402AC00080B582B000AF1A4B1B78DBB223F03F03FB71174AFB7943F00903DBB21370154A144B1B78DBB243F00103DBB21370EF2000F032F8EF2000F04DF86E2000F05AF8F4
:402B0000002000F067F800F00AFA0346BB71094A084B1B78DBB243F01003DBB21370BB79184600F000FA00F027F80837BD4680BD716400409164004080B400AF054A054BCB
:402B40001B78DBB263F07F03DBB21370BD465DF8047B70477164004080B483B000AF0346FB71044AFB7913700C37BD465DF8047B704700BF0164004080B500AF01E000F0B3
:402B800045F800F037F8034603F01003002BF6D180BD00BF80B483B000AF0346FB71044AFB7913700C37BD465DF8047B704700BF4164004080B483B000AF0346FB71044ADE
:402BC000FB7913700C37BD465DF8047B704700BF2164004080B483B000AF0346FB71044AFB7913700C37BD465DF8047B704700BF8164004080B400AF034B1B78DBB2184615
:402C0000BD465DF8047B70476164004080B400AF034B1B78DBB21846BD465DF8047B70475164004080B400AFBD465DF8047B704780B582B000AF0F2000F06AF800F058F887
:402C400000F06DF90346FB71074A074B1B78DBB243F01003DBB21370FB79184600F063F90837BD4680BD00BF9665004080B500AF00F0AEF84FF4004000F0D6F8054B1B78FB
:402C8000002B04D1FFF7CEFF024B01221A70FFF7CFFF80BD2F83FF1F80B582B000AF00F0D3F80346FB80FB88A3F500439BB2BB80BB881BB218460837BD4680BD80B584B0B5
:402CC00000AF0346FB80B7F90630002B04DBFB88A3F50043FB8103E0FB88A3F50043FB81FB89184600F0A0F81037BD4680BD00BF80B400AF054B1B78DBB203F00F03DBB245
:402D00001846BD465DF8047B704700BF6665004080B483B000AF0346FB71044AFB7913700C37BD465DF8047B704700BF8665004080B582B000AF1C4B1B78DBB223F0070358
:402D4000FB71194AFB791370174B1B78DBB223F00303FB71144AFB79137000F0B1F84FF4004000F08DF84FF4004000F05DF8002000F03EF800F04CF84FF4004000F090F863
:402D800000F0CDF80346BB71084A084B1B78DBB243F01003DBB21370BB79184600F0C3F80837BD4680BD00BF756500409565004080B400AF054A054B1B78DBB263F07F0388
:402DC000DBB21370BD465DF8047B70477565004080B500AF054B1B78002B04D1FFF7A8FF024B01221A70FFF7E3FF80BD3083FF1F80B483B000AF0346FB71044AFB791370C7
:402E00000C37BD465DF8047B704700BF8565004080B400AF034B1B78DBB21846BD465DF8047B70476565004080B483B000AF0346FB80044AFB8813800C37BD465DF8047B39
:402E4000704700BF086A004080B400AF044B1B78044B1B889BB21846BD465DF8047B704704650040886A004080B400AF034B1B889BB21846BD465DF8047B7047886A004020
:402E800080B483B000AF0346FB80044AFB8813800C37BD465DF8047B704700BF486A004080B483B000AF0346FB80044AFB8813800C37BD465DF8047B704700BF686A004072
:402EC00080B500AF01E0FFF7CFFFFFF7A1FF034603F04003002BF6D180BD00BF00000000142816D902B4012114381049097811F0C001890904B40E4A515C04BC00BF00BFCE
:402F000000BF8841FDD500BF00BF02BC704700BF00BF70F10400FCD570470B050709EFF3108072B6704780F310887047004800401A2F0000AFF3008080B483B000AF134B3F
:402F40007F221A70124B80221A707F23FB710CE0FB79DB0003F1804303F5F043FA79013AD2B21A70FB79013BFB71FB79002BEFD1FB79DB0003F1804303F5F04300221A705E
:402F80000C37BD465DF8047B704700BF4181FF1F4081FF1F80B485B000AF03460A46FB711346BB710123FB60FB79172B2FD8BB79002B0ED0FB791A01184B1344FA791101D9
:402FC000164A0A441278D2B242F02002D2B21A700DE0FB791A01114B1344FA7911010F4A0A441278D2B222F02002D2B21A70FB791A010A4B1344FA791101084A0A4412781E
:40300000D2B242F00102D2B21A700023FB60FB6818461437BD465DF8047B70471070004080B485B000AF03460A46FB711346BB710123FB60FB79172B18D8FB791A010F4B41
:4030400013441B78DBB223F00E03FB72FB791A010A4B1344BA7902F00702D2B25200D1B2FA7A0A43D2B21A700023FB60FB6818461437BD465DF8047B704700BF1070004020
:4030800080B485B000AF0346FB710B46BB8013467B800123FB60BB8841F6FF72934202D14FF40053BB807B8841F6FF72934202D14FF400537B80FB79172B17D8FB79DB00A8
:4030C00003F1804303F5EC430433BB60BB68BA881A80FB79DB0003F1804303F5EC430633BB60BB687A881A800023FB60FB6818461437BD465DF8047B704700BF80B485B021
:4031000000AF03460A46FB711346BB710123FB60FB79172B07D8FB791A01064B1344BA795A720023FB60FB6818461437BD465DF8047B70471070004090B484B000AF0446C3
:40314000084611461A462346FB710346BB710B467B7113463B710123FB60FB79172B34D8FB79DB0003F1804303F5EC43BA7902F07F02D1B27A79D201D2B20A43D2B21A7082
:40318000FB79DB0003F1804303F5EC433A7E1201D1B23A7902F00F02D2B20A43D2B25A70FB79DB0003F1804303F5EC433A7F02F00F02D2B29A70FB79DB0003F1804303F54A
:4031C000EC430022DA700023FB60FB6818461037BD4690BC704700BF80B582B000AFFF23FB71FFF79CFE0346BB71104B1B78182B12D90F4B1B78FB710C4B1B78013BDAB219
:403200000A4B1A70FB79DB0003F1804303F5F0431B78DAB2064B1A70BB791846FFF783FEFB7918460837BD4680BD00BF4081FF1F4181FF1F90B484B000AF04460846114696
:403240001A462346FB710346BB800B46BB711346FB700123FB60FB795BB2002B23DBBB8823F47F6323F00F039BB2002B1BD1FB79DB0003F1804303F5F043BB60BB68BA88B5
:403280001A80FB79DB0003F1804303F5F043BA799A70FB79DB0003F1804303F5F043FA78DA700023FB60FB6818461037BD4690BC704700BF80B485B000AF0346FB710B46B0
:4032C000BB8013467B800123FB60FB795BB2002B17DBFB79DB0003F1804303F5F0430433BB60BB68BA881A80FB79DB0003F1804303F5F0430633BB60BB687A881A80002339
:40330000FB60FB6818461437BD465DF8047B704780B483B000AF0346FB7101BE0C37BD465DF8047B704700BF80B582B000AF786008E00C4B1B681846FFF7D2FD7B68A3F530
:4033400000437B607B68B3F5004FF2D8064B1B687A6802FB03F31846FFF7C2FD0837BD4680BD00BF5481FF1F4C81FF1F80B582B000AF0346FB80FB88044A127802FB03F38B
:403380001846FFF7ADFD0837BD4680BD5081FF1F80B584B000AF03463960FB710F4B1B68FB60FB791F2B02D90020FFF7B1FFFB7903F01F0310339B00FA6813441B68BB60E6
:4033C000FB7903F01F0310339B00FA6813443A681A60BB6818461037BD4680BD08ED00E080B582B000AF03460A46FB711346BB71BB79072B02D90020FFF78AFFFB791F2B76
:4034000002D90020FFF784FFFB7903F01F0303F1604303F56443BA795201D2B21A700837BD4680BD80B500AF00F044F9022000F079F9042000F096F900F0FCF9FFF7CCFE69
:4034400003461A46084B1A70FFF7C6FE03461A46064B1A700648052100F03AF80548FA2100F06EF880BD00BF3483FF1F3583FF1F504803005848030080B500AF00F038F94A
:4034800000F0DEF9084B1B7818460121FFF782FD064B1B7818460121FFF77CFD002000F081F900F085F880BD3283FF1F3383FF1F80B500AF054B1B78002B04D1FFF7B2FF4E
:4034C000024B01221A70FFF7D7FF80BD3183FF1F80B582B000AF78600B467B807B681B0C9BB2012001211A464FF4804300F07AF803461A46104B1A70104B19780F4B1B78F4
:403500007A88084611461A460123FFF793FE0B4B1A787B689BB21046194645F68232FFF7C9FE054B1A78054B1B7810461946FFF7E5FD0837BD4680BD3283FF1F3483FF1FE7
:4035400080B582B000AF78600B467B807B681B0C9BB2012001211A464FF4804300F076F803461A46104B1A70104B19780F4B1B787A88084611461A460123FFF75BFE0B4B7C
:403580001A787B689BB21046194645F68232FFF791FE054B1A78054B1B7810461946FFF7ADFD0837BD4680BD3383FF1F3583FF1F80B400AF094A094B1B78DBB243F02003DD
:4035C000DBB21370064A064B1B78DBB243F02003DBB21370BD465DF8047B7047A2430040B243004090B585B002AF0446084611461A462346FB710346BB710B46BB80134603
:403600007B80114B00221A700F4B1878F979BA7900230093002301930023FFF78DFD0A4B1978BA887B88084611461A46FFF728FD054B1B7818460221FFF7F2FC024B1B7875
:4036400018460C37BD4690BD5881FF1F90B585B002AF0446084611461A462346FB710346BB710B46BB8013467B80114B01221A700F4B1878F979BA790023009300230193B9
:403680000023FFF759FD0A4B1978BA887B88084611461A46FFF7F4FC054B1B7818460221FFF7BEFC024B1B7818460C37BD4690BD5981FF1F80B500AF0A4B00221A700A4B6E
:4036C00000221A70094A094B1B78DBB243F00803DBB21370002000F045F8022000F022F880BD00BF2858004029580040975A004080B400AF094A094B1B78DBB243F00403FE
:40370000DBB21370064A064B1B78DBB243F00403DBB21370BD465DF8047B7047A8430040B843004080B483B000AF0346FB710C4A0B4B1B78DBB223F00203DBB2137008496A
:40374000074B1B78DAB2FB7903F00203DBB21343DBB20B700C37BD465DF8047B704700BF2858004080B582B000AF0346FB710C4A0B4B1B78DBB223F00C03DBB21370084917
:40378000074B1B78DAB2FB7903F00C03DBB21343DBB20B7000F016F80837BD4680BD00BF2858004080B483B000AF0346FB71044AFB7913700C37BD465DF8047B704700BF9B
:4037C000825B004080B483B000AF0B4B1B78DBB203F00C039B08DBB20633FB71074AFB7903F1924303F594731B78DBB213700C37BD465DF8047B7047285800400A460040F8
:4038000080B400AF094A094B1B78DBB243F00403DBB21370064A064B1B78DBB243F00403DBB21370BD465DF8047B7047A2430040B243004080B500AF022000F025F880BD51
:4038400080B400AF0D4A0D4B1B78DBB243F06003DBB213700A4A0A4B1B78DBB243F00103DBB21370074A074B1B78DBB243F00103DBB21370BD465DF8047B70477758004039
:40388000A4430040B443004080B483B000AF0346FB710C4A0B4B1B78DBB223F00303DBB213700849074B1B78DAB2FB7903F00303DBB21343DBB20B700C37BD465DF8047BB6
:4038C000704700BF5858004080B582B000AF0023FB7106E0FB791846FEF7C0FFFB790133FB71FB79022BF5D9024BFF221A700837BD4680BD5A81FF1F80B582B000AF0346FF
:40390000FB71FFF7E1FFFB791846FEF771FF034AFB7913700837BD4680BD00BF5A81FF1F80B500AF064B00221A70064B00221A70042000F057F8022000F034F880BD00BF18
:40394000205800402158004080B400AF094A094B1B78DBB243F00103DBB21370064A064B1B78DBB243F00103DBB21370BD465DF8047B7047A8430040B843004080B500AF05
:40398000074B1B78002B04D1FFF7CAFF044B01221A70FFF7D9FF642000F044F880BD00BF3683FF1F80B483B000AF0346FB710C4A0B4B1B78DBB223F00203DBB21370084906
:4039C000074B1B78DAB2FB7903F00203DBB21343DBB20B700C37BD465DF8047B704700BF2058004080B582B000AF0346FB710C4A0B4B1B78DBB223F00C03DBB2137008499D
:403A0000074B1B78DAB2FB7903F00C03DBB21343DBB20B7000F016F80837BD4680BD00BF2058004080B483B000AF0346FB71044AFB7913700C37BD465DF8047B704700BF20
:403A4000805B004080B483B000AF0B4B1B78DBB203F00C039B08DBB20633FB71074AFB7903F1924303F590731B78DBB213700C37BD465DF8047B7047205800400846004085
:403A800080B582B000AF4FF0FF337B6001F0D8F801F056F90346002B0AD1012001F01EF90346072B01D107237B6001F07DF901E004237B607B6818460837BD4680BD00BF10
:403AC00080B584B000AF78601D4B1B78DBB203F00203002B28D11A4B1B78DBB29B08DBB2002B1ED107F108031846022101F0CAF80346022B11D13B7A012B04D17B7A9AB2DD
:403B00007B681A8006E07B7A9BB25B429BB29AB27B681A800023FB6008E04FF0FF33FB6004E00723FB6001E01023FB60FB68072B01D001F039F9FB6818461037BD4680BD52
:403B40002247004080B584B000AF7860FFF798FFB860BB68072B1DD14FF4FA53FB8116E0BB68072B06D00E4B1B78DBB203F00203002B0FD1BB68072B03D17868FFF7A0FF7D
:403B8000B8600A20FFF7F2FBFB890A3BFB81FB89002BE5D1BB6818461037BD4680BD00BF2247004080B584B000AF78600223FB720AE07868FFF7C6FFF860FB68002B00D009
:403BC00005E0FB7A013BFB72FB7A002BF1D1FB6818461037BD4680BD80B400AF034B1B78DBB21846BD465DF8047B70476464004080B400AF034B1B78DBB21846BD465DF8CC
:403C0000047B70476364004080B400AF034B1B78DBB21846BD465DF8047B70476765004080B400AF034B1B78DBB21846BD465DF8047B70476864004080B500AF054B1B78EE
:403C4000002B04D100F008F8024B01221A7000F023F880BD3783FF1F80B500AF00200721FFF7BEFB00200949FFF792FB084A084B1B78DBB243F00603DBB213700C2000F03D
:403C800071F8044B00221A8080BD00BF093F0000095900400084FF1F80B582B000AFFFF73EF90346FB71264A254B1B78DBB243F00203DBB21370234A224B1B78DBB243F09B
:403CC0000203DBB21370204B1B78BB71BB7943F00203BB71BB7943F00103BB711A4ABB7913701A4B18221A70194A194B1B78DBB243F04003DBB21370154A154B1B78DBB2C6
:403D000023F00303DBB21370124BC8221A70124B02221A70114A114B1B78DBB243F00803DBB213700A20FFF721FB0D4B01221A60FB791846FFF7F7F80837BD4680BD00BF33
:403D4000AB430040BB4300400B5900400E5900400D59004008590040164600402F5B004080E200E080B584B000AF0346FB71FB790A2B07D00C2B02D0082B06D008E0C22371
:403D8000FB730BE08223FB7308E04223FB7305E0C223FB730020FFF7BBFA00BF044AFB7B1370FB79184600F02FF81037BD4680BD0A59004080B400AF054A054B1B78DBB21E
:403DC00043F00103DBB21370BD465DF8047B70470859004080B483B000AF094B1B88FB80084B1B889BB29BB2FA88D31A9BB29BB21BB218460C37BD465DF8047B704700BF71
:403E0000A25B0040FA83FF1F80B584B000AF0346FB71FB790A2B08D00C2B02D0082B08D00BE04FF48053FB600DE04FF48063FB6009E04FF48073FB6005E00023FB60002081
:403E4000FFF766FA00BF0C4B00221A80FB6842F2107202FB03F303F58063002B01DA03F2FF73DB121A46054B1A60054B00221A801037BD4680BD00BFF883FF1FFC83FF1F27
:403E8000FA83FF1F90B585B000AF0346FB801A4B1B889BB2002B09D0174B1B889BB21AB213469B0013445B00FB6002E0134B1B68FB60134B1B889BB2FA889BB2D31A9BB28D
:403EC000FB80B7F90630184601F008FA034618460C4901F057FA03461C46F86801F0FEF903462046194601F001FB0346BB60BB6818461437BD4690BDF883FF1FFC83FF1F2E
:403F00000084FF1F0000204180B400AFBD465DF8047B704780B500AF054B1B78002B04D100F008F8024B01221A7000F023F880BD3883FF1F80B500AF01200721FFF750FACE
:403F400001200949FFF724FA084A084B1B78DBB243F00603DBB213700C2000F071F8044B00221A8080BD00BFE5410000015900400A84FF1F80B582B000AFFEF7D0FF03468E
:403F8000FB71264A254B1B78DBB243F00103DBB21370234A224B1B78DBB243F00103DBB21370204B1B78BB71BB7943F00203BB71BB7943F00103BB711A4ABB7913701A4B34
:403FC00018221A70194A194B1B78DBB243F04003DBB21370154A154B1B78DBB223F00303DBB21370124BC8221A70124B02221A70114A114B1B78DBB243F00803DBB2137087
:404000000A20FFF7B3F90D4B02221A60FB791846FEF789FF0837BD4680BD00BFAB430040BB4300400359004006590040055900400059004014460040275B004080E200E0B5
:4040400080B584B000AF0346FB71FB790A2B07D00C2B02D0082B06D008E0C223FB730BE08223FB7308E04223FB7305E0C223FB730020FFF74DF900BF044AFB7B1370FB79DF
:40408000184600F02FF81037BD4680BD0259004080B400AF054A054B1B78DBB243F00103DBB21370BD465DF8047B70470059004080B483B000AF094B1B88FB80084B1B88DB
:4040C0009BB29BB2FA88D31A9BB29BB21BB218460C37BD465DF8047B704700BFA05B00400884FF1F80B584B000AF0346FB71FB790A2B08D00C2B02D0082B08D00BE04FF4ED
:404100008053FB600DE04FF48063FB6009E04FF48073FB6005E00023FB600020FFF7F8F800BF0C4B00221A80FB6842F2107202FB03F303F58063002B01DA03F2FF73DB12ED
:404140001A46054B1A60054B00221A801037BD4680BD00BF0C84FF1F0484FF1F0884FF1F90B585B000AF0346FB801A4B1B889BB2002B09D0174B1B889BB21AB213469B006D
:4041800013445B00FB6002E0134B1B68FB60134B1B889BB2FA889BB2D31A9BB2FB80B7F90630184601F09AF8034618460C4901F0E9F803461C46F86801F090F8034620463A
:4041C000194601F093F90346BB60BB6818461437BD4690BD0C84FF1F0484FF1F0A84FF1F0000204180B400AFBD465DF8047B704780B500AF134B06221A70134B81221A7012
:40420000124B08221A70124B2F221A70114B00221A70114B4FF400421A600F200721FFF7DFF80F200D49FFF7B3F80D4B10221A700C4B00221A700C4B00221A700B4B0022F6
:404240001A7080BDD6490040C8490040CA490040DB490040DC49004080E100E0E14200000E84FF1F1284FF1F1A84FF1F1084FF1F80B582B000AFFEF752FE0346FB710B4A10
:404280000A4B1B78DBB243F00403DBB21370084A074B1B78DBB243F00403DBB21370FB791846FEF740FE0837BD4680BDA5430040B543004080B500AF074B1B78002B04D184
:4042C000FFF796FF044B01221A70FFF7D1FF034B4FF400421A6080BD3983FF1F00E100E080B582B000AFA84B1B78FB71A74B1B78DBB203F04003DBB2002B00F0AC81FB79B3
:4043000003F00103002B00F08381A04B1B78DBB2453B052B00F2788101A252F823F000BF39430000614400000946000009460000394300004F450000FB7923F02003FB711D
:40434000FB7903F00A03DBB2082B46D18F4B1B78DBB2452B3AD18E4B1B78DBB2002B0FD08C4A8D4B1B681B78DBB21370864B04221A708A4B01221A70844B46221A706EE094
:40438000874B1B78DBB203F00203002B0FD0854B1B78DBB243F00A03DAB2824B1A707B4B60221A70804B4FF400421A6057E07F4A7E4B1B78DBB243F01003DBB213707C4B54
:4043C00010221A70704B04221A7048E06E4B00221A706E4B4A221A701AE1FB7903F00A03DBB20A2B37D16F4B1B78DBB263F05F03DAB26C4B1A706A4B1B78DBB203F00203F8
:40440000002B19D0614B1B78DBB203F00803002B01D0092300E00A23DAB2624B1B78DBB21343DAB25F4B1A70584B60221A705E4B4FF400421A6012E05C4A5C4B1B78DBB244
:4044400043F01003DBB21370594B10221A704E4B04221A70DCE00020FEF75AFFD8E0D7E0FB7903F00203002B42D14C4B1B78DAB2474B1B78DBB29A4214D2464A464B1B682C
:4044800046490978C9B20B441B78DBB213703E4B04221A70414B1B78DBB20133DAB23F4B1A7053E03E4B1B78DBB203F00203002B0FD03C4B1B78DBB243F00A03DAB2394BF1
:4044C0001A70324B60221A70374B4FF400421A603CE0364A354B1B78DBB243F01003DBB21370334B10221A70274B04221A708FE02B4B1B78DBB203F00203002B0FD0294BBF
:404500001B78DBB263F06503DAB2264B1A701F4B60221A70244B4FF400421A6016E0234A224B1B78DBB243F01003DBB21370204B10221A70144B04221A701A4B1B78DBB234
:4045400063F06F03DAB2174B1A7061E060E0194B1B68194A1278D2B213440E4A1278D2B21A70154B1B78DBB20133DAB2124B1A70114B1B78DAB2114B1B78DBB29A421FD2F3
:40458000014B10221A703EE0D74900400E84FF1F1184FF1FD84900401C84FF1F1084FF1F1884FF1F1284FF1F80E100E0D6490040D94900401484FF1F1A84FF1F1984FF1FA4
:4045C0002C4B1B78DBB203F00203002B0FD02A4B1B78DBB243F00903DAB2274B1A70274B60221A70264B4FF400421A600BE0254A244B1B78DBB243F01003DBB21370224B2C
:4046000000221A7004E003E00020FEF781FE00BFFB7903F02003002B28D0184B1B78DBB203F00803002B01D0012300E00223DAB2114B1B78DBB21343DAB20F4B1A70114A38
:40464000104B1B78DBB223F01003DBB213700B4B10221A700AE0094B1B78DBB203F01003DBB2002B02D1054B10221A700837BD4680BD00BF1884FF1F1284FF1F0E84FF1F20
:4046800080E100E0D6490040D749004080B485B000AF03460A46FB711346BB710223FB73244B1B78DBB2102B3CD1234B1B78DBB203F00803002B33D1204B4FF400421A60C9
:4046C000FB795B00FB71BB79002B07D0FB7943F00103FB71174B49221A7002E0154B45221A70174AFB791370134B01221A7000BF144B1B78DBB203F00103002BF8D0114BC1
:404700001B78DBB203F00A03DBB20A2B05D1094B10221A700323FB7304E00023FB7301E00123FB73FB7B18461437BD465DF8047B704700BF0E84FF1FD949004080E100E076
:40474000D8490040D749004080B483B000AF0223FB71104B1B78DBB203F00403002B12D00C4B10221A700C4B04221A700B4B10221A7000BF084B1B78DBB203F02103002BAF
:40478000F8D00023FB71FB7918460C37BD465DF8047B7047D9490040D74900400E84FF1F80B485B000AF0346FB710023FB73174B1B78DBB203F00403002B1FD0144B1B78A7
:4047C000DBB2492B05D1134B00221A70104B4A221A7000BF0F4B1B78DBB203F00103002BF8D00D4B1B78FB73FB79002B03D0094B10221A7002E0064B60221A70FB7B184676
:404800001437BD465DF8047B704700BFD94900400E84FF1FD7490040D849004080B483B000AF0346FB71044AFB7913700C37BD465DF8047B704700BF7C64004080B500AF69
:40484000074B0F221A7000F099F800F05DF800F06BF8044B00221A70034B00221A7080BD86640040856400408764004080B582B000AFFEF754FB0346FB71124A114B1B7808
:40488000DBB243F02003DBB213700F4A0E4B1B78DBB243F01003DBB213700C4A0B4B1B78DBB243F01003DBB21370FB791846FEF73AFB00F091F800F01BF800F01FF80837FD
:4048C000BD4680BD96640040956400409764004080B500AF054B1B78002B04D1FFF7AEFF024B01221A70FFF7C1FF80BD3A83FF1F80B400AFBD465DF8047B704780B400AF44
:40490000BD465DF8047B704780B483B000AF054B1B78FB71FB7918460C37BD465DF8047B704700BF6564004080B483B000AF054B1B78FB71FB7918460C37BD465DF8047BC8
:40494000704700BF6764004080B483B000AF0346FB7100BF074B1B78DBB203F00403002BF8D0054AFB7913700C37BD465DF8047B704700BF656400404664004080B582B09D
:4049800000AF01E0114B1B78114B1B78DBB203F02003002BF6D1FEF7C2FA0346FB710D4A0C4B1B78DBB243F00103DBB21370094A084B1B78DBB223F00103DBB21370FB7918
:4049C0001846FEF7B0FA0837BD4680BD56640040676400409664004080B400AF094A094B1B78DBB243F00203DBB21370064A064B1B78DBB243F00203DBB21370BD465DF8A9
:404A0000047B7047A2430040B243004080B485B000AF0346FB710B4B1B78DBB223F00203FB730849FB795B00DBB203F00203DAB2FB7B1343DBB20B701437BD465DF8047BF6
:404A4000704700BF3051004080B485B000AF0346FB710B4B1B78DBB223F02003FB730849FB795B01DBB203F02003DAB2FB7B1343DBB20B701437BD465DF8047B704700BF5C
:404A80003051004080B485B000AF0346FB710A4B1B78DBB223F00103FB730749FB7903F00103DAB2FB7B1343DBB20B701437BD465DF8047B704700BF3051004080B500AF16
:404AC000054B1B78002B04D100F008F8024B01221A7000F03FF880BD3B83FF1F80B582B000AF1A4B1B78DBB223F03F03FB71174AFB7943F00903DBB21370154A144B1B78D8
:404B0000DBB243F00103DBB21370FF2000F032F8FF2000F04DF8692000F05AF8002000F067F8FEF7FCF90346BB71094A084B1B78DBB243F01003DBB21370BB791846FEF7D8
:404B4000F2F900F027F80837BD4680BD7B6500409B65004080B400AF054A054B1B78DBB263F07F03DBB21370BD465DF8047B70477B65004080B483B000AF0346FB71044A0E
:404B8000FB7913700C37BD465DF8047B704700BF0B65004080B500AF01E000F045F800F037F8034603F01003002BF6D180BD00BF80B483B000AF0346FB71044AFB79137060
:404BC0000C37BD465DF8047B704700BF4B65004080B483B000AF0346FB71044AFB7913700C37BD465DF8047B704700BF2B65004080B483B000AF0346FB71044AFB791370B5
:404C00000C37BD465DF8047B704700BF8B65004080B400AF034B1B78DBB21846BD465DF8047B70476B65004080B400AF034B1B78DBB21846BD465DF8047B70475B6500402A
:404C400080B582B000AFFEF76AF90346FB710B4A0A4B1B78DBB243F00803DBB21370084A074B1B78DBB243F00803DBB21370FB791846FEF758F90837BD4680BDA04300402D
:404C8000B043004080B584B000AF78600B46FB700023FB7314E002E00120FEF767FB0D4B1B78DBB203F00103002BF5D0FB7B7A681344094A1278D2B21A70FB7B0133FB7325
:404CC000FA7BFB789A42E6D3FB7B18461037BD4680BD00BF224700402047004080B485B000AF0346FB710723FB60134B1B78DBB203F00203002B16D0104BB6221A700F4BDD
:404D0000E1221A700D4B0E221A700B4B1B78DBB203F00203002B03D1084AFB79137004E00923FB6001E00423FB60FB6818461437BD465DF8047B7047224700402047004066
:404D400080B582B000AF04237B60FEF7E8F80346FB70124B1B78002B16D1104B01221A7000237B600E4B1B6803F00103002B0BD00B4A0B4B1B6823F00103136000BF00BF7B
:404D800000BF084B01221A60FB781846FEF7CBF87B6818460837BD4680BD00BF3C83FF1F040008404083FF1F80B582B000AFFEF7B6F80346FB710D4B00221A700C4B1B68E6
:404DC000012B0BD10B4A0B4B1B6843F00103136000BF00BF00BF064B00221A60FB791846FEF7A1F80837BD4680BD00BF3C83FF1F4083FF1F0400084081F0004102E000BFAE
:404E000083F0004330B54FEA41044FEA430594EA050F08BF90EA020F1FBF54EA000C55EA020C7FEA645C7FEA655C00F0E2804FEA5454D4EB5555B8BF6D420CDD2C4480EAA7
:404E4000020281EA030382EA000083EA010180EA020281EA0303362D88BF30BD11F0004F4FEA01314FF4801C4CEA113102D0404261EB410113F0004F4FEA03334CEA13333B
:404E800002D0524263EB430394EA050F00F0A780A4F10104D5F1200E0DDB02FA0EFC22FA05F2801841F1000103FA0EF2801843FA05F359410EE0A5F120050EF1200E012A90
:404EC00003FA0EFC28BF4CF0020C43FA05F3C01851EBE37101F0004507D54FF0000EDCF1000C7EEB00006EEB0101B1F5801F1BD3B1F5001F0CD349085FEA30004FEA3C0CBF
:404F000004F101044FEA445212F5800F80F09A80BCF1004F08BF5FEA500C50F1000041EB045141EA050130BD5FEA4C0C404141EB010111F4801FA4F10104E9D191F0000F68
:404F400004BF01460020B1FA81F308BF2033A3F10B03B3F120020CDA0C3208DD02F1140CC2F10C0201FA0CF021FA02F10CE002F11402D8BFC2F1200C01FA02F120FA0CFC09
:404F8000DCBF41EA0C019040E41AA2BF01EB0451294330BD6FEA04041F3C1CDA0C340EDC04F11404C4F1200220FA04F001FA02F340EA030021FA04F345EA030130BDC4F183
:404FC0000C04C4F1200220FA02F001FA04F340EA0300294630BD21FA04F0294630BD94F0000F83F4801306BF81F480110134013D4EE77FEA645C18BF7FEA655C29D094EA27
:40500000050F08BF90EA020F05D054EA000C04BF1946104630BD91EA030F1EBF0021002030BD5FEA545C05D14000494128BF41F0004130BD14F580043CBF01F5801130BD13
:4050400001F0004545F0FE4141F470014FF0000030BD7FEA645C1ABF194610467FEA655C1CBF0B46024650EA013406BF52EA033591EA030F41F4002130BD00BF90F0000F99
:4050800004BF0021704730B54FF4806404F132044FF000054FF0000150E700BF90F0000F04BF0021704730B54FF4806404F1320410F0004548BF40424FF000013EE700BF51
:4050C00042004FEAE2014FEA31014FEA02701FBF12F07F4393F07F4F81F06051704792F0000F14BF93F07F4F704730B54FF4607401F0004521F0004120E700BF50EA01027D
:4051000008BF704730B54FF000050AE050EA010208BF704730B511F0004502D5404261EB41014FF4806404F132045FEA915C3FF4DCAE4FF003025FEADC0C18BF03325FEA02
:40514000DC0C18BF033202EBDC02C2F1200300FA03FC20FA02F001FA03FE40EA0E0021FA02F11444C1E600BF80F0004002E000BF81F0004142001FBF5FEA410392EA030F57
:405180007FEA226C7FEA236C6AD04FEA1262D2EB1363C1BFD218414048404140B8BF5B42192B88BF704710F0004F40F4000020F07F4018BF404211F0004F41F4000121F05A
:4051C0007F4118BF494292EA030F3FD0A2F1010241FA03FC10EB0C00C3F1200301FA03F100F0004302D5494260EB4000B0F5000F13D3B0F1807F06D340084FEA310102F17A
:405200000102FE2A51D2B1F1004F40EBC25008BF20F0010040EA03007047490040EB000010F4000FA2F10102EDD1B0FA80FCACF1080CB2EB0C0200FA0CF0AABF00EBC2507D
:4052400052421843BCBFD0401843704792F0000F81F4000106BF80F400000132013BB5E74FEA41037FEA226C18BF7FEA236C21D092EA030F04D092F0000F08BF0846704764
:4052800090EA010F1CBF0020704712F07F4F04D1400028BF40F00040704712F100723CBF00F50000704700F0004343F0FE4040F4000070477FEA226216BF08467FEA236315
:4052C0000146420206BF5FEA412390EA010F40F4800070474FF0000304E000BF10F0004348BF40425FEA000C08BF704743F0964301464FF000001CE050EA010208BF7047EF
:405300004FF000030AE000BF50EA010208BF704711F0004302D5404261EB41015FEA010C02BF84460146002043F0B64308BFA3F18053A3F50003BCFA8CF2083AA3EBC25346
:4053400010DB01FA02FC634400FA02FCC2F12002BCF1004F20FA02F243EB020008BF20F00100704702F1200201FA02FCC2F1200250EA4C0021FA02F243EB020008BF20EA93
:40538000DC7070474FF0FF0C1CEAD0521EBF1CEAD15392EA0C0F93EA0C0F6FD01A4480EA010C400218BF5FEA41211ED04FF0006343EA501043EA5111A0FB01310CF00040B5
:4053C000B1F5000F3EBF490041EAD3715B0040EA010062F17F02FD2A1DD8B3F1004F40EBC25008BF20F00100704790F0000F0CF0004C08BF49024CEA502040EA51207F3A2B
:40540000C2BFD2F1FF0340EAC250704740F400004FF00003013A5DDC12F1190FDCBF00F000407047C2F10002410021FA02F1C2F1200200FA02FC5FEA310040F1000053EAE3
:405440004C0308BF20EADC70704792F0000F00F0004C02BF400010F4000F013AF9D040EA0C0093F0000F01F0004C02BF490011F4000F013BF9D041EA0C018FE70CEAD15334
:4054800092EA0C0F18BF93EA0C0F0AD030F0004C18BF31F0004CD8D180EA010000F00040704790F0000F17BF90F0004F084691F0000F91F0004F14D092EA0C0F01D14202EE
:4054C0000FD193EA0C0F03D14B0218BF084608D180EA010000F0004040F0FE4040F40000704740F0FE4040F4400070474FF0FF0C1CEAD0521EBF1CEAD15392EA0C0F93EAFB
:405500000C0F69D0A2EB030280EA010C49024FEA402037D04FF0805343EA111143EA10130CF000408B4238BF5B0042F17D024FF4000C8B4224BF5B1A40EA0C00B3EB510FBD
:4055400024BFA3EB510340EA5C00B3EB910F24BFA3EB910340EA9C00B3EBD10F24BFA3EBD10340EADC001B0118BF5FEA1C1CE0D1FD2A3FF650AF8B4240EBC25008BF20F0AD
:40558000010070470CF0004C4CEA50207F32C2BFD2F1FF0340EAC250704740F400004FF00003013A37E792F0000F00F0004C02BF400010F4000F013AF9D040EA0C0093F0EE
:4055C000000F01F0004C02BF490011F4000F013BF9D041EA0C0195E70CEAD15392EA0C0F08D142027FF47DAF93EA0C0F7FF470AF084676E793EA0C0F04D14B023FF44CAF5E
:4056000008466EE730F0004C18BF31F0004CCAD130F000427FF45CAF31F000437FF43CAF5FE700BF014B1868704700BFBC81FF1F0E4B70B51E460E4C0025E41AA410A5423E
:4056400004D056F8253098470135F8E72FF030FA084B094C1E46E41AA4100025A54204D056F8253098470135F8E770BDBC4A0300BC4A0300BC4A0300C44A030010B5431EC2
:405680000A44914204D011F8014B03F8014FF8E710BD03460244934202D003F8011BFAE770472DE9F0471E4688B0149F002BB8BF06F10043129927F02007B6BF1E46002367
:4056C0002D23462F1446109DDDF84CA00B7003D0452F03D1013501E0032300E002238DE8280406AB039307AB04932246334600F023FD472F804602D1119BDB0726D5462F16
:4057000008EB050911D198F80030302B0AD1204631460022002302F07BFA18B9C5F10105CAF80050DAF800309944204631460022002302F06DFA08B1CDF81C90079B4B45B2
:4057400004D25A1C079230221A70F7E74046079B159AC8EB0303136008B0BDE8F087034673B50029B8BF494203F8022BB4BF2D222B22092942701ADD0DF1070426460A2264
:4057800091FBF2F502FB1511092D01F1300104F8011D2946F3DC3031651E04F8011CB5421A460AD215F8012B03F8012BF7E71A463024214402F8024B5970101A02B070BD02
:4057C0002DE9F04F91B08B4615461E461A9F044601F06EFAD0F800A0504600F019FC00230E933B680990073323F0070303F108029BF818803A60D3E90023CBE91223DBE97E
:40580000120100F0B9FB0128DBE9120119D10022002302F007FA10B12D238BF84330A04BA04FB8F1470F88BF1F460323CBF81030DBF8003023F00403CBF800304FF0000982
:40584000A1E000F099FBDBF8003048B9964A974FB8F1470F88BF17460322CBF81020E9E7DBF80420DBE91201571CCDE90A0101D1062209E0B8F1670F02D0B8F1470F05D123
:40588000002A40F0C7810122CBF80420DBF8042043F480638DE80C00CBF800300DF1330302930DAB03930EAB059300230693CDF81080DDE90A232046FFF7F3FE08F0DF0324
:4058C000472B07460AD10D9BD81C03DBDBF80420934237DDA8F102085FFA88F8B8F1650F0D9915D8013942460BF150000D91FFF736FF0E9A81468318012ACBF8103003DC9A
:40590000DBF80020D10738D50133CBF8103034E0B8F1660F18D10029DBF8043009DDCBF810101BB9DBF80020D20721D501330B441CE01BB9DBF80020D00701D5023315E091
:40594000012313E04FF067080D9B0E9A934207DBDBF80020CBF81030D10709D5013305E0002BD4BFC3F1020301231344CBF810300D9B4FF00009CBF858309DF8333013B1AA
:405980002D238BF843300096204659460FAA2B4600F05CF9013002D14FF0FF3052E1DBF800305A0505D4204629463A46DBF8103008E1B8F1650F40F2D080DBE912010022CE
:4059C000002302F025F950B320462946384A0123B0470130E0D00E9B0D9A9A4209DBDBF80030D80705D4DBF800309F0700F1108107E1204629465246099BB0470130CBD06C
:405A000000270E9B013B9F42EDDA204629460BF11A020123B0470130BED00137F1E70D9B002B29DC20462946214A0123B0470130B2D00D9B2BB90E9B1BB9DBF80030D90709
:405A4000D1D5204629465246099BB0470130A3D04FF000080D9B20465B429845294608DA0BF11A020123B047013095D008F10108F0E73A460E9BA5E0DBF858200E9B9A4294
:405A8000A8BF1A46002A914602DC4FF000081CE0204629463A464B46B0470130F5D17BE75A49030056490300624903005E49030066490300204629460BF11A020123B0476D
:405AC00001303FF469AF08F10108DBF85830B9F1000FB4BF1A46C9EB03029045EADB07EB03080D9A0E9B9A4210DBDBF80030DA070CD40E9A1744C8EB07030D9FD21B9342E8
:405B0000A8BF1346002B1F4608DC0EE0204629465246099BB0470130EBD13DE7204629464246B04701303FF437AF4FF000080AE0204629460BF11A020123B04701303FF4EF
:405B40002BAF08F101080D9A0E9B002FA3EB0203A8BFDB1B9845EBDB45E70E9A012A01DCDB0736D5204629463A460123B04701303FF412AF204629465246099BB0470130A0
:405B80003FF40AAFDBE912010022002302F040F8E8B90E9B204629467A1C013B1DE0204629460BF11A020123B04701303FF4F4AE01370E9B013B9F42F1DB204629464B4687
:405BC0000BF15002B04701307FF40DAFE4E60027EFE7204629463A460123B0470130ECD1DAE6204629460BF119020123B04701303FF4D2AE0137DBF80C300F9A9B1A9F42AA
:405C0000EFDBDBF80C000F9B9842B8BF184619E00027F0E743F480638DE80C00CBF800300DF1330302930DAB03930EAB059300230693CDF810802046DDE90A23FFF731FDE7
:405C4000074640E611B0BDE8F08F00BF2DE9F84391461F468A680B6906469342B8BF1346C9F8003091F843200C46DDF8208012B10133C9F800302368990642BFD9F8003071
:405C80000233C9F80030256815F006051CD094F843302268003318BF012392061FD5E118302081F843005A1C94F845102244023382F8431013E03046394604F11902012312
:405CC000C047013007D00135E368D9F800209B1A9D42F0DBDBE74FF0FF30BDE8F8833046394604F14302C0470130F4D02268D9F80050E36802F00602042A08BF5D1B226961
:405D0000A3680CBF25EAE57500259342C4BF9B1AED184FF00009A9450ADA3046394604F11A020123C0470130D5D009F10109F2E70020BDE8F88300002DE9FF410C461746AA
:405D4000227E98466E2A06460A9B01F1430100F0B08012D8632A23D00AD8002A00F0BD80582A40F0CC8084F84520DFF804E257E0642A1ED0692A1CD0C1E0732A00F0B180F6
:405D800009D86F2A2ED0702A40F0B980226842F0200222603FE0752A24D0782A3BD0AEE01A6804F14205111D1960136884F84230A9E020681A6810F0800F02D0101D1860B4
:405DC00008E010F0400F02F10400186002D0B2F9003000E01368002B3EDA2D225B4284F8432039E020681A6810F0800F02D0101D186007E010F0400F02F10400186001D048
:405E0000138800E01368227EDFF864E16F2A0CBF08220A221CE07822DFF858E184F845202268186812F0800F00F104051D6003D1550601D5038800E00368D00744BF42F076
:405E4000200222601BB9226822F0200222601022002084F8430002E0DFF814E10A226568002DA8BF2068A560A4BF20F00400206003B965B10D46B3FBF2F002FB10331EF88F
:405E8000033005F8013D03460028F4D100E00D46082A0BD12368DA0708D5236962689A42DEBF302305F8013C05F1FF35491B21612EE025681A6815F0800F606903D0151DC9
:405EC0001D60136808E015F0400F02F104051D60136801D0188000E01860002323610D4616E01A68111D1960156800212846626800F0EAFE08B1401B6060636804E004F17A
:405F0000420584F8422001232361002384F84330CDF800803046214603AA3B46FFF796FE013002D14FF0FF301FE0304639462A462369C0470130F5D023689B0705D4E068FB
:405F4000039B9842B8BF18460FE00025E368039A9B1A9D42F3DA3046394604F119020123C0470130DED00135F0E704B0BDE8F081684903007949030031F0004310B51BD004
:405F80000F4AA1F58014944210D901F1FF410C4A01F5E001914209D9B3F5801F08D3094A934207D1B0FA80F0400910BD042010BD032010BD002010BD0028E6D1022010BD9D
:405FC000FFFFDF7F0000F07F0EB400B54FF402719CB0ADF814106FF00041049107914FF6FF711DABADF81610084953F8042B02900690086802A9019301F054FA029B0022DF
:406000001A701CB05DF804EB03B07047BC81FF1F034613F8012B002AFBD1181A013870472DE9F74F03690C698046A3427EDB013C01F114074FEA840E00F1140606EB0E0306
:4060400057F82450019356F824300135B3FBF5F507EB0E09BDB34FF0000A3846B446D34650F8043B9AB21B0C02FB05A26B4303EB124392B2C2EB0B0BBCF800204FEA134A06
:406080005A441FFA83FBDCF800304845CBEB134303EB224392B242EA03424FEA234B4CF8042BDDD956F80E306BB9019B043BB3421A4602D8C8F8104005E01268043B002AA4
:4060C000F8D1013CF3E7404601F01DF800282BDB304601354FF0000E57F8042B036891B2C1EB0E0E120C99B27144C2EB134303EB214389B24FEA234E4F4541EA034340F884
:40610000043BE9D956F8242006EB840362B9043BB3421A4602D8C8F8104005E01268043B002AF8D1013CF3E7284600E0002003B0BDE8F08F000000002DE9F04F456A95B085
:406140008246219CCDE9022345B9102000F0B4FDCAF82400456085600560C560DAF82430196859B15A68012393404A608B60504600F0EDFDDAF8243000221A60039BA24A3B
:40618000002BBDBF01232360039B0023BCBF23F000430393039FA8BF236027F000431B0D1B0593421DD142F20F73209A1360029B43B9964A964BC7F31300002814BF184615
:4061C000104600E09248229B002B00F06985C37813B100F1080300E0C31C229A136000F05FBDDDE90245002220462946002301F00FFD804658B1209A01231360229B002BA8
:4062000000F03C8583481860013800F049BD13AB009312AB0193504622462B4600F0EEFFC7F30A5607905EB1C5F3130343F07F51204641F44011A6F2FF36CDF844801DE07D
:40624000139B129E1E446FF482639E42A1BF029A06F2124322FA03F06F4BB7BF6F4B9B1B029A9B1BAABF9F4002FA03F03843FEF705FF0123A1F1F871013E11930022684B6A
:40628000FEF7BEFD5AA3D3E9002301F059FA5AA3D3E90023FEF7B6FD044630460D46FEF7FDFE57A3D3E9002301F04AFA02460B4620462946FEF7A6FD04460D4601F0DAFC0F
:4062C0002946834600222046002301F0ABFC58B15846FEF7E3FE02460B462046294601F097FC08B90BF1FF3BBBF1160F0DD84D4B03EBCB03D3E90001DDE9022301F0B0FC6E
:4063000030B10BF1FF3B002300E00123109300E01090129B9E1B731E0A9345BF5B420993002300234CBF0A930993BBF1000F07DB0A9BCDF834B05B440A9300230B9308E0D1
:40634000099BCBEB03030993CBF100030B9300230D931E9B092B29D8052BC4BF043B1E931E9BC8BF0025A3F10203D8BF0125032B21D8DFE803F0020E0410002300E0012389
:406380000C931F9B002B20DC0123069305931A4619E0002300E001230C931F9B5B4406930133012B0593B8BF012311E0012500231E930C9501E001230C934FF0FF3306932A
:4063C0000593002212231F9202E01F9B06930593DAF8244000226260042101F114029A4222D86268490001326260F6E7AFF3008061436F63A787D23FB3C8608B288AC63F3A
:40640000FB799F501344D33F0000F07F8A49030093490300674903000EFCFFFFEEFBFFFF0000F83FA04903005046616800F05AFCDAF8243020601B680893059B0E2B00F273
:406440004781002D00F04481DDE90223BBF1000FCDE90E2331DDB14A0BF00F034FEA2B1602EBC303F006D3E900450CD5DDE90E01AB4B06F00F06D3E9082301F08BFA03276D
:40648000CDE9020100E00227DFF8948276B1F10708D5D8E900232046294601F051F904460D460137761008F10808EFE7DDE9020122462B4601F06EFA1BE0CBF10004DCB1C0
:4064C000DDE90E01954B04F00F0203EBC203D3E9002301F035F9924D241102274CB1E20704D5D5E90023013701F02AF964100835F4E7CDE9020100E00227109BDBB1DDE9BD
:406500000245002220462946864B01F08BFB90B1059B83B1069B002B40F3D680294620460022814B01F00CF90BF1FF36CDE902010137069D01E05E46059D3846DDE90289F7
:40654000FEF7ACFD42464B4601F0FAF8774B0022FEF758FCCDE90201039BA3F150740394CDB9404649460022714BFEF749FC029A23468046894601F073FB002840F0408248
:4065800040464946029A04F1004301F04BFB002840F0308298E0614B0C996A1E03EBC203002947D0D3E900230020624901F0F2F9DDE90223FEF724FCCDE90201089C4946FB
:4065C000404601F057FB0746FEF768FD02460B4640464946FEF714FCDDE90223303704F8017B8046894601F01DFB002840F0378342464B4600204B49FEF702FCDDE9022353
:4066000001F010FB002840F0D080089BE31AAB425ADADDE902010022434B01F091F80022CDE90201404B4046494601F089F880468946C4E7D3E90001DDE9022301F080F8C4
:40664000089BCDE902015C191D464946404601F011FB0746FEF722FD02460B4640464946FEF7CEFB303705F8017BA5428046894623D100222F4BDDE90201FEF7C3FB024657
:406680000B464046494601F0EBFA002840F08D80DDE9022300202749FEF7B2FB02460B464046494601F0BEFA70B114F8013C621E302B40F0D4821446F7E700221A4B01F04A
:4066C0003FF880468946C0E7DDE90E23CDE90223139B002BC0F28A80BBF10E0F00F386800E4B03EBCB03D3E900671F9B002B23DA059B002B20DC40F07C81304600220C4B01
:40670000394601F01DF8DDE9022301F09FFA059D2E46002840F06F8174E100BFA0490300684A03000000F03F0000244000001C40000014400000E03F089CDDE9028932467D
:406740003B464046494601F025F901F093FA0546FEF7A4FC32463B4600F0F2FF0B46024649464046FEF74CFB05F1300E089B04F801EBC3EB040E059B9E452AD102460B46BC
:40678000FEF740FB32463B468046894601F068FA70B94046494632463B4601F039FA002800F05E82EB0703D45AE2B34600E01C4614F8012C631E392A07D1089A9342F6D102
:4067C0003023137013460BF1010B1A7801321A7046E20022A34B00F0B3FF002200238046894601F015FA0028A9D039E20C9A002A32D01E9A012A0ADC119A12B103F233432F
:4068000002E0129BC3F136030B9D099C18E0059B5D1E0B9BAB42B7BF0B9B5D1BEA1A0D9BBEBF0B959B180D93059BB8BF0025002BB9BF099B059A099C059BBCBF9C1A00237E
:40684000099A50461A4409920A9A01211A440A9200F01FFB064602E00B9D099C0C9E64B10A9B002B09DDA342A8BF2346099AE41AD21A09920A9AD31A0A930B9B002B20DD53
:406880000C9BC3B1002D10DD31462A46504600F099FB0646079A3146504600F003FB07460799504600F053FA07970B9B5A1B08D05046079902E0504607990B9A00F082FB09
:4068C00007905046012100F0E4FA0D9B0546002B0ADD29461A46504600F074FB1E9B0546012B04DD00271BE01E9B012B13DC029B8BB9039BC3F313037BB9039B23F0004734
:406900003F0D3F0557B1099B0127013309930A9B01330A9302E0002700E0029F0D9B43B12B6905EB8303186900F066FAC0F1200000E001200A9B184410F01F0008D0C0F131
:406940002003042B02DDC0F11C0002E008D018461C30099B0444034409930A9B03440A93099B002B05DD504607991A4600F078FB07900A9B002B05DD294650461A4600F015
:406980006FFB0546109BEBB10798294600F0BBFB002817DA0023504607990A2200F0EEF90C9B0BF1FF3B0790002B00F06B813146002350460A2200F0E1F9069B0646002BF9
:4069C00033DC68E1059B002B26DC1E9B022B23DD059B0693069B73B929460522504600F0CDF905460798294600F08DFB002809DC01E000252E461F9B089C6FEA030B08E09F
:406A0000B3462E46089B089A5C1C312313700BF1010BB14600260FE10C9B23B9059B0693089F079CC9E0059B0693002C05DD31465046224600F014FB0646AFB171685046BB
:406A400000F050F90446326906F10C01023292000C30FEF713FE50462146012200F000FB814602E000002440B146089F079C29462046FFF7D5FA3146099000F1300820465A
:406A800000F041FB4A4605902946504600F057FBC26803463AB919462046079300F033FB079B024600E0012250461946079200F04EF9079A92B91E9B83B9029B03F0010334
:406AC00063B9B8F1390F3B4607943ED0059B7C1C002BC4BF099B03F131083DE0059B002B04DA002AC446079408DC21E024D11E9B13BB029B03F00103F3B9F2E7214601220F
:406B000050460597CDF8088000F0AAFA2946079000F0F9FA0028DDF808C0059B03DC07D118F0010F04D0B8F1390F0ED008F1010C7C1C87F800C07FE0002A07F101020EDD36
:406B4000B8F1390F3B46079403D1392201371A7057E0144608F1010887F800806CE0089B1746D31A02F8018C069A93423AD021460A220023504600F001F94E4504463146BC
:406B800050464FF00A024FF0000304D100F0F6F8064681466BE700F0F1F8494606460A225046002300F0EAF8814660E7214650460A22002300F0E2F8044620462946FFF7F6
:406BC0002FFA089B00F1300807F8018B069AFB1A9342EBDB089BB146012AACBF9B1801331F46002621460122504600F039FA2946079000F088FA002803DC15D118F0010F63
:406C000012D03C4614F8013C621E392B09D1089B9A4204D10BF1010B3123089A02E01446F0E70133137007E03C4614F8013C621E302B01D11446F8E75046294600F087F8C1
:406C4000B9F1000F0CD02EB14E4503D05046314600F07DF85046494600F079F800E0B3465046079900F073F80023209A23700BF101031360229B1BB11C6001E00A480FE0CE
:406C800008980DE0069B002B3FF7CAAE1E9B022B3FF7A0AEC4E61E9B022B3FF79BAEC4E615B0BDE8F08F00BF66490300AFF3008000487047C081FF1F024B0146186800F0CC
:406CC00041BB00BFBC81FF1F10B5C9B202449042034605D01C7801308C42F8D1184610BD002010BD70B5456A04460E463DB91020FFF7E2FF6062456085600560C560656A80
:406D0000EB6843B1636ADB6853F8260078B1026843F8262017E020460421212200F0C0FA636AE860DB68002BECD1002070BD012101FA06F56A1D2046920000F0B1FA002821
:406D4000F3D04660856000230361C36070BD70B5446A06460D463CB91020FFF7ADFF7062446084600460C4603DB1736A6A68DB6853F82210296043F8225070BD2DE9F041CC
:406D800006460C460F69984601F1140E0023DEF80000013385B2010C02FB0585514301EB1541ADB24FEA1148BB4205EB01414EF8041BECDBB8F1000F1BD0A3689F4212DB35
:406DC000616830460131FFF78DFF0546226904F10C01023292000C30FEF750FC21463046FFF7B5FF2C4604EB87030137C3F8148027612046BDE8F081030C1B0413B900048A
:406E0000102300E0002310F07F4F04BF0002083310F0704F04BF0001043310F0404F04BF80000233002803DB420003D5581C70471846704720207047036813F007020BD0E4
:406E4000D90722D49A074BBF5B089B08036003604CBF01200220704799B209B91B0C102213F0FF0F04BF1B0A0832190704BF1B090432990704BF9B080232D90702D45B0897
:406E800005D00132036010467047002070472020704710B50C460121FFF724FF01224461026110BD2DE9F74F14460A69236988469A42BEBF0B46A0461C46D8F81070D4F8B1
:406EC0001090D8F80830D8F8041007EB09069E42C8BF0131FFF706FF00F114052B4605EB860C634503D2002243F8042BF9E704F1140208F1140102EB890301EB87070093EC
:406F0000009B01929A4257D2B2F800B0BBF1000F23D08946AE464FF0000859F8044BBEF800A0A3B20BFB03A34FEA144ADEF8004043444FEA14480BFB0A84F24604EB13443A
:406F40009BB243EA04434F454FEA14484AF8043B01D9D646E1E7CEF80480019B0432B3F802A0BAF1000F21D02C4689462B684FF00008B9F800E0B4F802B09BB20AFB0EBEAC
:406F8000A346F04443EA08434BF8043B59F8043BB4F804E01B0C0AFB03E3B94503EB18434FEA134801D25C46E3E763600435A7E75CF8043D13B9013E002EF9DC066103B027
:406FC000BDE8F08F12F003032DE9F04106460F46154607D0214A013B52F823200023FFF7CDFE0746AD1035D0746A3CB91020FFF763FE7062446084600460C460D6F8248076
:40700000D8F808407CB9304640F27121FFF741FF0023C8F808000446036004E06D1019D0206870B10446EB07F8D5394622463046FFF738FF804639463046FFF788FE4746B1
:40704000ECE7304621462246FFF72CFF002320600360E7E73846BDE8F08100BF904A03002DE9F0470C460746164623694FEA621A0AEB03094968A36809F101059D4202DDCF
:4070800001315B00FAE73846FFF72CFE804600F114010023534504DA002241F823200133F8E72AEAEA73206901EB830316F01F0204F1140101EB800E14D0C2F1200C0020B4
:4070C0000E689A469640304343F8040B51F8040B714520FA0CF0F3D3CAF8040048B109F1020506E0043B51F8042B714543F8042FF9D3013D3846C8F810502146FFF727FE12
:407100004046BDE8F08703690A6910B59B1A11D192001430143183180A4453F8044D52F8041D8C4202D007D3012010BD8342F4D8002010BD184610BD4FF0FF3010BD2DE905
:40714000F84307460C46084611461546FFF7DBFF061E08D138463146FFF7C4FD012303614661BDE8F883BCBF23462C4638466168BABF1D4601260026FFF7B4FD2B69C66046
:40718000266905F1140904F1140101EB860709EB830800F114054FF0000C51F8042B59F8044B93B29C44A3B2240CC3EB0C03C4EB124202EB23429BB24FEA224CC84543EAD4
:4071C00002428E4645F8042BE7D8BE450ED25EF8043B9AB262441B0C03EB224392B242EA03424FEA234C45F8042BEEE755F8043D0BB9013EFAE70661BDE8F8832DE9F34187
:407200001C4601211546089F099EFFF76BFDC4F31302C4F30A5480460CB142F480120192EDB102A840F8085DFFF706FE009B50B1019AC0F1200102FA01F10B43C240C8F81E
